:4000000000100020110000002F1D00002F1D000008B501F08DFE0000F8B572B680220021D2005B4804F082FE80225A48D200002104F07CFE0022141C5749FF25575824316E
:400040003E1C081C6300AE433D4001336419CB186100013141188B4206D0581E00781D78801905700233F6E70432242AE4D14B4A4B4BC8211A604B4A4B4B09041A604B4A5D
:400080004B4B3C201A60FF224A4B10251A609923494A1B041360494A494C1360494A1160494A022113608022484B92041A60484A13780B43474913700B7883432838034314
:4000C0000B701621137804300B4313708F22424B1A60424A424B1A60F022424B1A60424BE63A1A60414A424B1A60424B424A1D60424B1A600922424B1A60424B063A1A608B
:4001000080222368D2021343236003F07FFC22683D4B3E49134023603D4A3E4B1A6020223D4B1A603D4B02321D603D4B1A603D4B0E321A6011230B603B490A603B4A3C4926
:40014000136023223B4B1A603B4B023A1A6080233A4A1B061360002222600B6038490B6038490B603849394B19603949394B196039493A4B19603A493A4B19603A493B4BE2
:4001800019603B493B4B19603B4B1A60F8BDC04600300F4000400F40E04E00000000FFFF00000140303000000800014000EE03000C0001401000014000500F4020500F4077
:4001C00000010B4028500F4030500F4038500F4000700F4001700F400000044092942400080004401800044000020440B66D000008020440000304409E6D00000803044039
:400200000804044018040440FFFFFBFF280202400600008004010B40080202400C02024020020240240202402C0202403402024000000240380202403C02024008010B40F2
:40024000400002408000024017000080040002405F09008044000240F301008008000240DF0100C048000240CF07008000010240CF0700C0400102400C020B4010B5064CE5
:400280002378002B07D1054B002B02D0044800E000BF0123237010BDE8000020000000003C4D000008B5084B002B03D00748084900E000BF07480368002B00D108BD064B3A
:4002C000002BFBD09847F9E7000000003C4D0000EC000020C80000200000000008B5022003F048FA0E2000F03FF92020802100F07DF98021212000F079F9084B1878C0B282
:4003000000F042FD0821072000F06CFD03F0EAF9002003F0F5F903F01FFA08BDCC0000200849094A0B78002B02D000230B7006E05188064B994203D0538801339BB25380A2
:400340007047C04604010020CC000020FFFF000070B500F03DFA032000F03AF97A4C207003F018F903F056FA21780020C9B200F039FD002003F03AFA642003F027FB2378AD
:40038000022B03D0FA20800003F020FB012002F087FC03F00FF903F06DF96C490F2003F0C3FAC0206A4A6B4B6B4953600B6A00061B021B0A03430B62002393600733136033
:4003C000664803F0EDF903F063F903F0C5F9322003F0FCFA02F0D8FB802002F0AFFB02F02FFC802002F006FC2078C0B200F010FC2078C0B200F062FC2078C0B200F0A2FC93
:400400002078C0B200F0C0FC02F028FC62B60120011C00F0E7FC2378002B01D100F0CEFE2378022B04D923780E2B01D801F0F2F82378022B06D101F05BF900F0A3FD01F0E1
:4004400077FB7DE003F0DEF9454D012825D16E78002E73D16870163000F0BAF8012805D0022809D06E7000F0CFFC67E0301C03F0B1F903F09FFA61E0301C03F0ABF916206A
:400480005C2100F0B3F89B21152000F0AFF8354803F09CFA00F0B4FD50E000F0B5FC6B78002B4BD000F0B2FD002847D0002350206B7000F08DF8011C502000F097F85120BD
:4004C00000F086F8011C512000F090F8522000F07FF8011C522000F089F8532000F078F8011C532000F082F8542000F071F8011C542000F07BF8552000F06AF8011C5520C8
:4005000000F074F8702000F063F8011C702000F06DF8712000F05CF8011C712000F066F8722000F055F8011C722000F05FF8762000F04EF8011C762000F058F801F040F903
:4005400001F005FB67E7C046CC0000202103000010E000E0BF5D000000ED00E0DD02000004010020DC050000F0B5174B9F7D5E7D42B2002A00DA0F20144C011C225CA4467E
:4005800055070DD55C2F07D1585C0130585401231A4363465A5415E010209B2EE8D1F3E7950709D510209B2EE2D1585C0130585401231A43625405E0195C013119540123A5
:4005C0001A432254F0BDC046060100208601002008B543B2002B04DA0F20FFF7C5FF002001E0014B185C08BD0601002043B270B5002B01DA0F2016E00F4C104A235C251C9C
:400600005E070AD5947D5C2C02D0547D9B2C09D11154012213432B540CE09D0706D5557D9B2D03D01020FFF79FFF03E0115401221343235470BDC046860100200601002067
:4006400008B520208021FFF7D1FF21208021FFF7CDFF22208021FFF7C9FF23208021FFF7C5FF24208021FFF7C1FF25208021FFF7BDFF26208021FFF7B9FF27208021FFF78D
:40068000B5FF28208021FFF7B1FF29208021FFF7ADFF2A208021FFF7A9FF2B208021FFF7A5FF2C208021FFF7A1FF2D208021FFF79DFF2E208021FFF799FF2F208021FFF7F6
:4006C00095FF30208021FFF791FF31208021FFF78DFF32208021FFF789FF33208021FFF785FF34208021FFF781FF35208021FFF77DFF36208021FFF779FF37208021FFF776
:4007000075FF38208021FFF771FF39208021FFF76DFF3A208021FFF769FF3B208021FFF765FF3C208021FFF761FF3D208021FFF75DFF3E208021FFF759FF3F208021FFF7F5
:4007400055FF40208021FFF751FF41208021FFF74DFF08BD10B51D4C9B22211C743162750A70221C5C237532002003211370A375FFF73CFFA9210120FFF738FF02F014FF26
:400780000F214840C1B20320FFF730FF76200021FFF72CFF7A200121FFF728FF79204A21FFF724FF0A200021FFF720FF02201021FFF71CFF71200A21FFF718FF0723A37727
:4007C000063B73342370FFF73BFF10BD06010020002208B50021204BD154204BD1540132802AF7D1181C02317C300170181C7C3A50300270181C51300270181C52300270E6
:40080000181C53300270181C54300270181C55300270181C76300270181C70300270181C71300270181C197059709970D9709972D9725A759A74DA741A7574301976597677
:400840009976D976197759779977733302701A70FFF780FF08BDC046060100208601002008B543B2002B04DA0F20FFF77DFE002003E0024B185C0123184008BD86010020F3
:4008800008B543B2002B03DA0F20FFF76DFE04E00121024A135C8B43135408BD86010020031C00202F2B11D9392B02D8181C303806E0602B04D9662B04D8181C573801E0D0
:4008C000402B03D9462B01D8373B181C70472423002808DB031E092B01DC303303E037330F2800DD2423D8B2704700232F280FD9392282425B41602802D9662806D901E06C
:40090000402805D9462803D8012301E00123F9E7181C704710B5022823D101F085FA02F0D3F81820FFF754FE041C1920FFF750FE2402204380B21A2102F0CEF802F0BAF8B5
:4009400027480A2101F0E8FD0A21264801F002FE254801F059FB254B1878553001F0D0FD18E0012819D101F05FFA02F0ADF81820FFF72EFE041C1920FFF72AFE2402204342
:4009800080B21A2102F0A8F802F094F81648243001F00EFF01F03AFA1FE0012303281DD101F042FA02F090F81820FFF711FE041C1920FFF70DFE240220431A2180B202F083
:4009C0008BF802F077F80A48143001F0FFFD01F01DFA0B2002F0D0FF62B60023181C10BD5902002043020020404D0000CC000020C04D000010B502F093F902F05DFD1B2030
:400A0000FFF7E6FD041C1C20FFF7E2FD2402204380B21D2102F058FD02F044FD0E480A2102F0E0FC0A210D4802F0FAFC0C48683002F030FA0220FFF7CBFD02F0C7FC02F0F3
:400A40000FFD02F013FD02F099FC02F0ABFC02F059F9002010BDC046630200204E020020C04D000010B502F05BF902F025FD1B20FFF7AEFD041C1C20FFF7AAFD2402204392
:400A800080B21D2102F020FD02F00CFD0A480A2102F0A8FC0A21094802F0C2FC08480C3002F0F8F902F0F2FA02F004FB02F02CFB02F028F9002010BD630200204E02002031
:400AC000404E0000F0B585B06B460122197069460023071C002402F06DFB02F0FFFA1D4D830704D4AC4204D00134A4B2F5E7AC4204D10C20FFF738FDFFF7B4FF01AE381C18
:400B0000311C0122002302F0C1FB02F0E7FAC30704D4AC4204D00134A4B2F6E7AC4204D10C20FFF721FDFFF79DFF02F0D7FA830501D5002404E002F0A3FA0028F9D03478EB
:400B400002F0E2FA02F0A2FA02F0B4FA201C05B0F0BDC04650C300001FB501AB19705A70191C0222002302F025FB002402F0B6FA0E4B820704D49C4204D00134A4B2F5E7C8
:400B80009C4204D10C20FFF7EFFCFFF76BFF02F0BBFA830502D50C20FFF7E6FC02F076FA02F088FA002004B010BDC04650C300001FB501AC21706270A370211C03220023FF
:400BC00002F0F8FAC1B20D20FFF710FD002402F085FA0E4B820704D49C4204D00134A4B2F5E79C4204D10C20FFF7BEFCFFF73AFF02F08AFA830502D50C20FFF7B5FC02F0AE
:400C000045FA02F057FA002004B010BD50C30000F7B5051C1620FFF7DBFC071C1520FFF7D7FC5C2101901620FFF7E0FC15209B21FFF7DCFC002D1AD11E20FFF7C9FC07247C
:400C40001D4E204040003018018E1820090AFFF7CDFC1E20FFF7BCFC044064003619318E1920C9B2FFF7C2FC1A20291C0BE0012D0CD118200021FFF7B9FC19200121FFF7B4
:400C8000B5FC1A200021FFF7B1FC02E0033D0B2DEFD91820FFF7F4FD1920FFF7F1FD1A20FFF7EEFD391C1620FFF7A0FC15200199FFF79CFCF7BDC046404E000070B5061C03
:400CC0001620FFF785FC051C1520FFF781FC5C21041C1620FFF78AFC15209B21FFF786FC1B200021022E04D1FFF780FC1C2001210DE0FFF77BFC7320FFF76AFC03231840CE
:400D000043000F480230C018C18F1C20C9B2FFF76DFC00211D20FFF769FC1B20FFF7B0FD1C20FFF7ADFD1D20FFF7AAFD291C1620FFF75CFC1520211CFFF758FC70BDC046A4
:400D4000404E000008B5002803D10130FFF7E2FD14E0012809D10230FFF7DCFD01F06CFA07490B2002F0E8FD08E003380B2805D80220FFF7CFFD034801F07EF808BDC046F1
:400D8000AD1000001516000008B5022802D1FFF731FE01E0FFF766FE014801F0E9FF08BDF1160000072310B50D495A5C002A14D00B7A934213D00024231C0A72934204DA6B
:400DC0000121A4000C435B18F8E702F0AFFB201C02F0D8FB02F0C8FB01E0013BE4D210BD0602002008B5024B1954FFF7DBFF08BD06020020002208B5024B1A54FFF7D2FFDD
:400E000008BDC04606020020F7B55B4D2C78042C00D9AEE0201C03F067FE031E335E7A00502301206B7002F0D5FC0A200021FFF7DDFB79204A21FFF7D9FB7A200221FFF7A4
:400E4000D5FB7C200021FFF7D1FB7E200121FFF7CDFB01248DE00A20FFF786FB79204A21FFF7C4FB7A200221FFF7C0FB7C200021FFF7BCFB7E200121FFF7B8FB022478E0FA
:400E80007C20FFF7A5FB01244A2816D169783130FFF7ACFB211C7D20FFF7A8FB69780B20FFF7A4FB0A200021FFF7A0FB6B7803345E2B02D801336B70033C0A20FFF788FB45
:400EC000C82804D915200021FFF790FB04240A2002F07CFD4DE07120FFF77AFB041E0BD0264B71201E88FFF773FBB6B280B2042486423ED203243CE07220FFF769FB00286E
:400F0000F8D0211C7220FFF771FB042431E02020FFF75EFB01F012FE2120FFF759FB01F069FE50260B20FFF753FB864219DCF7B23C1C503C6400E4B2201C2230C0B2FFF7ED
:400F400047FB23340190E0B2FFF742FB2021031C019A381CFFF72CFE642002F04DFD0136E0E70122064B1A70044B1B88002BFBD1C0E72C70F7BDC0460F020020CE00002052
:400F80000401002038B51D4B9C781D1C032C32D8201C03F0A9FD2F020C1A02F033FC012829D101304A21FFF721FB022423E00220FFF70EFB4A281ED0012002F00BFC15201A
:400FC0000021FFF713FB032415E002F01BFC002805D1643002F0FAFC02F0ECFC0BE02020FFF7F6FA01F0AAFD2120FFF7F1FA01F001FE00E00124AC7038BDC0460F0200204B
:401000000022014B1A7070470F02002001220020034B1B78033BDBB29A424041C0B270470F02002073B501F0E5F8002839D001F0E1F81C4C051E1C4E09D0257801F094F950
:4010400023787055082BF2D801332370EFE7307843B2002B0EDA7F231840607001F024F96078FFF7B5FA6B46D871D879C0B201F0BDF90CE02378012B0CD0022B04D16070AC
:401080007178FFF7B3FA02E00620FFF76DFA01F0D3F8257001F006FD01235840C0B201F0F5FC73BD120200206D02002038B52F4B1B78002B02D001222D4B1A602D4B1B68F0
:4010C000002B25D02C4B1B685B0721D52B4B1B681B071AD02A4B2B4D19682B4B2C681B6801341B1B5A1E93415B421C40274B1B689C4203D12022264B1A7003E0201C01F0DA
:4011000001F92C60FFF78EFFE0E70422214B1A60214B1B68002B27D0204B1B689B0723D51F4B1A680F231340082B1AD01D4B1E4D1A682B689A420FD01C4B2C681B68013456
:401140001B1B5A1E93415B421C40201C01F092F9174B18602C60E3E70221164A13688B4313600222144B1A6038BDC04685020020C00E074078020020CC0F0740080307400B
:4011800040030740A00200208002002098020020A8020020C00F0740900200208C0F0740080207409C020020A40200208C02002040020740880F0740800F0740F7B501F0B6
:4011C0002FFCC6B2051CC84C002E16D0012002F0FBFAA378E21C122B03D8D6540133A37005E0D318013BC1481E7001F02DFCE8B201F0FCF8002002F0E7FAA378E51CEB180B
:40120000013B1E780A2E00D0FBE1012002F0DCFAE378452B00D19BE109D80D2B00D1E6E1422B00D19CE10A2B00D0DDE1DFE1522B00D1E7E002D84D2B07D0D5E1552B00D1C3
:4012400007E1572B00D1ABE0CEE1AB780226462B07D000260122523BDBB29A42764103239E1BE31C9B5D462B03D0523B012B00D9C3E19F4B9B19013B1878FFF711FB051C93
:4012800087B2032E07D19A4B5878FFF709FB0A2358434719BFB2751CEDB263191B790A2B01D00D2B04D1012301930023009304E0F31C9D42F7D00135EEE7E31CB54210D069
:4012C000585DFFF7EDFA019B019A5843009B013DC01883B200930A2353439BB2EDB20193EBE75B5D3DB2532B3DD10B20FFF770F94E384000C0B2854200DB80E1002F07D1FD
:401300001220FFF765F901214840C1B2122068E1012D06D11320FFF75BF94540E9B213205FE1092D04DC5020FFF752F9023D14E0112D04DC5020FFF74BF90A3D0DE0192D3E
:4013400004DC5020FFF744F9123D06E0212D00DD4DE15020FFF73CF91A3D0123AB405840C1B250203DE10126462B00D0614E0B20FFF72EF94E384000C0B2854200DB3EE16A
:401380006B460020185E7F236421584303F0B6FB4643311C2037FFB28039C9B2381C20E16878FFF7A2FA002800D126E1A878FFF79CFA002800D120E1E878FFF796FA0028F3
:4013C00000D11AE1E079FFF790FA002800D114E12079FFF765FA071C6079FFF761FA051CA079FFF75DFA0090E079FFF759FA031C009A3801110105431943E8B2C9B2FFF7B3
:40140000F5F824E06878FFF770FA002800D1F4E0A878FFF76AFA002800D1EEE06878FFF73FFA061CA878FFF73BFA36013043C0B2FFF7CEF8051C0009C0B2FFF748FA00F055
:40144000D5FF0F202840FFF742FA00F0CFFF2A48CBE06878FFF749FA002800D1CDE01620FFF7B6F8071C1520FFF7B2F85C21061C1620FFF7BBF815209B21FFF7B7F868786F
:40148000313807284FD803F02FFB040A10161C2228471A4801F0D8FA1E20002141E0184801F0D2FA1E2001213BE0164801F0CCFA1E20022135E0144801F0C6FA1E20032138
:4014C0002FE0124801F0C0FA1E20042129E0104801F0BAFA1E20052123E00E4801F0B4FA1E2006211DE0C04612020020884E000015020020FFFF0000C94E00008E4E000079
:40150000954E00009C4E0000A34E0000AB4E0000B34E0000BB4E00003A4801F095FA1E200721FFF763F8391C1620FFF75FF8311C1520FFF75BF8C820400002F047FA032010
:40154000FFF746F8FFF764FB0120FFF7E3F94EE07020FFF73DF801214840C1B2702040E06878FFF7C2F900280ED0A878FFF7BDF9002809D0A878FFF793F9071C6878FFF73A
:401580008FF94643F01907E02079FFF7AEF9002833D02079FFF784F980B205B2002809D11430FFF715F801214840C1B21420FFF71DF801E0082D09DC5420FFF709F80123A5
:4015C000013DAB405840C1B254200AE0102D14DC5520FEF7FDFF0123093DAB405840C1B25520FFF703F802E0074801F02DFA0020A070E07002F0E8F803E00448F5E704480E
:40160000F3E7F7BDC34E0000CC4E0000D24E0000D84E000010B501F0F3FF002001F0FEFF02F028F800F03EFFC3063DD5012002F0CBF87620FEF7CCFF002809D002F052F872
:40164000002002F05DF802F087F80720FFF7D2FB00F09AFF234C022806D1234B1878E0755978FEF7C3FF0EE000F08EFF012803D11D4B1B78E37506E000F086FF022802D9B9
:401680000620FEF771FF00F027FF030602D50520FEF76AFF00F084FFE07DFEF799FF134B1870002002F090F800F0FCFEC30708D500F070FF00F0FCFE030702D50420FEF775
:4016C00053FF01F0B1FF041EFF2C00D9FF240920FEF77EFF844203D9E1B20920FEF786FF10BDC04612020020430200205902002038B501F03DFE2F4CC30640D501F038FEBB
:4017000020231840051E3AD1012002F05DF87620FEF75EFF002809D001F0E4FF281C01F0EFFF02F019F80720FFF764FB01F092FE022812D0032805D0012814D11E4B1B7882
:40174000237610E01C4D287820766978FEF74EFF207EA9780130C0B203E0174B187820765978FEF743FF01F01DFE030602D50820FEF7FAFE01F07AFE002002F025F8207E12
:40178000FEF726FF0D4B0124187001F0F1FD20420ED001F087F96040C0B201F077F901F05FFE01F0EBFD030702D50720FEF7DCFE38BDC046120200204E02002063020020E5
:4017C000F7B57D20FFF74CF8002816D07920FEF7FFFE051C7A20FEF7FBFE041C7B20FEF7F7FE211C021C281CFFF7B6F97D200021FEF7FCFE7D20FFF743F87E20FFF730F804
:40180000002815D07920FEF7E3FE041C7A20FEF7DFFE011C201CFFF755F9011C7C20FEF7E5FE7E200021FEF7E1FE7E20FFF728F80B20FEF7CDFE0025A84202D04F38400098
:4018400085B25020FFF70CF800281BD000242BB29C4211DA0127231C3B40123350200193FEF7B6FE021C224166105036F6B23A40301C0199FFF770F90134082CE7D15020A1
:40188000FEF7FEFF5120FEF7EBFF00281CD000242BB2083B9C4211DA0127231C3B40123351200193FEF794FE021C224166105436F6B23A40301C0199FFF74EF90134082CE3
:4018C000E6D15120FEF7DCFF5220FEF7C9FF00281CD000242BB2103B9C4211DA0127231C3B40123352200193FEF772FE021C224166105836F6B23A40301C0199FFF72CF95E
:401900000134082CE6D15220FEF7BAFF5320FEF7A7FF00281CD000242BB2183B9C4211DA0127231C3B40123353200193FEF750FE021C224166105C36F6B23A40301C019926
:40194000FFF70AF90134082CE6D15320FEF798FF5420FEF785FF002825D00B20FEF738FE4F2803D85420FEF78BFF1CE00B20FEF72FFE5728F6D80024251C0B205035EDB260
:40198000FEF726FE8542EDD85420FEF721FE021C01232241281C1A4014210134FFF7DCF8092CE9D1DEE75520FEF75AFF002825D00B20FEF70DFE4F2803D85520FEF760FFA9
:4019C0001CE00B20FEF704FE5F28F6D80024251C0B205835EDB2FEF7FBFD8542EDD85520FEF7F6FD021C01232241281C1A4014210134FFF7B1F8092CE9D1DEE77420FEF759
:401A00002FFF00282CD07420FEF7E2FD011C1520FEF7ECFD0B20FEF7DBFD4F2803D87420FEF72EFF1CE00B20FEF7D2FD5F28F6D80024251C0B205035EDB2FEF7C9FD854246
:401A4000EDD87420FEF7C4FD021C01232241281C1A4015210134FFF77FF8092CE9D1DEE77520FEF7FDFE00282CD07520FEF7B0FD011C1620FEF7BAFD0B20FEF7A9FD4F286C
:401A800003D87520FEF7FCFE1CE00B20FEF7A0FD5F28F6D80024251C0B205035EDB2FEF797FD8542EDD87520FEF792FD021C01232241281C1A4016210134FFF74DF8092CB8
:401AC000E9D1DEE77320FEF7CBFE00282DD01620FEF77EFD051C1520FEF77AFD5C21041C1620FEF783FD15209B21FEF77FFD00211B20FEF77BFD7320FEF76AFD03231840A9
:401B00000A4B4000195C1C20FEF770FD1D200021FEF76CFD1620291CFEF768FD1520211CFEF764FD7320FEF7ABFEF7BD804E000008B50220FEF794FE002807D00220FEF775
:401B400047FD01F043FC0220FEF79AFE08BD38B51220FEF785FE002821D01420FEF738FD012808D11130FEF733FD012801D1063010E004200EE01220FEF72AFD041E012C37
:401B800004D101F057FE2043C0B203E001F052FE0623184001F048FE1220FEF771FE1320FEF75EFE002818D01420FEF711FD012810D01320FEF70CFD012805D101F03AFE96
:401BC00002231843C0B203E001F034FE0523184001F02AFE1320FEF753FE1420FEF740FE00281ED01420FEF7F3FC012808D11130FEF7EEFC012801D106300DE004200BE0F7
:401C00001220FEF7E5FC041C1320FEF7E1FC0123184098402340184301F006FE1420FEF72FFE7620FEF71CFE00282FD07620FEF7CFFC051C0320FEF7CBFC02280CD1002DC4
:401C40001FD001F04FFD002001F05AFD281C01F05DFD01F081FD16E00B20FEF7B9FC4F28EDD950240B20FEF7B3FC8442E7DCE0B276212A1CFEF770FF642001F0BDFE0134C6
:401C8000F0E701F02FFD7620FEF7FAFD7020FEF7E7FD002830D07020FEF79AFC0124204000F0E6FF7020FEF793FC204000F0ECFF0320FEF78DFC022803D17020FEF7E0FD58
:401CC0001AE00B20FEF784FC4F28F6D950240B20FEF77EFC8442F0DC7020FEF779FC0123021CE1B21A40081C7021FEF735FF642001F082FE0134EAE71D20FEF7B1FD00285A
:401D000007D00320FEF764FCFFF73EF81D20FEF7B7FD1A20FEF7A4FD002807D00320FEF757FCFFF70FF81A20FEF7AAFD38BDFEE770B51049104B01394A1C15D000221E6855
:401D40005C689D68A018AA4203D0B058A0500432F8E7021CDC68151AA54202D0002520C2F9E710330139E7E702F0BAFFFEF7F0FAFEE7C046010000001851000008B50023DB
:401D80009A000B49032B01D80A4989580A4801338150302BF4D1FEF73FF90022074B01211A608022D20513680B43136008BDC0462F1D00000000000000000020C00000207A
:401DC000034B1B78FF2B02D10022024B1A707047D00000202C02002008B5094B1B78FF2B0CD08021074A090613680B431360064B1B78002B02D00B2001F0BEFD08BDC046AD
:401E0000D0000020000007408602002010B5054C2378002B03D1FFF7D3FF01232370FFF7DBFF10BD2C02002008B50B2001F0AEFD0D4A0B2013685B005B08136001F0B0FD59
:401E40000A4B1B78012B02D100F0C4F90BE0082B02D100F005FE06E0042B04D1044A054B11680B40136008BD00000740D000002048000740FFDFFFFF014B58607047C04603
:401E80002C0200200023F0B591B0002602AC09AD1E515E5104331C2BF7D1012801D0082807D10E23029303930A3B09936B6000262DE0022815D10F23012402930393049377
:401EC0000622002906D12C606A60AC600593EC60061C1CE02A606C60AA600593EA600D2615E0012904D109230393053B6B600EE001231A4202D009212B600291022300264D
:401F00001A4204D009221E1C0392033A6A60029A294F11043B68294A294C13400B433B60099BD8B201F098FC1022F30702D52368134301E0236893432360039A3B681105CE
:401F40000192204A13400B433B60287901F090FC2022B30702D52368134301E0236893432360049A3B6811060192174A13400B433B60287A01F064FC4022730702D52368D8
:401F8000134301E02368934323603B68059A1B0112071B0913433B60E868C0B201F074FC8022330702D52368134301E023689343236011B0F0BDC04600000140FFFFF0FF5C
:401FC00018000440FFFF0FFFFFFFFFF080200A4B40001A6802420AD0084A1268520406D41A680749114019601A6802431A600222044B1A607047C046000007406000074046
:40200000FFFEFFFF6C000740F8B5002800D1A0E00021041C0A1C0120FFF734FF01230C204C4A217F13704C4A4C4D11704C4A217E13704C4A267811704B4A2E701168014305
:4020400011602068111C984204D0C820678C4000874205D80B68454A13430B60002303E01068434901401160A269E169002A01D0802252028027481E81413F010902381C98
:402080000A433C490A600F21226892071043A268013A0A401043071CFF206268013A12010240111C3A1C0A4333490A603349002B01D10B1C00E0324B324A13600023324A7F
:4020C0001360F20709D56369FF221804FF231B04184023695B001340034300242B4A0B2013602B4B19602B4B1C6001F04FFC0B20022101F029FC28490B2001F01DFC0122F3
:40210000264B1C60264B1C60264B1C60264B1C6029780A40A24201D04C22FF32234B1A6002230B4001D01423FF33214A13601022204B1A700023204A1370204A1360204ABE
:402140001360204A1370204A1380204A1360204A1360F8BDD0000020850200208702002086020020890200207000074000000202FFFFFDFD000007406000074007010080D7
:40218000070300800003074004030740100307400002074004020740493B0000C80E0740880E0740C80F0740880F0740480F0740080F074094020020D8020020E4020020E1
:4021C000E0020020E8020020C0020020AC020020C8020020002208B5044B0B201A6001F0DFFB1022024B1A7008BDC046880F0740940200200B4B1B68002B0ED00A4B18687C
:402200000A4B1A68904202D31B68C01A09E01A68074B1B68C018801A03E0064B18680F231840704778020020A00200209802002080020020080307408021124B70B518686F
:402240004902114B114A002814D000251048066805601C682143196019680A401A600D4B1A680D4B1A600D4B0D4A1D700D4B1A60066005E018680143196019680A401A60D3
:4022800070BDC0467802002004030740FFFFFEFFC80F074098020020A0020020A8020020ED0F0000C00F07408021104B30B5186849020F4B0F4A002811D000250E48046843
:4022C00005601D682943196019680A401A600B4B1A680B4B1A6002239C43046005E018680143196019680A401A6030BD9002002004020740FFFFFEFF880F0740A4020020C8
:402300009C02002010B50A4BCCB21A78094B082A03D11B681818047009E01A684000121814701B68013089B21818090A017010BD8A02002078020020094B1A78094B082AB9
:4023400004D11B6818180078C0B208E019684300CA180133CB18127818780002104370478A0200207802002038B50E4B1B68002B14D00D4B0D4D1A682B6800209A420FD060
:402380000B4B2C681B6801341B1B5A1E93415B421C40201CFFF7D0FF2C6001E0054B186838BDC04678020020A002002098020020800200204003074010B50A4BCCB21A785B
:4023C000094B082A03D11B681818047009E01A684000121814701B68013089B21818090A017010BD8802002090020020194B70B51B68002B24D0184D184B2C681B680134F8
:402400001B1B5A1E93415B421C40154B1A689442FBD02A681B689A4205D1124B1A680F231340082B12D102260F4B011C1E60201CFFF7C2FF0D4A2C6013683343136007E01F
:40244000084B1A680F231340082BF9D0084B186070BDC046900200209C0200208C020020A402002008020740800F0740880F074040020740094B1A78094B082A04D11B68D2
:4024800018180078C0B208E019684300CA180133CB18127818780002104370478802002090020020014B1878C0B27047D802002010B50B2001F06AFA0D21064B18781A78F6
:4024C000C4B28A430B201A7001F056FA0F20204010BDC046D802002010B50B2001F056FA2F22064B0B201C781978E4B20A401A7001F042FA0F23201C984310BDD80200207D
:40250000FF22044940000B6810409343184308607047C0461003074038B5002810D0041C0D1C0B2001F032FA064B074A1C60074B0B201D6000231360054A136001F01CFA7D
:4025400038BDC046CC020020E4020020EC020020D402002038B500280ED0041C0D1C0B2001F014FA0022054B0B201C60044B1D60044B1A6001F000FA38BDC046D00200207C
:40258000DC020020E0020020014B18687047C046E00200200022014B1A607047E40200200022014B1A607047E00200200549064B0A6880061340C022120510401843086054
:4025C0007047C04620000740FFFFFFF338B5002800D1B2E0041C002202202168FFF752FC0222564BE16B1A70554AA36955481370554A1170554A216B1160554A217F11703C
:40260000FF22E16A114001605249A06B08605249206A0870616B0A4050490A60E268511E0F220A40002B01D080235B00802149040A4313434A4A1360A56A60686B1E9D41B4
:402640001023034000D00223A26891000C220A4061692A43002900D01021C0250006AD04284002431A4311432268002A01D0802212063C4B0A431A60E369626A591E0F2333
:402680001940002A01D08022520080231B0619432369002B01D080239B000A431343324A13600723626C1340304A1360236A5A1E0F231A40636A002B01D080235B00802129
:4026C00009060A4313432A4A002513600723E26C0B201340274A136001F058F90B20022101F032F924490B2001F026F9234B281C1D60234B1D608023226C1B011340214AC9
:4027000013608023A26C9B0013401F4A1360226C1E4B13401E4A1360A26C1E4B13401E4A1360FFF743FF1D4B1D601D4B1D601D4B1D701D4B1D601D4B1D6038BDD00000203B
:40274000850200208002002086020020780200208A02002090020020880200208C0200200000074020000740000307400403074000020740040207408D420000880E074090
:40278000C80E0740480F0740080F0740FFF7FFFFC80F0740FFFDFFFF880F0740A002002098020020A80200209C020020A402002038B5002800D1F4E0041C042021686268FB
:4027C000FFF760FB0420774B226B1870764B616B1A70764B626D764D1A70764BA26B1A60227A754B1A70FF23194029607349256C0D6073490A70E26B25681340714A7249D4
:402800001360022D22D1A3691022002B1CD063690022102B18D00132202B15D02A1C302B12D00132602B0FD0021CC02B0CD0C02001328000834207D0C020C0001B1A5D4292
:402840005D4101326B421A400A6004E063695A1E0F2313400B60A26C0B68002A02D18022920400E0594A13430B6023681A06C0239B041340564A13602369606A5A1E072379
:402880001A40002800D040200243606C002801D08020C000A16A0243002901D080214900E36A0A43002B01D080239B001A43494B1A60E068022806D01A683021002800D175
:4028C00010390A431A60A368591E0F230B40E169002901D080218900012219436368134001D080231B063C4A0B4313600723E26D3A491A400A60226D1104FF2212040A40FD
:40290000E16CC9B20A4336490A602269013A1340226A002A01D0802252001343314A1360E068131C022806D012683021002800D110390A431A60A36861685A1E0F231A409E
:402940000D3B0B4001D080231B061343264A0B2013600723626E1340244A136001F016F80B20022100F0F0FF21490B2000F0E4FF0023204A1360204A1360204A1360204AE5
:402980001360A16D1F4A1160216E1F4A11601F4A13601F4A13601F4A13701F4A13601F4A136038BDD0000020850200208602002080020020780200208A0200209002002029
:4029C000880200208C020020000007400000010240000740480007400003074004030740100307404400074000020740040207408D420000880E0740C80E0740480F0740A5
:402A0000080F0740C80F0740880F0740A002002098020020A80200209C020020A402002008B5FFF7E7FB031C0020834201D0FFF79BFCD822034B92001968114201D00020DC
:402A40001A6008BDC00F074010B5041C0134631E1878002802D0FFF7C9FCF7E710BD0000002208B5064B0B201A6000F099FF054B1B78002B00D00223034A137008BDC0467B
:402A8000880F074084020020FC0200201023044900010A689A43D2B2034013430B60704700030440024B1868C006C00F7047C046040304408021034A090613680B4313607B
:402AC0007047C04600000240024A13685B005B081360704700000240034A13681B0C1B04184310607047C0460000024080220C4BD2041A601A680B491A6000220A60196868
:402B000019600C21084B1960084B1A60084B31321A60084BCF321A60074B803A1A607047C0010540C8010540E4010540F8010540E8010540D4010540CC010540014B80B2C7
:402B400018607047CC01054038B50D1C041CAC4000F0E0FE024B1C6000F0E0FE38BDC0460800054010B5082400F0D4FE054A13682343136000F0D2FE201C1821FFF7E4FFE1
:402B800010BDC0460000054010B5054C2378002B03D1FFF7ABFF01232370FFF7E3FF10BD3402002080220C4BD2041A601A680B491A6000220A60196819600C21084B1960E3
:402BC000084B1A60084B31321A60084BCF321A60074B803A1A6070474001054048010540640105407801054068010540540105404C010540014B80B2186070474C01054038
:402C000038B50D1C041CAC4000F084FE024B1C6000F084FE38BDC0460800054010B5022400F078FE054A13682343136000F076FE201C1821FFF7E4FF10BDC04600000540BF
:402C400010B5054C2378002B03D1FFF7ABFF01232370FFF7E3FF10BD350200208021034A090613680B4313607047C046800002400423044980000A689A43D2B20340134339
:402C80000B607047000204401023044900010A689A43D2B2034013430B60704700020440012304490A689A43D2B2034013430B607047C04600020440034B1B78FF2B02D12E
:402CC0000022024B1A707047D10000203802002008B5094B1B78FF2B0CD08021074A090613680B431360064B1B78002B02D00A2000F042FE08BDC046D100002000000640B5
:402D00002D03002010B5054C2378002B03D1FFF7D3FF01232370FFF7DBFF10BD3802002008B50A2000F032FE0D4A0A2013685B005B08136000F034FE0A4B1B78012B02D1E0
:402D400000F08EF90BE0082B02D100F095FB06E0042B04D1044A054B11680B40136008BD00000640D100002048000640FFDFFFFF014B58607047C04638020020002370B5E3
:402D80008EB000246D465C5107AD5C5104331C2BF7D1012801D0082807D10E23009301930A3B07936B60002425E002280DD10F23012400930193093B002903D12C606B605F
:402DC000041C18E02B606C6015E0012904D109230193053B6B600EE001231A4202D009212B600091022300241A4204D009221C1C0192033A6A600F22154E33689343009A0A
:402E000013433360079BD8B200F056FD0121331C104E32680C4202D01143316001E08A433260F0201A680199824309010A431A606868C0B200F052FD02223368144202D062
:402E40001A43326001E0934333600EB070BDC046100001401804044080200A4B40001A6802420AD0084A1268520406D41A680749114019601A6802431A600222044B1A60DC
:402E80007047C0460000064060000640FFFEFFFF6C000640F8B5002800D1A0E00021041C0A1C0120FFF76AFF01230C204C4A217F13704C4A4C4D11704C4A217E13704C4AA8
:402EC000267811704B4A2E701168014311602068111C984204D0C820678C4000874205D80B68454A13430B60002303E01068434901401160A269E169002A01D08022520269
:402F00008027481E81413F010902381C0A433C490A600F21226892071043A268013A0A401043071CFF206268013A12010240111C3A1C0A4333490A603349002B01D10B1C6D
:402F400000E0324B324A13600023324A1360F20709D56369FF221804FF231B04184023695B001340034300242B4A0A2013602B4B19602B4B1C6000F009FD0A20022100F0B0
:402F8000E3FC28490A2000F0D7FC0122264B1C60264B1C60264B1C60264B1C6029780A40A24201D04C22FF32234B1A6002230B4001D01423FF33214A13601022204B1A7027
:402FC0000023204A1370204A1360204A1360204A1370204A1380204A1360204A1360F8BDD10000201C030020300300202D0300202C0300207000064000000202FFFFFDFDDA
:40300000000006406000064007010080070300800003064004030640100306400002064004020640A5430000C80E0640880E0640C80F0640880F0640480F0640080F06403B
:403040003103002070030020680300205C03002060030020380300204003002050030020002208B5044B0A201A6000F099FC1022024B1A7008BDC046880F0640310300204F
:40308000014B18687047C0464003002008B50A2000F07CFC00220121044B0A201A60044A13888B43138000F067FC08BD400300203803002008B50A2000F068FC00220221FE
:4030C000044B0A201A60044A13888B43138000F053FC08BD500300203803002010B50A2000F054FC064B1C88064BA4B21B789B0601D504231C430A2000F03EFC201C10BD09
:40310000380300203103002010B50A2000F03EFC0022044B0A201C88A4B21A8000F02CFC201C10BD380300201E4B70B51E6800F0DFFB0028FBD0002000F0B2FB0F221A4CF7
:403140001A4D2368934323602B685B005B082B60B3060FD5002000F0A3FB0A2000F04CFC012000F09DFB00F0B1FB0028FBD00A2000F042FC002000F093FB0A2000F03CFCFB
:40318000012080220A4B120618602B6813430F222B6023689343013A1343236000F080FB70BDC04664000640100001400000064068000640F7B5061C0F1C01920093042578
:4031C000002942D0234C2378102B08D10A2000F0DDFB214B6D191B68DB0736D408E023780425602B31D108211C4A13888B4313802823237000231A4A02211360194A76008B
:403200001360019A184B194C1A60194B1F606B461A78184B1A70FF23104A1E4013888B431380154A154B1A604022154B1A60009BDB0703D5FFF778FF266002E0114B2660D4
:40324000196040220025104B1A600A2000F094FB281CFEBD31030020640006403803002044030020500300203403002040020640480300204C03002017030000000F064076
:40328000800F064068000640880F0640F7B5061C0F1C01920093042400294AD0274D2B78102B08D10A2000F071FB254B24191B68DB073ED408E02B780424602B39D10821DE
:4032C000204A13888B431380292300222B701E4B1E4C1A60019B1B4923601D4B76001F606B461A781B4B1C4D1A70FF230A881E40FE3B9A430A80194A19491E431160009AB3
:403300001A4203D0FFF710FF2E6003E00222154B2E601A602368144A072B01D8042306E08020124940000B6803430B600823002413600A2000F020FB201CFEBD31030020BA
:403340006400064038030020400300203C030020540300204C03002040020640000F06401703000068000640C80F064060000640014B1878C0B270477003002010B50A20B1
:4033800000F004FB0D21064B18781A78C4B28A430A201A7000F0F0FA0F20204010BDC0467003002010B50A2000F0F0FA2F22064B0A201C781978E4B20A401A7000F0DCFACD
:4033C0000F23201C984310BD70030020FF22044940000B6810409343184308607047C0461003064038B5002810D0041C0D1C0A2000F0CCFA064B074A1C60074B0A201D60CF
:4034000000231360054A136000F0B6FA38BDC0467403002068030020580300207803002038B500280ED0041C0D1C0A2000F0AEFA0022054B0A201C60044B1D60044B1A60B6
:4034400000F09AFA38BDC0466C030020640300205C030020014B18687047C0465C0300200022014B1A607047680300200022014B1A6070475C030020002208B5064B0A208E
:403480001A6000F08DFA054B1B78002B00D00223034A137008BDC046880F064024030020940300208021034A090613680B4313607047C04640000240024A13685B005B08A5
:4034C0001360704740000240034A13681B0C1B04184310607047C0464000024008B500F019FA1021034A13780B43137000F016FA08BDC04692000F40012108B5034A13780B
:403500000B431370FFF7EAFF08BDC04672000F4008B500F0FFF91021034A13788B43137000F0FCF908BDC04692000F40012108B5034A13788B431370FFF7EAFF08BDC0460D
:4035400072000F400723044A117899431170117803400B431370704782000F4008B50420FFF7F0FF08BD000010B5054C2378002B03D1FFF7F3FF01232370FFF7BDFF10BDAE
:403580004002002008B5011C014800F0D3FA08BD00000F408021034A090613680B4313607047C04640010240014B1878C0B2704761000F408021034A090613680B4313604E
:4035C0007047C046040002408122074B92041A600C22064B06491A600023064A1360064A1160064A1360704780010540A4010540FFFF0000B8010540940105408801054006
:4036000008B500F087F90421034A13688B43136000F084F908BDC04600000540014B80B21860704788010540014B186880B270478801054038B50D1C041CAC4000F06AF93F
:40364000024B1C6000F06AF938BDC0460800054010B5042400F05EF9054A13682343136000F05CF9201C1821FFF7E4FF10BDC0460000054010B5054C2378002B03D1FFF7BE
:40368000A3FF01232370FFF7E3FF10BD410200208021034A090613680B4313607047C0464800024000230C21084A1360084A1160084A0A391160FA21074A89001160642160
:4036C000064A1160064A13607047C046000105402401054038010540140105400C0105400801054008B500F015F90121034A13688B43136000F012F908BDC0460000054070
:40370000014B80B21860704708010540014B80B2186070470C01054038B50D1C041CAC4000F0F8F8024B1C6000F0F8F838BDC0460800054010B5012400F0ECF8054A136814
:403740002343136000F0EAF8201C1821FFF7E4FF10BDC0460000054010B5054C2378002B03D1FFF79FFF01232370FFF7E3FF10BD42020020014B18607047C046300105403D
:4037800010B5041C00F0C6F8C021044AA40113688B432343136000F0C1F810BD10E400E010B58024054B64021C60054B0433D8670320FFF7E5FF034B1C6010BD80E100E000
:4037C0000000002000E100E0014B18707047C04673000F40012304490A689A43D2B2034013430B607047C046000304400223044940000A689A43D2B2034013430B60704709
:4038000000030440024B18688007C00F7047C046040304408021034A090613680B4313607047C04644000240014B18707047C04670000F40014B1878C0B2704770000F4086
:40384000034A044B116880040B4018431060704708000440FFFFE3FF034A044B116800030B4018431060704708000440FF8FFFFF034A044B1168C0030B4018431060704754
:4038800008000440FF7FFCFF034A044B116840050B4018431060704708000440FFFF1FFF012304490A689A43D2B2034013430B607047C046000404400721034A13688B43A9
:4038C000184310607047C04608040440024B1868012318407047C046040404403821034AC00013688B4318431060704708040440024B18688007C00F7047C04604040440F1
:403900000230800804D0C0460138FDD1C046C046C0467047EFF3108072B6704780F310887047C046C046C046802380009B05C3181868196070470000024B8000C318186888
:40394000196070474000002038B5041C0D1CFFF7E1FFA308074A9B009B180322144094400634A240A5401968914329431960FFF7D5FF38BD00E400E01F2318401E3B8340A0
:40398000181C014B1860704700E100E01F2318401E3B8340181C014B1860704780E100E01F2318401E3B8340181C014B1860704780E200E0034A044913689BB20B43136027
:4039C0007047C0460CED00E00400FA0510B5041C8022074B1202944205D91868FFF790FF044BE418F4E758686043FFF789FF10BDD40000200080FFFF08B5034B1B7A584307
:403A0000FFF77EFF08BDC046D4000020F0B5C31E87B002932D2B64D8334B1B78984204D8324B1D78324BEDB21EE0324B1B78984204D8314B1D78314BEDB215E0304B1B7886
:403A4000984204D82F4B1D782F4BEDB20CE02F4B1B78984204D82E4B1D782E4BEDB203E02D4B1D782D4BEDB21C782D4E029B0390F35CE4B20193FFF74DFF019B04900596C7
:403A8000284F2F2B05D9039B2A2B02D919263E6008E03F233E681E40019BB34205D2214B019A1A600520FFF72BFF1C4A039B944663441B781C4ADBB213601C4B05201D60A9
:403AC0001B4B1C60FFF798FF019BB34206D9059B029A05209B5C3B60FFF712FF0498FFF71DFF07B0F0BDC046C0F1FF0FC1F1FF0FC2F1FF0FC3F1FF0FC4F1FF0FC5F1FF0F4C
:403B0000C6F1FF0FC7F1FF0FC8F1FF0FC9F1FF0FCAF1FF0FCBF1FF0FCCF1FF0FCDF1FF0FC45000002CFF0B4028FF0B401CFF0B4020FF0B40CBB203700B0A090CDBB2C9B253
:403B40004370817070470000C44BF7B51B68002B00D09847C24B1B68DB0702D50022C14B1A602020C04BC14C1A78024257D02578AA0701D4002270E0BD49002208680191CD
:403B8000C10506D5C026BB48B6000288324302800122012001990E68064209D09027B54EBF0032883A433280072D10D1021C01E0072D0AD1B0480068810706D5A026AD48CC
:403BC000B60002883243028001E0002AD2D0012202261878A74F1040301A844661463888084380B23880072D16D108201D78284010D0A1480568354202D000220260DEE20D
:403C00009E480068C10526D401990968114200D0D5E220E0187020E0002119701DE0012122780A42A6D0954A15680222FF321542A0D01D78924A0D4206D002201178814367
:403C400011701178073004E0117881431170902110780143117000221A701978890600D444E121780224214200D1C3E2102080490D6805420CD00121824A10601A780A402B
:403C8000A21A7C4C21880A4392B222801870B1E21D782D071AD50D68254209D0794A7548146088240288A4002243028001220DE01C78E40702D52520187007E024241C7079
:403CC000714C2468002C01D0704C206004201C78044200D19BE001241D78254243D008256B490E682E4223D06A496B480E6807686A49F71B0F2609683140791AA94207D886
:403D0000002906D16649674A0E6832400A60221C291C654D04682D6801392C19634D2D68EDB225700468013404600029F1D117E00968014214D058495B4E0D683668751939
:403D40005A4E3668F6B22E700D6801350D600D68504909688D4202D24749086000E0221C5348544949E008680221084220D0454A51481160514D06680D31026828683140EB
:403D8000411A8420D20B22408A1A2A6029684C4A8000116037490A88024380200A80494A40021168014311601068474901402CE046490868C00622D545490C683E49324DE2
:403DC00008680F2108403D4908280DD00E682868864209D208683F4D20180078C0B22860086801300860E9E708682968884202D140202649086038483849086007E009688A
:403E0000490604D52D4A11682D4A116002E0002A00D1EFE12249234A086802400A6000222F490A6019490A602E4A127892070CD5012219780F480A400A218A1A01880A439B
:403E400092B2028060221A70D4E1274B1A681823920600D4083B084A1360CBE1300200208C0E0740880E074094020020870200200C0F0740C0020020680007404C0F074068
:403E8000D8020020000F0740BC020020880F0740CC0F0740B8020020AC0200200803074060000740FFFEFFFFB402002040030740ED0F0000C00F074008020740B0020020A3
:403EC000C802002004020740FFFFFEFF8C0F0740C402002040020740F3070000800F0740C80F0740C20200206400074010251978294000D13EE1012122780A4200D179E170
:403F00000222BD480468144234D0BC4C2260BC4C0D32256824682A40E40B2140B94C8A182678B949B94D964204D904260A7832430A7004E027782E68D21BB21A2A602D6860
:403F4000B34A15600022B34D2A6080252270B24C6D0222682A4322602568B04A2A40226002240A78A2430A700A78013C22430A7010221A700822016811423ED09F490A60EC
:403F8000A7490A68920420D50F22A64C2568154217D0A54D2D78002D06D024682240012A02D1026852060CD4A04AA14D14682D682C19A04D2D68EDB22570146801341460F5
:403FC000E2E70C689C4A22400A609C4A8E491568141CAA0603D540250A782A430A700025974A1560974A226020240A78A2430A700A78103C22430A701C700268520641D5FE
:40400000894A1278002A04D08A4A8E4912688B4A11608D4A7C491068102210420BD07D4802607B4A1068794A106002200A7802430A7012221DE0854A7C4812680068121A7B
:404040000420072A0ED97648082A05D1A024026824022243026007E080240268A401224302600820764A106020200A7802430A7011221A700123764A764913605F4A1160FC
:40408000754A13600822754B1968114225D06F4B66481B680168083B5B1A0124934201D90024131C002B0CD0614902680968013B8A1860490968C9B2117002680132026069
:4040C000F0E7002C07D08020554900020A6802430A605B4A136008221FE01B685B071ED5544B52491A68594B08681B6898420CD20120594BD2B218604D480B680068C31855
:404100001A700B6801330B6006E0FDF75FFF40213D4A13780B4313700422484B1A60504B1B68DB0666D54F4B1968354B1A680F231340082B1AD0354A4B4B14681B684B4894
:404140009C4208D21368CB181B78DBB20360136801331360E9E7FF232A4A036013789B06E3D413780133DBB21370DEE71022404B1A603FE03F4802685200520802601D7062
:40418000274B2D4A1C6822401A601C683A4A22401A602B4B2B4A19601E4B1960344B1A60364A264B1A602B4A144B1A60344A354B1A60802203681206134303601AE08020EA
:4041C000154A4002116801431160106813490140116013492C4A086802400A602849294A1160002216490A600A490A6010321A700F3A32E5F7BDC0464C0F0740400F074061
:4042000008020740E8020020D8020020D4020020E4020020880F074004020740FFFFFEFF600007400803074089020020E0020020D002002040030740FF5FFFFFC00F074073
:40424000C80F0740ED0F000064000740DC020020800E0740FF0F00006C000740CC0F07408C0F0740CC020020EC02002040020740800F074000000740FFFCFFFFF30700004C
:4042800017030000000F0740FFFEFFFF38B5304B1B68002B00D098472E4B1B78002B02D001222D4B1A602D4B1B68002B23D02C4B1B685B071FD52B4B1B681B0718D02A4BCF
:4042C0002A4D19682A4B2C681B6801341B1B5A1E93415B421C40274B1B689C4203D12022254B1A70E7E7201CFEF70CF82C60E2E70422224B1A60224B1B68002B27D0214BC4
:404300001B689B0723D5204B1A680F231340082B1AD01E4B1E4D1A682B689A420FD01D4B2C681B6801341B1B5A1E93415B421C40201CFEF79FF8184B18602C60E3E70221E2
:40434000164A13688B4313600222154B1A6038BD3002002085020020C00E074078020020CC0F07400803074040030740A00200208002002098020020A8020020C00F07408A
:40438000900200208C0F0740080207409C020020A40200208C02002040020740880F0740800F0740C44BF7B51B68002B00D09847C24B1B68DB0702D50022C14B1A60202060
:4043C000C04BC14C1A78024257D02578AA0701D4002270E0BD49002208680191C10506D5C026BB48B6000288324302800122012001990E68064209D09027B54EBF00328880
:404400003A433280072D10D1021C01E0072D0AD1B0480068810706D5A026AD48B60002883243028001E0002AD2D0012202261878A74F1040301A844661463888084380B2AF
:404440003880072D16D108201D78284010D0A1480568354202D000220260DEE29E480068C10526D401990968114200D0D5E220E0187020E0002119701DE0012122780A4257
:40448000A6D0954A15680222FF321542A0D01D78924A0D4206D002201178814311701178073004E0117881431170902110780143117000221A701978890600D444E12178BA
:4044C0000224214200D1C3E2102080490D6805420CD00121824A10601A780A40A21A7C4C21880A4392B222801870B1E21D782D071AD50D68254209D0794A7548146088246A
:404500000288A4002243028001220DE01C78E40702D52520187007E024241C70714C2468002C01D0704C206004201C78044200D19BE001241D78254243D008256B490E6821
:404540002E4223D06A496B480E6807686A49F71B0F2609683140791AA94207D8002906D16649674A0E6832400A60221C291C654D04682D6801392C19634D2D68EDB2257074
:404580000468013404600029F1D117E00968014214D058495B4E0D68366875195A4E3668F6B22E700D6801350D600D68504909688D4202D24749086000E0221C534854497D
:4045C00049E008680221084220D0454A51481160514D06680D31026828683140411A8420D20B22408A1A2A6029684C4A8000116037490A88024380200A80494A4002116824
:40460000014311601068474901402CE046490868C00622D545490C683E49324D08680F2108403D4908280DD00E682868864209D208683F4D20180078C0B228600868013041
:404640000860E9E708682968884202D140202649086038483849086007E00968490604D52D4A11682D4A116002E0002A00D1EFE12249234A086802400A6000222F490A60C7
:4046800019490A602E4A127892070CD5012219780F480A400A218A1A01880A4392B2028060221A70D4E1274B1A681823920600D4083B084A1360CBE13C0200208C0E0640A4
:4046C000880E064031030020300300200C0F064038030020680006404C0F064070030020000F064034030020880F0640CC0F06403C03002040030020080306406000064036
:40470000FFFEFFFF5403002040030640ED0F0000C00F064008020640440300205003002004020640FFFFFEFF8C0F06404803002040020640F3070000800F0640C80F06403C
:404740004C0300206400064010251978294000D13EE1012122780A4200D179E10222BD480468144234D0BC4C2260BC4C0D32256824682A40E40B2140B94C8A182678B949F4
:40478000B94D964204D904260A7832430A7004E027782E68D21BB21A2A602D68B34A15600022B34D2A6080252270B24C6D0222682A4322602568B04A2A40226002240A785C
:4047C000A2430A700A78013C22430A7010221A700822016811423ED09F490A60A7490A68920420D50F22A64C2568154217D0A54D2D78002D06D024682240012A02D10268EF
:4048000052060CD4A04AA14D14682D682C19A04D2D68EDB22570146801341460E2E70C689C4A22400A609C4A8E491568141CAA0603D540250A782A430A700025974A15600D
:40484000974A226020240A78A2430A700A78103C22430A701C700268520641D5894A1278002A04D08A4A8E4912688B4A11608D4A7C491068102210420BD07D4802607B4A7A
:404880001068794A106002200A7802430A7012221DE0854A7C4812680068121A0420072A0ED97648082A05D1A024026824022243026007E080240268A40122430260082072
:4048C000764A106020200A7802430A7011221A700123764A764913605F4A1160754A13600822754B1968114225D06F4B66481B680168083B5B1A0124934201D90024131C02
:40490000002B0CD0614902680968013B8A1860490968C9B21170026801320260F0E7002C07D08020554900020A6802430A605B4A136008221FE01B685B071ED5544B52496A
:404940001A68594B08681B6898420CD20120594BD2B218604D480B680068C3181A700B6801330B6006E0FEF777FA40213D4A13780B4313700422484B1A60504B1B68DB06FC
:4049800066D54F4B1968354B1A680F231340082B1AD0354A4B4B14681B684B489C4208D21368CB181B78DBB20360136801331360E9E7FF232A4A036013789B06E3D4137864
:4049C0000133DBB21370DEE71022404B1A603FE03F4802685200520802601D70274B2D4A1C6822401A601C683A4A22401A602B4B2B4A19601E4B1960344B1A60364A264B6F
:404A00001A602B4A144B1A60344A354B1A60802203681206134303601AE08020154A4002116801431160106813490140116013492C4A086802400A602849294A1160002204
:404A400016490A600A490A6010321A700F3A32E5F7BDC0464C0F0640400F06400802064060030020700300207803002068030020880F064004020640FFFFFEFF600006403E
:404A8000080306402C0300205C0300206C03002040030640FF5FFFFFC00F0640C80F0640ED0F00006400064064030020800E0640FF0F00006C000640CC0F06408C0F06406E
:404AC000740300205803002040020640800F064000000640FFFCFFFFF307000017030000000F0640FFFEFFFF02B4714649084900095C49008E4402BC7047C04603460B430B
:404B00007FD4002243088B4274D303098B425FD3030A8B4244D3030B8B4228D3030C8B420DD3FF22090212BA030C8B4202D31212090265D0030B8B4219D300E0090AC30B7E
:404B40008B4201D3CB03C01A5241830B8B4201D38B03C01A5241430B8B4201D34B03C01A5241030B8B4201D30B03C01A5241C30A8B4201D3CB02C01A5241830A8B4201D385
:404B80008B02C01A5241430A8B4201D34B02C01A5241030A8B4201D30B02C01A5241CDD2C3098B4201D3CB01C01A524183098B4201D38B01C01A524143098B4201D34B0187
:404BC000C01A524103098B4201D30B01C01A5241C3088B4201D3CB00C01A524183088B4201D38B00C01A524143088B4201D34B00C01A5241411A00D20146524110467047A2
:404C00005DE0CA0F00D04942031000D34042534000229C4603098B422DD3030A8B4212D3FC22890112BA030A8B420CD3890192118B4208D3890192118B4204D389013AD005
:404C4000921100E08909C3098B4201D3CB01C01A524183098B4201D38B01C01A524143098B4201D34B01C01A524103098B4201D30B01C01A5241C3088B4201D3CB00C01A76
:404C8000524183088B4201D38B00C01A5241D9D243088B4201D34B00C01A5241411A00D20146634652415B10104601D34042002B00D54942704763465B1000D3404201B5C6
:404CC000002000F00BF802BD0029F8D003B5FFF715FF0EBC4243891A1847C0467047C0460E4B70B500251E1C0D4CE41AA410A54204D0AB00F35898470135F8E700F0FAF9AB
:404D0000084B00251E1C084CE41AA410A54204D0AB00F35898470135F8E770BD00510000005100000051000008510000031C8218934202D019700133FAE7704700000000E8
:404D40000100000000000000000000000000000058000000FE0000000000000000000000000064000000000003000000080000000200000002000000100000000000000059
:404D80000100000000000000000000000000000000000000000000000A000000430200200A00000059020020000000000000000000000000000000000100000004000000F9
:404DC00000000000000000000000000000000000000000000000000000000000000000000000000000000000000000000000000008000000080000000100000001000000A1
:404E00000A000000430200200A00000059020020010000000400000000000000000000000000000000000000010000000000000000000000000000004A000000FE00000030
:404E4000000000000000000000006400020000000800000008000000000000004A000000FE000000000000000000000000009001710238019C0066004D00260019000C009D
:404E80001D000E00020002006F76660D0A00323430300D0A00343830300D0A00393630300D0A0031343430300D0A0031393230300D0A0033383430300D0A00353736303080
:404EC0000D0A003131353230300D0A00696E760D0A00666D740D0A006E6F6D0D0A00000046300F401A310F4030320F402C330F4005400F4005410F4006420F4012430F4016
:404F000002600F4000010202050C070309050B0A0E020F02130817011F042A013003350F3E013F1041044401460B480449FF4AFF4BFF4CEF4D554E304F48501C58045904BD
:404F40005A045B045D025F0161086308650867086850690A6A406BA86CC06E406FA8C105C404C9FFCAFFCBFFCCEFCD55CE32CF48D01CDA04DB04DD02DF01E108E308E50826
:404F8000E708E850E90AEA40EBA8ECC0EE40EFA8000201C01004188023043004324239544180424046404C01518052405E805F2A680169148E40C009C402CC0BCE0ED089AF
:404FC000D210D6F041054401450D460E47CF483549FF4AFF4BFF4CEA4D554EB24F48501C52015A045B045D225F0161086308650867086850690A6A406BA86CC06E406FA817
:405000008A02930499019A019B029D01A106B002B401B506B701B980BF40D804D904DB04DC13DF01012009201921212022802901300231A0458247024C014F045502564884
:405040005F026648670468026C016E40818088048E82940296409C049D80A180A602A840AB02AE40AF28B304C002C202CA01CC0DD010D210D680D870E204E8010220030211
:4050800004100780C0F0A810AE20AF82E850ECC052025F208D04D401D604E2081D041F4025102710630883108B408D108F049D04AA02B320C605C805D802E002E609EC04D5
:4050C000010E100E030405060708090A0B0C0E0F101112131415161718191B1C1D1E1F2021222325262728292A2B2E2F3031323334350000F8B5C046F8BC08BC9E467047CD
:40510000A50200007D1D0000F8B5C046F8BC08BC9E4670477D02000028510000C800002020000000B8020000000000000300E8FDFFFF00000000E02EC05D00001800000085
:4051400000366E010000000000000000000000000000000000000000000000000000000000000000000000000000000000000000000000000000000000000000000000008A
:4051800000000000000000000000000000000000000000000000000000000000000000000000000000000000000000000000000000000000000000000000000000000000EF
:4051C00000000000000000000000000000000000000000000000000000000000000000000000000000000000000000000000000000000000000000000000000000000000AF
:40520000000000000000000000000000000000000000000000000000000000000000000000000000000000000000000000000000000000000000000000000000000000006E
:40524000000000000000000000000000000000000000000000000000000000000000000000000000000000000000000000000000000000000000000000000000000000002E
:0200000490303A
:02000000FB59AA
:0200000490402A
:200000000000000000000000000000000000000000000000000000000000000000000000E0
:0200000490501A
:0C000000000204B61193110104D10CECB5
:0200000490600A
:0100000001FE
:00000001FF