:400000000010002011000000512400005124000008B502F01FFA0000F8B572B680220021D200624805F0FAFA80226148D200002105F0F4FA0022141C5E49FF25575824318E
:400040003E1C081C6300AE433D4001336419CB186100013141188B4206D0581E00781D78801905700233F6E70432242AE4D1E022514B12011A800122504B80211A70504A64
:40008000504B09051A60504A504B3C201A60504A504B10251A60FF224F4B504C1A6099234F4A1B0413604F4A13604F4A1160C8214E4A090411604E4A0221136080224D4BF9
:4000C00052041A604C4A13780B434C4913700B788343283803430B701621137804300B4313708F22464B1A60464A474B1A60F022464B1A60464BC63A1A60464A464B1A605D
:40010000464B474A1D60474B1A600422464B1A60464B05321A60464B063A1A6080222368D2021343236004F059F82268414B424913402360414A424B1A602022414B1A60E6
:40014000414B02321D60414B1A60414B0E321A6011230B603F490A603F4A4049136023223F4B1A603F4B023A1A6080233E4A1B061360002222600B603C490B603C490B60A9
:400180003C493D4B19603D493D4B19603D493E4B19603E493E4B19603E493F4B19603F493F4B19603F4B1A60F8BDC04600300F4000400F404C59000000600F4002600F403A
:4001C0000000FFFF00000140303000000800014000EE03000C0001401000014000010B4000500F4020500F4024500F4028500F4030500F4038500F4000700F4001700F402F
:400200000000044092942400080004401800044000020440B66D010008020440000304409E6D0000080304400C0304400804044018040440FFFFFBFF280202400600008042
:4002400004010B40080202400C02024020020240240202402C0202403402024000000240380202403C02024008010B40400002408000024017000080040002405F09008043
:4002800044000240F301008008000240DF0100C048000240CF07008000010240CF0700C0400102400C020B4010B5064C2378002B07D1054B002B02D0044800E000BF0123B4
:4002C000237010BDE0000020000000002C56000008B5084B002B03D00748084900E000BF07480368002B00D108BD064B002BFBD09847F9E7000000002C560000E4000020C8
:40030000C800002000000000F7B572B60126022003F0CEFD0E2000F077F9224D1F202E7000F0A6F9071C1F2000F0A2F944071F2000F09EF90007C30F1F20009300F098F967
:40034000C006C30FA40F0193374207D02020802100F024FA2120802100F020FA009B012B03D16878C0B200F09FFE019B012B03D16878C0B200F0BEFE012C04D0022C04D15B
:4003800001F096F801E001F08BF80821072000F0DFFE03F045FD002003F050FD03F07AFD62B6F7BDFC00002070B572B603F0F8FD03F0CEFD172000F05BF90325284001283E
:4003C0001ED00426244C02281DD0172000F050F9304207D0281C00F04BF900F065FE642003F0DCFE172000F043F903072ED5032000F03EF900F07EFE642003F0CFFE25E01A
:4004000001F04EF825E0172000F032F9304207D0281C00F02DF900F047FE642003F0BEFE172000F025F9030707D5032000F020F900F060FE642003F0B1FE782000F018F9BF
:4004400002210843C1B2782000F0A8F9201C03F0C5FD62B670BDC046A90300000849094A8B78002B02D000238B7006E01188064B994203D0138801339BB213807047C046DE
:40048000FC000020CC000020FFFF000038B500F0A7FA032000F0ECF8544C607003F00AFC03F0FEFB03F068FD03F05CFD002003F03BFD642003F072FE6378022B03D0FA20A1
:4004C000800003F06BFE012002F070FF03F00AFC03F0FEFB03F02AFC03F062FC44490F2003F00AFEC020434A434B444953600B6A00061B021B0A03430B620023936007339D
:4005000013603F4803F0EAFC03F062FC03F056FC03F086FC03F0BEFC322003F03FFE02F0B1FE802002F088FE02F008FF802002F0DFFE6078C0B200F045FD6078C0B200F0D7
:4005400083FD6078C0B200F0AFFD6078C0B200F0D1FD02F00BFF02F0FFFE6378022B02D0284803F03BFD62B60120011C00F0F0FD03F0DCFB002003F0E7FB03F011FC6378E0
:40058000002B05D063780D2B02D063780E2B02D101F08AF807E06378022B04D963780C2B01D801F07BFB6378022B06D101F0CEFB00F0E0FD01F02AFC03E000F031FE01F06E
:4005C00083FD01F049FC03F0C5FB642104F07EFE051EFF2D00D9FF25092000F049F88542C6D9E9B2092000F0D9F8C1E7FC0000205D04000010E000E0BF5D000000ED00E02E
:4006000009030000A9030000F0B5174B9F7D5E7D42B2002A00DA0F20144C011C225CA44655070DD55C2F07D1585C0130585401231A4363465A5415E010209B2EE8D1F3E76D
:40064000950709D510209B2EE2D1585C0130585401231A43625405E0195C0131195401231A432254F0BDC046000100208001002008B543B2002B04DA0F20FFF7C5FF002063
:4006800001E0014B185C08BD0001002008B543B2002B03DA0F20FFF7B7FF01E0014B195408BDC0460001002008B543B2002B04DA0F20FFF7A9FF002003E0024B185C012328
:4006C000184008BD8001002008B543B2002B03DA0F20FFF799FF04E00121024A135C8B43135408BD8001002070283BD013D852282CD007D8502825D051284BD1264A0221F1
:40070000136845E0542829D024D3552842D1224A202113683CE075282CD008D8722825D0742837D180211C4A4900136830E07D2825D07E2828D076282CD18021164AC900B5
:40074000136825E0144A0121136821E0124A042113681DE0104A0821136819E00E4A1021136815E00C4A4021136811E00A4A802113680DE08021084A8900136808E0802114
:40078000054A0901136803E08021034A490113680B4313607047C0460002002043B270B5041C0F20002B1CDB1F48204B025D051C56070FD59A7D5C2A02D05A7D9B2A0FD126
:4007C000201C1955FFF790FF194B02201B68002B15D012E00226324216D05A7D9B2A03D01020FFF711FF1DE0201C1955FFF77CFF0F4B1B68002B02D0301C01F016FB012235
:400800002B5D13432B550DE0195501231A430255201CFFF769FF064B1B68002B02D0301C01F003FB70BDC04680010020000100200002002008B520208021FFF7AFFF2120E7
:400840008021FFF7ABFF22208021FFF7A7FF23208021FFF7A3FF24208021FFF79FFF25208021FFF79BFF26208021FFF797FF27208021FFF793FF28208021FFF78FFF2920B4
:400880008021FFF78BFF2A208021FFF787FF2B208021FFF783FF2C208021FFF77FFF2D208021FFF77BFF2E208021FFF777FF2F208021FFF773FF30208021FFF76FFF312034
:4008C0008021FFF76BFF32208021FFF767FF33208021FFF763FF34208021FFF75FFF35208021FFF75BFF36208021FFF757FF37208021FFF753FF38208021FFF74FFF3920B4
:400900008021FFF74BFF3A208021FFF747FF3B208021FFF743FF3C208021FFF73FFF3D208021FFF73BFF3E208021FFF737FF3F208021FFF733FF40208021FFF72FFF412033
:400940008021FFF72BFF08BD10B5244C9B22211C74310A706275221C5C23753200200721A3751370FFF71AFFA9210120FFF716FF03F0A8F90F214840C1B20320FFF70EFF9B
:4009800076200021FFF70AFF7A200121FFF706FF79204A21FFF702FF0A200021FFF7FEFE02201021FFF7FAFE71200A21FFF7F6FEE3780D2B01D00E2B01D1073B00E00223F5
:4009C000A377231C012273331A70192317200C21E377FFF7E3FEFFF72DFF10BD00010020002208B50021244BD154244BD1540132802AF7D1191C7E3A7C310A70191C7731AC
:400A00000A70191C1A705A709A70DA709A72DA721A765A769A76DA761A775A779A775A74503102320A70191C51310A70191C52310A70191C53310A70191C54310A70191CD8
:400A400055310A70191C76310A70191C70310A70191C71310A70191C74310A70191C73310A70191C78315A759A74DA741A750A70DA77FFF769FF08BD000100208001002090
:400A8000702839D013D852282AD007D8502823D0512847D1244A0221136834E0542827D022D355283ED1204A202113682BE075282BD007D8722823D0742833D11A4A1B4BA8
:400AC00011682DE07D2824D07E2826D0762829D1154A174B116823E0134A0121136812E0114A042113680EE00F4A082113680AE00D4A1021136806E00B4A4021136802E0AE
:400B00008021094A13688B430BE0074A094B116806E0054A084B116802E0034A074B11680B4013607047C04600020020FFFEFFFFFFFBFFFFFFFDFFFFFFF7FFFFFFEFFFFF0A
:400B4000031C00202F2B11D9392B02D8181C303806E0602B04D9662B04D8181C573801E0402B03D9462B01D8373B181C70472423002808DB031E092B01DC303303E0373397
:400B80000F2800DD2423D8B2704700232F280FD9392282425B41602802D9662806D901E0402805D9462803D8012301E00123F9E7181C704738B5031E022B34D1002401F0F3
:400BC000C5FC494B494A1C60494B1C60494B1A60494A4A4B1A604A4A4A4B1A604A4A4B4B1A6002F0EFFA1820FFF742FD051C1920FFF73EFD2D02284380B21A2102F0EAFADA
:400C000002F0D6FA42480A2102F018F80A21414802F032F8404801F089FD404B1878553002F000F829E001282AD1002401F08EFC2D4B2E4A1C602E4B1C602E4B1A602E4A4A
:400C40002E4B1A602E4A2F4B1A602F4A2F4B1A6002F0B8FA1820FFF70BFD051C1920FFF707FD2D02284380B21A2102F0B3FA02F09FFA2948243002F02DF901F059FC30E016
:400C80000120032B2ED1002401F060FC164B174A1C60174B1C60174B1A60174A174B1A60174A184B1A60184A184B1A6002F08AFA1820FFF7DDFC051C1920FFF7D9FC2D02F2
:400CC00028431A2180B202F085FA02F071FA1448143002F00DF801F02BFC0B2003F034FA62B6201C38BDC046C80F0740ED0F0000880F0740800F0740F3070000C00F074026
:400D0000FF0F0000400F074017030000000F07405D0200204702002030560000FD000020B056000038B5002402F080FB1E4B1F4A1C601F4B1C601F4B1A601F4A1F4B1A602B
:400D40001F4A204B1A60204A204B1A6002F03AFF1B20FFF78DFC051C1C20FFF789FC2D02284380B21D2102F035FF02F021FF18480A2102F0BDFE0A21164802F0D7FE1648F1
:400D8000683002F00DFC0220FFF772FC02F0A4FE02F0ECFE02F0F0FE02F076FE02F088FE02F036FB201C38BDC80F0640ED0F0000880F0640800F0640F3070000C00F0640BE
:400DC000FF0F0000400F064017030000000F06406702002052020020B056000038B5002402F024FB1B4B1C4A1C601C4B1C601C4B1A601C4A1C4B1A601C4A1D4B1A601D4ABA
:400E00001D4B1A6002F0DEFE1B20FFF731FC051C1C20FFF72DFC2D02284380B21D2102F0D9FE02F0C5FE15480A2102F061FE0A21134802F07BFE13480C3002F0B1FB02F0AF
:400E4000ABFC02F0BDFC02F0E5FC02F0E1FA201C38BDC046C80F0640ED0F0000880F0640800F0640F3070000C00F0640FF0F0000400F064017030000000F064067020020D4
:400E80005202002030570000F0B585B06B460122197069460023071C002402F011FD02F0A3FC1B4D830704D4AC4204D00134A4B2F5E7AC4202D10C20FFF7A6FB01AE381CDC
:400EC000311C0122002302F067FD02F08DFCC30704D4AC4204D00134A4B2F6E7AC4202D10C20FFF791FB02F07FFC830501D5002404E002F04BFC0028F9D0347802F08AFC32
:400F000002F04AFC02F05CFC201C05B0F0BDC04650C300001FB501AB19705A70191C0222002302F0CDFC002402F05EFC0D4B820704D49C4204D00134A4B2F5E79C4202D17B
:400F40000C20FFF761FB02F065FC830502D50C20FFF75AFB02F020FC02F032FC002004B010BDC04650C300001FB501AC21706270A370211C0322002302F0A2FCC1B20D2036
:400F8000FFF70CFC002402F02FFC0D4B820704D49C4204D00134A4B2F5E79C4202D10C20FFF732FB02F036FC830502D50C20FFF72BFB02F0F1FB02F003FC002004B010BDE5
:400FC00050C3000038B5041C01F05AF8002C03D0231C0D3B012B16D81E20FFF749FB0724184D204040002818018E1820090AFFF7D5FB1E20FFF73CFB044064002C19218E5F
:401000001920C9B207E0012C0CD118200021FFF7C5FB19200121FFF7C1FB1A200021FFF7BDFB02E0033C092CEFD91820FFF74CFB1920FFF749FB1A20FFF746FB01F036F850
:4010400038BDC0463057000010B5041C01F018F81B200021022C04D1FFF7A0FB1C2001210DE0FFF79BFB7320FFF702FB0323184043000C480230C018C18F1C20C9B2FFF79F
:401080008DFB00211D20FFF789FB1B20FFF71CFB1C20FFF719FB1D20FFF716FB01F006F810BDC0463057000008B5002803D0031C0D3B012B03D80120FFF77CFD14E00128E2
:4010C00009D10230FFF776FD01F048FC07490B2003F01AF808E003380B2805D80220FFF769FD034801F05AFA08BDC046991500009D1C000008B5022805D1FFF713FE034844
:4011000002F0BCF901E0FFF769FE08BD4D1D0000072310B50D495A5C002A14D00B7A934213D00024231C0A72934204DA0121A4000C435B18F8E702F07FFD201C02F0A8FD1B
:4011400002F098FD01E0013BE4D210BD0402002008B5024B1954FFF7DBFF08BD04020020002208B5024B1A54FFF7D2FF08BDC0460402002038B5234B1C781D1C032C3FD830
:40118000201C04F099F83C020C2502F0D9FE012836D101304A21FFF701FB022430E002F0CFFE002806D102F0B3FE642002F0F6FF02F0E8FF0220FFF75BFA4A2820D00120AD
:4011C00002F0A6FE15200021FFF7E8FA032417E002F0B6FE002807D102F09AFE642002F0DDFF02F0CFFF0BE02020FFF741FA02F023F82120FFF73CFA02F07AF800E001248C
:401200002C7038BD0D02002001220020034B5B78033BDBB29A424041C0B270470D020020F7B5994C6578042D00D9DCE0281C04F043F80316205C750016205C21FFF7AEFA08
:401240009B211520FFF7AAFA50230120A37002F05FFE0A200021FFF7A1FA0125C3E00A20FFF7D2F94A200221FFF70EFE0225E070B9E0E0784A2816D1A2780221FFF74AFE92
:40128000A1780B20FFF78AFA0A200021FFF786FAA3785E2B02D80133A37004E00A20C921FFF77CFA00E001250A20FFF7E1F9C82817D9012000F0B9FD15200021FFF76EFA2B
:4012C0000320FFF7D5F9002804D00D38C0B20425012806D86D4801F049FF6D4801F046FF04250A2002F05AFF7DE07120FFF7C0F9061E09D0674B71201E88FFF7B9F9B6B21A
:4013000080B286426ED26EE07220FFF7B1F9002869D07220311CFFF741FA63E002F070FE012830D10F3000F080FD2020FFF7A0F901F082FF2120FFF79BF901F0D9FF5026BE
:401340000B20FFF795F9864219DCF7B23D1C503D6D00EDB2281C2230C0B2FFF789F923350190E8B2FFF784F92021031C019A381CFFF7FAFD642002F027FF0136E0E70122F7
:40138000454B1A7022E0102000F05AFD7F2001F053FF7F2001F0ACFF50250B20FFF768F98542ECDCEEB270007E38C0B2FFF760F92021021C7F23301CFFF7D6FD642002F0E4
:4013C00003FF0135E9E71A78002A04D1314B1A88324B002AF7D1002272201A700325FFF74FFB00E004256570FFF70EFF00284AD02379002B47D0002350202371FFF738F9D2
:40140000011C5020FFF7CAF95120FFF731F9011C5120FFF7C3F95220FFF72AF9011C5220FFF7BCF95320FFF723F9011C5320FFF7B5F95420FFF71CF9011C5420FFF7AEF96A
:401440005520FFF715F9011C5520FFF7A7F97020FFF70EF9011C7020FFF7A0F97120FFF707F9011C7120FFF799F97220FFF700F9011C7220FFF792F97620FFF7F9F8011CFA
:401480007620FFF78BF9F7BD0D02002078570000AB570000CC000020FE000020FC00002008B5002002F034FD02F06CFE08BD000038B50024012000F0C3FC0C4B64201C60E9
:4014C00002F06CFE16205C21FFF768F99B211520FFF764F90123064D201C2B7102F018FDFA20800002F05AFE6C7038BD000200200D02002073B501F00FFA002847D0012064
:4015000002F000FD7620FFF7B3F8002813D002F087FC002002F092FC02F0BCFC0720FFF71FFE08E0257801F0B1FA23787055082B01D80133237001F0EFF9154C051E154E6D
:40154000F0D1307843B2002B0EDA7F231840607001F03CFA6078FFF78BF86B46D871D879C0B201F0D5FA0CE02378012B0CD0022B04D160707178FFF711F902E00620FFF7F3
:4015800043F801F0EBF92570002002F0BBFC73BD120200207102002038B52F4B1B78002B02D001222D4B1A602D4B1B68002B25D02C4B1B685B0721D52B4B1B681B071AD048
:4015C0002A4B2B4D19682B4B2C681B6801341B1B5A1E93415B421C40274B1B689C4203D12022264B1A7003E0201C01F01DFA2C60FFF780FFE0E70422214B1A60214B1B6872
:40160000002B27D0204B1B689B0723D51F4B1A680F231340082B1AD01D4B1E4D1A682B689A420FD01C4B2C681B6801341B1B5A1E93415B421C40201C01F0AEFA174B1860F2
:401640002C60E3E70221164A13688B4313600222144B1A6038BDC04689020020C00E07407C020020CC0F07400803074040030740A4020020840200209C020020AC02002089
:40168000C00F0740940200208C0F074008020740A0020020A80200209002002040020740880F0740800F0740F7B501F04BFDC5B2061CBC4C002D2CD0012002F023FC762039
:4016C000FEF7D6FF002809D002F0AAFB002002F0B5FB02F0DFFB0720FFF742FDA378122B08D8002B01D10A2D10D0E21CD5540133A37004E0E318AC489D7001F037FD0A2DA8
:4017000004D00D2D02D0F0B201F002FA002002F0F9FBA378E3189B780A2B02D00D2B00D0A0E2012002F0EEFBE378E51C452B00D106E211D83F2B23D006D80A2B00D181E26C
:401740000D2B00D17EE27AE2422B00D1FDE17020442B00D1F7E172E24E2B00D12FE204D8482B0DD04D2B2BD069E2904E552B00D191E1572B00D135E1522B00D05FE261E16D
:401780008B4801F0F3FC8B4801F0F0FC8A4801F0EDFC8A4801F0EAFC894801F0E7FC894801F0E4FC884801F0E1FC884801F0DEFC874801F0DBFC874801F0D8FC86483FE2D7
:4017C000AB780226462B08D0522B06D0492B04D0433B5E4273410326F61AE31C9B5D462B06D0522B04D0492B02D0432B00D035E27A4B9B19013B1878FFF7A2F9051C87B255
:40180000032E07D1754B5878FFF79AF90A2358434719BFB2751CEDB263191B790A2B01D00D2B04D1012301930023009304E0F31C9D42F7D00135EEE7E31CB54210D0585DFD
:40184000FFF77EF9019B019A5843009B013DC01883B200930A2353439BB2EDB20193EBE75B5D3DB2492B3AD10B20FEF701FF4E384000C0B2854200DBF2E11220002F00D176
:401880005FE1012D02D11320291CD5E1092D07DC5020FEF7EDFE0123023DAB4018433BE0112D07DC5120FEF7E3FE01230A3DAB4018433DE0192D07DC5220FEF7D9FE0123CB
:4018C000123DAB4018433FE0212D00DDBAE15320FEF7CEFE01231A3DAB40184341E0432B42D10B20FEF7C4FE4E384000C0B2854200DBB5E1002F02D11220391C9CE113204C
:40190000012D00D11FE1092D09DC5020FEF7B0FE0123023DAB409843C1B250208CE1112D09DC5120FEF7A4FE01230A3DAB409843C1B2512080E1192D09DC5220FEF798FE38
:401940000123123DAB409843C1B2522074E1212D00DD77E15320FEF78BFE01231A3DAB409843C1B2532067E10126462B00D01C4E0B20FEF77DFE4E384000C0B2854200DBCA
:401980006EE16B460020185E7F236421584303F02DFD4643311C2037FFB28039C9B2381C4AE1C04612020020C2570000F8580000C8570000D657000001580000265800005B
:4019C0004B580000695800007858000088580000A3580000C1580000D758000015020020FFFF00006878FFF7D0F8002800D135E1A878FFF7CAF8002800D12FE1E878FFF777
:401A0000C4F8002800D129E12879FFF7BEF8002800D123E12079FFF793F8071C6079FFF78FF8051CA079FFF78BF80090E079FFF787F8031C009A3801110105431943E8B2B7
:401A4000C9B2F9E06878FFF7A0F8002800D105E1A878FFF79AF8002800D1FFE06878FFF76FF8071CA878FFF76BF83F013843C0B2FEF7FEFD051C301C01F078FB2809C0B2DB
:401A8000FFF775F801F044F80F202840FFF76FF801F03EF8D6E06878FFF777F8002800D1DCE0301C01F062FB00F0EAFA68783038072836D803F000FC040A10161C22282E21
:401AC000694801F053FB1E20002128E0674801F04DFB1E20012122E0654801F047FB1E2002211CE0634801F041FB1E20032116E0614801F03BFB1E20042110E05F4801F01D
:401B000035FB1E2005210AE05D4801F02FFB1E20062104E05B4801F029FB1E200721FEF73DFE00F0C3FAC820400002F037FB0320FEF79EFDFFF746FA0120FFF73BF881E043
:401B40007020012178E0002176E06878FFF71DF800280FD0A878FFF718F800280AD0A878FEF7EEFF061C6878FEF7EAFF0A235843801907E02079FFF708F800286ED0207912
:401B8000FEF7DEFF80B205B2002804D114300121FEF704FE01E0082D07DC5420FEF768FD0123013DAB40184338E0102D56DC5520FEF75EFD0123093DAB4018433AE06878AB
:401BC000FEF7E3FF002810D0A878FEF7DEFF00280BD0A878FEF7B4FF061C6878FEF7B0FF0A235843811989B208E02079FEF7CDFF002833D02079FEF7A3FF81B20DB200294E
:401C000003D11420FEF7CAFD01E0082D09DC5420FEF72EFD0123013DAB409843C1B254200AE0102D1ADC5520FEF722FD0123093DAB409843C1B25520FEF7B0FD02E01248A6
:401C400001F094FA0020A070E07002F05BF90F4801F08CFA0E4801F089FA03E00D48EFE70D48EDE7F7BDC046FB580000025900000959000010590000185900002059000033
:401C8000285900003059000039590000F8580000C05700003F5900004559000010B500F093FFC3063DD5012002F02CF97620FEF7DFFC002809D002F0B3F8002002F0BEF8C5
:401CC00002F0E8F80720FFF74BFA00F0EFFF1C4C022806D11B4B1878E0755978FEF75EFD0EE000F0E3FF012803D1164B1B78E37506E000F0DBFF022802D90620FEF784FCA4
:401D000000F07CFF030602D50520FEF77DFC00F0D9FFE07DFEF7ACFC0B4B1870002002F0F1F800F051FFC30708D500F0C5FF00F051FF030702D50420FEF766FC10BDC04620
:401D400012020020470200205D02002038B501F095FE2B4CC30640D501F090FE20231840051E3AD1012002F0CDF87620FEF780FC002809D002F054F8281C02F05FF802F09C
:401D800089F80720FFF7ECF901F0EAFE022812D0032805D0012814D11A4B1B78237610E0184D287820766978FEF7F8FC207EA9780130C0B203E0134B187820765978FEF738
:401DC000EDFC01F075FE030602D50820FEF71CFC01F0D2FE002002F095F8207EFEF748FC094B187001F04AFEC30708D501F0BEFE01F04AFE030702D50720FEF705FC38BDB5
:401E000012020020520200206702002008B50220FEF74AFC002807D00220FEF729FC01F05BFE0220FEF750FC08BD10B5041C7720FEF71EFC0443E1B27720FEF727FC10BDC9
:401E400010B5041C7720FEF713FCA043C1B27720FEF71CFC10BD000038B51220FEF724FC002821D01420FEF703FC012808D11130FEF7FEFB012801D1063010E004200EE042
:401E80001220FEF7F5FB041E012C04D102F082F82043C0B203E002F07DF80623184002F073F81220FEF710FC1320FEF7FDFB002818D01420FEF7DCFB012810D01320FEF7EA
:401EC000D7FB012805D102F065F802231843C0B203E002F05FF80523184002F055F81320FEF7F2FB1420FEF7DFFB00281ED01420FEF7BEFB012808D11130FEF7B9FB0128C0
:401F000001D106300DE004200BE01220FEF7B0FB041C1320FEF7ACFB0123184098402340184302F031F81420FEF7CEFB7620FEF7BBFB002832D07620FEF79AFB051C0320EE
:401F4000FEF796FB02280CD1002D1FD001F068FF002001F073FF281C01F076FF01F09AFF16E00B20FEF784FB4F28EDD950240B20FEF77EFB8442E7DCE0B276212A1CFEF7DD
:401F8000C9FF642002F020F90134F0E701F048FF7620FEF775FD7620FEF796FB7020FEF783FB002833D07020FEF762FB0124204001F0E4F97020FEF75BFB204001F0EAF9FB
:401FC0000320FEF755FB022806D17020FEF758FD7020FEF779FB1AE00B20FEF749FB4F28F3D950240B20FEF743FB8442EDDC7020FEF73EFB0123021CE1B21A40081C702101
:40200000FEF788FF642002F0DFF80134EAE71D20FEF74AFB002807D00320FEF729FBFFF769F81D20FEF750FB1A20FEF73DFB002807D00320FEF71CFBFFF736F81A20FEF763
:4020400043FB1120FEF730FB00280FD01120FEF70FFB012807D101F035FE0F214840C1B27C20FEF79BFB1120FEF72EFB034B1B68002B02D10220FFF7E3FE38BD00020020F5
:4020800010B51620FEF7F4FA074C20701520FEF7EFFA5C2160701620FEF780FB15209B21FEF77CFB10BDC0462B02002010B5054C15206178FEF772FB21781620FEF76EFB29
:4020C00010BDC0462B020020F7B57D20FEF7ECFA00281DD0FFF7D4FF7920FEF7C9FA051C7A20FEF7C5FA041C7B20FEF7C1FA211C021C281CFEF70EFF00217D20FEF74EFBF6
:402100007D20FEF7E1FA7D20FEF7BAFCFFF7CEFF7E20FEF7C9FA00281CD0FFF7B1FF7920FEF7A6FA041C7A20FEF7A2FA011C201CFEF7AAFE011C7C20FEF730FB00217E2010
:40214000FEF72CFB7E20FEF7BFFA7E20FEF798FCFFF7ACFF0B20FEF78BFA0025A84202D04F38400085B25020FEF79EFA00281ED000242BB29C4211DA0127231C3B401233A7
:4021800050200193FEF774FA021C224166105036F6B23A40301C0199FEF7BCFE0134082CE7D15020FEF76CFC5020FEF78DFA5120FEF77AFA00281FD000242BB2083B9C4297
:4021C00011DA0127231C3B40123351200193FEF74FFA021C224166105436F6B23A40301C0199FEF797FE0134082CE6D15120FEF747FC5120FEF768FA5220FEF755FA002808
:402200001FD000242BB2103B9C4211DA0127231C3B40123352200193FEF72AFA021C224166105836F6B23A40301C0199FEF772FE0134082CE6D15220FEF722FC5220FEF756
:4022400043FA5320FEF730FA00281FD000242BB2183B9C4211DA0127231C3B40123353200193FEF705FA021C224166105C36F6B23A40301C0199FEF74DFE0134082CE6D148
:402280005320FEF7FDFB5320FEF71EFA5420FEF70BFA002823D00B20FEF7EAF94F2806D85420FEF7EDFB5420FEF70EFA17E00024251C0B205035EDB2FEF7DAF98542EFD89A
:4022C0005420FEF7D5F9021C01232241281C1A4014210134FEF71EFE092CE9D1E0E75520FEF7E2F9002823D00B20FEF7C1F9572806D85520FEF7C4FB5520FEF7E5F917E034
:402300000024251C0B205835EDB2FEF7B1F98542EFD85520FEF7ACF9021C01232241281C1A4014210134FEF7F5FD092CE9D1E0E77420FEF7B9F900281FD07420FEF798F9EF
:40234000011C1520FEF72AFA50240B20FEF790F984420CDC7420FEF78BF91521021CE0B2FEF7D8FD642001F02FFF0134EDE77420FEF786FB7420FEF7A7F97520FEF794F974
:4023800000281FD07520FEF773F9011C1620FEF705FA50240B20FEF76BF984420CDC7520FEF766F91621021CE0B2FEF7B3FD642001F00AFF0134EDE77520FEF761FB7520AC
:4023C000FEF782F97320FEF76FF9002819D0FFF757FE00211B20FEF7E1F97320FEF748F903231840194B4000195C1C20FEF7D6F91D200021FEF7D2F9FFF758FE7320FEF7A4
:4024000063F97820FEF750F900281DD0FFF738FE7820FEF72DF9C30701D5FFF741F87820FEF726F90224204209D0FFF741F87820FEF71EF9A043C1B27820FEF7AFF97820A4
:40244000FEF742F9FFF732FEF7BDC04670570000FEE7000070B51049104B01394A1C15D000221E685C689D68A018AA4203D0B058A0500432F8E7021CDC68151AA54202D003
:40248000002520C2F9E710330139E7E703F0A0F8FDF7FCFFFEE7C046010000008C5B000008B500239A000B49032B01D80A4989580A4801338150302BF4D1FDF7ADFD00225D
:4024C000074B01211A608022D20513680B43136008BDC046512400000000000000000020C0000020034B1B78FF2B02D10022024B1A707047CE0000203002002008B5094B1A
:402500001B78FF2B0CD08021074A090613680B431360064B1B78002B02D00B2001F014FE08BDC046CE000020000007408A02002010B5054C2378002B03D1FFF7D3FF01236E
:402540002370FFF7DBFF10BD3002002008B50B2001F004FE0D4A0B2013685B005B08136001F006FE0A4B1B78012B02D100F0C4F90BE0082B02D100F005FE06E0042B04D179
:40258000044A054B11680B40136008BD00000740CE00002048000740FFDFFFFF014B58607047C046300200200023F0B591B0002602AC09AD1E515E5104331C2BF7D10128AE
:4025C00001D0082807D10E23029303930A3B09936B6000262DE0022815D10F2301240293039304930622002906D12C606A60AC600593EC60061C1CE02A606C60AA6005931A
:40260000EA600D2615E0012904D109230393053B6B600EE001231A4202D009212B600291022300261A4204D009221E1C0392033A6A60029A294F11043B68294A294C134051
:402640000B433B60099BD8B201F0EEFC1022F30702D52368134301E0236893432360039A3B6811050192204A13400B433B60287901F0E6FC2022B30702D52368134301E027
:40268000236893432360049A3B6811060192174A13400B433B60287A01F0BAFC4022730702D52368134301E02368934323603B68059A1B0112071B0913433B60E868C0B2BE
:4026C00001F0CAFC8022330702D52368134301E023689343236011B0F0BDC04600000140FFFFF0FF18000440FFFF0FFFFFFFFFF080200A4B40001A6802420AD0084A126832
:40270000520406D41A680749114019601A6802431A600222044B1A607047C0460000074060000740FFFEFFFF6C000740F8B5002800D1A0E00021041C0A1C0120FFF734FF6F
:4027400001230C204C4A217F13704C4A4C4D11704C4A217E13704C4A267811704B4A2E701168014311602068111C984204D0C820678C4000874205D80B68454A13430B60EB
:40278000002303E01068434901401160A269E169002A01D0802252028027481E81413F010902381C0A433C490A600F21226892071043A268013A0A401043071CFF206268D9
:4027C000013A12010240111C3A1C0A4333490A603349002B01D10B1C00E0324B324A13600023324A1360F20709D56369FF221804FF231B04184023695B0013400343002478
:402800002B4A0B2013602B4B19602B4B1C6001F0A5FC0B20022101F07FFC28490B2001F073FC0122264B1C60264B1C60264B1C60264B1C6029780A40A24201D04C22FF3246
:40284000234B1A6002230B4001D01423FF33214A13601022204B1A700023204A1370204A1360204A1360204A1370204A1380204A1360204A1360F8BDCE0000208902002005
:402880008B0200208A0200208D0200207000074000000202FFFFFDFD0000074060000740070100800703008000030740040307401003074000020740040207401943000079
:4028C000C80E0740880E0740C80F0740880F0740480F0740080F074098020020DC020020E8020020E4020020EC020020C4020020B0020020CC020020002208B5044B0B2011
:402900001A6001F035FC1022024B1A7008BDC046880F0740980200200B4B1B68002B0ED00A4B18680A4B1A68904202D31B68C01A09E01A68074B1B68C018801A03E0064B17
:4029400018680F23184070477C020020A40200209C02002084020020080307408021124B70B518684902114B114A002814D000251048066805601C682143196019680A404F
:402980001A600D4B1A680D4B1A600D4B0D4A1D700D4B1A60066005E018680143196019680A401A6070BDC0467C02002004030740FFFFFEFFC80F07409C020020A40200205A
:4029C000AC020020ED0F0000C00F07408021104B30B5186849020F4B0F4A002811D000250E48046805601D682943196019680A401A600B4B1A680B4B1A6002239C43046084
:402A000005E018680143196019680A401A6030BD9402002004020740FFFFFEFF880F0740A8020020A002002010B50A4BCCB21A78094B082A03D11B681818047009E01A68C4
:402A40004000121814701B68013089B21818090A017010BD8E0200207C020020094B1A78094B082A04D11B6818180078C0B208E019684300CA180133CB181278187800020B
:402A8000104370478E0200207C02002038B50E4B1B68002B14D00D4B0D4D1A682B6800209A420FD00B4B2C681B6801341B1B5A1E93415B421C40201CFFF7D0FF2C6001E0B9
:402AC000054B186838BDC0467C020020A40200209C020020840200204003074010B50A4BCCB21A78094B082A03D11B681818047009E01A684000121814701B68013089B2C6
:402B00001818090A017010BD8C02002094020020194B70B51B68002B24D0184D184B2C681B6801341B1B5A1E93415B421C40154B1A689442FBD02A681B689A4205D1124B4F
:402B40001A680F231340082B12D102260F4B011C1E60201CFFF7C2FF0D4A2C6013683343136007E0084B1A680F231340082BF9D0084B186070BDC04694020020A00200202E
:402B800090020020A802002008020740800F0740880F074040020740094B1A78094B082A04D11B6818180078C0B208E019684300CA180133CB181278187800021043704762
:402BC0008C02002094020020014B1878C0B27047DC02002010B50B2001F0C0FA0D21064B18781A78C4B28A430B201A7001F0ACFA0F20204010BDC046DC02002010B50B2053
:402C000001F0ACFA2F22064B0B201C781978E4B20A401A7001F098FA0F23201C984310BDDC020020FF22044940000B6810409343184308607047C0461003074038B50028D4
:402C400010D0041C0D1C0B2001F088FA064B074A1C60074B0B201D6000231360054A136001F072FA38BDC046D0020020E8020020F0020020D802002038B500280ED0041CAA
:402C80000D1C0B2001F06AFA0022054B0B201C60044B1D60044B1A6001F056FA38BDC046D4020020E0020020E4020020014B18687047C046E40200200022014B1A60704755
:402CC000E80200200022014B1A607047E40200200549064B0A6880061340C02212051040184308607047C04620000740FFFFFFF338B5002800D1B2E0041C002202202168B6
:402D0000FFF752FC0222564BE16B1A70554AA36955481370554A1170554A216B1160554A217F1170FF22E16A114001605249A06B08605249206A0870616B0A4050490A608B
:402D4000E268511E0F220A40002B01D080235B00802149040A4313434A4A1360A56A60686B1E9D411023034000D00223A26891000C220A4061692A43002900D01021C0258B
:402D80000006AD04284002431A4311432268002A01D0802212063C4B0A431A60E369626A591E0F231940002A01D08022520080231B0619432369002B01D080239B000A4335
:402DC0001343324A13600723626C1340304A1360236A5A1E0F231A40636A002B01D080235B00802109060A4313432A4A002513600723E26C0B201340274A136001F0AEF92D
:402E00000B20022101F088F924490B2001F07CF9234B281C1D60234B1D608023226C1B011340214A13608023A26C9B0013401F4A1360226C1E4B13401E4A1360A26C1E4B25
:402E400013401E4A1360FFF743FF1D4B1D601D4B1D601D4B1D701D4B1D601D4B1D6038BDCE00002089020020840200208A0200207C0200208E020020940200208C020020D1
:402E8000900200200000074020000740000307400403074000020740040207405D4A0000880E0740C80E0740480F0740080F0740FFF7FFFFC80F0740FFFDFFFF880F0740FD
:402EC000A40200209C020020AC020020A0020020A802002038B5002800D1F4E0041C042021686268FFF760FB0420774B226B1870764B616B1A70764B626D764D1A70764BA2
:402F0000A26B1A60227A754B1A70FF23194029607349256C0D6073490A70E26B25681340714A72491360022D22D1A3691022002B1CD063690022102B18D00132202B15D02F
:402F40002A1C302B12D00132602B0FD0021CC02B0CD0C02001328000834207D0C020C0001B1A5D425D4101326B421A400A6004E063695A1E0F2313400B60A26C0B68002AA4
:402F800002D18022920400E0594A13430B6023681A06C0239B041340564A13602369606A5A1E07231A40002800D040200243606C002801D08020C000A16A0243002901D0D1
:402FC00080214900E36A0A43002B01D080239B001A43494B1A60E068022806D01A683021002800D110390A431A60A368591E0F230B40E169002901D0802189000122194398
:403000006368134001D080231B063C4A0B4313600723E26D3A491A400A60226D1104FF2212040A40E16CC9B20A4336490A602269013A1340226A002A01D0802252001343C9
:40304000314A1360E068131C022806D012683021002800D110390A431A60A36861685A1E0F231A400D3B0B4001D080231B061343264A0B2013600723626E1340244A136085
:4030800001F06CF80B20022101F046F821490B2001F03AF80023204A1360204A1360204A1360204A1360A16D1F4A1160216E1F4A11601F4A13601F4A13601F4A13701F4A91
:4030C00013601F4A136038BDCE000020890200208A020020840200207C0200208E020020940200208C02002090020020000007400000010240000740480007400003074093
:4031000004030740100307404400074000020740040207405D4A0000880E0740C80E0740480F0740080F0740C80F0740880F0740A40200209C020020AC020020A002002019
:40314000A802002008B5FFF7E7FB031C0020834201D0FFF79BFCD822034B92001968114201D000201A6008BDC00F074010B5041C0134631E1878002802D0FFF7C9FCF7E7DC
:4031800010BD0000002208B5064B0B201A6000F0EFFF054B1B78002B00D00223034A137008BDC046880F074088020020000300208021034A090613680B4313607047C04650
:4031C00000000240024A13685B005B081360704700000240034A13681B0C1B04184310607047C0460000024080220C4BD2041A601A680B491A6000220A60196819600C2178
:40320000084B1960084B1A60084B31321A60084BCF321A60074B803A1A607047C0010540C8010540E4010540F8010540E8010540D4010540CC010540014B80B21860704737
:40324000CC01054038B50D1C041CAC4000F04AFF024B1C6000F04AFF38BDC0460800054010B5082400F03EFF054A13682343136000F03CFF201C1821FFF7E4FF10BDC0468A
:403280000000054010B5054C2378002B03D1FFF7ABFF01232370FFF7E3FF10BD3802002080220C4BD2041A601A680B491A6000220A60196819600C21084B1960084B1A60DE
:4032C000084B31321A60084BCF321A60074B803A1A6070474001054048010540640105407801054068010540540105404C010540014B80B2186070474C01054038B50D1CE8
:40330000041CAC4000F0EEFE024B1C6000F0EEFE38BDC0460800054010B5022400F0E2FE054A13682343136000F0E0FE201C1821FFF7E4FF10BDC0460000054010B5054C10
:403340002378002B03D1FFF7ABFF01232370FFF7E3FF10BD390200208021034A090613680B4313607047C04680000240024A13685B005B08136070478000024004230449BF
:4033800080000A689A43D2B2034013430B607047000204401023044900010A689A43D2B2034013430B60704700020440012304490A689A43D2B2034013430B607047C0465F
:4033C00000020440034B1B78FF2B02D10022024B1A707047CF0000203C02002008B5094B1B78FF2B0CD08021074A090613680B431360064B1B78002B02D00A2000F0A4FE28
:4034000008BDC046CF000020000006403103002010B5054C2378002B03D1FFF7D3FF01232370FFF7DBFF10BD3C02002008B50A2000F094FE0D4A0A2013685B005B08136078
:4034400000F096FE0A4B1B78012B02D100F08EF90BE0082B02D100F095FB06E0042B04D1044A054B11680B40136008BD00000640CF00002048000640FFDFFFFF014B5860D2
:403480007047C0463C020020002370B58EB000246D465C5107AD5C5104331C2BF7D1012801D0082807D10E23009301930A3B07936B60002425E002280DD10F230124009321
:4034C0000193093B002903D12C606B60041C18E02B606C6015E0012904D109230193053B6B600EE001231A4202D009212B600091022300241A4204D009221C1C0192033A40
:403500006A600F22154E33689343009A13433360079BD8B200F0B8FD0121331C104E32680C4202D01143316001E08A433260F0201A680199824309010A431A606868C0B2B6
:4035400000F0B4FD02223368144202D01A43326001E0934333600EB070BDC046100001401804044080200A4B40001A6802420AD0084A1268520406D41A680749114019607B
:403580001A6802431A600222044B1A607047C0460000064060000640FFFEFFFF6C000640F8B5002800D1A0E00021041C0A1C0120FFF76AFF01230C204C4A217F13704C4ADB
:4035C0004C4D11704C4A217E13704C4A267811704B4A2E701168014311602068111C984204D0C820678C4000874205D80B68454A13430B60002303E0106843490140116040
:40360000A269E169002A01D0802252028027481E81413F010902381C0A433C490A600F21226892071043A268013A0A401043071CFF206268013A12010240111C3A1C0A43A6
:4036400033490A603349002B01D10B1C00E0324B324A13600023324A1360F20709D56369FF221804FF231B04184023695B001340034300242B4A0A2013602B4B19602B4BD2
:403680001C6000F06BFD0A20022100F045FD28490A2000F039FD0122264B1C60264B1C60264B1C60264B1C6029780A40A24201D04C22FF32234B1A6002230B4001D0142380
:4036C000FF33214A13601022204B1A700023204A1370204A1360204A1360204A1370204A1380204A1360204A1360F8BDCF0000202003002034030020310300203003002040
:403700007000064000000202FFFFFDFD000006406000064007010080070300800003064004030640100306400002064004020640754B0000C80E0640880E0640C80F064081
:40374000880F0640480F0640080F064035030020740300206C03002060030020640300203C0300204403002054030020002208B5044B0A201A6000F0FBFC1022024B1A70EB
:4037800008BDC046880F064035030020014B18687047C0464403002008B50A2000F0DEFC00220121044B0A201A60044A13888B43138000F0C9FC08BD440300203C030020A7
:4037C00008B50A2000F0CAFC00220221044B0A201A60044A13888B43138000F0B5FC08BD540300203C03002010B50A2000F0B6FC064B1C88064BA4B21B789B0601D5042310
:403800001C430A2000F0A0FC201C10BD3C0300203503002010B50A2000F0A0FC0022044B0A201C88A4B21A8000F08EFC201C10BD3C0300201E4B70B51E6800F041FC0028BE
:40384000FBD0002000F014FC0F221A4C1A4D2368934323602B685B005B082B60B3060FD5002000F005FC0A2000F0AEFC012000F0FFFB00F013FC0028FBD00A2000F0A4FC76
:40388000002000F0F5FB0A2000F09EFC012080220A4B120618602B6813430F222B6023689343013A1343236000F0E2FB70BDC04664000640100001400000064068000640A3
:4038C000F7B5061C0F1C019200930425002942D0234C2378102B08D10A2000F03FFC214B6D191B68DB0736D408E023780425602B31D108211C4A13888B43138028232370CF
:4039000000231A4A02211360194A76001360019A184B194C1A60194B1F606B461A78184B1A70FF23104A1E4013888B431380154A154B1A604022154B1A60009BDB0703D58E
:40394000FFF778FF266002E0114B2660196040220025104B1A600A2000F0F6FB281CFEBD35030020640006403C030020480300205403002038030020400206404C0300201C
:403980005003002017030000000F0640800F064068000640880F0640F7B5061C0F1C01920093042400294AD0274D2B78102B08D10A2000F0D3FB254B24191B68DB073ED404
:4039C00008E02B780424602B39D10821204A13888B431380292300222B701E4B1E4C1A60019B1B4923601D4B76001F606B461A781B4B1C4D1A70FF230A881E40FE3B9A43F6
:403A00000A80194A19491E431160009A1A4203D0FFF710FF2E6003E00222154B2E601A602368144A072B01D8042306E08020124940000B6803430B600823002413600A204E
:403A400000F082FB201CFEBD35030020640006403C0300204403002040030020580300205003002040020640000F06401703000068000640C80F064060000640014B187885
:403A8000C0B270477403002010B50A2000F066FB0D21064B18781A78C4B28A430A201A7000F052FB0F20204010BDC0467403002010B50A2000F052FB2F22064B0A201C78AC
:403AC0001978E4B20A401A7000F03EFB0F23201C984310BD74030020FF22044940000B6810409343184308607047C0461003064038B5002810D0041C0D1C0A2000F02EFB54
:403B0000064B074A1C60074B0A201D6000231360054A136000F018FB38BDC046780300206C0300205C0300207C03002038B500280ED0041C0D1C0A2000F010FB0022054BFD
:403B40000A201C60044B1D60044B1A6000F0FCFA38BDC046700300206803002060030020014B18687047C046600300200022014B1A6070476C0300200022014B1A607047AF
:403B800060030020002208B5064B0A201A6000F0EFFA054B1B78002B00D00223034A137008BDC046880F064028030020980300208021034A090613680B4313607047C0465E
:403BC00040000240024A13685B005B081360704740000240034A13681B0C1B04184310607047C0464000024008B500F07BFA1021034A13780B43137000F078FA08BDC046D1
:403C000092000F40012108B5034A13780B431370FFF7EAFF08BDC04672000F4008B500F061FA1021034A13788B43137000F05EFA08BDC04692000F40012108B5034A1378A3
:403C40008B431370FFF7EAFF08BDC04672000F400723044A117899431170117803400B431370704782000F4008B50420FFF7F0FF08BD000010B5054C2378002B03D1FFF7D4
:403C8000F3FF01232370FFF7BDFF10BD4402002008B5011C014800F035FB08BD00000F408021034A090613680B4313607047C04640010240024A13685B005B0813607047F7
:403CC00040010240014B1878C0B2704761000F408021034A090613680B4313607047C04604000240024A13685B005B0813607047040002408122074B92041A600C22064BD7
:403D000006491A600023064A1360064A1160064A1360704780010540A4010540FFFF0000B8010540940105408801054008B500F0D9F90421034A13688B43136000F0D6F9D9
:403D400008BDC04600000540014B80B21860704788010540014B186880B270478801054038B50D1C041CAC4000F0BCF9024B1C6000F0BCF938BDC0460800054010B50424CB
:403D800000F0B0F9054A13682343136000F0AEF9201C1821FFF7E4FF10BDC0460000054010B5054C2378002B03D1FFF7A3FF01232370FFF7E3FF10BD450200208021034AD1
:403DC000090613680B4313607047C04648000240024A13685B005B08136070474800024000230C21084A1360084A1160084A0A391160FA21074A890011606421064A11606E
:403E0000064A13607047C046000105402401054038010540140105400C0105400801054008B500F05FF90121034A13688B43136000F05CF908BDC04600000540014B80B2D7
:403E40001860704708010540014B80B2186070470C01054038B50D1C041CAC4000F042F9024B1C6000F042F938BDC0460800054010B5012400F036F9054A13682343136091
:403E800000F034F9201C1821FFF7E4FF10BDC0460000054010B5054C2378002B03D1FFF79FFF01232370FFF7E3FF10BD46020020014B18607047C0463001054010B5041C9B
:403EC00000F010F9C021044AA40113688B432343136000F00BF910BD10E400E010B58024054B64021C60054B0433D8670120FFF7E5FF034B1C6010BD80E100E000000020EA
:403F000000E100E0014B18707047C04673000F40012304490A689A43D2B2034013430B607047C046000304400223044940000A689A43D2B2034013430B607047000304409A
:403F4000024B18688007C00F7047C046040304400223034A1068184010604008C0B27047100304408021034A090613680B4313607047C04644000240024A13685B005B089B
:403F80001360704744000240014B18707047C04670000F40014B1878C0B2704770000F400822034B1A60034A034BDA647047C04680E100E0512400000000002010B5041CFA
:403FC00000F090F8044AA40713689B009B082343136000F08BF810BD00E400E010B50824044B1C60044BD8640320FFF7E7FF034B1C6010BD80E100E00000002000E100E0BB
:40400000024B18688006C00F7047C04604020440034A044B116880040B4018431060704708000440FFFFE3FF034A044B116800030B4018431060704708000440FF8FFFFF08
:40404000034A044B1168C0030B4018431060704708000440FF7FFCFF034A044B116840050B4018431060704708000440FFFF1FFF012304490A689A43D2B2034013430B60FF
:404080007047C046000404400721034A13688B43184310607047C04608040440024B1868012318407047C046040404403821034AC00013688B431843106070470804044092
:4040C000024B18688007C00F7047C046040404400230800804D0C0460138FDD1C046C046C0467047EFF3108072B6704780F310887047C046C046C046802380009B05C3186D
:404100001868196070470000024B8000C3181868196070474000002038B5041C0D1CFFF7E1FFA308074A9B009B180322144094400634A240A5401968914329431960FFF743
:40414000D5FF38BD00E400E01F2318401E3B8340181C014B1860704700E100E01F2318401E3B8340181C014B1860704780E100E01F2318401E3B8340181C014B1860704781
:4041800080E200E0034A044913689BB20B4313607047C0460CED00E00400FA0510B5041C8022074B1202944205D91868FFF790FF044BE418F4E758686043FFF789FF10BD87
:4041C000D00000200080FFFF08B5034B1B7A5843FFF77EFF08BDC046D0000020F0B5C31E87B002932D2B64D8334B1B78984204D8324B1D78324BEDB21EE0324B1B78984225
:4042000004D8314B1D78314BEDB215E0304B1B78984204D82F4B1D782F4BEDB20CE02F4B1B78984204D82E4B1D782E4BEDB203E02D4B1D782D4BEDB21C782D4E029B03907A
:40424000F35CE4B20193FFF74DFF019B04900596284F2F2B05D9039B2A2B02D919263E6008E03F233E681E40019BB34205D2214B019A1A600520FFF72BFF1C4A039B944604
:4042800063441B781C4ADBB213601C4B05201D601B4B1C60FFF798FF019BB34206D9059B029A05209B5C3B60FFF712FF0498FFF71DFF07B0F0BDC046C0F1FF0FC1F1FF0FE5
:4042C000C2F1FF0FC3F1FF0FC4F1FF0FC5F1FF0FC6F1FF0FC7F1FF0FC8F1FF0FC9F1FF0FCAF1FF0FCBF1FF0FCCF1FF0FCDF1FF0F385B00002CFF0B4028FF0B401CFF0B408F
:4043000020FF0B40CBB203700B0A090CDBB2C9B24370817070470000C44BF7B51B68002B00D09847C24B1B68DB0702D50022C14B1A602020C04BC14C1A78024257D025789B
:40434000AA0701D4002270E0BD49002208680191C10506D5C026BB48B6000288324302800122012001990E68064209D09027B54EBF0032883A433280072D10D1021C01E06F
:40438000072D0AD1B0480068810706D5A026AD48B60002883243028001E0002AD2D0012202261878A74F1040301A844661463888084380B23880072D16D108201D7828407B
:4043C00010D0A1480568354202D000220260DEE29E480068C10526D401990968114200D0D5E220E0187020E0002119701DE0012122780A42A6D0954A15680222FF32154252
:40440000A0D01D78924A0D4206D002201178814311701178073004E0117881431170902110780143117000221A701978890600D444E121780224214200D1C3E210208049C0
:404440000D6805420CD00121824A10601A780A40A21A7C4C21880A4392B222801870B1E21D782D071AD50D68254209D0794A7548146088240288A4002243028001220DE0BD
:404480001C78E40702D52520187007E024241C70714C2468002C01D0704C206004201C78044200D19BE001241D78254243D008256B490E682E4223D06A496B480E68076819
:4044C0006A49F71B0F2609683140791AA94207D8002906D16649674A0E6832400A60221C291C654D04682D6801392C19634D2D68EDB225700468013404600029F1D117E0BC
:404500000968014214D058495B4E0D68366875195A4E3668F6B22E700D6801350D600D68504909688D4202D24749086000E0221C5348544949E008680221084220D0454A5F
:4045400051481160514D06680D31026828683140411A8420D20B22408A1A2A6029684C4A8000116037490A88024380200A80494A40021168014311601068474901402CE01F
:4045800046490868C00622D545490C683E49324D08680F2108403D4908280DD00E682868864209D208683F4D20180078C0B22860086801300860E9E708682968884202D1F6
:4045C00040202649086038483849086007E00968490604D52D4A11682D4A116002E0002A00D1EFE12249234A086802400A6000222F490A6019490A602E4A127892070CD5D6
:40460000012219780F480A400A218A1A01880A4392B2028060221A70D4E1274B1A681823920600D4083B084A1360CBE1340200208C0E0740880E0740980200208B0200202F
:404640000C0F0740C4020020680007404C0F0740DC020020000F0740C0020020880F0740CC0F0740BC020020B00200200803074060000740FFFEFFFFB80200204003074063
:40468000ED0F0000C00F074008020740B4020020CC02002004020740FFFFFEFF8C0F0740C802002040020740F3070000800F0740C80F0740C60200206400074010251978EF
:4046C000294000D13EE1012122780A4200D179E10222BD480468144234D0BC4C2260BC4C0D32256824682A40E40B2140B94C8A182678B949B94D964204D904260A78324378
:404700000A7004E027782E68D21BB21A2A602D68B34A15600022B34D2A6080252270B24C6D0222682A4322602568B04A2A40226002240A78A2430A700A78013C22430A70BB
:4047400010221A700822016811423ED09F490A60A7490A68920420D50F22A64C2568154217D0A54D2D78002D06D024682240012A02D1026852060CD4A04AA14D14682D684B
:404780002C19A04D2D68EDB22570146801341460E2E70C689C4A22400A609C4A8E491568141CAA0603D540250A782A430A700025974A1560974A226020240A78A2430A7027
:4047C0000A78103C22430A701C700268520641D5894A1278002A04D08A4A8E4912688B4A11608D4A7C491068102210420BD07D4802607B4A1068794A106002200A780243EF
:404800000A7012221DE0854A7C4812680068121A0420072A0ED97648082A05D1A024026824022243026007E080240268A401224302600820764A106020200A7802430A70D5
:4048400011221A700123764A764913605F4A1160754A13600822754B1968114225D06F4B66481B680168083B5B1A0124934201D90024131C002B0CD0614902680968013B6B
:404880008A1860490968C9B21170026801320260F0E7002C07D08020554900020A6802430A605B4A136008221FE01B685B071ED5544B52491A68594B08681B6898420CD2E2
:4048C0000120594BD2B218604D480B680068C3181A700B6801330B6006E0FDF709FF40213D4A13780B4313700422484B1A60504B1B68DB0666D54F4B1968354B1A680F232E
:404900001340082B1AD0354A4B4B14681B684B489C4208D21368CB181B78DBB20360136801331360E9E7FF232A4A036013789B06E3D413780133DBB21370DEE71022404BA8
:404940001A603FE03F4802685200520802601D70274B2D4A1C6822401A601C683A4A22401A602B4B2B4A19601E4B1960344B1A60364A264B1A602B4A144B1A60344A354BEF
:404980001A60802203681206134303601AE08020154A4002116801431160106813490140116013492C4A086802400A602849294A1160002216490A600A490A6010321A70F9
:4049C0000F3A32E5F7BDC0464C0F0740400F074008020740EC020020DC020020D8020020E8020020880F074004020740FFFFFEFF60000740080307408D020020E402002030
:404A0000D402002040030740FF5FFFFFC00F0740C80F0740ED0F000064000740E0020020800E0740FF0F00006C000740CC0F07408C0F0740D0020020F00200204002074096
:404A4000800F074000000740FFFCFFFFF307000017030000000F0740FFFEFFFF38B5304B1B68002B00D098472E4B1B78002B02D001222D4B1A602D4B1B68002B23D02C4B48
:404A80001B685B071FD52B4B1B681B0718D02A4B2A4D19682A4B2C681B6801341B1B5A1E93415B421C40274B1B689C4203D12022254B1A70E7E7201CFDF7B6FF2C60E2E786
:404AC0000422224B1A60224B1B68002B27D0214B1B689B0723D5204B1A680F231340082B1AD01E4B1E4D1A682B689A420FD01D4B2C681B6801341B1B5A1E93415B421C40AC
:404B0000201CFEF749F8184B18602C60E3E70221164A13688B4313600222154B1A6038BD3402002089020020C00E07407C020020CC0F07400803074040030740A402002028
:404B4000840200209C020020AC020020C00F0740940200208C0F074008020740A0020020A80200209002002040020740880F0740800F0740C44BF7B51B68002B00D0984771
:404B8000C24B1B68DB0702D50022C14B1A602020C04BC14C1A78024257D02578AA0701D4002270E0BD49002208680191C10506D5C026BB48B60002883243028001220120EB
:404BC00001990E68064209D09027B54EBF0032883A433280072D10D1021C01E0072D0AD1B0480068810706D5A026AD48B60002883243028001E0002AD2D0012202261878C2
:404C0000A74F1040301A844661463888084380B23880072D16D108201D78284010D0A1480568354202D000220260DEE29E480068C10526D401990968114200D0D5E220E088
:404C4000187020E0002119701DE0012122780A42A6D0954A15680222FF321542A0D01D78924A0D4206D002201178814311701178073004E01178814311709021107801439A
:404C8000117000221A701978890600D444E121780224214200D1C3E2102080490D6805420CD00121824A10601A780A40A21A7C4C21880A4392B222801870B1E21D782D0707
:404CC0001AD50D68254209D0794A7548146088240288A4002243028001220DE01C78E40702D52520187007E024241C70714C2468002C01D0704C206004201C78044200D11C
:404D00009BE001241D78254243D008256B490E682E4223D06A496B480E6807686A49F71B0F2609683140791AA94207D8002906D16649674A0E6832400A60221C291C654D9F
:404D400004682D6801392C19634D2D68EDB225700468013404600029F1D117E00968014214D058495B4E0D68366875195A4E3668F6B22E700D6801350D600D6850490968AD
:404D80008D4202D24749086000E0221C5348544949E008680221084220D0454A51481160514D06680D31026828683140411A8420D20B22408A1A2A6029684C4A800011603A
:404DC00037490A88024380200A80494A40021168014311601068474901402CE046490868C00622D545490C683E49324D08680F2108403D4908280DD00E682868864209D2F2
:404E000008683F4D20180078C0B22860086801300860E9E708682968884202D140202649086038483849086007E00968490604D52D4A11682D4A116002E0002A00D1EFE1B0
:404E40002249234A086802400A6000222F490A6019490A602E4A127892070CD5012219780F480A400A218A1A01880A4392B2028060221A70D4E1274B1A681823920600D4D6
:404E8000083B084A1360CBE1400200208C0E0640880E064035030020340300200C0F06403C030020680006404C0F064074030020000F064038030020880F0640CC0F06401D
:404EC00040030020440300200803064060000640FFFEFFFF5803002040030640ED0F0000C00F064008020640480300205403002004020640FFFFFEFF8C0F06404C03002018
:404F000040020640F3070000800F0640C80F0640500300206400064010251978294000D13EE1012122780A4200D179E10222BD480468144234D0BC4C2260BC4C0D32256841
:404F400024682A40E40B2140B94C8A182678B949B94D964204D904260A7832430A7004E027782E68D21BB21A2A602D68B34A15600022B34D2A6080252270B24C6D02226811
:404F80002A4322602568B04A2A40226002240A78A2430A700A78013C22430A7010221A700822016811423ED09F490A60A7490A68920420D50F22A64C2568154217D0A54D1B
:404FC0002D78002D06D024682240012A02D1026852060CD4A04AA14D14682D682C19A04D2D68EDB22570146801341460E2E70C689C4A22400A609C4A8E491568141CAA0669
:4050000003D540250A782A430A700025974A1560974A226020240A78A2430A700A78103C22430A701C700268520641D5894A1278002A04D08A4A8E4912688B4A11608D4A19
:405040007C491068102210420BD07D4802607B4A1068794A106002200A7802430A7012221DE0854A7C4812680068121A0420072A0ED97648082A05D1A0240268240222430D
:40508000026007E080240268A401224302600820764A106020200A7802430A7011221A700123764A764913605F4A1160754A13600822754B1968114225D06F4B66481B6897
:4050C0000168083B5B1A0124934201D90024131C002B0CD0614902680968013B8A1860490968C9B21170026801320260F0E7002C07D08020554900020A6802430A605B4A09
:40510000136008221FE01B685B071ED5544B52491A68594B08681B6898420CD20120594BD2B218604D480B680068C3181A700B6801330B6006E0FEF715FA40213D4A1378EB
:405140000B4313700422484B1A60504B1B68DB0666D54F4B1968354B1A680F231340082B1AD0354A4B4B14681B684B489C4208D21368CB181B78DBB20360136801331360D0
:40518000E9E7FF232A4A036013789B06E3D413780133DBB21370DEE71022404B1A603FE03F4802685200520802601D70274B2D4A1C6822401A601C683A4A22401A602B4B2A
:4051C0002B4A19601E4B1960344B1A60364A264B1A602B4A144B1A60344A354B1A60802203681206134303601AE08020154A4002116801431160106813490140116013498C
:405200002C4A086802400A602849294A1160002216490A600A490A6010321A700F3A32E5F7BDC0464C0F0640400F06400802064064030020740300207C0300206C03002027
:40524000880F064004020640FFFFFEFF600006400803064030030020600300207003002040030640FF5FFFFFC00F0640C80F0640ED0F00006400064068030020800E06408E
:40528000FF0F00006C000640CC0F06408C0F0640780300205C03002040020640800F064000000640FFFCFFFFF307000017030000000F0640FFFEFFFF02B47146490849000B
:4052C000095C49008E4402BC7047C046002243088B4274D303098B425FD3030A8B4244D3030B8B4228D3030C8B420DD3FF22090212BA030C8B4202D31212090265D0030B89
:405300008B4219D300E0090AC30B8B4201D3CB03C01A5241830B8B4201D38B03C01A5241430B8B4201D34B03C01A5241030B8B4201D30B03C01A5241C30A8B4201D3CB02DE
:40534000C01A5241830A8B4201D38B02C01A5241430A8B4201D34B02C01A5241030A8B4201D30B02C01A5241CDD2C3098B4201D3CB01C01A524183098B4201D38B01C01AF0
:40538000524143098B4201D34B01C01A524103098B4201D30B01C01A5241C3088B4201D3CB00C01A524183088B4201D38B00C01A524143088B4201D34B00C01A5241411AC7
:4053C00000D20146524110467047FFE701B5002000F0FCF802BDC0460029F7D003B5FFF775FF0EBC4243891A1847C04603460B437FD4002243088B4274D303098B425FD3B0
:40540000030A8B4244D3030B8B4228D3030C8B420DD3FF22090212BA030C8B4202D31212090265D0030B8B4219D300E0090AC30B8B4201D3CB03C01A5241830B8B4201D349
:405440008B03C01A5241430B8B4201D34B03C01A5241030B8B4201D30B03C01A5241C30A8B4201D3CB02C01A5241830A8B4201D38B02C01A5241430A8B4201D34B02C01A78
:405480005241030A8B4201D30B02C01A5241CDD2C3098B4201D3CB01C01A524183098B4201D38B01C01A524143098B4201D34B01C01A524103098B4201D30B01C01A5241FA
:4054C000C3088B4201D3CB00C01A524183088B4201D38B00C01A524143088B4201D34B00C01A5241411A00D201465241104670475DE0CA0F00D04942031000D340425340C0
:4055000000229C4603098B422DD3030A8B4212D3FC22890112BA030A8B420CD3890192118B4208D3890192118B4204D389013AD0921100E08909C3098B4201D3CB01C01A40
:40554000524183098B4201D38B01C01A524143098B4201D34B01C01A524103098B4201D30B01C01A5241C3088B4201D3CB00C01A524183088B4201D38B00C01A5241D9D233
:4055800043088B4201D34B00C01A5241411A00D20146634652415B10104601D34042002B00D54942704763465B1000D3404201B5002000F00BF802BD0029F8D003B5FFF7AE
:4055C00015FF0EBC4243891A1847C0467047C0460E4B70B500251E1C0D4CE41AA410A54204D0AB00F35898470135F8E700F0BCFA084B00251E1C084CE41AA410A54204D0DD
:40560000AB00F35898470135F8E770BD745B0000745B0000745B00007C5B0000031C8218934202D019700133FAE77047000000000100000000000000000000000000000059
:4056400058000000FE000000000000000000000000006400000000000300000008000000020000000200000010000000000000000100000000000000000000000000000050
:4056800000000000000000000A000000470200200A0000005D02002000000000000000000000000000000000010000000400000000000000000000000000000000000000E9
:4056C0000000000000000000000000000000000000000000000000000000000000000000080000000800000001000000010000000A000000470200200A0000005D0200209C
:40570000010000000400000000000000000000000000000000000000010000000000000000000000000000004A000000FE00000000000000000000000000640002000000B5
:405740000800000008000000000000004A000000FE000000000000000000000000009001710238019C0066004D00260019000C001D000E00020002000D0A537061726B466D
:40578000756E2053657269616C20436F6E74726F6C6C6564204D6F746F7220447269766572202853434D44290D0A00456E7465722027482720666F722068656C702E0D0ABB
:4057C0003E000D0A6F7666000D0A436F6D6D616E64733A0D0A00204D3C6D6F746F72206E756D3E3C462F523E3C6C6576656C3E202D2D204472697665206D6F746F720D0A18
:4058000000204D3C6D6F746F72206E756D3E3C492F433E202D2D20496E76657274206D6F746F720D0A0020573C6F66667365743E3C646174613E202D2D20577269746520E0
:4058400072656769737465720D0A0020523C6F66667365743E202D2D20526561642072656769737465720D0A002045202D2D20456E61626C650D0A002044202D2D2044697F
:405880007361626C650D0A0020423C647269766572206E756D3E202D2D204272696467650D0A00204E3C647269766572206E756D3E202D2D20556E2D6272696467650D0A02
:4058C0000020553C302D373E202D2D2053657420626175640D0A0045783A204D3146373520666F72206D6F746F72203120666F7277617264203735250D0A00323430300D8C
:405900000A00343830300D0A00393630300D0A0031343430300D0A0031393230300D0A0033383430300D0A0035373630300D0A003131353230300D0A000D0A696E76000D91
:405940000A666D74000D0A6E6F6D000046300F401C310F4030320F4031330F4005400F4005410F4004420F4011430F4002600F40050C070309050B0A0E020F02100112021A
:40598000130417012A012B083003310F3E013F0141044401460B480449FF4AFF4BFF4CEF4D554E304F48501C580459045A045B045D025F0161086308650867086850690AF8
:4059C0006A406BA86CC06E406FA8C105C404C9FFCAFFCBFFCCEFCD55CE32CF48D01CDA04DB04DD02DF01E108E308E508E708E850E90AEA40EBA8ECC0EE40EFA801C00A8060
:405A00001004188022012A203004320239544180424046404C01518052405E805F2A69146A80C001C208C402CA04CC03CE0ED089D210D6F04105440145ED460C470F481782
:405A400049FF4AFF4BFF4CEA4D554EB24F48501C52015A045B045D225F0161086308650867086850690A6A406BA86CC06E406FA888018A02930198069C01A702AE04B10206
:405A8000B206B501B601B880BE40D804D904DB04DC31DF01001009A01002181019081B80212229082C802D01310245804C014F05548056085D016608670568026C016E4081
:405AC0008180838086208804940296409C049D809E20A180A840AB02AE40AF28B203C002C203C401CA02CC01D010D210D680D870E20CE404E8010220030204100780C0F0E3
:405B0000A810AE20AF82E850ECC052025C80D401D6041C801F40252027106702831185208B40A440AA02B0C0C605C805D601E601E804EE04100E1101030405060708090A6F
:405B40000B0C0E0F101112131415161718191B1C1D1E1F2021222325262728292A2B2E2F3031323334350000F8B5C046F8BC08BC9E467047D1020000A1240000F8B5C04658
:405B8000F8BC08BC9E467047A9020000A05B0000C800002018000000C00200000000000000000000E8FDFFFF0000E02EC05D00001800000000366E0100000000000000009F
:405BC00000000000000000000000000000000000000000000000000000000000000000000000000000000000000000000000000000000000000000000000000000000000A5
:405C00000000000000000000000000000000000000000000000000000000000000000000000000000000000000000000000000000000000000000000000000000000000064
:405C40000000000000000000000000000000000000000000000000000000000000000000000000000000000000000000000000000000000000000000000000000000000024
:405C800000000000000000000000000000000000000000000000000000000000000000000000000000000000000000000000000000000000000000000000000000000000E4
:0200000490303A
:02000000B6E860
:0200000490402A
:200000000000000000000000000000000000000000000000000000000000000000000000E0
:0200000490501A
:0C000000000204B61193110104D4C87B67
:0200000490600A
:0100000001FE
:00000001FF