:400000000010002011000000011A0000011A000008B501F0F7FC0000F8B572B680220021D2005B4804F0F6FC80225A48D200002104F0F0FC0022141C5749FF255758243184
:400040003E1C081C6300AE433D4001336419CB186100013141188B4206D0581E00781D78801905700233F6E70432242AE4D14B4A4B4BC8211A604B4A4B4B09041A604B4A5D
:400080004B4B3C201A60FF224A4B10251A609923494A1B041360494A494C1360494A1160494A022113608022484B92041A60484A13780B43474913700B7883432838034314
:4000C0000B701621137804300B4313708F22424B1A60424A424B1A60F022424B1A60424BE63A1A60414A424B1A60424B424A1D60424B1A600922424B1A60424B063A1A608B
:4001000080222368D2021343236003F0F3FA22683D4B2021134023603C4A3D4B1A6030233C4A13603C4A11603C4A023111603C4A113915603B4A11603B4A3C4915603C4AA7
:40014000136023223B4B1A603B4B023A1A6080223A4B12061A60002323600A60384A39490A6039490A603949394A116039493A4A11603A493A4A11603A493B4A11603B4906
:400180003B4A11603B493C4A11603C4A1360F8BD00300F4000400F40B04B00000000FFFF00000140303000000800014000EE03000C0001401000014000500F4020500F4042
:4001C00000010B4028500F4030500F4038500F4000700F4001700F400000044092942400080004401800044000020440B66D000008020440000304409E6D00000803044039
:400200000804044018040440FFFFFBFF0600008004010B40080202400C0202402002024024020240280202402C0202400000024034020240380202403C02024008010B40F2
:4002400001000080400002408000024017000080040002405F09008044000240F301008008000240DF0100C048000240CF07008000010240CF0700C0400102400C020B407B
:4002800010B5064C2378002B07D1054B002B02D0044800E000BF0123237010BDE800002000000000244A000008B5084B002B03D00748084900E000BF07480368002B00D154
:4002C00008BD064B002BFBD09847F9E700000000244A0000EC000020C80000200000000008B5022003F0B8F80E2000F0C7F82020802100F005F92120802100F001F90E4B7E
:400300001B78022B0CD100F003FB0C4802F0A2FB02F018FB02F00CFB0A2003F0A1F962B60821072000F0FEFB03F04EF8002003F059F803F083F808BDCC000020190E000066
:400340000749084A0B78002B02D000230B7004E0538805498B4201D0013353807047C04604010020CC000020FFFF000010B500F0B7F9032000F0B6F8394C207002F07CFF97
:4003800003F0BAF821780020C9B200F0CBFB002003F09EF8334803F08DF92378022B03D0FA20800003F086F9012002F0EBFA02F073FF02F0D1FF2C490F2003F029F9C020B3
:4003C0002A4A2B4B2B4953600B6A00061B021B0A03430B620023936007331360264803F051F802F0C7FF03F029F8322003F062F902F034FA802002F00BFA02F08BFA8020D5
:4004000002F062FA2078C0B201F064F802F090FA62B60120011C00F085FB2378002B01D100F02EFE2378022B04D923780E2B01D800F084FC2378022B04D100F0EDFC00F0F9
:400440003FFC01E000F080FB2378022B02D101F0F2F901E001F06CF801F0FCF9DDE7C046CC000020DC0500004103000010E000E0BF5D000000ED00E0E1020000F0B5174BE4
:40048000DF7E9E7E42B2002A00DA0F20144C011C225CA44655070DD55C2F07D1585C0130585401231A4363465A5415E010209B2EE8D1F3E7950709D510209B2EE2D1585C52
:4004C0000130585401231A43625405E0195C0131195401231A432254F0BDC046050100208501002008B543B2002B04DA0F20FFF7C5FF002001E0014B185C08BD0501002029
:4005000043B270B5002B01DA0F2016E00F4C104A235C251C5E070AD5D47E5C2C02D0947E9B2C09D11154012213432B540CE09D0706D5957E9B2D03D01020FFF79FFF03E041
:40054000115401221343235470BDC046850100200501002008B520208021FFF7D1FF21208021FFF7CDFF22208021FFF7C9FF23208021FFF7C5FF24208021FFF7C1FF252000
:400580008021FFF7BDFF26208021FFF7B9FF27208021FFF7B5FF28208021FFF7B1FF29208021FFF7ADFF2A208021FFF7A9FF2B208021FFF7A5FF2C208021FFF7A1FF2D20C7
:4005C0008021FFF79DFF2E208021FFF799FF2F208021FFF795FF30208021FFF791FF31208021FFF78DFF32208021FFF789FF33208021FFF785FF34208021FFF781FF352047
:400600008021FFF77DFF36208021FFF779FF37208021FFF775FF38208021FFF771FF39208021FFF76DFF3A208021FFF769FF3B208021FFF765FF3C208021FFF761FF3D20C6
:400640008021FFF75DFF3E208021FFF759FF3F208021FFF755FF40208021FFF751FF41208021FFF74DFF08BD08B51C4B5C22181C9B217430DA769976017075330020993900
:400680001A70FFF73DFFA9210120FFF739FF02F0FDFD0F214840C1B20320FFF731FF76200021FFF72DFF7A200121FFF729FF79204A21FFF725FF0A200021FFF721FF0220B1
:4006C0001021FFF71DFF1E200721FFF719FF71200A21FFF715FFFFF73DFF08BD05010020002208B500211B4BD1541B4BD1540132802AF7D1181C02317C3019705970997037
:40070000D9709972D9720170191C7C3A50310A70191C51310A70191C52310A70191C53310A70191C54310A70191C55310A70191C76310A70191C70310A70191C9A76DA758A
:400740001A765A76713174330A701A70FFF78CFF08BDC046050100208501002008B543B2002B04DA0F20FFF789FE002003E0024B185C0123184008BD8501002008B543B2F0
:40078000002B03DA0F20FFF779FE04E00121024A135C8B43135408BD850100202F2811D9392802D8031C303B06E0602804D9662804D8031C573B01E0402803D9462801D85C
:4007C000031C373B181C70472423002808DB031E092B01DC303303E037330F2800DD2423D8B2704700232F280FD9392282425B41602802D9662806D901E0402805D946282B
:4008000003D8012301E00123F9E7181C7047000010B502281AD101F071F901F0BFFF0E20002101F0C3FF01F0AFFF1F480A2101F0DDFC0A211D4801F0F7FC1D4801F04EFAF6
:400840001C4B1878553001F0C5FC10E0012811D101F054F901F0A2FF174B0021188801F0A5FF01F091FF1248243001F00BFE01F037F916E00124032814D101F03FF901F038
:400880008DFF0021201C01F091FF01F07DFF0B48143001F005FD01F023F90B2002F0E0FE62B60024201C10BD5902002043020020284A0000CC000020D0000020A84A00006A
:4008C00008B502F09FF802F069FC0E20002102F06DFC02F059FC0B480A2102F0F5FB0A21094802F00FFC0948683002F045F94A2001F070FC02204A21FFF702FE02F074F8D0
:40090000002008BD630200204E020020A84A000008B502F077F802F041FC0E20002102F045FC02F031FC0E480A2102F0CDFB0A210C4802F0E7FB0C48683002F01DF902F089
:4009400001FC02F005FC02F08BFB02F09DFB0220FFF7C8FD02F0ACFB02F046F8002008BD630200204E020020A84A000008B502F049F802F013FC0E20002102F017FC02F0DC
:4009800003FC08480A2102F09FFB0A21064802F0B9FB06480C3002F0EFF802F025F8002008BDC046630200204E020020284B000030B585B06B460122197069460023051CE3
:4009C000002402F069FA02F0FBF9174B820704D49C4204D00134A4B2F5E79C4204D10C20FFF74CFDFFF7C2FF01AC281C211C0122002302F0BDFA02F0E3F9C307FBD502F070
:400A0000DFF9830501D5002404E002F0ABF90028F9D0247802F0EAF902F0AAF902F0BCF9201C05B030BDC04650C300001FB501AB19705A70191C0222002302F02DFA0024C1
:400A400002F0BEF90E4B820704D49C4204D00134A4B2F5E79C4204D10C20FFF70FFDFFF785FF02F0C3F9830502D50C20FFF706FD02F07EF902F090F9002004B010BDC046E2
:400A800050C300001FB501AC21706270A370211C0322002302F000FAC1B20D20FFF730FD002402F08DF90E4B820704D49C4204D00134A4B2F5E79C4204D10C20FFF7DEFCDA
:400AC000FFF754FF02F092F9830502D50C20FFF7D5FC02F04DF902F05FF9002004B010BD50C30000072310B50D495A5C002A14D00B7A934213D00024231C0A72934204DAD0
:400B00000121A4000C435B18F8E702F081FB201C02F0AAFB02F09AFB01E0013BE4D210BD0502002008B5024B1954FFF7DBFF08BD05020020002208B5024B1A54FFF7D2FF2B
:400B400008BDC04605020020F7B55A4D2C78042C00D9ADE0201C03F03BFE031E335E7900502301206B7002F0A7FC0A200021FFF7C7FC79204A21FFF7C3FC7A200221FFF7EF
:400B8000BFFC7C200021FFF7BBFC7E200121FFF7B7FC01248CE00A20FFF770FC79204A21FFF7AEFC7A200221FFF7AAFC7C200021FFF7A6FC7E200121FFF7A2FC022477E067
:400BC0007C20FFF78FFC01244A2816D169783130FFF796FC211C7D20FFF792FC69780B20FFF78EFC0A200021FFF78AFC6B7803345E2B02D801336B70033C0A20FFF772FC86
:400C0000C82804D91A200021FFF77AFC0424052002F050FD4CE07120FFF764FC041E0AD0254B71201E88FFF75DFC80B2042486423ED203243CE07220FFF754FC0028F8D052
:400C4000211C7220FFF75CFC042431E02020FFF749FC01F0DDFD2120FFF744FC01F034FE50260B20FFF73EFC864219DCF7B23C1C503C6400E4B2201C2230C0B2FFF732FC05
:400C800023340190E0B2FFF72DFC2021031C019A381CFFF7F7FE642002F022FD0136E0E70122064B1A70044B1B88002BFDD1C0E72C70F7BD0E020020CE00002004010020AB
:400CC00038B51D4B9C781D1C032C33D8201C03F07FFD30020C1A02F007FC01282AD101304A21FFF70DFC022424E00220FFF7FAFB4A281FD0012002F0DFFB1A200021FFF78B
:400D0000FFFB032416E002F0EFFB002806D1FA20800002F0CFFC02F0C1FC0BE02020FFF7E1FB01F075FD2120FFF7DCFB01F0CCFD00E00124AC7038BD0E02002010B502F096
:400D4000D1FA002002F0DCFA02F006FB01F014FAC3063DD5012002F0A9FB7620FFF7C2FB002809D002F030FB002002F03BFB02F065FB0720FFF7DEFE01F070FA234C02284E
:400D800006D1234B187820705978FFF7B9FB0EE001F064FA012803D11D4B1B78237006E001F05CFA022802D90620FFF767FB01F0FDF9030602D50520FFF760FB01F05AFA59
:400DC0002078FFF78FFB134B1870002002F06EFB01F0D2F9C30708D501F046FA01F0D2F9030702D50420FFF749FB02F08FFA041EFF2C00D9FF240920FFF774FB844203D9F7
:400E0000E1B20920FFF77CFB10BDC04611020020430200205902002038B502F01BF92F4CC30640D502F016F920231840051E3AD1012002F03BFB7620FFF754FB002809D068
:400E400002F0C2FA281C02F0CDFA02F0F7FA0720FFF770FE02F070F9022812D0032805D0012814D11E4B1B78637010E01C4D287860706978FFF744FB6078A9780130C0B29A
:400E800003E0174B187860705978FFF739FB02F0FBF8030602D50820FFF7F0FA02F058F9002002F003FB6078FFF71CFB0D4B0124187002F0CFF820420ED001F05DFC6040A5
:400EC000C0B201F04DFC02F03DF902F0C9F8030702D50720FFF7D2FA38BDC046110200204E0200206302002073B500F0EDFF002839D000F0E9FF1C4C051E1C4E09D0A57886
:400F000001F09CF8A3787055082BF2D80133A370EFE7307843B2002B0EDA7F231840E07001F02CF8E078FFF7DDFA6B46D871D879C0B201F0C5F80CE0A378012B0CD0022B57
:400F400004D1E0707178FFF7DBFA02E00620FFF795FA00F0DBFFA57001F00EFC01235840C0B201F0FDFB73BD110200206D02002038B52F4B1B78002B02D001222D4B1A601C
:400F80002D4B1B68002B25D02C4B1B685B0721D52B4B1B681B071AD02A4B2B4D19682B4B2C681B6801341B1B5A1E93415B421C40274B1B689C4203D12022264B1A7003E04D
:400FC000201C01F009F82C60FFF78EFFE0E70422214B1A60214B1B68002B27D0204B1B689B0723D51F4B1A680F231340082B1AD01D4B1E4D1A682B689A420FD01C4B2C681C
:401000001B6801341B1B5A1E93415B421C40201C01F09AF8174B18602C60E3E70221164A13688B4313600222144B1A6038BDC04685020020C00E074078020020CC0F0740DF
:401040000803074040030740A00200208002002098020020A8020020C00F0740900200208C0F0740080207409C020020A40200208C02002040020740880F0740800F074042
:40108000F7B501F037FBC6B2051CCC4C002E16D0012002F00BFA2379621D122B03D8D6540133237105E0D318013BC5481E7001F035FBE8B201F004F8002002F0F7F9237972
:4010C000651DEB18013B1E780A2E00D0F8E1012002F0ECF96379452B00D198E109D80D2B00D1E3E1422B00D199E10A2B00D0DAE1DCE1522B00D1E7E002D84D2B07D0D2E156
:40110000552B00D107E1572B00D1ABE0CBE1AB780226462B07D000260122523BDBB29A42764103239E1B631D9B5D462B03D0523B012B00D9C0E1A34B9B19013B1878FFF731
:401140002DFB051C87B2032E07D19E4B5878FFF725FB0A2358434719BFB2751CEDB263199B790A2B01D00D2B04D1012301930023009304E0F31C9D42F7D00135EEE7631D17
:40118000B54210D0585DFFF709FB019B019A5843009B013DC01883B200930A2353439BB2EDB20193EBE75B5D3DB2532B3DD10B20FFF798F94E384000C0B2854200DB7DE12C
:4011C000002F07D11720FFF78DF901214840C1B2172065E1012D06D11820FFF783F94540E9B218205CE1092D04DC5020FFF77AF9023D14E0112D04DC5020FFF773F90A3DFE
:401200000DE0192D04DC5020FFF76CF9123D06E0212D00DD4AE15020FFF764F91A3D0123AB405840C1B250203AE10126462B00D0654E0B20FFF756F94E384000C0B28542FC
:4012400000DB3BE16B460020185E7F236421584303F0C8FA4643311C2037FFB28039C9B2381C1DE16878FFF7BDFA002800D123E1A878FFF7B7FA002800D11DE1E878FFF7B7
:40128000B1FA002800D117E1607AFFF7ABFA002800D111E1A079FFF781FA071CE079FFF77DFA051C207AFFF779FA0090607AFFF775FA031C009A3801110105431943E8B28A
:4012C000C9B2FFF71DF924E06878FFF78BFA002800D1F1E0A878FFF785FA002800D1EBE06878FFF75BFA061CA878FFF757FA36013043C0B2FFF7F6F8051C0009C0B2FFF79F
:4013000063FA00F0DDFE0F202840FFF75DFA00F0D7FE2E48C8E06878FFF764FA002800D1CAE068783138072800D9BFE0284D03F04FFA040D172029323B61264801F0EEF9C1
:40134000C820400002F0B6F9234B5BE0234801F0E5F9C820400002F0ADF99C235B0051E01F4801F0DBF9C820400002F0A3F99C2348E01C4801F0D2F9C820400002F09AF920
:4013800066233FE0184801F0C9F9C820400002F091F94D2336E0154801F0C0F9C820400002F088F926232DE0114801F0B7F9C820400002F07FF9192324E0C046110200204B
:4013C000584B000016020020FFFF0000994B0000D00000205E4B000071020000654B00006C4B0000734B00007B4B0000834B00008B4B0000334801F091F9C820400002F085
:4014000059F90C2301202B80FFF702FA4EE07020FFF768F801214840C1B2702040E06878FFF7E0F900280ED0A878FFF7DBF9002809D0A878FFF7B2F9071C6878FFF7AEF98B
:401440004643F01907E0A079FFF7CCF9002833D0A079FFF7A3F980B205B2002809D11930FFF740F801214840C1B21920FFF748F801E0082D09DC5420FFF734F80123013D68
:40148000AB405840C1B254200AE0102D14DC5520FFF728F80123093DAB405840C1B25520FFF72EF802E0084801F038F900202071607101F0FBFF03E00448F5E70448F3E73D
:4014C000F7BDC046934B00009C4B0000A24B0000A84B000010B5041E03D10120FFF798F910E0012809D10320FFF792F900F00EFD0C490B2002F094F804E0022802D1FFF7C3
:40150000DFF901E0FFF732FA0748033C01F0A2FA0B2C05D80220FFF77BF9044800F016FB10BDC046710F0000190E00003D0D0000F7B57D20FFF712F9002816D07920FEF71E
:40154000D1FF051C7A20FEF7CDFF041C7B20FEF7C9FF211C021C281CFFF768FA7D200021FEF7CEFF7D20FFF709F97E20FFF7F6F8002815D07920FEF7B5FF041C7A20FEF71B
:40158000B1FF011C201CFFF713FA011C7C20FEF7B7FF7E200021FEF7B3FF7E20FFF7EEF80B20FEF79FFF0025A84202D04F38400085B25020FFF7D2F800281BD000242BB2FA
:4015C0009C4211DA0127231C3B40173350200193FEF788FF021C224166105036F6B23A40301C0199FFF722FA0134082CE7D15020FFF7C4F85120FFF7B1F800281CD0002454
:401600002BB2083B9C4211DA0127231C3B40173351200193FEF766FF021C224166105436F6B23A40301C0199FFF700FA0134082CE6D15120FFF7A2F85220FFF78FF8002885
:401640001CD000242BB2103B9C4211DA0127231C3B40173352200193FEF744FF021C224166105836F6B23A40301C0199FFF7DEF90134082CE6D15220FFF780F85320FFF73C
:401680006DF800281CD000242BB2183B9C4211DA0127231C3B40173353200193FEF722FF021C224166105C36F6B23A40301C0199FFF7BCF90134082CE6D15320FFF75EF830
:4016C0005420FFF74BF8002825D00B20FEF70AFF4F2803D85420FFF751F81CE00B20FEF701FF5728F6D80024251C0B205035EDB2FEF7F8FE8542EDD85420FEF7F3FE021CE6
:4017000001232241281C1A4019210134FFF78EF9092CE9D1DEE75520FFF720F8002825D00B20FEF7DFFE4F2803D85520FFF726F81CE00B20FEF7D6FE5F28F6D80024251CC2
:401740000B205835EDB2FEF7CDFE8542EDD85520FEF7C8FE021C01232241281C1A4019210134FFF763F9092CE9D1DEE77420FEF7F5FF00282CD07420FEF7B4FE011C1A20AB
:40178000FEF7BEFE0B20FEF7ADFE4F2803D87420FEF7F4FF1CE00B20FEF7A4FE5F28F6D80024251C0B205035EDB2FEF79BFE8542EDD87420FEF796FE021C01232241281CF8
:4017C0001A401A210134FFF731F9092CE9D1DEE77520FEF7C3FF00282CD07520FEF782FE011C1B20FEF78CFE0B20FEF77BFE4F2803D87520FEF7C2FF1CE00B20FEF772FE38
:401800005F28F6D80024251C0B205035EDB2FEF769FE8542EDD87520FEF764FE021C01232241281C1A401B210134FFF7FFF8092CE9D1DEE7F7BD08B50220FEF78FFF002838
:4018400007D00220FEF74EFE01F032FC0220FEF795FF08BD38B51720FEF780FF002821D01920FEF73FFE012808D11630FEF73AFE012801D1063010E004200EE01720FEF7AF
:4018800031FE041E012C04D101F046FE2043C0B203E001F041FE0623184001F037FE1720FEF76CFF1820FEF759FF002818D01920FEF718FE012810D01820FEF713FE012831
:4018C00005D101F029FE02231843C0B203E001F023FE0523184001F019FE1820FEF74EFF1920FEF73BFF00281ED01920FEF7FAFD012808D11630FEF7F5FD012801D106300E
:401900000DE004200BE01720FEF7ECFD041C1820FEF7E8FD0123184098402340184301F0F5FD1920FEF72AFF7620FEF717FF00282FD07620FEF7D6FD051C0320FEF7D2FDEA
:4019400002280CD1002D1FD001F03EFD002001F049FD281C01F04CFD01F070FD16E00B20FEF7C0FD4F28EDD950240B20FEF7BAFD8442E7DCE0B276212A1CFFF757F86420C9
:4019800001F0AEFE0134F0E701F01EFD7620FEF7F5FE7020FEF7E2FE002830D07020FEF7A1FD0124204000F0D5FF7020FEF79AFD204000F0DBFF0320FEF794FD022803D10E
:4019C0007020FEF7DBFE1AE00B20FEF78BFD4F28F6D950240B20FEF785FD8442F0DC7020FEF780FD0123021CE1B21A40081C7021FFF71CF8642001F073FE0134EAE738BD28
:401A0000FEE7000070B51049104B01394A1C15D000221E685C689D68A018AA4203D0B058A0500432F8E7021CDC68151AA54202D0002520C2F9E710330139E7E702F0C4FF3D
:401A4000FEF794FCFEE7C04601000000DC4D000008B500239A000B49032B01D80A4989580A4801338150302BF4D1FEF7D5FA0022074B01211A608022D20513680B431360C3
:401A800008BDC046011A00000000000000000020C0000020034B1B78FF2B02D10022024B1A707047D20000202C02002008B5094B1B78FF2B0CD08021074A090613680B43FE
:401AC0001360064B1B78002B02D00B2001F0C8FD08BDC046D2000020000007408602002010B5054C2378002B03D1FFF7D3FF01232370FFF7DBFF10BD2C02002008B50B2003
:401B000001F0B8FD0D4A0B2013685B005B08136001F0BAFD0A4B1B78012B02D100F0C4F90BE0082B02D100F005FE06E0042B04D1044A054B11680B40136008BD00000740E6
:401B4000D200002048000740FFDFFFFF014B58607047C0462C0200200023F0B591B0002602AC09AD1E515E5104331C2BF7D1012801D0082807D10E23029303930A3B0993C3
:401B80006B6000262DE0022815D10F2301240293039304930622002906D12C606A60AC600593EC60061C1CE02A606C60AA600593EA600D2615E0012904D109230393053B07
:401BC0006B600EE001231A4202D009212B600291022300261A4204D009221E1C0392033A6A60029A294F11043B68294A294C13400B433B60099BD8B201F0A0FC1022F3073F
:401C000002D52368134301E0236893432360039A3B6811050192204A13400B433B60287901F098FC2022B30702D52368134301E0236893432360049A3B6811060192174AAD
:401C400013400B433B60287A01F06CFC4022730702D52368134301E02368934323603B68059A1B0112071B0913433B60E868C0B201F07CFC8022330702D52368134301E0A8
:401C800023689343236011B0F0BDC04600000140FFFFF0FF18000440FFFF0FFFFFFFFFF080200A4B40001A6802420AD0084A1268520406D41A680749114019601A68024315
:401CC0001A600222044B1A607047C0460000074060000740FFFEFFFF6C000740F8B5002800D1A0E00021041C0A1C0120FFF734FF01230C204C4A217F13704C4A4C4D117094
:401D00004C4A217E13704C4A267811704B4A2E701168014311602068111C984204D0C820678C4000874205D80B68454A13430B60002303E01068434901401160A269E169DD
:401D4000002A01D0802252028027481E81413F010902381C0A433C490A600F21226892071043A268013A0A401043071CFF206268013A12010240111C3A1C0A4333490A60EE
:401D80003349002B01D10B1C00E0324B324A13600023324A1360F20709D56369FF221804FF231B04184023695B001340034300242B4A0B2013602B4B19602B4B1C6001F023
:401DC00059FC0B20022101F033FC28490B2001F027FC0122264B1C60264B1C60264B1C60264B1C6029780A40A24201D04C22FF32234B1A6002230B4001D01423FF33214A5D
:401E000013601022204B1A700023204A1370204A1360204A1360204A1370204A1380204A1360204A1360F8BDD2000020850200208702002086020020890200207000074099
:401E400000000202FFFFFDFD00000740600007400701008007030080000307400403074010030740000207400402074031380000C80E0740880E0740C80F0740880F07407F
:401E8000480F0740080F074094020020D8020020E4020020E0020020E8020020C0020020AC020020C8020020002208B5044B0B201A6001F0E9FB1022024B1A7008BDC0464E
:401EC000880F0740940200200B4B1B68002B0ED00A4B18680A4B1A68904202D31B68C01A09E01A68074B1B68C018801A03E0064B18680F231840704778020020A0020020B9
:401F00009802002080020020080307408021124B70B518684902114B114A002814D000251048066805601C682143196019680A401A600D4B1A680D4B1A600D4B0D4A1D7064
:401F40000D4B1A60066005E018680143196019680A401A6070BDC0467802002004030740FFFFFEFFC80F074098020020A0020020A8020020ED0F0000C00F07408021104B3A
:401F800030B5186849020F4B0F4A002811D000250E48046805601D682943196019680A401A600B4B1A680B4B1A6002239C43046005E018680143196019680A401A6030BD56
:401FC0009002002004020740FFFFFEFF880F0740A40200209C02002010B50A4BCCB21A78094B082A03D11B681818047009E01A684000121814701B68013089B21818090A4F
:40200000017010BD8A02002078020020094B1A78094B082A04D11B6818180078C0B208E019684300CA180133CB18127818780002104370478A0200207802002038B50E4BE7
:402040001B68002B14D00D4B0D4D1A682B6800209A420FD00B4B2C681B6801341B1B5A1E93415B421C40201CFFF7D0FF2C6001E0054B186838BDC04678020020A00200207A
:4020800098020020800200204003074010B50A4BCCB21A78094B082A03D11B681818047009E01A684000121814701B68013089B21818090A017010BD88020020900200206A
:4020C000194B70B51B68002B24D0184D184B2C681B6801341B1B5A1E93415B421C40154B1A689442FBD02A681B689A4205D1124B1A680F231340082B12D102260F4B011CC3
:402100001E60201CFFF7C2FF0D4A2C6013683343136007E0084B1A680F231340082BF9D0084B186070BDC046900200209C0200208C020020A402002008020740800F0740A1
:40214000880F074040020740094B1A78094B082A04D11B6818180078C0B208E019684300CA180133CB18127818780002104370478802002090020020014B1878C0B27047EE
:40218000D802002010B50B2001F074FA0D21064B18781A78C4B28A430B201A7001F060FA0F20204010BDC046D802002010B50B2001F060FA2F22064B0B201C781978E4B2D3
:4021C0000A401A7001F04CFA0F23201C984310BDD8020020FF22044940000B6810409343184308607047C0461003074038B5002810D0041C0D1C0B2001F03CFA064B074A71
:402200001C60074B0B201D6000231360054A136001F026FA38BDC046CC020020E4020020EC020020D402002038B500280ED0041C0D1C0B2001F01EFA0022054B0B201C6043
:40224000044B1D60044B1A6001F00AFA38BDC046D0020020DC020020E0020020014B18687047C046E00200200022014B1A607047E40200200022014B1A607047E002002016
:402280000549064B0A6880061340C02212051040184308607047C04620000740FFFFFFF338B5002800D1B2E0041C002202202168FFF752FC0222564BE16B1A70554AA36925
:4022C00055481370554A1170554A216B1160554A217F1170FF22E16A114001605249A06B08605249206A0870616B0A4050490A60E268511E0F220A40002B01D080235B0032
:40230000802149040A4313434A4A1360A56A60686B1E9D411023034000D00223A26891000C220A4061692A43002900D01021C0250006AD04284002431A4311432268002A3A
:4023400001D0802212063C4B0A431A60E369626A591E0F231940002A01D08022520080231B0619432369002B01D080239B000A431343324A13600723626C1340304A1360CB
:40238000236A5A1E0F231A40636A002B01D080235B00802109060A4313432A4A002513600723E26C0B201340274A136001F062F90B20022101F03CF924490B2001F030F91A
:4023C000234B281C1D60234B1D608023226C1B011340214A13608023A26C9B0013401F4A1360226C1E4B13401E4A1360A26C1E4B13401E4A1360FFF743FF1D4B1D601D4B7B
:402400001D601D4B1D701D4B1D601D4B1D6038BDD2000020850200208002002086020020780200208A02002090020020880200208C02002000000740200007400003074040
:40244000040307400002074004020740753F0000880E0740C80E0740480F0740080F0740FFF7FFFFC80F0740FFFDFFFF880F0740A002002098020020A80200209C020020E0
:40248000A402002038B5002800D1F4E0041C042021686268FFF760FB0420774B226B1870764B616B1A70764B626D764D1A70764BA26B1A60227A754B1A70FF231940296093
:4024C0007349256C0D6073490A70E26B25681340714A72491360022D22D1A3691022002B1CD063690022102B18D00132202B15D02A1C302B12D00132602B0FD0021CC02BC2
:402500000CD0C02001328000834207D0C020C0001B1A5D425D4101326B421A400A6004E063695A1E0F2313400B60A26C0B68002A02D18022920400E0594A13430B6023683D
:402540001A06C0239B041340564A13602369606A5A1E07231A40002800D040200243606C002801D08020C000A16A0243002901D080214900E36A0A43002B01D080239B0037
:402580001A43494B1A60E068022806D01A683021002800D110390A431A60A368591E0F230B40E169002901D080218900012219436368134001D080231B063C4A0B431360A6
:4025C0000723E26D3A491A400A60226D1104FF2212040A40E16CC9B20A4336490A602269013A1340226A002A01D0802252001343314A1360E068131C022806D012683021DE
:40260000002800D110390A431A60A36861685A1E0F231A400D3B0B4001D080231B061343264A0B2013600723626E1340244A136001F020F80B20022100F0FAFF21490B202A
:4026400000F0EEFF0023204A1360204A1360204A1360204A1360A16D1F4A1160216E1F4A11601F4A13601F4A13601F4A13701F4A13601F4A136038BDD200002085020020AB
:402680008602002080020020780200208A02002090020020880200208C0200200000074000000102400007404800074000030740040307401003074044000740000207405A
:4026C00004020740753F0000880E0740C80E0740480F0740080F0740C80F0740880F0740A002002098020020A80200209C020020A402002008B5FFF7E7FB031C0020834284
:4027000001D0FFF79BFCD822034B92001968114201D000201A6008BDC00F074010B5041C0134631E1878002802D0FFF7C9FCF7E710BD0000002208B5064B0B201A6000F0F7
:40274000A3FF054B1B78002B00D00223034A137008BDC046880F074084020020FC0200201023044900010A689A43D2B2034013430B60704700030440024B1868C006C00FBF
:402780007047C046040304408021034A090613680B4313607047C04640000240024A13685B005B081360704740000240034A13681B0C1B04184310607047C0464000024050
:4027C00080220C4BD2041A601A680B491A6000220A60196819600C21084B1960084B1A60084B31321A60084BCF321A60074B803A1A607047C0010540C8010540E40105407B
:40280000F8010540E8010540D4010540CC010540014B80B218607047CC01054038B50D1C041CAC4000F0EAFE024B1C6000F0EAFE38BDC0460800054010B5082400F0DEFEA1
:40284000054A13682343136000F0DCFE201C1821FFF7E4FF10BDC0460000054010B5054C2378002B03D1FFF7ABFF01232370FFF7E3FF10BD3402002080220C4BD2041A603A
:402880001A680B491A6000220A60196819600C21084B1960084B1A60084B31321A60084BCF321A60074B803A1A607047400105404801054064010540780105406801054017
:4028C000540105404C010540014B80B2186070474C01054038B50D1C041CAC4000F08EFE024B1C6000F08EFE38BDC0460800054010B5022400F082FE054A13682343136044
:4029000000F080FE201C1821FFF7E4FF10BDC0460000054010B5054C2378002B03D1FFF7ABFF01232370FFF7E3FF10BD350200208021034A090613680B4313607047C046CA
:4029400000000240024A13685B005B0813607047000002400423044980000A689A43D2B2034013430B607047000204401023044900010A689A43D2B2034013430B6070474D
:4029800000020440012304490A689A43D2B2034013430B607047C04600020440034B1B78FF2B02D10022024B1A707047D30000203802002008B5094B1B78FF2B0CD0802160
:4029C000074A090613680B431360064B1B78002B02D00A2000F044FE08BDC046D3000020000006402D03002010B5054C2378002B03D1FFF7D3FF01232370FFF7DBFF10BDDE
:402A00003802002008B50A2000F034FE0D4A0A2013685B005B08136000F036FE0A4B1B78012B02D100F08EF90BE0082B02D100F095FB06E0042B04D1044A054B11680B40C7
:402A4000136008BD00000640D300002048000640FFDFFFFF014B58607047C04638020020002370B58EB000246D465C5107AD5C5104331C2BF7D1012801D0082807D10E237C
:402A8000009301930A3B07936B60002425E002280DD10F23012400930193093B002903D12C606B60041C18E02B606C6015E0012904D109230193053B6B600EE001231A4262
:402AC00002D009212B600091022300241A4204D009221C1C0192033A6A600F22154E33689343009A13433360079BD8B200F056FD0121331C104E32680C4202D011433160E3
:402B000001E08A433260F0201A680199824309010A431A606868C0B200F052FD02223368144202D01A43326001E0934333600EB070BDC046100001401804044080200A4B5B
:402B400040001A6802420AD0084A1268520406D41A680749114019601A6802431A600222044B1A607047C0460000064060000640FFFEFFFF6C000640F8B5002800D1A0E033
:402B80000021041C0A1C0120FFF76AFF01230C204C4A217F13704C4A4C4D11704C4A217E13704C4A267811704B4A2E701168014311602068111C984204D0C820678C400029
:402BC000874205D80B68454A13430B60002303E01068434901401160A269E169002A01D0802252028027481E81413F010902381C0A433C490A600F21226892071043A26810
:402C0000013A0A401043071CFF206268013A12010240111C3A1C0A4333490A603349002B01D10B1C00E0324B324A13600023324A1360F20709D56369FF221804FF231B044B
:402C4000184023695B001340034300242B4A0A2013602B4B19602B4B1C6000F00BFD0A20022100F0E5FC28490A2000F0D9FC0122264B1C60264B1C60264B1C60264B1C6018
:402C800029780A40A24201D04C22FF32234B1A6002230B4001D01423FF33214A13601022204B1A700023204A1370204A1360204A1360204A1370204A1380204A1360204A43
:402CC0001360F8BDD30000201C030020300300202D0300202C0300207000064000000202FFFFFDFD00000640600006400701008007030080000306400403064010030640E9
:402D000000020640040206408D400000C80E0640880E0640C80F0640880F0640480F0640080F06403103002070030020680300205C03002060030020380300204003002014
:402D400050030020002208B5044B0A201A6000F09BFC1022024B1A7008BDC046880F064031030020014B18687047C0464003002008B50A2000F07EFC00220121044B0A2088
:402D80001A60044A13888B43138000F069FC08BD400300203803002008B50A2000F06AFC00220221044B0A201A60044A13888B43138000F055FC08BD5003002038030020E4
:402DC00010B50A2000F056FC064B1C88064BA4B21B789B0601D504231C430A2000F040FC201C10BD380300203103002010B50A2000F040FC0022044B0A201C88A4B21A801E
:402E000000F02EFC201C10BD380300201E4B70B51E6800F0DFFB0028FBD0002000F0B2FB0F221A4C1A4D2368934323602B685B005B082B60B3060FD5002000F0A3FB0A2053
:402E400000F04EFC012000F09DFB00F0B1FB0028FBD00A2000F044FC002000F093FB0A2000F03EFC012080220A4B120618602B6813430F222B6023689343013A13432360D2
:402E800000F080FB70BDC04664000640100001400000064068000640F7B5061C0F1C019200930425002942D0234C2378102B08D10A2000F0DFFB214B6D191B68DB0736D48F
:402EC00008E023780425602B31D108211C4A13888B4313802823237000231A4A02211360194A76001360019A184B194C1A60194B1F606B461A78184B1A70FF23104A1E40FD
:402F000013888B431380154A154B1A604022154B1A60009BDB0703D5FFF778FF266002E0114B2660196040220025104B1A600A2000F096FB281CFEBD310300206400064097
:402F40003803002044030020500300203403002040020640480300204C03002017030000000F0640800F064068000640880F0640F7B5061C0F1C01920093042400294AD00A
:402F8000274D2B78102B08D10A2000F073FB254B24191B68DB073ED408E02B780424602B39D10821204A13888B431380292300222B701E4B1E4C1A60019B1B4923601D4B22
:402FC00076001F606B461A781B4B1C4D1A70FF230A881E40FE3B9A430A80194A19491E431160009A1A4203D0FFF710FF2E6003E00222154B2E601A602368144A072B01D838
:40300000042306E08020124940000B6803430B600823002413600A2000F022FB201CFEBD310300206400064038030020400300203C030020540300204C03002040020640AB
:40304000000F06401703000068000640C80F064060000640014B1878C0B270477003002010B50A2000F006FB0D21064B18781A78C4B28A430A201A7000F0F2FA0F202040F5
:4030800010BDC0467003002010B50A2000F0F2FA2F22064B0A201C781978E4B20A401A7000F0DEFA0F23201C984310BD70030020FF22044940000B68104093431843086009
:4030C0007047C0461003064038B5002810D0041C0D1C0A2000F0CEFA064B074A1C60074B0A201D6000231360054A136000F0B8FA38BDC046740300206803002058030020F1
:403100007803002038B500280ED0041C0D1C0A2000F0B0FA0022054B0A201C60044B1D60044B1A6000F09CFA38BDC0466C030020640300205C030020014B18687047C046A8
:403140005C0300200022014B1A607047680300200022014B1A6070475C030020002208B5064B0A201A6000F08FFA054B1B78002B00D00223034A137008BDC046880F0640C0
:4031800024030020940300208021034A090613680B4313607047C04680000240024A13685B005B081360704780000240034A13681B0C1B04184310607047C0468000024090
:4031C00008B500F01BFA1021034A13780B43137000F018FA08BDC04692000F40012108B5034A13780B431370FFF7EAFF08BDC04671000F4008B500F001FA1021034A1378E2
:403200008B43137000F0FEF908BDC04692000F40012108B5034A13788B431370FFF7EAFF08BDC04671000F400723044A117899431170117803400B431370704782000F40B5
:4032400008B50420FFF7F0FF08BD000010B5054C2378002B03D1FFF7F3FF01232370FFF7BDFF10BD4002002008B5011C014800F0D5FA08BD00000F408021034A0906136825
:403280000B4313607047C04640010240014B1878C0B2704761000F408021034A090613680B4313607047C046040002408122074B92041A600C22064B06491A600023064A5C
:4032C0001360064A1160064A1360704780010540A4010540FFFF0000B8010540940105408801054008B500F089F90421034A13688B43136000F086F908BDC04600000540F0
:40330000014B80B21860704788010540014B186880B270478801054038B50D1C041CAC4000F06CF9024B1C6000F06CF938BDC0460800054010B5042400F060F9054A1368B2
:403340002343136000F05EF9201C1821FFF7E4FF10BDC0460000054010B5054C2378002B03D1FFF7A3FF01232370FFF7E3FF10BD410200208021034A090613680B43136087
:403380007047C0464800024000230C21084A1360084A1160084A0A391160FA21074A890011606421064A1160064A13607047C0460001054024010540380105401401054034
:4033C0000C0105400801054008B500F017F90121034A13688B43136000F014F908BDC04600000540014B80B21860704708010540014B80B2186070470C01054038B50D1C28
:40340000041CAC4000F0FAF8024B1C6000F0FAF838BDC0460800054010B5012400F0EEF8054A13682343136000F0ECF8201C1821FFF7E4FF10BDC0460000054010B5054CF8
:403440002378002B03D1FFF79FFF01232370FFF7E3FF10BD42020020014B18607047C0463001054010B5041C00F0C8F8C021044AA40113688B432343136000F0C3F810BD64
:4034800010E400E010B58024054B64021C60054B0433D8670320FFF7E5FF034B1C6010BD80E100E00000002000E100E0014B18707047C04673000F40012304490A689A430E
:4034C000D2B2034013430B607047C046000304400223044940000A689A43D2B2034013430B60704700030440024B18688007C00F7047C046040304408021034A0906136816
:403500000B4313607047C04644000240014B18707047C04670000F40014B1878C0B2704770000F40034A044B116880040B4018431060704708000440FFFFE3FF034A044B45
:40354000116800030B4018431060704708000440FF8FFFFF034A044B1168C0030B4018431060704708000440FF7FFCFF034A044B116840050B40184310607047080004404D
:40358000FFFF1FFF012304490A689A43D2B2034013430B607047C046000404400721034A13688B43184310607047C04608040440024B1868012318407047C04604040440BA
:4035C0003821034AC00013688B4318431060704708040440024B18688007C00F7047C04604040440000000000230800804D0C0460138FDD1C046C046C0467047EFF3108048
:4036000072B6704780F310887047C046C046C046802380009B05C3181868196070470000024B8000C3181868196070474000002038B5041C0D1CFFF7E1FFA308074A9B002E
:403640009B180322144094400634A240A5401968914329431960FFF7D5FF38BD00E400E01F2318401E3B8340181C014B1860704700E100E01F2318401E3B8340181C014B30
:403680001860704780E100E01F2318401E3B8340181C014B1860704780E200E0034A044913689BB20B4313607047C0460CED00E00400FA0510B5041C8022074B1202944274
:4036C00005D91868FFF790FF044BE418F4E758686043FFF789FF10BDD40000200080FFFF08B5034B1B7A5843FFF77EFF08BDC046D4000020F0B5C31E87B002932D2B64D84E
:40370000334B1B78984204D8324B1D78324BEDB21EE0324B1B78984204D8314B1D78314BEDB215E0304B1B78984204D82F4B1D782F4BEDB20CE02F4B1B78984204D82E4B9B
:403740001D782E4BEDB203E02D4B1D782D4BEDB21C782D4E029B0390F35CE4B20193FFF74DFF019B04900596284F2F2B05D9039B2A2B02D919263E6008E03F233E681E4028
:40378000019BB34205D2214B019A1A600520FFF72BFF1C4A039B944663441B781C4ADBB213601C4B05201D601B4B1C60FFF798FF019BB34206D9059B029A05209B5C3B6082
:4037C000FFF712FF0498FFF71DFF07B0F0BDC046C0F1FF0FC1F1FF0FC2F1FF0FC3F1FF0FC4F1FF0FC5F1FF0FC6F1FF0FC7F1FF0FC8F1FF0FC9F1FF0FCAF1FF0FCBF1FF0F74
:40380000CCF1FF0FCDF1FF0F884D00002CFF0B4028FF0B401CFF0B4020FF0B40CBB203700B0A090CDBB2C9B24370817070470000C44BF7B51B68002B00D09847C24B1B683F
:40384000DB0702D50022C14B1A602020C04BC14C1A78024257D02578AA0701D4002270E0BD49002208680191C10506D5C026BB48B6000288324302800122012001990E68BE
:40388000064209D09027B54EBF0032883A433280072D10D1021C01E0072D0AD1B0480068810706D5A026AD48B60002883243028001E0002AD2D0012202261878A74F1040DF
:4038C000301A844661463888084380B23880072D16D108201D78284010D0A1480568354202D000220260DEE29E480068C10526D401990968114200D0D5E220E0187020E09A
:40390000002119701DE0012122780A42A6D0954A15680222FF321542A0D01D78924A0D4206D002201178814311701178073004E011788143117090211078014311700022D2
:403940001A701978890600D444E121780224214200D1C3E2102080490D6805420CD00121824A10601A780A40A21A7C4C21880A4392B222801870B1E21D782D071AD50D6899
:40398000254209D0794A7548146088240288A4002243028001220DE01C78E40702D52520187007E024241C70714C2468002C01D0704C206004201C78044200D19BE0012433
:4039C0001D78254243D008256B490E682E4223D06A496B480E6807686A49F71B0F2609683140791AA94207D8002906D16649674A0E6832400A60221C291C654D04682D6892
:403A000001392C19634D2D68EDB225700468013404600029F1D117E00968014214D058495B4E0D68366875195A4E3668F6B22E700D6801350D600D68504909688D4202D25E
:403A40004749086000E0221C5348544949E008680221084220D0454A51481160514D06680D31026828683140411A8420D20B22408A1A2A6029684C4A8000116037490A881E
:403A8000024380200A80494A40021168014311601068474901402CE046490868C00622D545490C683E49324D08680F2108403D4908280DD00E682868864209D208683F4D5B
:403AC00020180078C0B22860086801300860E9E708682968884202D140202649086038483849086007E00968490604D52D4A11682D4A116002E0002A00D1EFE12249234A28
:403B0000086802400A6000222F490A6019490A602E4A127892070CD5012219780F480A400A218A1A01880A4392B2028060221A70D4E1274B1A681823920600D4083B084A6C
:403B40001360CBE1300200208C0E0740880E074094020020870200200C0F0740C0020020680007404C0F0740D8020020000F0740BC020020880F0740CC0F0740B80200201A
:403B8000AC0200200803074060000740FFFEFFFFB402002040030740ED0F0000C00F074008020740B0020020C802002004020740FFFFFEFF8C0F0740C4020020400207402B
:403BC000F3070000800F0740C80F0740C20200206400074010251978294000D13EE1012122780A4200D179E10222BD480468144234D0BC4C2260BC4C0D32256824682A40B3
:403C0000E40B2140B94C8A182678B949B94D964204D904260A7832430A7004E027782E68D21BB21A2A602D68B34A15600022B34D2A6080252270B24C6D0222682A4322606B
:403C40002568B04A2A40226002240A78A2430A700A78013C22430A7010221A700822016811423ED09F490A60A7490A68920420D50F22A64C2568154217D0A54D2D78002D8B
:403C800006D024682240012A02D1026852060CD4A04AA14D14682D682C19A04D2D68EDB22570146801341460E2E70C689C4A22400A609C4A8E491568141CAA0603D5402551
:403CC0000A782A430A700025974A1560974A226020240A78A2430A700A78103C22430A701C700268520641D5894A1278002A04D08A4A8E4912688B4A11608D4A7C4910686D
:403D0000102210420BD07D4802607B4A1068794A106002200A7802430A7012221DE0854A7C4812680068121A0420072A0ED97648082A05D1A024026824022243026007E054
:403D400080240268A401224302600820764A106020200A7802430A7011221A700123764A764913605F4A1160754A13600822754B1968114225D06F4B66481B680168083B87
:403D80005B1A0124934201D90024131C002B0CD0614902680968013B8A1860490968C9B21170026801320260F0E7002C07D08020554900020A6802430A605B4A136008226B
:403DC0001FE01B685B071ED5544B52491A68594B08681B6898420CD20120594BD2B218604D480B680068C3181A700B6801330B6006E0FDF755FF40213D4A13780B431370C7
:403E00000422484B1A60504B1B68DB0666D54F4B1968354B1A680F231340082B1AD0354A4B4B14681B684B489C4208D21368CB181B78DBB20360136801331360E9E7FF2302
:403E40002A4A036013789B06E3D413780133DBB21370DEE71022404B1A603FE03F4802685200520802601D70274B2D4A1C6822401A601C683A4A22401A602B4B2B4A196081
:403E80001E4B1960344B1A60364A264B1A602B4A144B1A60344A354B1A60802203681206134303601AE08020154A4002116801431160106813490140116013492C4A0868E7
:403EC00002400A602849294A1160002216490A600A490A6010321A700F3A32E5F7BDC0464C0F0740400F074008020740E8020020D8020020D4020020E4020020880F0740CC
:403F000004020740FFFFFEFF600007400803074089020020E0020020D002002040030740FF5FFFFFC00F0740C80F0740ED0F000064000740DC020020800E0740FF0F0000FF
:403F40006C000740CC0F07408C0F0740CC020020EC02002040020740800F074000000740FFFCFFFFF307000017030000000F0740FFFEFFFF38B5304B1B68002B00D09847C5
:403F80002E4B1B78002B02D001222D4B1A602D4B1B68002B23D02C4B1B685B071FD52B4B1B681B0718D02A4B2A4D19682A4B2C681B6801341B1B5A1E93415B421C40274B5C
:403FC0001B689C4203D12022254B1A70E7E7201CFEF702F82C60E2E70422224B1A60224B1B68002B27D0214B1B689B0723D5204B1A680F231340082B1AD01E4B1E4D1A6875
:404000002B689A420FD01D4B2C681B6801341B1B5A1E93415B421C40201CFEF795F8184B18602C60E3E70221164A13688B4313600222154B1A6038BD3002002085020020E9
:40404000C00E074078020020CC0F07400803074040030740A00200208002002098020020A8020020C00F0740900200208C0F0740080207409C020020A40200208C0200207E
:4040800040020740880F0740800F0740C44BF7B51B68002B00D09847C24B1B68DB0702D50022C14B1A602020C04BC14C1A78024257D02578AA0701D4002270E0BD490022A8
:4040C00008680191C10506D5C026BB48B6000288324302800122012001990E68064209D09027B54EBF0032883A433280072D10D1021C01E0072D0AD1B0480068810706D540
:40410000A026AD48B60002883243028001E0002AD2D0012202261878A74F1040301A844661463888084380B23880072D16D108201D78284010D0A1480568354202D000222E
:404140000260DEE29E480068C10526D401990968114200D0D5E220E0187020E0002119701DE0012122780A42A6D0954A15680222FF321542A0D01D78924A0D4206D002204D
:404180001178814311701178073004E0117881431170902110780143117000221A701978890600D444E121780224214200D1C3E2102080490D6805420CD00121824A106075
:4041C0001A780A40A21A7C4C21880A4392B222801870B1E21D782D071AD50D68254209D0794A7548146088240288A4002243028001220DE01C78E40702D52520187007E02C
:4042000024241C70714C2468002C01D0704C206004201C78044200D19BE001241D78254243D008256B490E682E4223D06A496B480E6807686A49F71B0F2609683140791A36
:40424000A94207D8002906D16649674A0E6832400A60221C291C654D04682D6801392C19634D2D68EDB225700468013404600029F1D117E00968014214D058495B4E0D6856
:40428000366875195A4E3668F6B22E700D6801350D600D68504909688D4202D24749086000E0221C5348544949E008680221084220D0454A51481160514D06680D3102687B
:4042C00028683140411A8420D20B22408A1A2A6029684C4A8000116037490A88024380200A80494A40021168014311601068474901402CE046490868C00622D545490C68A2
:404300003E49324D08680F2108403D4908280DD00E682868864209D208683F4D20180078C0B22860086801300860E9E708682968884202D140202649086038483849086096
:4043400007E00968490604D52D4A11682D4A116002E0002A00D1EFE12249234A086802400A6000222F490A6019490A602E4A127892070CD5012219780F480A400A218A1AD4
:4043800001880A4392B2028060221A70D4E1274B1A681823920600D4083B084A1360CBE13C0200208C0E0640880E064031030020300300200C0F0640380300206800064026
:4043C0004C0F064070030020000F064034030020880F0640CC0F06403C030020400300200803064060000640FFFEFFFF5403002040030640ED0F0000C00F064008020640CA
:40440000440300205003002004020640FFFFFEFF8C0F06404803002040020640F3070000800F0640C80F06404C0300206400064010251978294000D13EE1012122780A425B
:4044400000D179E10222BD480468144234D0BC4C2260BC4C0D32256824682A40E40B2140B94C8A182678B949B94D964204D904260A7832430A7004E027782E68D21BB21A0F
:404480002A602D68B34A15600022B34D2A6080252270B24C6D0222682A4322602568B04A2A40226002240A78A2430A700A78013C22430A7010221A700822016811423ED0DA
:4044C0009F490A60A7490A68920420D50F22A64C2568154217D0A54D2D78002D06D024682240012A02D1026852060CD4A04AA14D14682D682C19A04D2D68EDB22570146807
:4045000001341460E2E70C689C4A22400A609C4A8E491568141CAA0603D540250A782A430A700025974A1560974A226020240A78A2430A700A78103C22430A701C7002687D
:40454000520641D5894A1278002A04D08A4A8E4912688B4A11608D4A7C491068102210420BD07D4802607B4A1068794A106002200A7802430A7012221DE0854A7C4812685C
:404580000068121A0420072A0ED97648082A05D1A024026824022243026007E080240268A401224302600820764A106020200A7802430A7011221A700123764A764913603D
:4045C0005F4A1160754A13600822754B1968114225D06F4B66481B680168083B5B1A0124934201D90024131C002B0CD0614902680968013B8A1860490968C9B2117002689F
:4046000001320260F0E7002C07D08020554900020A6802430A605B4A136008221FE01B685B071ED5544B52491A68594B08681B6898420CD20120594BD2B218604D480B68BD
:404640000068C3181A700B6801330B6006E0FEF775FA40213D4A13780B4313700422484B1A60504B1B68DB0666D54F4B1968354B1A680F231340082B1AD0354A4B4B146810
:404680001B684B489C4208D21368CB181B78DBB20360136801331360E9E7FF232A4A036013789B06E3D413780133DBB21370DEE71022404B1A603FE03F48026852005208F6
:4046C00002601D70274B2D4A1C6822401A601C683A4A22401A602B4B2B4A19601E4B1960344B1A60364A264B1A602B4A144B1A60344A354B1A608022036812061343036050
:404700001AE08020154A4002116801431160106813490140116013492C4A086802400A602849294A1160002216490A600A490A6010321A700F3A32E5F7BDC0464C0F064018
:40474000400F06400802064060030020700300207803002068030020880F064004020640FFFFFEFF60000640080306402C0300205C0300206C03002040030640FF5FFFFFBB
:40478000C00F0640C80F0640ED0F00006400064064030020800E0640FF0F00006C000640CC0F06408C0F0640740300205803002040020640800F064000000640FFFCFFFF56
:4047C000F307000017030000000F0640FFFEFFFF02B4714649084900095C49008E4402BC7047C04603460B437FD4002243088B4274D303098B425FD3030A8B4244D3030BDE
:404800008B4228D3030C8B420DD3FF22090212BA030C8B4202D31212090265D0030B8B4219D300E0090AC30B8B4201D3CB03C01A5241830B8B4201D38B03C01A5241430B0B
:404840008B4201D34B03C01A5241030B8B4201D30B03C01A5241C30A8B4201D3CB02C01A5241830A8B4201D38B02C01A5241430A8B4201D34B02C01A5241030A8B4201D38C
:404880000B02C01A5241CDD2C3098B4201D3CB01C01A524183098B4201D38B01C01A524143098B4201D34B01C01A524103098B4201D30B01C01A5241C3088B4201D3CB0010
:4048C000C01A524183088B4201D38B00C01A524143088B4201D34B00C01A5241411A00D201465241104670475DE0CA0F00D04942031000D34042534000229C4603098B4226
:404900002DD3030A8B4212D3FC22890112BA030A8B420CD3890192118B4208D3890192118B4204D389013AD0921100E08909C3098B4201D3CB01C01A524183098B4201D369
:404940008B01C01A524143098B4201D34B01C01A524103098B4201D30B01C01A5241C3088B4201D3CB00C01A524183088B4201D38B00C01A5241D9D243088B4201D34B00C8
:40498000C01A5241411A00D20146634652415B10104601D34042002B00D54942704763465B1000D3404201B5002000F00BF802BD0029F8D003B5FFF715FF0EBC4243891AEB
:4049C0001847C0467047C0460E4B70B500251E1C0D4CE41AA410A54204D0AB00F35898470135F8E700F0E8F9084B00251E1C084CE41AA410A54204D0AB00F35898470135B9
:404A0000F8E770BDC44D0000C44D0000C44D0000CC4D0000031C8218934202D019700133FAE77047000000000100000000000000000000000000000058000000FE00000012
:404A400000000000000000000000640000000000030000000800000002000000020000001000000000000000010000000000000000000000000000000000000000000000B2
:404A80000A000000430200200A00000059020020000000000000000000000000000000000100000004000000000000000000000000000000000000000000000000000000FD
:404AC000000000000000000000000000000000000000000000000000080000000800000001000000010000000A000000430200200A000000590200200100000004000000AB
:404B000000000000000000000000000000000000010000000000000000000000000000004A000000FE000000000000000000000000006400020000000000000000000000C6
:404B4000000000004A000000FE0000000000000000000000000064006F76660D0A00323430300D0A00343830300D0A00393630300D0A0031343430300D0A00313932303075
:404B80000D0A0033383430300D0A0035373630300D0A003131353230300D0A00696E760D0A00666D740D0A006E6F6D0D0A00000043300F4016310F402F320F402F330F4093
:404BC00005400F4005410F4004420F4012430F4002600F4006040A220C100E2012112208240C260328052A0A3030340F3E1141044401460B480449FF4AFF4BFF4CEF4D554A
:404C00004E304F48501C58045A045B045D025F0161086308650867086850690A6A406BA86CC06E406FA8C104C401C9FFCAFFCBFFCCEFCD55CE32CF48D01CD201DA04DB043D
:404C4000DD22DF01E108E308E508E708E850E90AEA40EBA8ECC0EE40EFA80008016008021028110118801910418043014580470151805E805F2A682869406F01C007C2084A
:404C8000C40ED099D6F04104440145ED460C470F481749FF4AFF4BFF4CEA4D554EB24F48501C5A045B045D225F0161086308650867086850690A6A406BA86CC06E406FA855
:404CC0008A01970498039D01A501A702AE02B203B302B504B701B980BF40D804D904DB04DC31DF01001009201002181019082120228829082C802E0131803208458047013B
:404D00004F05548056085E0166086705680281208404880289018E8095019B019C029D20A180A404A840AB02AE40AF28B510C002C202C401CA02CC0AD090D680D870E603B6
:404D4000E8010220030204100780C0F0A810AE20AF82E850ECC052025602D401D6041C081F08274863088340870888048B088F04AA02B602C605C805D802E002E204E60134
:404D8000E802010E100E0000030405060708090A0B0C0E0F101112131415161718191B1C1D1E1F2021222325262728292A2B2E2F3031323334350000F8B5C046F8BC08BCC1
:404DC0009E467047A9020000511A0000F8B5C046F8BC08BC9E46704781020000F04D0000C800002020000000B802000000000000000000000300E8FD0C00FFFF0000E02EBA
:404E0000C05D00001800000000366E010000000000000000000000000000000000000000000000000000000000000000000000000000000000000000000000000000000098
:404E40000000000000000000000000000000000000000000000000000000000000000000000000000000000000000000000000000000000000000000000000000000000032
:404E800000000000000000000000000000000000000000000000000000000000000000000000000000000000000000000000000000000000000000000000000000000000F2
:404EC00000000000000000000000000000000000000000000000000000000000000000000000000000000000000000000000000000000000000000000000000000000000B2
:404F00000000000000000000000000000000000000000000000000000000000000000000000000000000000000000000000000000000000000000000000000000000000071
:0200000490303A
:020000006B94FF
:0200000490402A
:200000000000000000000000000000000000000000000000000000000000000000000000E0
:0200000490501A
:0C000000000204B61193110104CF7D270B
:0200000490600A
:0100000001FE
:00000001FF