:400000000010002011000000E1230000E123000008B502F0E7F90000F8B572B680220021D2005C4805F0BAFA80225B48D200002105F0B4FA0022141C5849FF25575824313B
:400040003E1C081C6300AE433D4001336419CB186100013141188B4206D0581E00781D78801905700233F6E70432242AE4D14C4A4C4B90211A604C4A4C4BC9031A604C4AD1
:400080004C4B3C201A60FF224B4B10251A6099234A4A1B0413604A4A4A4C13604A4A11604A4A022113608022494B52041A60494A13780B43484913700B788343283803434A
:4000C0000B701621137804300B4313708F22434B1A60434A434B1A60F022434B1A60434BE63A1A60424A434B1A60434B434A1D60434B1A600422434B1A60434B05321A608D
:40010000424B063A1A6080222368D2021343236003F0F4FF22683E4B3E49134023603E4A3E4B1A6020223E4B1A603E4B02321D603D4B1A603D4B0E321A6011230B603C49D6
:400140000A603C4A3C49136023223C4B1A603C4B023A1A6080233B4A1B061360002222600B6039490B6039490B603949394B196039493A4B19603A493A4B19603A493B4BE6
:4001800019603B493B4B19603B493C4B19603C4B1A60F8BD00300F4000400F40CC5800000000FFFF00000140303000000800014000EE03000C0001401000014000500F40C1
:4001C00020500F4000010B4028500F4030500F4038500F4000700F4001700F400000044092942400080004401800044000020440B66D000008020440000304409E6D0000C9
:40020000080304400C0304400804044018040440FFFFFBFF280202400600008004010B40080202400C02024020020240240202402C02024034020240000002403802024024
:400240003C02024008010B40400002408000024017000080040002405F09008044000240F301008008000240DF0100C048000240CF07008000010240CF0700C04001024081
:400280000C020B4010B5064C2378002B07D1054B002B02D0044800E000BF0123237010BDE800002000000000AC55000008B5084B002B03D00748084900E000BF0748036864
:4002C000002B00D108BD064B002BFBD09847F9E700000000AC550000EC000020C800002000000000F7B572B60126022003F0A8FD0E2000F079F9224B1F201E7000F0A8F932
:40030000071C1F2000F0A4F944071F2000F0A0F905071F2000F09CF9C006C30FA40FED0F0193374207D02020802100F027FA2120802100F023FA012D04D1124B1878C0B27D
:4003400000F0A2FE019B012B04D10E4B1878C0B200F0C0FE012C04D0022C04D101F070F801E001F065F80821072000F0E1FE03F01FFD002003F02AFD03F054FD62B6F7BD43
:4003800004010020CC00002070B572B603F054FF03F0A6FD172000F05BF90325284001281ED00426244C02281DD0172000F050F9304207D0281C00F04BF900F065FE642028
:4003C00003F07CFE172000F043F903072ED5032000F03EF900F07EFE642003F06FFE25E001F026F825E0172000F032F9304207D0281C00F02DF900F047FE642003F05EFE70
:40040000172000F025F9030707D5032000F020F900F060FE642003F051FE782000F018F902210843C1B2782000F0A8F9201C03F021FF62B670BDC046890300000849094AE4
:400440004B78002B02D000234B7006E05188064B994203D0538801339BB253807047C04604010020CC000020FFFF000038B500F0A7FA032000F0ECF8544C207003F0E2FBB0
:4004800003F0D6FB03F040FD03F034FD002003F013FD642003F012FE2378022B03D0FA20800003F00BFE012002F048FF03F0E2FB03F0D6FB03F002FC03F03AFC44490F2085
:4004C00003F0AAFDC020434A434B444953600B6A00061B021B0A03430B6200239360073313603F4803F0C2FC03F03AFC03F02EFC03F05EFC03F096FC322003F0DFFD02F091
:4005000089FE802002F060FE02F0E0FE802002F0B7FE2078C0B200F045FD2078C0B200F083FD2078C0B200F0AFFD2078C0B200F0D1FD02F0E3FE02F0D7FE2378022B02D0D5
:40054000284803F097FE62B60120011C00F0F0FD03F0B4FB002003F0BFFB03F0E9FB2378002B05D023780D2B02D023780E2B02D101F062F807E02378022B04D923780C2B7A
:4005800001D801F053FB2378022B06D101F0A6FB00F0E0FD01F002FC03E000F031FE01F05BFD01F021FC03F09DFB642104F04EFE051EFF2D00D9FF25092000F049F8854220
:4005C000C6D9E9B2092000F0D9F8C1E7CC0000203D04000010E000E0BF5D000000ED00E0E502000089030000F0B5174B9F7D5E7D42B2002A00DA0F20144C011C225CA446CC
:4006000055070DD55C2F07D1585C0130585401231A4363465A5415E010209B2EE8D1F3E7950709D510209B2EE2D1585C0130585401231A43625405E0195C01311954012324
:400640001A432254F0BDC046080100208801002008B543B2002B04DA0F20FFF7C5FF002001E0014B185C08BD0801002008B543B2002B03DA0F20FFF7B7FF01E0014B1954A0
:4006800008BDC0460801002008B543B2002B04DA0F20FFF7A9FF002003E0024B185C0123184008BD8801002008B543B2002B03DA0F20FFF799FF04E00121024A135C8B430A
:4006C000135408BD8801002070283BD013D852282CD007D8502825D051284BD1264A0221136845E0542829D024D3552842D1224A202113683CE075282CD008D8722825D0C5
:40070000742837D180211C4A4900136830E07D2825D07E2828D076282CD18021164AC900136825E0144A0121136821E0124A042113681DE0104A0821136819E00E4A1021A8
:40074000136815E00C4A4021136811E00A4A802113680DE08021084A8900136808E08021054A0901136803E08021034A490113680B4313607047C0460802002043B270B5DD
:40078000041C0F20002B1CDB1F48204B025D051C56070FD59A7D5C2A02D05A7D9B2A0FD1201C1955FFF790FF194B02201B68002B15D012E00226324216D05A7D9B2A03D01F
:4007C0001020FFF711FF1DE0201C1955FFF77CFF0F4B1B68002B02D0301C01F0EEFA01222B5D13432B550DE0195501231A430255201CFFF769FF064B1B68002B02D0301C41
:4008000001F0DBFA70BDC04688010020080100200802002008B520208021FFF7AFFF21208021FFF7ABFF22208021FFF7A7FF23208021FFF7A3FF24208021FFF79FFF252046
:400840008021FFF79BFF26208021FFF797FF27208021FFF793FF28208021FFF78FFF29208021FFF78BFF2A208021FFF787FF2B208021FFF783FF2C208021FFF77FFF2D2014
:400880008021FFF77BFF2E208021FFF777FF2F208021FFF773FF30208021FFF76FFF31208021FFF76BFF32208021FFF767FF33208021FFF763FF34208021FFF75FFF352094
:4008C0008021FFF75BFF36208021FFF757FF37208021FFF753FF38208021FFF74FFF39208021FFF74BFF3A208021FFF747FF3B208021FFF743FF3C208021FFF73FFF3D2014
:400900008021FFF73BFF3E208021FFF737FF3F208021FFF733FF40208021FFF72FFF41208021FFF72BFF08BD10B5244C9B22211C74310A706275221C5C23753200200621B7
:40094000A3751370FFF71AFFA9210120FFF716FF03F080F90F214840C1B20320FFF70EFF76200021FFF70AFF7A200121FFF706FF79204A21FFF702FF0A200021FFF7FEFE75
:4009800002201021FFF7FAFE71200A21FFF7F6FEE3780D2B01D00E2B01D1073B00E00223A377231C012273331A70192317200C21E377FFF7E3FEFFF72DFF10BD0801002005
:4009C000002208B50021244BD154244BD1540132802AF7D1191C7E3A7C310A70191C77310A70191C1A705A709A70DA709A72DA721A765A769A76DA761A775A779A775A7489
:400A0000503102320A70191C51310A70191C52310A70191C53310A70191C54310A70191C55310A70191C76310A70191C70310A70191C71310A70191C74310A70191C733164
:400A40000A70191C78315A759A74DA741A750A70DA77FFF769FF08BD0801002088010020702839D013D852282AD007D8502823D0512847D1244A0221136834E0542827D036
:400A800022D355283ED1204A202113682BE075282BD007D8722823D0742833D11A4A1B4B11682DE07D2824D07E2826D0762829D1154A174B116823E0134A0121136812E09A
:400AC000114A042113680EE00F4A082113680AE00D4A1021136806E00B4A4021136802E08021094A13688B430BE0074A094B116806E0054A084B116802E0034A074B1168E9
:400B00000B4013607047C04608020020FFFEFFFFFFFBFFFFFFFDFFFFFFF7FFFFFFEFFFFF031C00202F2B11D9392B02D8181C303806E0602B04D9662B04D8181C573801E087
:400B4000402B03D9462B01D8373B181C70472423002808DB031E092B01DC303303E037330F2800DD2423D8B2704700232F280FD9392282425B41602802D9662806D901E0E9
:400B8000402805D9462803D8012301E00123F9E7181C704738B5031E022B34D1002401F09DFC494B494A1C60494B1C60494B1A60494A4A4B1A604A4A4A4B1A604A4A4B4B94
:400BC0001A6002F0C7FA1820FFF742FD051C1920FFF73EFD2D02284380B21A2102F0C2FA02F0AEFA42480A2101F0F0FF0A21414802F00AF8404801F061FD404B18785530CD
:400C000001F0D8FF29E001282AD1002401F066FC2D4B2E4A1C602E4B1C602E4B1A602E4A2E4B1A602E4A2F4B1A602F4A2F4B1A6002F090FA1820FFF70BFD051C1920FFF7AE
:400C400007FD2D02284380B21A2102F08BFA02F077FA2948243002F005F901F031FC30E00120032B2ED1002401F038FC164B174A1C60174B1C60174B1A60174A174B1A60E0
:400C8000174A184B1A60184A184B1A6002F062FA1820FFF7DDFC051C1920FFF7D9FC2D0228431A2180B202F05DFA02F049FA1448143001F0E5FF01F003FC0B2003F0D4F968
:400CC00062B6201C38BDC046C80F0740ED0F0000880F0740800F0740F3070000C00F0740FF0F0000400F074017030000000F0740650200204F020020B0550000CC000020CA
:400D00003056000038B5002402F058FB1E4B1F4A1C601F4B1C601F4B1A601F4A1F4B1A601F4A204B1A60204A204B1A6002F012FF1B20FFF78DFC051C1C20FFF789FC2D0211
:400D4000284380B21D2102F00DFF02F0F9FE18480A2102F095FE0A21164802F0AFFE1648683002F0E5FB0220FFF772FC02F07CFE02F0C4FE02F0C8FE02F04EFE02F060FEC5
:400D800002F00EFB201C38BDC80F0640ED0F0000880F0640800F0640F3070000C00F0640FF0F0000400F064017030000000F06406F0200205A0200203056000038B5002477
:400DC00002F0FCFA1B4B1C4A1C601C4B1C601C4B1A601C4A1C4B1A601C4A1D4B1A601D4A1D4B1A6002F0B6FE1B20FFF731FC051C1C20FFF72DFC2D02284380B21D2102F0AB
:400E0000B1FE02F09DFE15480A2102F039FE0A21134802F053FE13480C3002F089FB02F083FC02F095FC02F0BDFC02F0B9FA201C38BDC046C80F0640ED0F0000880F06407E
:400E4000800F0640F3070000C00F0640FF0F0000400F064017030000000F06406F0200205A020020B0560000F0B585B06B460122197069460023071C002402F0E9FC02F050
:400E80007BFC1B4D830704D4AC4204D00134A4B2F5E7AC4202D10C20FFF7A6FB01AE381C311C0122002302F03FFD02F065FCC30704D4AC4204D00134A4B2F6E7AC4202D1A0
:400EC0000C20FFF791FB02F057FC830501D5002404E002F023FC0028F9D0347802F062FC02F022FC02F034FC201C05B0F0BDC04650C300001FB501AB19705A70191C022286
:400F0000002302F0A5FC002402F036FC0D4B820704D49C4204D00134A4B2F5E79C4202D10C20FFF761FB02F03DFC830502D50C20FFF75AFB02F0F8FB02F00AFC002004B000
:400F400010BDC04650C300001FB501AC21706270A370211C0322002302F07AFCC1B20D20FFF70CFC002402F007FC0D4B820704D49C4204D00134A4B2F5E79C4202D10C2041
:400F8000FFF732FB02F00EFC830502D50C20FFF72BFB02F0C9FB02F0DBFB002004B010BD50C3000038B5041C01F032F8002C03D0231C0D3B012B16D81E20FFF749FB0724CE
:400FC000184D204040002818018E1820090AFFF7D5FB1E20FFF73CFB044064002C19218E1920C9B207E0012C0CD118200021FFF7C5FB19200121FFF7C1FB1A200021FFF7F3
:40100000BDFB02E0033C092CEFD91820FFF74CFB1920FFF749FB1A20FFF746FB01F00EF838BDC046B056000010B5041C00F0F0FF1B200021022C04D1FFF7A0FB1C20012177
:401040000DE0FFF79BFB7320FFF702FB0323184043000C480230C018C18F1C20C9B2FFF78DFB00211D20FFF789FB1B20FFF71CFB1C20FFF719FB1D20FFF716FB00F0DEFF56
:4010800010BDC046B056000008B5002803D0031C0D3B012B03D80120FFF77CFD14E0012809D10230FFF776FD01F020FC07490B2002F0BAFF08E003380B2805D80220FFF791
:4010C00069FD034801F032FA08BDC046291500002D1C000008B5022805D1FFF713FE034802F094F901E0FFF769FE08BDDD1C0000072310B50D495A5C002A14D00B7A9342E3
:4011000013D00024231C0A72934204DA0121A4000C435B18F8E702F057FD201C02F080FD02F070FD01E0013BE4D210BD0C02002008B5024B1954FFF7DBFF08BD0C0200207B
:40114000002208B5024B1A54FFF7D2FF08BDC0460C02002038B5234B1C781D1C032C3FD8201C04F069F83C020C2502F0B1FE012836D101304A21FFF701FB022430E002F020
:40118000A7FE002806D102F08BFE642002F096FF02F088FF0220FFF75BFA4A2820D0012002F07EFE15200021FFF7E8FA032417E002F08EFE002807D102F072FE642002F08C
:4011C0007DFF02F06FFF0BE02020FFF741FA01F0FBFF2120FFF73CFA02F052F800E001242C7038BD1502002001220020034B5B78033BDBB29A424041C0B27047150200206A
:40120000F7B5854C6578042D00D9B4E0281C04F013F80316205C750016205C21FFF7AEFA9B211520FFF7AAFA50230120A37002F037FE0A200021FFF7A1FA01259BE00A2018
:40124000FFF7D2F94A200221FFF70EFE0225E07091E0E0784A2816D1A2780221FFF74AFEA1780B20FFF78AFA0A200021FFF786FAA3785E2B02D80133A37004E00A20C921CE
:40128000FFF77CFA00E001250A20FFF7E1F9C82817D9012000F091FD15200021FFF76EFA0320FFF7D5F9002804D00D38C0B20425012806D8594801F021FF594801F01EFF64
:4012C00004250A2002F0FAFE55E07120FFF7C0F9061E09D0534B71201E88FFF7B9F9B6B280B2864246D246E07220FFF7B1F9002841D07220311CFFF741FA3BE02020FFF756
:40130000A7F901F061FF2120FFF7A2F901F0B8FF50260B20FFF79CF9864219DCF7B23D1C503D6D00EDB2281C2230C0B2FFF790F923350190E8B2FFF78BF92021031C019A3F
:40134000381CFFF701FE642002F0CEFE0136E0E70122354B1A70334B1A88344B002A02D01A78002AF7D0002272201A700325FFF777FB00E004256570FFF736FF00284AD080
:401380002379002B47D0002350202371FFF760F9011C5020FFF7F2F95120FFF759F9011C5120FFF7EBF95220FFF752F9011C5220FFF7E4F95320FFF74BF9011C5320FFF702
:4013C000DDF95420FFF744F9011C5420FFF7D6F95520FFF73DF9011C5520FFF7CFF97020FFF736F9011C7020FFF7C8F97120FFF72FF9011C7120FFF7C1F97220FFF728F95A
:40140000011C7220FFF7BAF97620FFF721F9011C7620FFF7B3F9F7BD15020020F85600002B570000CE000020050100200401002008B5002002F034FD02F034FE08BD00007C
:4014400038B50024012000F0C3FC0C4B64201C6002F034FE16205C21FFF790F99B211520FFF78CF90123064D201C2B7102F018FDFA20800002F022FE6C7038BD0802002075
:401480001502002073B501F00FFA002847D0012002F000FD7620FFF7DBF8002813D002F087FC002002F092FC02F0BCFC0720FFF747FE08E0257801F0B1FA23787055082B45
:4014C00001D80133237001F0EFF9154C051E154EF0D1307843B2002B0EDA7F231840607001F03CFA6078FFF7B3F86B46D871D879C0B201F0D5FA0CE02378012B0CD0022B78
:4015000004D160707178FFF739F902E00620FFF76BF801F0EBF92570002002F0BBFC73BD1A0200207902002038B52F4B1B78002B02D001222D4B1A602D4B1B68002B25D033
:401540002C4B1B685B0721D52B4B1B681B071AD02A4B2B4D19682B4B2C681B6801341B1B5A1E93415B421C40274B1B689C4203D12022264B1A7003E0201C01F01DFA2C60D2
:40158000FFF780FFE0E70422214B1A60214B1B68002B27D0204B1B689B0723D51F4B1A680F231340082B1AD01D4B1E4D1A682B689A420FD01C4B2C681B6801341B1B5A1EB8
:4015C00093415B421C40201C01F0AEFA174B18602C60E3E70221164A13688B4313600222144B1A6038BDC04691020020C00E074084020020CC0F0740080307404003074076
:40160000AC0200208C020020A4020020B4020020C00F07409C0200208C0F074008020740A8020020B00200209802002040020740880F0740800F0740F7B501F04BFDC5B29C
:40164000061CBC4C002D2CD0012002F023FC7620FEF7FEFF002809D002F0AAFB002002F0B5FB02F0DFFB0720FFF76AFDA378122B08D8002B01D10A2D10D0E21CD55401330C
:40168000A37004E0E318AC489D7001F037FD0A2D04D00D2D02D0F0B201F002FA002002F0F9FBA378E3189B780A2B02D00D2B00D0A0E2012002F0EEFBE378E51C452B00D113
:4016C00006E211D83F2B23D006D80A2B00D181E20D2B00D17EE27AE2422B00D1FDE17020442B00D1F7E172E24E2B00D12FE204D8482B0DD04D2B2BD069E2904E552B00D124
:4017000091E1572B00D135E1522B00D05FE261E18B4801F0F3FC8B4801F0F0FC8A4801F0EDFC8A4801F0EAFC894801F0E7FC894801F0E4FC884801F0E1FC884801F0DEFCC6
:40174000874801F0DBFC874801F0D8FC86483FE2AB780226462B08D0522B06D0492B04D0433B5E4273410326F61AE31C9B5D462B06D0522B04D0492B02D0432B00D035E2EB
:401780007A4B9B19013B1878FFF7CAF9051C87B2032E07D1754B5878FFF7C2F90A2358434719BFB2751CEDB263191B790A2B01D00D2B04D1012301930023009304E0F31C3A
:4017C0009D42F7D00135EEE7E31CB54210D0585DFFF7A6F9019B019A5843009B013DC01883B200930A2353439BB2EDB20193EBE75B5D3DB2492B3AD10B20FEF729FF4E38C4
:401800004000C0B2854200DBF2E11220002F00D15FE1012D02D11320291CD5E1092D07DC5020FEF715FF0123023DAB4018433BE0112D07DC5120FEF70BFF01230A3DAB40A3
:4018400018433DE0192D07DC5220FEF701FF0123123DAB4018433FE0212D00DDBAE15320FEF7F6FE01231A3DAB40184341E0432B42D10B20FEF7ECFE4E384000C0B28542FA
:4018800000DBB5E1002F02D11220391C9CE11320012D00D11FE1092D09DC5020FEF7D8FE0123023DAB409843C1B250208CE1112D09DC5120FEF7CCFE01230A3DAB4098432C
:4018C000C1B2512080E1192D09DC5220FEF7C0FE0123123DAB409843C1B2522074E1212D00DD77E15320FEF7B3FE01231A3DAB409843C1B2532067E10126462B00D01C4E03
:401900000B20FEF7A5FE4E384000C0B2854200DB6EE16B460020185E7F236421584303F025FD4643311C2037FFB28039C9B2381C4AE1C0461A020020425700007858000061
:40194000485700005657000081570000A6570000CB570000E9570000F8570000085800002358000041580000575800001D020020FFFF00006878FFF7F8F8002800D135E160
:40198000A878FFF7F2F8002800D12FE1E878FFF7ECF8002800D129E12879FFF7E6F8002800D123E12079FFF7BBF8071C6079FFF7B7F8051CA079FFF7B3F80090E079FFF7D2
:4019C000AFF8031C009A3801110105431943E8B2C9B2F9E06878FFF7C8F8002800D105E1A878FFF7C2F8002800D1FFE06878FFF797F8071CA878FFF793F83F013843C0B237
:401A0000FEF726FE051C301C01F078FB2809C0B2FFF79DF801F044F80F202840FFF797F801F03EF8D6E06878FFF79FF8002800D1DCE0301C01F062FB00F0EAFA6878303890
:401A4000072836D803F0F8FB040A10161C22282E694801F053FB1E20002128E0674801F04DFB1E20012122E0654801F047FB1E2002211CE0634801F041FB1E20032116E06D
:401A8000614801F03BFB1E20042110E05F4801F035FB1E2005210AE05D4801F02FFB1E20062104E05B4801F029FB1E200721FEF765FE00F0C3FAC820400002F0FFFA03208B
:401AC000FEF7C6FDFFF76EFA0120FFF763F881E07020012178E0002176E06878FFF745F800280FD0A878FFF740F800280AD0A878FFF716F8061C6878FFF712F80A23584324
:401B0000801907E02079FFF730F800286ED02079FFF706F880B205B2002804D114300121FEF72CFE01E0082D07DC5420FEF790FD0123013DAB40184338E0102D56DC55207D
:401B4000FEF786FD0123093DAB4018433AE06878FFF70BF8002810D0A878FFF706F800280BD0A878FEF7DCFF061C6878FEF7D8FF0A235843811989B208E02079FEF7F5FF66
:401B8000002833D02079FEF7CBFF81B20DB2002903D11420FEF7F2FD01E0082D09DC5420FEF756FD0123013DAB409843C1B254200AE0102D1ADC5520FEF74AFD0123093D9D
:401BC000AB409843C1B25520FEF7D8FD02E0124801F094FA0020A070E07002F05BF90F4801F08CFA0E4801F089FA03E00D48EFE70D48EDE7F7BDC0467B58000082580000B6
:401C0000895800009058000098580000A0580000A8580000B0580000B95800007858000040570000BF580000C558000010B500F093FFC3063DD5012002F02CF97620FEF75A
:401C400007FD002809D002F0B3F8002002F0BEF802F0E8F80720FFF773FA00F0EFFF1C4C022806D11B4B1878E0755978FEF786FD0EE000F0E3FF012803D1164B1B78E375BA
:401C800006E000F0DBFF022802D90620FEF7ACFC00F07CFF030602D50520FEF7A5FC00F0D9FFE07DFEF7D4FC0B4B1870002002F0F1F800F051FFC30708D500F0C5FF00F058
:401CC00051FF030702D50420FEF78EFC10BDC0461A0200204F0200206502002038B501F095FE2B4CC30640D501F090FE20231840051E3AD1012002F0CDF87620FEF7A8FCF4
:401D0000002809D002F054F8281C02F05FF802F089F80720FFF714FA01F0EAFE022812D0032805D0012814D11A4B1B78237610E0184D287820766978FEF720FD207EA97878
:401D40000130C0B203E0134B187820765978FEF715FD01F075FE030602D50820FEF744FC01F0D2FE002002F095F8207EFEF770FC094B187001F04AFEC30708D501F0BEFE18
:401D800001F04AFE030702D50720FEF72DFC38BD1A0200205A0200206F02002008B50220FEF772FC002807D00220FEF751FC01F05BFE0220FEF778FC08BD10B5041C7720CB
:401DC000FEF746FC0443E1B27720FEF74FFC10BD10B5041C7720FEF73BFCA043C1B27720FEF744FC10BD000038B51220FEF74CFC002821D01420FEF72BFC012808D111308F
:401E0000FEF726FC012801D1063010E004200EE01220FEF71DFC041E012C04D102F082F82043C0B203E002F07DF80623184002F073F81220FEF738FC1320FEF725FC0028BF
:401E400018D01420FEF704FC012810D01320FEF7FFFB012805D102F065F802231843C0B203E002F05FF80523184002F055F81320FEF71AFC1420FEF707FC00281ED0142047
:401E8000FEF7E6FB012808D11130FEF7E1FB012801D106300DE004200BE01220FEF7D8FB041C1320FEF7D4FB0123184098402340184302F031F81420FEF7F6FB7620FEF728
:401EC000E3FB002832D07620FEF7C2FB051C0320FEF7BEFB02280CD1002D1FD001F068FF002001F073FF281C01F076FF01F09AFF16E00B20FEF7ACFB4F28EDD950240B20D5
:401F0000FEF7A6FB8442E7DCE0B276212A1CFEF7F1FF642002F0E8F80134F0E701F048FF7620FEF79DFD7620FEF7BEFB7020FEF7ABFB002833D07020FEF78AFB0124204046
:401F400001F0E4F97020FEF783FB204001F0EAF90320FEF77DFB022806D17020FEF780FD7020FEF7A1FB1AE00B20FEF771FB4F28F3D950240B20FEF76BFB8442EDDC7020C6
:401F8000FEF766FB0123021CE1B21A40081C7021FEF7B0FF642002F0A7F80134EAE71D20FEF772FB002807D00320FEF751FBFFF791F81D20FEF778FB1A20FEF765FB00284B
:401FC00007D00320FEF744FBFFF75EF81A20FEF76BFB1120FEF758FB00280FD01120FEF737FB012807D101F035FE0F214840C1B27C20FEF7C3FB1120FEF756FB034B1B6813
:40200000002B02D10220FFF7E3FE38BD0802002010B51620FEF71CFB074C20701520FEF717FB5C2160701620FEF7A8FB15209B21FEF7A4FB10BDC0463302002010B5054C86
:4020400015206178FEF79AFB21781620FEF796FB10BDC04633020020F7B57D20FEF714FB00281DD0FFF7D4FF7920FEF7F1FA051C7A20FEF7EDFA041C7B20FEF7E9FA211C40
:40208000021C281CFEF736FF00217D20FEF776FB7D20FEF709FB7D20FEF7E2FCFFF7CEFF7E20FEF7F1FA00281CD0FFF7B1FF7920FEF7CEFA041C7A20FEF7CAFA011C201C4D
:4020C000FEF7D2FE011C7C20FEF758FB00217E20FEF754FB7E20FEF7E7FA7E20FEF7C0FCFFF7ACFF0B20FEF7B3FA0025A84202D04F38400085B25020FEF7C6FA00281ED0CC
:4021000000242BB29C4211DA0127231C3B40123350200193FEF79CFA021C224166105036F6B23A40301C0199FEF7E4FE0134082CE7D15020FEF794FC5020FEF7B5FA512028
:40214000FEF7A2FA00281FD000242BB2083B9C4211DA0127231C3B40123351200193FEF777FA021C224166105436F6B23A40301C0199FEF7BFFE0134082CE6D15120FEF757
:402180006FFC5120FEF790FA5220FEF77DFA00281FD000242BB2103B9C4211DA0127231C3B40123352200193FEF752FA021C224166105836F6B23A40301C0199FEF79AFE32
:4021C0000134082CE6D15220FEF74AFC5220FEF76BFA5320FEF758FA00281FD000242BB2183B9C4211DA0127231C3B40123353200193FEF72DFA021C224166105C36F6B2DD
:402200003A40301C0199FEF775FE0134082CE6D15320FEF725FC5320FEF746FA5420FEF733FA002823D00B20FEF712FA4F2806D85420FEF715FC5420FEF736FA17E0002425
:40224000251C0B205035EDB2FEF702FA8542EFD85420FEF7FDF9021C01232241281C1A4014210134FEF746FE092CE9D1E0E75520FEF70AFA002823D00B20FEF7E9F957284A
:4022800006D85520FEF7ECFB5520FEF70DFA17E00024251C0B205835EDB2FEF7D9F98542EFD85520FEF7D4F9021C01232241281C1A4014210134FEF71DFE092CE9D1E0E7CC
:4022C0007420FEF7E1F900281FD07420FEF7C0F9011C1520FEF752FA50240B20FEF7B8F984420CDC7420FEF7B3F91521021CE0B2FEF700FE642001F0F7FE0134EDE7742087
:40230000FEF7AEFB7420FEF7CFF97520FEF7BCF900281FD07520FEF79BF9011C1620FEF72DFA50240B20FEF793F984420CDC7520FEF78EF91621021CE0B2FEF7DBFD6420B4
:4023400001F0D2FE0134EDE77520FEF789FB7520FEF7AAF97320FEF797F9002819D0FFF757FE00211B20FEF709FA7320FEF770F903231840194B4000195C1C20FEF7FEF9E0
:402380001D200021FEF7FAF9FFF758FE7320FEF78BF97820FEF778F900281DD0FFF738FE7820FEF755F9C30701D5FFF741F87820FEF74EF90224204209D0FFF741F878209A
:4023C000FEF746F9A043C1B27820FEF7D7F97820FEF76AF9FFF732FEF7BDC046F0560000FEE7000070B51049104B01394A1C15D000221E685C689D68A018AA4203D0B058AD
:40240000A0500432F8E7021CDC68151AA54202D0002520C2F9E710330139E7E703F098F8FEF724F8FEE7C04601000000105B000008B500239A000B49032B01D80A49895827
:402440000A4801338150302BF4D1FDF7E5FD0022074B01211A608022D20513680B43136008BDC046E12300000000000000000020C0000020034B1B78FF2B02D10022024B2E
:402480001A707047D00000203802002008B5094B1B78FF2B0CD08021074A090613680B431360064B1B78002B02D00B2001F0DCFD08BDC046D000002000000740920200201E
:4024C00010B5054C2378002B03D1FFF7D3FF01232370FFF7DBFF10BD3802002008B50B2001F0CCFD0D4A0B2013685B005B08136001F0CEFD0A4B1B78012B02D100F0C4F996
:402500000BE0082B02D100F005FE06E0042B04D1044A054B11680B40136008BD00000740D000002048000740FFDFFFFF014B58607047C046380200200023F0B591B0002647
:4025400002AC09AD1E515E5104331C2BF7D1012801D0082807D10E23029303930A3B09936B6000262DE0022815D10F2301240293039304930622002906D12C606A60AC60A3
:402580000593EC60061C1CE02A606C60AA600593EA600D2615E0012904D109230393053B6B600EE001231A4202D009212B600291022300261A4204D009221E1C0392033AA9
:4025C0006A60029A294F11043B68294A294C13400B433B60099BD8B201F0B6FC1022F30702D52368134301E0236893432360039A3B6811050192204A13400B433B60287977
:4026000001F0AEFC2022B30702D52368134301E0236893432360049A3B6811060192174A13400B433B60287A01F082FC4022730702D52368134301E02368934323603B68F1
:40264000059A1B0112071B0913433B60E868C0B201F092FC8022330702D52368134301E023689343236011B0F0BDC04600000140FFFFF0FF18000440FFFF0FFFFFFFFFF0E0
:4026800080200A4B40001A6802420AD0084A1268520406D41A680749114019601A6802431A600222044B1A607047C0460000074060000740FFFEFFFF6C000740F8B5002851
:4026C00000D1A0E00021041C0A1C0120FFF734FF01230C204C4A217F13704C4A4C4D11704C4A217E13704C4A267811704B4A2E701168014311602068111C984204D0C82006
:40270000678C4000874205D80B68454A13430B60002303E01068434901401160A269E169002A01D0802252028027481E81413F010902381C0A433C490A600F2122689207FE
:402740001043A268013A0A401043071CFF206268013A12010240111C3A1C0A4333490A603349002B01D10B1C00E0324B324A13600023324A1360F20709D56369FF221804F4
:40278000FF231B04184023695B001340034300242B4A0B2013602B4B19602B4B1C6001F06DFC0B20022101F047FC28490B2001F03BFC0122264B1C60264B1C60264B1C605E
:4027C000264B1C6029780A40A24201D04C22FF32234B1A6002230B4001D01423FF33214A13601022204B1A700023204A1370204A1360204A1360204A1370204A1380204AF8
:402800001360204A1360F8BDD0000020910200209302002092020020950200207000074000000202FFFFFDFD00000740600007400701008007030080000307400403074085
:4028400010030740000207400402074099420000C80E0740880E0740C80F0740880F0740480F0740080F0740A0020020E4020020F0020020EC020020F4020020CC020020AF
:40288000B8020020D4020020002208B5044B0B201A6001F0FDFB1022024B1A7008BDC046880F0740A00200200B4B1B68002B0ED00A4B18680A4B1A68904202D31B68C01A86
:4028C00009E01A68074B1B68C018801A03E0064B18680F231840704784020020AC020020A40200208C020020080307408021124B70B518684902114B114A002814D0002521
:402900001048066805601C682143196019680A401A600D4B1A680D4B1A600D4B0D4A1D700D4B1A60066005E018680143196019680A401A6070BDC046840200200403074018
:40294000FFFFFEFFC80F0740A4020020AC020020B4020020ED0F0000C00F07408021104B30B5186849020F4B0F4A002811D000250E48046805601D682943196019680A40D9
:402980001A600B4B1A680B4B1A6002239C43046005E018680143196019680A401A6030BD9C02002004020740FFFFFEFF880F0740B0020020A802002010B50A4BCCB21A788F
:4029C000094B082A03D11B681818047009E01A684000121814701B68013089B21818090A017010BD9602002084020020094B1A78094B082A04D11B6818180078C0B208E069
:402A000019684300CA180133CB1812781878000210437047960200208402002038B50E4B1B68002B14D00D4B0D4D1A682B6800209A420FD00B4B2C681B6801341B1B5A1E8B
:402A400093415B421C40201CFFF7D0FF2C6001E0054B186838BDC04684020020AC020020A40200208C0200204003074010B50A4BCCB21A78094B082A03D11B681818047033
:402A800009E01A684000121814701B68013089B21818090A017010BD940200209C020020194B70B51B68002B24D0184D184B2C681B6801341B1B5A1E93415B421C40154BBF
:402AC0001A689442FBD02A681B689A4205D1124B1A680F231340082B12D102260F4B011C1E60201CFFF7C2FF0D4A2C6013683343136007E0084B1A680F231340082BF9D0DE
:402B0000084B186070BDC0469C020020A802002098020020B002002008020740800F0740880F074040020740094B1A78094B082A04D11B6818180078C0B208E0196843006B
:402B4000CA180133CB1812781878000210437047940200209C020020014B1878C0B27047E402002010B50B2001F088FA0D21064B18781A78C4B28A430B201A7001F074FA5C
:402B80000F20204010BDC046E402002010B50B2001F074FA2F22064B0B201C781978E4B20A401A7001F060FA0F23201C984310BDE4020020FF22044940000B681040934354
:402BC000184308607047C0461003074038B5002810D0041C0D1C0B2001F050FA064B074A1C60074B0B201D6000231360054A136001F03AFA38BDC046D8020020F0020020BB
:402C0000F8020020E002002038B500280ED0041C0D1C0B2001F032FA0022054B0B201C60044B1D60044B1A6001F01EFA38BDC046DC020020E8020020EC020020014B186860
:402C40007047C046EC0200200022014B1A607047F00200200022014B1A607047EC0200200549064B0A6880061340C02212051040184308607047C04620000740FFFFFFF321
:402C800038B5002800D1B2E0041C002202202168FFF752FC0222564BE16B1A70554AA36955481370554A1170554A216B1160554A217F1170FF22E16A114001605249A06BC5
:402CC00008605249206A0870616B0A4050490A60E268511E0F220A40002B01D080235B00802149040A4313434A4A1360A56A60686B1E9D411023034000D00223A2689100AC
:402D00000C220A4061692A43002900D01021C0250006AD04284002431A4311432268002A01D0802212063C4B0A431A60E369626A591E0F231940002A01D080225200802387
:402D40001B0619432369002B01D080239B000A431343324A13600723626C1340304A1360236A5A1E0F231A40636A002B01D080235B00802109060A4313432A4A002513608F
:402D80000723E26C0B201340274A136001F076F90B20022101F050F924490B2001F044F9234B281C1D60234B1D608023226C1B011340214A13608023A26C9B0013401F4AEB
:402DC0001360226C1E4B13401E4A1360A26C1E4B13401E4A1360FFF743FF1D4B1D601D4B1D601D4B1D701D4B1D601D4B1D6038BDD0000020910200208C02002092020020DB
:402E000084020020960200209C0200209402002098020020000007402000074000030740040307400002074004020740DD490000880E0740C80E0740480F0740080F07400E
:402E4000FFF7FFFFC80F0740FFFDFFFF880F0740AC020020A4020020B4020020A8020020B002002038B5002800D1F4E0041C042021686268FFF760FB0420774B226B1870C5
:402E8000764B616B1A70764B626D764D1A70764BA26B1A60227A754B1A70FF23194029607349256C0D6073490A70E26B25681340714A72491360022D22D1A3691022002B5B
:402EC0001CD063690022102B18D00132202B15D02A1C302B12D00132602B0FD0021CC02B0CD0C02001328000834207D0C020C0001B1A5D425D4101326B421A400A6004E0A4
:402F000063695A1E0F2313400B60A26C0B68002A02D18022920400E0594A13430B6023681A06C0239B041340564A13602369606A5A1E07231A40002800D040200243606C15
:402F4000002801D08020C000A16A0243002901D080214900E36A0A43002B01D080239B001A43494B1A60E068022806D01A683021002800D110390A431A60A368591E0F23AD
:402F80000B40E169002901D080218900012219436368134001D080231B063C4A0B4313600723E26D3A491A400A60226D1104FF2212040A40E16CC9B20A4336490A60226971
:402FC000013A1340226A002A01D0802252001343314A1360E068131C022806D012683021002800D110390A431A60A36861685A1E0F231A400D3B0B4001D080231B061343E3
:40300000264A0B2013600723626E1340244A136001F034F80B20022101F00EF821490B2001F002F80023204A1360204A1360204A1360204A1360A16D1F4A1160216E1F4AFB
:4030400011601F4A13601F4A13601F4A13701F4A13601F4A136038BDD000002091020020920200208C02002084020020960200209C020020940200209802002000000740B6
:40308000000001024000074048000740000307400403074010030740440007400002074004020740DD490000880E0740C80E0740480F0740080F0740C80F0740880F0740CC
:4030C000AC020020A4020020B4020020A8020020B002002008B5FFF7E7FB031C0020834201D0FFF79BFCD822034B92001968114201D000201A6008BDC00F074010B5041CFA
:403100000134631E1878002802D0FFF7C9FCF7E710BD0000002208B5064B0B201A6000F0B7FF054B1B78002B00D00223034A137008BDC046880F0740900200200803002015
:403140008021034A090613680B4313607047C04600000240024A13685B005B081360704700000240034A13681B0C1B04184310607047C0460000024080220C4BD2041A6005
:403180001A680B491A6000220A60196819600C21084B1960084B1A60084B31321A60084BCF321A60074B803A1A607047C0010540C8010540E4010540F8010540E80105408E
:4031C000D4010540CC010540014B80B218607047CC01054038B50D1C041CAC4000F012FF024B1C6000F012FF38BDC0460800054010B5082400F006FF054A13682343136026
:4032000000F004FF201C1821FFF7E4FF10BDC0460000054010B5054C2378002B03D1FFF7ABFF01232370FFF7E3FF10BD4002002080220C4BD2041A601A680B491A6000226C
:403240000A60196819600C21084B1960084B1A60084B31321A60084BCF321A60074B803A1A6070474001054048010540640105407801054068010540540105404C01054093
:40328000014B80B2186070474C01054038B50D1C041CAC4000F0B6FE024B1C6000F0B6FE38BDC0460800054010B5022400F0AAFE054A13682343136000F0A8FE201C182123
:4032C000FFF7E4FF10BDC0460000054010B5054C2378002B03D1FFF7ABFF01232370FFF7E3FF10BD410200208021034A090613680B4313607047C04680000240024A13684F
:403300005B005B0813607047800002400423044980000A689A43D2B2034013430B607047000204401023044900010A689A43D2B2034013430B607047000204400123044955
:403340000A689A43D2B2034013430B607047C04600020440034B1B78FF2B02D10022024B1A707047D10000204402002008B5094B1B78FF2B0CD08021074A090613680B431A
:403380001360064B1B78002B02D00A2000F06CFE08BDC046D1000020000006403903002010B5054C2378002B03D1FFF7D3FF01232370FFF7DBFF10BD4402002008B50A20BE
:4033C00000F05CFE0D4A0A2013685B005B08136000F05EFE0A4B1B78012B02D100F08EF90BE0082B02D100F095FB06E0042B04D1044A054B11680B40136008BD0000064071
:40340000D100002048000640FFDFFFFF014B58607047C04644020020002370B58EB000246D465C5107AD5C5104331C2BF7D1012801D0082807D10E23009301930A3B079320
:403440006B60002425E002280DD10F23012400930193093B002903D12C606B60041C18E02B606C6015E0012904D109230193053B6B600EE001231A4202D009212B60009186
:40348000022300241A4204D009221C1C0192033A6A600F22154E33689343009A13433360079BD8B200F080FD0121331C104E32680C4202D01143316001E08A433260F020B7
:4034C0001A680199824309010A431A606868C0B200F07CFD02223368144202D01A43326001E0934333600EB070BDC046100001401804044080200A4B40001A6802420AD0D8
:40350000084A1268520406D41A680749114019601A6802431A600222044B1A607047C0460000064060000640FFFEFFFF6C000640F8B5002800D1A0E00021041C0A1C0120C1
:40354000FFF76AFF01230C204C4A217F13704C4A4C4D11704C4A217E13704C4A267811704B4A2E701168014311602068111C984204D0C820678C4000874205D80B68454A3F
:4035800013430B60002303E01068434901401160A269E169002A01D0802252028027481E81413F010902381C0A433C490A600F21226892071043A268013A0A401043071CF3
:4035C000FF206268013A12010240111C3A1C0A4333490A603349002B01D10B1C00E0324B324A13600023324A1360F20709D56369FF221804FF231B04184023695B001340EB
:40360000034300242B4A0A2013602B4B19602B4B1C6000F033FD0A20022100F00DFD28490A2000F001FD0122264B1C60264B1C60264B1C60264B1C6029780A40A24201D0C6
:403640004C22FF32234B1A6002230B4001D01423FF33214A13601022204B1A700023204A1370204A1360204A1360204A1370204A1380204A1360204A1360F8BDD100002000
:40368000280300203C03002039030020380300207000064000000202FFFFFDFD00000640600006400701008007030080000306400403064010030640000206400402064076
:4036C000F54A0000C80E0640880E0640C80F0640880F0640480F0640080F06403D0300207C03002074030020680300206C030020440300204C0300205C030020002208B5BB
:40370000044B0A201A6000F0C3FC1022024B1A7008BDC046880F06403D030020014B18687047C0464C03002008B50A2000F0A6FC00220121044B0A201A60044A13888B4377
:40374000138000F091FC08BD4C0300204403002008B50A2000F092FC00220221044B0A201A60044A13888B43138000F07DFC08BD5C0300204403002010B50A2000F07EFC4A
:40378000064B1C88064BA4B21B789B0601D504231C430A2000F068FC201C10BD440300203D03002010B50A2000F068FC0022044B0A201C88A4B21A8000F056FC201C10BDD2
:4037C000440300201E4B70B51E6800F009FC0028FBD0002000F0DCFB0F221A4C1A4D2368934323602B685B005B082B60B3060FD5002000F0CDFB0A2000F076FC012000F0AF
:40380000C7FB00F0DBFB0028FBD00A2000F06CFC002000F0BDFB0A2000F066FC012080220A4B120618602B6813430F222B6023689343013A1343236000F0AAFB70BDC046BD
:4038400064000640100001400000064068000640F7B5061C0F1C019200930425002942D0234C2378102B08D10A2000F007FC214B6D191B68DB0736D408E023780425602B03
:4038800031D108211C4A13888B4313802823237000231A4A02211360194A76001360019A184B194C1A60194B1F606B461A78184B1A70FF23104A1E4013888B431380154A0F
:4038C000154B1A604022154B1A60009BDB0703D5FFF778FF266002E0114B2660196040220025104B1A600A2000F0BEFB281CFEBD3D0300206400064044030020500300201B
:403900005C0300204003002040020640540300205803002017030000000F0640800F064068000640880F0640F7B5061C0F1C01920093042400294AD0274D2B78102B08D1A7
:403940000A2000F09BFB254B24191B68DB073ED408E02B780424602B39D10821204A13888B431380292300222B701E4B1E4C1A60019B1B4923601D4B76001F606B461A7823
:403980001B4B1C4D1A70FF230A881E40FE3B9A430A80194A19491E431160009A1A4203D0FFF710FF2E6003E00222154B2E601A602368144A072B01D8042306E0802012499E
:4039C00040000B6803430B600823002413600A2000F04AFB201CFEBD3D03002064000640440300204C03002048030020600300205803002040020640000F0640170300000B
:403A000068000640C80F064060000640014B1878C0B270477C03002010B50A2000F02EFB0D21064B18781A78C4B28A430A201A7000F01AFB0F20204010BDC0467C030020CB
:403A400010B50A2000F01AFB2F22064B0A201C781978E4B20A401A7000F006FB0F23201C984310BD7C030020FF22044940000B6810409343184308607047C0461003064031
:403A800038B5002810D0041C0D1C0A2000F0F6FA064B074A1C60074B0A201D6000231360054A136000F0E0FA38BDC0468003002074030020640300208403002038B500280D
:403AC0000ED0041C0D1C0A2000F0D8FA0022054B0A201C60044B1D60044B1A6000F0C4FA38BDC046780300207003002068030020014B18687047C046680300200022014B22
:403B00001A607047740300200022014B1A60704768030020002208B5064B0A201A6000F0B7FA054B1B78002B00D00223034A137008BDC046880F064030030020A00300208D
:403B40008021034A090613680B4313607047C04640000240024A13685B005B081360704740000240034A13681B0C1B04184310607047C0464000024008B500F043FA102169
:403B8000034A13780B43137000F040FA08BDC04692000F40012108B5034A13780B431370FFF7EAFF08BDC04673000F4008B500F029FA1021034A13788B43137000F026FA58
:403BC00008BDC04692000F40012108B5034A13788B431370FFF7EAFF08BDC04673000F400723044A117899431170117803400B431370704782000F4008B50420FFF7F0FF5C
:403C000008BD000010B5054C2378002B03D1FFF7F3FF01232370FFF7BDFF10BD4C02002008B5011C014800F0FDFA08BD00000F408021034A090613680B4313607047C0466F
:403C400040010240024A13685B005B081360704740010240014B1878C0B2704761000F408021034A090613680B4313607047C04604000240024A13685B005B0813607047EF
:403C8000040002408122074B92041A600C22064B06491A600023064A1360064A1160064A1360704780010540A4010540FFFF0000B8010540940105408801054008B500F04F
:403CC000A1F90421034A13688B43136000F09EF908BDC04600000540014B80B21860704788010540014B186880B270478801054038B50D1C041CAC4000F084F9024B1C600F
:403D000000F084F938BDC0460800054010B5042400F078F9054A13682343136000F076F9201C1821FFF7E4FF10BDC0460000054010B5054C2378002B03D1FFF7A3FF0123AC
:403D40002370FFF7E3FF10BD4D0200208021034A090613680B4313607047C04648000240024A13685B005B08136070474800024000230C21084A1360084A1160084A0A3976
:403D80001160FA21074A890011606421064A1160064A13607047C046000105402401054038010540140105400C0105400801054008B500F027F90121034A13688B43136046
:403DC00000F024F908BDC04600000540014B80B21860704708010540014B80B2186070470C01054038B50D1C041CAC4000F00AF9024B1C6000F00AF938BDC0460800054093
:403E000010B5012400F0FEF8054A13682343136000F0FCF8201C1821FFF7E4FF10BDC0460000054010B5054C2378002B03D1FFF79FFF01232370FFF7E3FF10BD4E020020B5
:403E4000014B18607047C0463001054010B5041C00F0D8F8C021044AA40113688B432343136000F0D3F810BD10E400E010B58024054B64021C60054B0433D8670120FFF7DC
:403E8000E5FF034B1C6010BD80E100E00000002000E100E0014B18707047C04671000F40012304490A689A43D2B2034013430B607047C046000304400223044940000A68A4
:403EC0009A43D2B2034013430B60704700030440024B18688007C00F7047C046040304400223034A1068184010604008C0B27047100304408021034A090613680B43136081
:403F00007047C04644000240024A13685B005B081360704744000240014B18707047C04670000F40014B1878C0B2704770000F40034A044B116880040B401843106070478F
:403F400008000440FFFFE3FF034A044B116800030B4018431060704708000440FF8FFFFF034A044B1168C0030B4018431060704708000440FF7FFCFF034A044B1168400594
:403F80000B4018431060704708000440FFFF1FFF012304490A689A43D2B2034013430B607047C046000404400721034A13688B43184310607047C04608040440024B18681C
:403FC000012318407047C046040404403821034AC00013688B4318431060704708040440024B18688007C00F7047C046040404400230800804D0C0460138FDD1C046C046E8
:40400000C0467047EFF3108072B6704780F310887047C046C046C046802380009B05C3181868196070470000024B8000C3181868196070474000002038B5041C0D1CFFF76C
:40404000E1FFA308074A9B009B180322144094400634A240A5401968914329431960FFF7D5FF38BD00E400E01F2318401E3B8340181C014B1860704700E100E01F2318404B
:404080001E3B8340181C014B1860704780E100E01F2318401E3B8340181C014B1860704780E200E0034A044913689BB20B4313607047C0460CED00E00400FA0510B5041CAC
:4040C0008022074B1202944205D91868FFF790FF044BE418F4E758686043FFF789FF10BDD40000200080FFFF08B5034B1B7A5843FFF77EFF08BDC046D4000020F0B5C31EC6
:4041000087B002932D2B64D8334B1B78984204D8324B1D78324BEDB21EE0324B1B78984204D8314B1D78314BEDB215E0304B1B78984204D82F4B1D782F4BEDB20CE02F4BF3
:404140001B78984204D82E4B1D782E4BEDB203E02D4B1D782D4BEDB21C782D4E029B0390F35CE4B20193FFF74DFF019B04900596284F2F2B05D9039B2A2B02D919263E60AA
:4041800008E03F233E681E40019BB34205D2214B019A1A600520FFF72BFF1C4A039B944663441B781C4ADBB213601C4B05201D601B4B1C60FFF798FF019BB34206D9059B7D
:4041C000029A05209B5C3B60FFF712FF0498FFF71DFF07B0F0BDC046C0F1FF0FC1F1FF0FC2F1FF0FC3F1FF0FC4F1FF0FC5F1FF0FC6F1FF0FC7F1FF0FC8F1FF0FC9F1FF0FAA
:40420000CAF1FF0FCBF1FF0FCCF1FF0FCDF1FF0FBC5A00002CFF0B4028FF0B401CFF0B4020FF0B40CBB203700B0A090CDBB2C9B243708170704700000822034B1A60034ACA
:40424000034BDA647047C04680E100E0E12300000000002010B5041CFFF7D4FE044AA40713689B009B0823431360FFF7CFFE10BD00E400E010B50824044B1C60044BD864BD
:404280000320FFF7E7FF034B1C6010BD80E100E00000002000E100E0C44BF7B51B68002B00D09847C24B1B68DB0702D50022C14B1A602020C04BC14C1A78024257D025784B
:4042C000AA0701D4002270E0BD49002208680191C10506D5C026BB48B6000288324302800122012001990E68064209D09027B54EBF0032883A433280072D10D1021C01E0F0
:40430000072D0AD1B0480068810706D5A026AD48B60002883243028001E0002AD2D0012202261878A74F1040301A844661463888084380B23880072D16D108201D782840FB
:4043400010D0A1480568354202D000220260DEE29E480068C10526D401990968114200D0D5E220E0187020E0002119701DE0012122780A42A6D0954A15680222FF321542D2
:40438000A0D01D78924A0D4206D002201178814311701178073004E0117881431170902110780143117000221A701978890600D444E121780224214200D1C3E21020804941
:4043C0000D6805420CD00121824A10601A780A40A21A7C4C21880A4392B222801870B1E21D782D071AD50D68254209D0794A7548146088240288A4002243028001220DE03E
:404400001C78E40702D52520187007E024241C70714C2468002C01D0704C206004201C78044200D19BE001241D78254243D008256B490E682E4223D06A496B480E68076899
:404440006A49F71B0F2609683140791AA94207D8002906D16649674A0E6832400A60221C291C654D04682D6801392C19634D2D68EDB225700468013404600029F1D117E03C
:404480000968014214D058495B4E0D68366875195A4E3668F6B22E700D6801350D600D68504909688D4202D24749086000E0221C5348544949E008680221084220D0454AE0
:4044C00051481160514D06680D31026828683140411A8420D20B22408A1A2A6029684C4A8000116037490A88024380200A80494A40021168014311601068474901402CE0A0
:4045000046490868C00622D545490C683E49324D08680F2108403D4908280DD00E682868864209D208683F4D20180078C0B22860086801300860E9E708682968884202D176
:4045400040202649086038483849086007E00968490604D52D4A11682D4A116002E0002A00D1EFE12249234A086802400A6000222F490A6019490A602E4A127892070CD556
:40458000012219780F480A400A218A1A01880A4392B2028060221A70D4E1274B1A681823920600D4083B084A1360CBE13C0200208C0E0740880E0740A00200209302002098
:4045C0000C0F0740CC020020680007404C0F0740E4020020000F0740C8020020880F0740CC0F0740C4020020B80200200803074060000740FFFEFFFFC002002040030740B4
:40460000ED0F0000C00F074008020740BC020020D402002004020740FFFFFEFF8C0F0740D002002040020740F3070000800F0740C80F0740CE02002064000740102519784F
:40464000294000D13EE1012122780A4200D179E10222BD480468144234D0BC4C2260BC4C0D32256824682A40E40B2140B94C8A182678B949B94D964204D904260A783243F8
:404680000A7004E027782E68D21BB21A2A602D68B34A15600022B34D2A6080252270B24C6D0222682A4322602568B04A2A40226002240A78A2430A700A78013C22430A703C
:4046C00010221A700822016811423ED09F490A60A7490A68920420D50F22A64C2568154217D0A54D2D78002D06D024682240012A02D1026852060CD4A04AA14D14682D68CC
:404700002C19A04D2D68EDB22570146801341460E2E70C689C4A22400A609C4A8E491568141CAA0603D540250A782A430A700025974A1560974A226020240A78A2430A70A7
:404740000A78103C22430A701C700268520641D5894A1278002A04D08A4A8E4912688B4A11608D4A7C491068102210420BD07D4802607B4A1068794A106002200A7802436F
:404780000A7012221DE0854A7C4812680068121A0420072A0ED97648082A05D1A024026824022243026007E080240268A401224302600820764A106020200A7802430A7056
:4047C00011221A700123764A764913605F4A1160754A13600822754B1968114225D06F4B66481B680168083B5B1A0124934201D90024131C002B0CD0614902680968013BEC
:404800008A1860490968C9B21170026801320260F0E7002C07D08020554900020A6802430A605B4A136008221FE01B685B071ED5544B52491A68594B08681B6898420CD262
:404840000120594BD2B218604D480B680068C3181A700B6801330B6006E0FDF711FF40213D4A13780B4313700422484B1A60504B1B68DB0666D54F4B1968354B1A680F23A6
:404880001340082B1AD0354A4B4B14681B684B489C4208D21368CB181B78DBB20360136801331360E9E7FF232A4A036013789B06E3D413780133DBB21370DEE71022404B29
:4048C0001A603FE03F4802685200520802601D70274B2D4A1C6822401A601C683A4A22401A602B4B2B4A19601E4B1960344B1A60364A264B1A602B4A144B1A60344A354B70
:404900001A60802203681206134303601AE08020154A4002116801431160106813490140116013492C4A086802400A602849294A1160002216490A600A490A6010321A7079
:404940000F3A32E5F7BDC0464C0F0740400F074008020740F4020020E4020020E0020020F0020020880F074004020740FFFFFEFF600007400803074095020020EC02002080
:40498000DC02002040030740FF5FFFFFC00F0740C80F0740ED0F000064000740E8020020800E0740FF0F00006C000740CC0F07408C0F0740D8020020F802002040020740F7
:4049C000800F074000000740FFFCFFFFF307000017030000000F0740FFFEFFFF38B5304B1B68002B00D098472E4B1B78002B02D001222D4B1A602D4B1B68002B23D02C4BC9
:404A00001B685B071FD52B4B1B681B0718D02A4B2A4D19682A4B2C681B6801341B1B5A1E93415B421C40274B1B689C4203D12022254B1A70E7E7201CFDF7BEFF2C60E2E7FE
:404A40000422224B1A60224B1B68002B27D0214B1B689B0723D5204B1A680F231340082B1AD01E4B1E4D1A682B689A420FD01D4B2C681B6801341B1B5A1E93415B421C402C
:404A8000201CFEF751F8184B18602C60E3E70221164A13688B4313600222154B1A6038BD3C02002091020020C00E074084020020CC0F07400803074040030740AC02002081
:404AC0008C020020A4020020B4020020C00F07409C0200208C0F074008020740A8020020B00200209802002040020740880F0740800F0740C44BF7B51B68002B00D09847BA
:404B0000C24B1B68DB0702D50022C14B1A602020C04BC14C1A78024257D02578AA0701D4002270E0BD49002208680191C10506D5C026BB48B600028832430280012201206B
:404B400001990E68064209D09027B54EBF0032883A433280072D10D1021C01E0072D0AD1B0480068810706D5A026AD48B60002883243028001E0002AD2D001220226187842
:404B8000A74F1040301A844661463888084380B23880072D16D108201D78284010D0A1480568354202D000220260DEE29E480068C10526D401990968114200D0D5E220E009
:404BC000187020E0002119701DE0012122780A42A6D0954A15680222FF321542A0D01D78924A0D4206D002201178814311701178073004E01178814311709021107801431B
:404C0000117000221A701978890600D444E121780224214200D1C3E2102080490D6805420CD00121824A10601A780A40A21A7C4C21880A4392B222801870B1E21D782D0787
:404C40001AD50D68254209D0794A7548146088240288A4002243028001220DE01C78E40702D52520187007E024241C70714C2468002C01D0704C206004201C78044200D19C
:404C80009BE001241D78254243D008256B490E682E4223D06A496B480E6807686A49F71B0F2609683140791AA94207D8002906D16649674A0E6832400A60221C291C654D20
:404CC00004682D6801392C19634D2D68EDB225700468013404600029F1D117E00968014214D058495B4E0D68366875195A4E3668F6B22E700D6801350D600D68504909682E
:404D00008D4202D24749086000E0221C5348544949E008680221084220D0454A51481160514D06680D31026828683140411A8420D20B22408A1A2A6029684C4A80001160BA
:404D400037490A88024380200A80494A40021168014311601068474901402CE046490868C00622D545490C683E49324D08680F2108403D4908280DD00E682868864209D272
:404D800008683F4D20180078C0B22860086801300860E9E708682968884202D140202649086038483849086007E00968490604D52D4A11682D4A116002E0002A00D1EFE131
:404DC0002249234A086802400A6000222F490A6019490A602E4A127892070CD5012219780F480A400A218A1A01880A4392B2028060221A70D4E1274B1A681823920600D457
:404E0000083B084A1360CBE1480200208C0E0640880E06403D0300203C0300200C0F064044030020680006404C0F06407C030020000F064040030020880F0640CC0F06406D
:404E4000480300204C0300200803064060000640FFFEFFFF6003002040030640ED0F0000C00F064008020640500300205C03002004020640FFFFFEFF8C0F06405403002068
:404E800040020640F3070000800F0640C80F0640580300206400064010251978294000D13EE1012122780A4200D179E10222BD480468144234D0BC4C2260BC4C0D322568BA
:404EC00024682A40E40B2140B94C8A182678B949B94D964204D904260A7832430A7004E027782E68D21BB21A2A602D68B34A15600022B34D2A6080252270B24C6D02226892
:404F00002A4322602568B04A2A40226002240A78A2430A700A78013C22430A7010221A700822016811423ED09F490A60A7490A68920420D50F22A64C2568154217D0A54D9B
:404F40002D78002D06D024682240012A02D1026852060CD4A04AA14D14682D682C19A04D2D68EDB22570146801341460E2E70C689C4A22400A609C4A8E491568141CAA06E9
:404F800003D540250A782A430A700025974A1560974A226020240A78A2430A700A78103C22430A701C700268520641D5894A1278002A04D08A4A8E4912688B4A11608D4A9A
:404FC0007C491068102210420BD07D4802607B4A1068794A106002200A7802430A7012221DE0854A7C4812680068121A0420072A0ED97648082A05D1A0240268240222438E
:40500000026007E080240268A401224302600820764A106020200A7802430A7011221A700123764A764913605F4A1160754A13600822754B1968114225D06F4B66481B6817
:405040000168083B5B1A0124934201D90024131C002B0CD0614902680968013B8A1860490968C9B21170026801320260F0E7002C07D08020554900020A6802430A605B4A89
:40508000136008221FE01B685B071ED5544B52491A68594B08681B6898420CD20120594BD2B218604D480B680068C3181A700B6801330B6006E0FEF71DFA40213D4A137864
:4050C0000B4313700422484B1A60504B1B68DB0666D54F4B1968354B1A680F231340082B1AD0354A4B4B14681B684B489C4208D21368CB181B78DBB2036013680133136051
:40510000E9E7FF232A4A036013789B06E3D413780133DBB21370DEE71022404B1A603FE03F4802685200520802601D70274B2D4A1C6822401A601C683A4A22401A602B4BAA
:405140002B4A19601E4B1960344B1A60364A264B1A602B4A144B1A60344A354B1A60802203681206134303601AE08020154A4002116801431160106813490140116013490C
:405180002C4A086802400A602849294A1160002216490A600A490A6010321A700F3A32E5F7BDC0464C0F0640400F0640080206406C0300207C030020840300207403002088
:4051C000880F064004020640FFFFFEFF600006400803064038030020680300207803002040030640FF5FFFFFC00F0640C80F0640ED0F00006400064070030020800E0640EF
:40520000FF0F00006C000640CC0F06408C0F0640800300206403002040020640800F064000000640FFFCFFFFF307000017030000000F0640FFFEFFFF02B47146490849007B
:40524000095C49008E4402BC7047C046002243088B4274D303098B425FD3030A8B4244D3030B8B4228D3030C8B420DD3FF22090212BA030C8B4202D31212090265D0030B09
:405280008B4219D300E0090AC30B8B4201D3CB03C01A5241830B8B4201D38B03C01A5241430B8B4201D34B03C01A5241030B8B4201D30B03C01A5241C30A8B4201D3CB025F
:4052C000C01A5241830A8B4201D38B02C01A5241430A8B4201D34B02C01A5241030A8B4201D30B02C01A5241CDD2C3098B4201D3CB01C01A524183098B4201D38B01C01A71
:40530000524143098B4201D34B01C01A524103098B4201D30B01C01A5241C3088B4201D3CB00C01A524183088B4201D38B00C01A524143088B4201D34B00C01A5241411A47
:4053400000D20146524110467047FFE701B5002000F0FCF802BDC0460029F7D003B5FFF775FF0EBC4243891A1847C04603460B437FD4002243088B4274D303098B425FD330
:40538000030A8B4244D3030B8B4228D3030C8B420DD3FF22090212BA030C8B4202D31212090265D0030B8B4219D300E0090AC30B8B4201D3CB03C01A5241830B8B4201D3CA
:4053C0008B03C01A5241430B8B4201D34B03C01A5241030B8B4201D30B03C01A5241C30A8B4201D3CB02C01A5241830A8B4201D38B02C01A5241430A8B4201D34B02C01AF9
:405400005241030A8B4201D30B02C01A5241CDD2C3098B4201D3CB01C01A524183098B4201D38B01C01A524143098B4201D34B01C01A524103098B4201D30B01C01A52417A
:40544000C3088B4201D3CB00C01A524183088B4201D38B00C01A524143088B4201D34B00C01A5241411A00D201465241104670475DE0CA0F00D04942031000D34042534040
:4054800000229C4603098B422DD3030A8B4212D3FC22890112BA030A8B420CD3890192118B4208D3890192118B4204D389013AD0921100E08909C3098B4201D3CB01C01AC1
:4054C000524183098B4201D38B01C01A524143098B4201D34B01C01A524103098B4201D30B01C01A5241C3088B4201D3CB00C01A524183088B4201D38B00C01A5241D9D2B4
:4055000043088B4201D34B00C01A5241411A00D20146634652415B10104601D34042002B00D54942704763465B1000D3404201B5002000F00BF802BD0029F8D003B5FFF72E
:4055400015FF0EBC4243891A1847C0467047C0460E4B70B500251E1C0D4CE41AA410A54204D0AB00F35898470135F8E700F0BEFA084B00251E1C084CE41AA410A54204D05B
:40558000AB00F35898470135F8E770BDF85A0000F85A0000F85A0000005B0000031C8218934202D019700133FAE770470000000001000000000000000000000000000000CD
:4055C00058000000FE0000000000000000000000000064000000000003000000080000000200000002000000100000000000000001000000000000000000000000000000D1
:4056000000000000000000000A0000004F0200200A000000650200200000000000000000000000000000000001000000040000000000000000000000000000000000000059
:405640000000000000000000000000000000000000000000000000000000000000000000080000000800000001000000010000000A0000004F0200200A000000650200200C
:40568000010000000400000000000000000000000000000000000000010000000000000000000000000000004A000000FE0000000000000000000000000064000200000036
:4056C0000800000008000000000000004A000000FE000000000000000000000000009001710238019C0066004D00260019000C001D000E00020002000D0A537061726B46EE
:40570000756E2053657269616C20436F6E74726F6C6C6564204D6F746F7220447269766572202853434D44290D0A00456E7465722027482720666F722068656C702E0D0A3B
:405740003E000D0A6F7666000D0A436F6D6D616E64733A0D0A00204D3C6D6F746F72206E756D3E3C462F523E3C6C6576656C3E202D2D204472697665206D6F746F720D0A98
:4057800000204D3C6D6F746F72206E756D3E3C492F433E202D2D20496E76657274206D6F746F720D0A0020573C6F66667365743E3C646174613E202D2D2057726974652061
:4057C00072656769737465720D0A0020523C6F66667365743E202D2D20526561642072656769737465720D0A002045202D2D20456E61626C650D0A002044202D2D20446900
:405800007361626C650D0A0020423C647269766572206E756D3E202D2D204272696467650D0A00204E3C647269766572206E756D3E202D2D20556E2D6272696467650D0A82
:405840000020553C302D373E202D2D2053657420626175640D0A0045783A204D3146373520666F72206D6F746F72203120666F7277617264203735250D0A00323430300D0C
:405880000A00343830300D0A00393630300D0A0031343430300D0A0031393230300D0A0033383430300D0A0035373630300D0A003131353230300D0A000D0A696E76000D12
:4058C0000A666D74000D0A6E6F6D000051300F402B310F4027320F4023330F4004400F4004410F4006420F400F430F4002600F40000102020308050C070309050A020B0AC4
:405900001201130117021F04310F32033E043F014104440246B0480849FF4AFF4BFF4CEF4D554E304F48501C580459045A045B045D025F0161086308650867086850690AF3
:405940006A406BA86CC06E406FA88B029E01A301A803AE02B302B501B603C104C402C9FFCAFFCBFFCCEFCD55CE32CF48D01CD804D904DA04DB04DC31DD02DF01E108E3084E
:40598000E508E708E850E90AEA40EBA8ECC0EE40EFA80002030409020E021540171018101E021F802202251027102F8031023280330439163D204120430145204701512061
:4059C0005C405D025F28680169146D40801083048680C00AC288C4C0CA80CC0BCE27D0A5D6F0E201E401E6084104440245ED460C470F481749FF4AFF4BFF4CEA4D554EB25F
:405A00004F48501C5A045B045D225F0161086308650867086850690A6A406BA86CC06E406FA89901A101B501B920BF10D201D904DB04DD20DF0122102B803120452047015D
:405A40004F05558056085C0160016180660867056B0181028210850195029F01A120A380A502AF28B102B202B440CA01CC04D0A0D680D870E201E404E602E8C0038205405D
:405A80000780C0F0AF82B140B780E85054405A80824083208704D4031C011F0426202720670280018301862097089F20B040C605C805D601EC04010E100E0000030405061C
:405AC0000708090A0B0C0E0F101112131415161718191B1C1D1E1F2021222325262728292A2B2E2F3031323334350000F8B5C046F8BC08BC9E467047AD02000031240000FE
:405B0000F8B5C046F8BC08BC9E46704785020000205B0000C800002020000000C0020000000000000300E8FDFFFF00000000E02EC05D00001800000000366E010000000005
:405B40000000000000000000000000000000000000000000000000000000000000000000000000000000000000000000000000000000000000000000000000000000000025
:405B800000000000000000000000000000000000000000000000000000000000000000000000000000000000000000000000000000000000000000000000000000000000E5
:405BC00000000000000000000000000000000000000000000000000000000000000000000000000000000000000000000000000000000000000000000000000000000000A5
:405C00000000000000000000000000000000000000000000000000000000000000000000000000000000000000000000000000000000000000000000000000000000000064
:0200000490303A
:020000008ABDB7
:0200000490402A
:200000000000000000000000000000000000000000000000000000000000000000000000E0
:0200000490501A
:0C000000000204B61193110104D49C50BE
:0200000490600A
:0100000001FE
:00000001FF