:400000000010002011000000991D0000991D000008B501F0C3FE0000F8B572B680220021D2005B4804F0BAFE80225A48D200002104F0B4FE0022141C5749FF2557582431F4
:400040003E1C081C6300AE433D4001336419CB186100013141188B4206D0581E00781D78801905700233F6E70432242AE4D14B4A4B4BC8211A604B4A4B4B09041A604B4A5D
:400080004B4B3C201A60FF224A4B10251A609923494A1B041360494A494C1360494A1160494A022113608022484B92041A60484A13780B43474913700B7883432838034314
:4000C0000B701621137804300B4313708F22424B1A60424A424B1A60F022424B1A60424BE63A1A60414A424B1A60424B424A1D60424B1A600922424B1A60424B063A1A608B
:4001000080222368D2021343236003F0B7FC22683D4B3E49134023603D4A3E4B1A6020223D4B1A603D4B02321D603D4B1A603D4B0E321A6011230B603B490A603B4A3C49EE
:40014000136023223B4B1A603B4B023A1A6080233A4A1B061360002222600B6038490B6038490B603849394B19603949394B196039493A4B19603A493A4B19603A493B4BE2
:4001800019603B493B4B19603B4B1A60F8BDC04600300F4000400F40504F00000000FFFF00000140303000000800014000EE03000C0001401000014000500F4020500F4006
:4001C00000010B4028500F4030500F4038500F4000700F4001700F400000044092942400080004401800044000020440B66D000008020440000304409E6D00000803044039
:400200000804044018040440FFFFFBFF280202400600008004010B40080202400C02024020020240240202402C0202403402024000000240380202403C02024008010B40F2
:40024000400002408000024017000080040002405F09008044000240F301008008000240DF0100C048000240CF07008000010240CF0700C0400102400C020B4010B5064CE5
:400280002378002B07D1054B002B02D0044800E000BF0123237010BDE800002000000000AC4D000008B5084B002B03D00748084900E000BF07480368002B00D108BD064BCA
:4002C000002BFBD09847F9E700000000AC4D0000EC000020C80000200000000008B5022003F07EFA0E2000F045F92020802100F083F98021212000F07FF9084B1878C0B2CA
:4003000000F05AFD0821072000F084FD03F020FA002003F02BFA03F055FA08BDCC0000200849094A0B78002B02D000230B7006E05188064B994203D0538801339BB25380CE
:400340007047C04604010020CC000020FFFF000070B500F04BFA032000F040F97D4C207003F04EF903F08CFA21780020C9B200F051FD002003F070FA642003F05FFB2378A4
:40038000022B03D0FA20800003F058FB012002F0BDFC03F045F903F0A3F96F490F2003F0FBFAC0206D4A6E4B6E4953600B6A00061B021B0A03430B62002393600733136015
:4003C000694803F023FA03F099F903F0FBF9322003F034FB02F00EFC802002F0E5FB02F065FC802002F03CFC2078C0B200F024FC2078C0B200F076FC2078C0B200F0B6FC9F
:400400002078C0B200F0D8FC02F05EFC62B60120011C00F0FFFC2378002B05D023780D2B02D023780E2B01D100F0E8FE2378022B04D923780C2B01D801F00CF92378022B97
:4004400006D101F075F900F0BDFD01F091FB7DE003F00EFA454D012825D16E78002E73D16870163000F0BAF8012805D0022809D06E7000F0E1FC67E0301C03F0E1F903F0FF
:40048000D1FA61E0301C03F0DBF916205C2100F0B3F89B21152000F0AFF8354803F0CEFA00F0CEFD50E000F0C7FC6B78002B4BD000F0CCFD002847D0002350206B7000F0F2
:4004C0008DF8011C502000F097F8512000F086F8011C512000F090F8522000F07FF8011C522000F089F8532000F078F8011C532000F082F8542000F071F8011C542000F092
:400500007BF8552000F06AF8011C552000F074F8702000F063F8011C702000F06DF8712000F05CF8011C712000F066F8722000F055F8011C722000F05FF8762000F04EF854
:40054000011C762000F058F801F05AF901F01FFB61E7C046CC0000202103000010E000E0BF5D000000ED00E0DD02000004010020DC050000F0B5174B9F7D5E7D42B2002A21
:4005800000DA0F20144C011C225CA44655070DD55C2F07D1585C0130585401231A4363465A5415E010209B2EE8D1F3E7950709D510209B2EE2D1585C0130585401231A438A
:4005C000625405E0195C0131195401231A432254F0BDC046060100208601002008B543B2002B04DA0F20FFF7C5FF002001E0014B185C08BD0601002043B270B5002B01DA63
:400600000F2016E00F4C104A235C251C5E070AD5947D5C2C02D0547D9B2C09D11154012213432B540CE09D0706D5557D9B2D03D01020FFF79FFF03E01154012213432354CE
:4006400070BDC046860100200601002008B520208021FFF7D1FF21208021FFF7CDFF22208021FFF7C9FF23208021FFF7C5FF24208021FFF7C1FF25208021FFF7BDFF2620B9
:400680008021FFF7B9FF27208021FFF7B5FF28208021FFF7B1FF29208021FFF7ADFF2A208021FFF7A9FF2B208021FFF7A5FF2C208021FFF7A1FF2D208021FFF79DFF2E20DE
:4006C0008021FFF799FF2F208021FFF795FF30208021FFF791FF31208021FFF78DFF32208021FFF789FF33208021FFF785FF34208021FFF781FF35208021FFF77DFF36205E
:400700008021FFF779FF37208021FFF775FF38208021FFF771FF39208021FFF76DFF3A208021FFF769FF3B208021FFF765FF3C208021FFF761FF3D208021FFF75DFF3E20DD
:400740008021FFF759FF3F208021FFF755FF40208021FFF751FF41208021FFF74DFF08BD10B5214C9B22211C74310A706275221C5C23753200200421A3751370FFF73CFF59
:40078000A9210120FFF738FF02F044FF0F214840C1B20320FFF730FF76200021FFF72CFF7A200121FFF728FF79204A21FFF724FF0A200021FFF720FF02201021FFF71CFFE7
:4007C00071200A21FFF718FFE3780D2B01D00E2B01D1073B00E00223A377012373342370FFF734FF10BDC04606010020002208B50021234BD154234BD1540132802AF7D114
:40080000181C02317C300170181C7C3A50300270181C51300270181C52300270181C53300270181C54300270181C55300270181C76300270181C70300270181C71300270B2
:40084000181C74300270181C73300270181C197059709970D9709972D9725A759A74DA741A75197659769976D97619775977997759747730783301701A70FFF771FF08BD8C
:40088000060100208601002008B543B2002B04DA0F20FFF76FFE002003E0024B185C0123184008BD8601002008B543B2002B03DA0F20FFF75FFE04E00121024A135C8B43A6
:4008C000135408BD86010020031C00202F2B11D9392B02D8181C303806E0602B04D9662B04D8181C573801E0402B03D9462B01D8373B181C70472423002808DB031E092BD4
:4009000001DC303303E037330F2800DD2423D8B2704700232F280FD9392282425B41602802D9662806D901E0402805D9462803D8012301E00123F9E7181C704710B502284E
:4009400023D101F0A7FA02F0F5F81820FFF746FE041C1920FFF742FE2402204380B21A2102F0F0F802F0DCF827480A2101F00AFE0A21264801F024FE254801F07BFB254BF8
:400980001878553001F0F2FD18E0012819D101F081FA02F0CFF81820FFF720FE041C1920FFF71CFE2402204380B21A2102F0CAF802F0B6F81648243001F030FF01F05CFAFA
:4009C0001FE0012303281DD101F064FA02F0B2F81820FFF703FE041C1920FFF7FFFD240220431A2180B202F0ADF802F099F80A48143001F021FE01F03FFA0B2002F0F4FF66
:400A000062B60023181C10BD5902002043020020B04D0000CC000020304E000010B502F0B5F902F07FFD1B20FFF7D8FD041C1C20FFF7D4FD2402204380B21D2102F07AFDD5
:400A400002F066FD0E480A2102F002FD0A210D4802F01CFD0C48683002F052FA0220FFF7BDFD02F0E9FC02F031FD02F035FD02F0BBFC02F0CDFC02F07BF9002010BDC04650
:400A8000630200204E020020304E000010B502F07DF902F047FD1B20FFF7A0FD041C1C20FFF79CFD2402204380B21D2102F042FD02F02EFD0A480A2102F0CAFC0A210948AF
:400AC00002F0E4FC08480C3002F01AFA02F014FB02F026FB02F04EFB02F04AF9002010BD630200204E020020B04E0000F0B585B06B460122197069460023071C002402F0EC
:400B00008FFB02F021FB1D4D830704D4AC4204D00134A4B2F5E7AC4204D10C20FFF72AFDFFF7B4FF01AE381C311C0122002302F0E3FB02F009FBC30704D4AC4204D001347E
:400B4000A4B2F6E7AC4204D10C20FFF713FDFFF79DFF02F0F9FA830501D5002404E002F0C5FA0028F9D0347802F004FB02F0C4FA02F0D6FA201C05B0F0BDC04650C3000008
:400B80001FB501AB19705A70191C0222002302F047FB002402F0D8FA0E4B820704D49C4204D00134A4B2F5E79C4204D10C20FFF7E1FCFFF76BFF02F0DDFA830502D50C2091
:400BC000FFF7D8FC02F098FA02F0AAFA002004B010BDC04650C300001FB501AC21706270A370211C0322002302F01AFBC1B20D20FFF702FD002402F0A7FA0E4B820704D4CE
:400C00009C4204D00134A4B2F5E79C4204D10C20FFF7B0FCFFF73AFF02F0ACFA830502D50C20FFF7A7FC02F067FA02F079FA002004B010BD50C30000F8B5041C1620FFF7CA
:400C4000CDFC061C1520FFF7C9FC5C21051C1620FFF7D2FC15209B21FFF7CEFC002C03D0231C0D3B012B16D81E20FFF7B7FC07241B4F204040003818018E1820090AFFF774
:400C8000BBFC1E20FFF7AAFC044064003C19218E1920C9B207E0012C0CD118200021FFF7ABFC19200121FFF7A7FC1A200021FFF7A3FC02E0033C092CEFD91820FFF7F4FD3B
:400CC0001920FFF7F1FD1A20FFF7EEFD311C1620FFF792FC291C1520FFF78EFCF8BDC046B04E000070B5061C1620FFF777FC051C1520FFF773FC5C21041C1620FFF77CFC20
:400D000015209B21FFF778FC1B200021022E04D1FFF772FC1C2001210DE0FFF76DFC7320FFF75CFC0323184043000F480230C018C18F1C20C9B2FFF75FFC00211D20FFF73A
:400D40005BFC1B20FFF7B0FD1C20FFF7ADFD1D20FFF7AAFD291C1620FFF74EFC1520211CFFF74AFC70BDC046B04E000008B5002803D0031C0D3B012B03D80120FFF7DEFDD6
:400D800014E0012809D10230FFF7D8FD01F08AFA07490B2002F008FE08E003380B2805D80220FFF7CBFD034801F09CF808BDC046ED1000005516000008B5022802D1FFF791
:400DC0002DFE01E0FFF762FE014802F007F808BD31170000072310B50D495A5C002A14D00B7A934213D00024231C0A72934204DA0121A4000C435B18F8E702F0CDFB201C15
:400E000002F0F6FB02F0E6FB01E0013BE4D210BD0602002008B5024B1954FFF7DBFF08BD06020020002208B5024B1A54FFF7D2FF08BDC04606020020F7B55F4D2C78042C80
:400E400000D9B7E0201C03F087FE031E33678300502301206B7002F0F3FC0A200021FFF7CBFB79204A21FFF7C7FB7A200221FFF7C3FB7C200021FFF7BFFB7E200121FFF769
:400E8000BBFB012496E00A20FFF774FB79204A21FFF7B2FB7A200221FFF7AEFB7C200021FFF7AAFB7E200121FFF7A6FB022481E07C20FFF793FB01244A2816D16978313039
:400EC000FFF79AFB211C7D20FFF796FB69780B20FFF792FB0A200021FFF78EFB6B7803345E2B02D801336B70033C0A20FFF776FBC8280DD97720FFF771FB01210843C1B2A2
:400F00007720FFF779FB15200021FFF775FB04240A2002F093FD4DE07120FFF75FFB041E0BD0264B71201E88FFF758FBB6B280B2042486423ED203243CE07220FFF74EFB76
:400F40000028F8D0211C7220FFF756FB042431E02020FFF743FB01F027FE2120FFF73EFB01F07EFE50260B20FFF738FB864219DCF7B23C1C503C6400E4B2201C2230C0B2BD
:400F8000FFF72CFB23340190E0B2FFF727FB2021031C019A381CFFF71FFE642002F064FD0136E0E70122064B1A70044B1B88002BFBD1C0E72C70F7BD0F020020CE0000204E
:400FC0000401002038B51D4B9C781D1C032C32D8201C03F0C1FD2F020C1A02F049FC012829D101304A21FFF707FB022423E00220FFF7F4FA4A281ED0012002F021FC1520CB
:401000000021FFF7F9FA032415E002F031FC002805D1643002F012FD02F004FD0BE02020FFF7DCFA01F0C0FD2120FFF7D7FA01F017FE00E00124AC7038BDC0460F020020E5
:401040000022014B1A7070470F02002001220020034B1B78033BDBB29A424041C0B270470F02002073B501F0FBF8002839D001F0F7F81C4C051E1C4E09D0257801F0AAF9CE
:4010800023787055082BF2D801332370EFE7307843B2002B0EDA7F231840607001F03AF96078FFF79BFA6B46D871D879C0B201F0D3F90CE02378012B0CD0022B04D160705A
:4010C0007178FFF799FA02E00620FFF753FA01F0E9F8257001F01CFD01235840C0B201F00BFD73BD120200206D02002038B52F4B1B78002B02D001222D4B1A602D4B1B68A1
:40110000002B25D02C4B1B685B0721D52B4B1B681B071AD02A4B2B4D19682B4B2C681B6801341B1B5A1E93415B421C40274B1B689C4203D12022264B1A7003E0201C01F099
:4011400017F92C60FFF78EFFE0E70422214B1A60214B1B68002B27D0204B1B689B0723D51F4B1A680F231340082B1AD01D4B1E4D1A682B689A420FD01C4B2C681B68013400
:401180001B1B5A1E93415B421C40201C01F0A8F9174B18602C60E3E70221164A13688B4313600222144B1A6038BDC04685020020C00E074078020020CC0F074008030740B5
:4011C00040030740A00200208002002098020020A8020020C00F0740900200208C0F0740080207409C020020A40200208C02002040020740880F0740800F0740F7B501F076
:4012000045FCC6B2051CC84C002E16D0012002F011FBA378E21C122B03D8D6540133A37005E0D318013BC1481E7001F043FCE8B201F012F9002002F0FDFAA378E51CEB185A
:40124000013B1E780A2E00D0FBE1012002F0F2FAE378452B00D19BE109D80D2B00D1E6E1422B00D19CE10A2B00D0DDE1DFE1522B00D1E7E002D84D2B07D0D5E1552B00D16D
:4012800007E1572B00D1ABE0CEE1AB780226462B07D000260122523BDBB29A42764103239E1BE31C9B5D462B03D0523B012B00D9C3E19F4B9B19013B1878FFF705FB051C5F
:4012C00087B2032E07D19A4B5878FFF7FDFA0A2358434719BFB2751CEDB263191B790A2B01D00D2B04D1012301930023009304E0F31C9D42F7D00135EEE7E31CB54210D036
:40130000585DFFF7E1FA019B019A5843009B013DC01883B200930A2353439BB2EDB20193EBE75B5D3DB2532B3DD10B20FFF756F94E384000C0B2854200DB80E1002F07D1E2
:401340001220FFF74BF901214840C1B2122068E1012D06D11320FFF741F94540E9B213205FE1092D04DC5020FFF738F9023D14E0112D04DC5020FFF731F90A3D0DE0192D66
:4013800004DC5020FFF72AF9123D06E0212D00DD4DE15020FFF722F91A3D0123AB405840C1B250203DE10126462B00D0614E0B20FFF714F94E384000C0B2854200DB3EE178
:4013C0006B460020185E7F236421584303F0CEFB4643311C2037FFB28039C9B2381C20E16878FFF796FA002800D126E1A878FFF790FA002800D120E1E878FFF78AFA0028BF
:4014000000D11AE1E079FFF784FA002800D114E12079FFF759FA071C6079FFF755FA051CA079FFF751FA0090E079FFF74DFA031C009A3801110105431943E8B2C9B2FFF7AE
:40144000DBF824E06878FFF764FA002800D1F4E0A878FFF75EFA002800D1EEE06878FFF733FA061CA878FFF72FFA36013043C0B2FFF7B4F8051C0009C0B2FFF73CFA00F085
:40148000EBFF0F202840FFF736FA00F0E5FF2A48CBE06878FFF73DFA002800D1CDE01620FFF79CF8071C1520FFF798F85C21061C1620FFF7A1F815209B21FFF79DF8687883
:4014C000303807284FD803F047FB040A10161C2228471A4801F0EEFA1E20002141E0184801F0E8FA1E2001213BE0164801F0E2FA1E20022135E0144801F0DCFA1E20032189
:401500002FE0124801F0D6FA1E20042129E0104801F0D0FA1E20052123E00E4801F0CAFA1E2006211DE0C04612020020F84E000015020020FFFF0000394F0000FE4E0000A5
:40154000054F00000C4F0000134F00001B4F0000234F00002B4F00003A4801F0ABFA1E200721FFF749F8391C1620FFF745F8311C1520FFF741F8C820400002F05FFA03204A
:40158000FFF72CF8FFF758FB0120FFF7D7F94EE07020FFF723F801214840C1B2702040E06878FFF7B6F900280ED0A878FFF7B1F9002809D0A878FFF787F9071C6878FFF76A
:4015C00083F94643F01907E02079FFF7A2F9002833D02079FFF778F980B205B2002809D11430FEF7FBFF01214840C1B21420FFF703F801E0082D09DC5420FEF7EFFF0123CB
:40160000013DAB405840C1B254200AE0102D14DC5520FEF7E3FF0123093DAB405840C1B25520FEF7E9FF02E0074801F043FA0020A070E07002F0FEF803E00448F5E70448CF
:40164000F3E7F7BD334F00003C4F0000424F0000484F000010B502F009F8002002F014F802F03EF800F054FFC3063DD5012002F0E1F87620FEF7B2FF002809D002F068F810
:40168000002002F073F802F09DF80720FFF7CAFB00F0B0FF234C022806D1234B1878E0755978FEF7A9FF0EE000F0A4FF012803D11D4B1B78E37506E000F09CFF022802D92D
:4016C0000620FEF757FF00F03DFF030602D50520FEF750FF00F09AFFE07DFEF77FFF134B1870002002F0A6F800F012FFC30708D500F086FF00F012FF030702D50420FEF7FD
:4017000039FF01F0C7FF041EFF2C00D9FF240920FEF764FF844203D9E1B20920FEF76CFF10BDC04612020020430200205902002038B501F053FE2F4CC30640D501F04EFE86
:4017400020231840051E3AD1012002F073F87620FEF744FF002809D001F0FAFF281C02F005F802F02FF80720FFF75CFB01F0A8FE022812D0032805D0012814D11E4B1B78FC
:40178000237610E01C4D287820766978FEF734FF207EA9780130C0B203E0174B187820765978FEF729FF01F033FE030602D50820FEF7E0FE01F090FE002002F03BF8207EDE
:4017C000FEF70CFF0D4B0124187001F007FE20420ED001F09DF96040C0B201F08DF901F075FE01F001FE030702D50720FEF7C2FE38BDC046120200204E0200206302002069
:40180000F7B57D20FFF740F8002816D07920FEF7E5FE051C7A20FEF7E1FE041C7B20FEF7DDFE211C021C281CFFF7AAF97D200021FEF7E2FE7D20FFF737F87E20FFF724F85B
:40184000002815D07920FEF7C9FE041C7A20FEF7C5FE011C201CFFF749F9011C7C20FEF7CBFE7E200021FEF7C7FE7E20FFF71CF80B20FEF7B3FE0025A84202D04F384000F2
:4018800085B25020FFF700F800281BD000242BB29C4211DA0127231C3B40123350200193FEF79CFE021C224166105036F6B23A40301C0199FFF764F90134082CE7D1502093
:4018C000FEF7F2FF5120FEF7DFFF00281CD000242BB2083B9C4211DA0127231C3B40123351200193FEF77AFE021C224166105436F6B23A40301C0199FFF742F90134082CE1
:40190000E6D15120FEF7D0FF5220FEF7BDFF00281CD000242BB2103B9C4211DA0127231C3B40123352200193FEF758FE021C224166105836F6B23A40301C0199FFF720F95B
:401940000134082CE6D15220FEF7AEFF5320FEF79BFF00281CD000242BB2183B9C4211DA0127231C3B40123353200193FEF736FE021C224166105C36F6B23A40301C019918
:40198000FFF7FEF80134082CE6D15320FEF78CFF5420FEF779FF002825D00B20FEF71EFE4F2803D85420FEF77FFF1CE00B20FEF715FE5728F6D80024251C0B205035EDB285
:4019C000FEF70CFE8542EDD85420FEF707FE021C01232241281C1A4014210134FFF7D0F8092CE9D1DEE75520FEF74EFF002825D00B20FEF7F3FD4F2803D85520FEF754FFDC
:401A00001CE00B20FEF7EAFD5F28F6D80024251C0B205835EDB2FEF7E1FD8542EDD85520FEF7DCFD021C01232241281C1A4014210134FFF7A5F8092CE9D1DEE77420FEF773
:401A400023FF00282CD07420FEF7C8FD011C1520FEF7D2FD0B20FEF7C1FD4F2803D87420FEF722FF1CE00B20FEF7B8FD5F28F6D80024251C0B205035EDB2FEF7AFFD8542A0
:401A8000EDD87420FEF7AAFD021C01232241281C1A4015210134FFF773F8092CE9D1DEE77520FEF7F1FE00282CD07520FEF796FD011C1620FEF7A0FD0B20FEF78FFD4F28AC
:401AC00003D87520FEF7F0FE1CE00B20FEF786FD5F28F6D80024251C0B205035EDB2FEF77DFD8542EDD87520FEF778FD021C01232241281C1A4016210134FFF741F8092CDE
:401B0000E9D1DEE77320FEF7BFFE00282DD01620FEF764FD051C1520FEF760FD5C21041C1620FEF769FD15209B21FEF765FD00211B20FEF761FD7320FEF750FD0323184010
:401B40000A4B4000195C1C20FEF756FD1D200021FEF752FD1620291CFEF74EFD1520211CFEF74AFD7320FEF79FFEF7BDF04E000008B50220FEF788FE002807D00220FEF745
:401B80002DFD01F059FC0220FEF78EFE08BD38B51220FEF779FE002821D01420FEF71EFD012808D11130FEF719FD012801D1063010E004200EE01220FEF710FD041E012C61
:401BC00004D101F06DFE2043C0B203E001F068FE0623184001F05EFE1220FEF765FE1320FEF752FE002818D01420FEF7F7FC012810D01320FEF7F2FC012805D101F050FE4C
:401C000002231843C0B203E001F04AFE0523184001F040FE1320FEF747FE1420FEF734FE00281ED01420FEF7D9FC012808D11130FEF7D4FC012801D106300DE004200BE0D6
:401C40001220FEF7CBFC041C1320FEF7C7FC0123184098402340184301F01CFE1420FEF723FE7620FEF710FE00282FD07620FEF7B5FC051C0320FEF7B1FC02280CD1002DEE
:401C80001FD001F065FD002001F070FD281C01F073FD01F097FD16E00B20FEF79FFC4F28EDD950240B20FEF799FC8442E7DCE0B276212A1CFEF764FF642001F0D5FE013456
:401CC000F0E701F045FD7620FEF7EEFD7020FEF7DBFD002830D07020FEF780FC0124204000F0FCFF7020FEF779FC204001F002F80320FEF773FC022803D17020FEF7D4FD4E
:401D00001AE00B20FEF76AFC4F28F6D950240B20FEF764FC8442F0DC7020FEF75FFC0123021CE1B21A40081C7021FEF729FF642001F09AFE0134EAE71D20FEF7A5FD002867
:401D400007D00320FEF74AFCFFF736F81D20FEF7ABFD1A20FEF798FD002807D00320FEF73DFCFFF703F81A20FEF79EFD1120FEF78BFD00280FD01120FEF730FC012807D159
:401D800001F048FC0F214840C1B27C20FEF734FC1120FEF789FD38BDFEE7000070B51049104B01394A1C15D000221E685C689D68A018AA4203D0B058A0500432F8E7021C0B
:401DC000DC68151AA54202D0002520C2F9E710330139E7E702F0BCFFFEF7BAFAFEE7C046010000008851000008B500239A000B49032B01D80A4989580A4801338150302BAF
:401E0000F4D1FEF709F90022074B01211A608022D20513680B43136008BDC046991D00000000000000000020C0000020034B1B78FF2B02D10022024B1A707047D000002022
:401E40002C02002008B5094B1B78FF2B0CD08021074A090613680B431360064B1B78002B02D00B2001F0C0FD08BDC046D0000020000007408602002010B5054C2378002BED
:401E800003D1FFF7D3FF01232370FFF7DBFF10BD2C02002008B50B2001F0B0FD0D4A0B2013685B005B08136001F0B2FD0A4B1B78012B02D100F0C4F90BE0082B02D100F01B
:401EC00005FE06E0042B04D1044A054B11680B40136008BD00000740D000002048000740FFDFFFFF014B58607047C0462C0200200023F0B591B0002602AC09AD1E515E51F9
:401F000004331C2BF7D1012801D0082807D10E23029303930A3B09936B6000262DE0022815D10F2301240293039304930622002906D12C606A60AC600593EC60061C1CE069
:401F40002A606C60AA600593EA600D2615E0012904D109230393053B6B600EE001231A4202D009212B600291022300261A4204D009221E1C0392033A6A60029A294F1104FE
:401F80003B68294A294C13400B433B60099BD8B201F098FC1022F30702D52368134301E0236893432360039A3B6811050192204A13400B433B60287901F090FC2022B30755
:401FC00002D52368134301E0236893432360049A3B6811060192174A13400B433B60287A01F064FC4022730702D52368134301E02368934323603B68059A1B0112071B09F5
:4020000013433B60E868C0B201F074FC8022330702D52368134301E023689343236011B0F0BDC04600000140FFFFF0FF18000440FFFF0FFFFFFFFFF080200A4B40001A6885
:4020400002420AD0084A1268520406D41A680749114019601A6802431A600222044B1A607047C0460000074060000740FFFEFFFF6C000740F8B5002800D1A0E00021041CBC
:402080000A1C0120FFF734FF01230C204C4A217F13704C4A4C4D11704C4A217E13704C4A267811704B4A2E701168014311602068111C984204D0C820678C4000874205D805
:4020C0000B68454A13430B60002303E01068434901401160A269E169002A01D0802252028027481E81413F010902381C0A433C490A600F21226892071043A268013A0A403C
:402100001043071CFF206268013A12010240111C3A1C0A4333490A603349002B01D10B1C00E0324B324A13600023324A1360F20709D56369FF221804FF231B0418402369F7
:402140005B001340034300242B4A0B2013602B4B19602B4B1C6001F051FC0B20022101F02BFC28490B2001F01FFC0122264B1C60264B1C60264B1C60264B1C6029780A4045
:40218000A24201D04C22FF32234B1A6002230B4001D01423FF33214A13601022204B1A700023204A1370204A1360204A1360204A1370204A1380204A1360204A1360F8BD11
:4021C000D0000020850200208702002086020020890200207000074000000202FFFFFDFD00000740600007400701008007030080000307400403074010030740000207405E
:4022000004020740B93B0000C80E0740880E0740C80F0740880F0740480F0740080F074094020020D8020020E4020020E0020020E8020020C0020020AC020020C80200200F
:40224000002208B5044B0B201A6001F0E1FB1022024B1A7008BDC046880F0740940200200B4B1B68002B0ED00A4B18680A4B1A68904202D31B68C01A09E01A68074B1B6884
:40228000C018801A03E0064B18680F231840704778020020A00200209802002080020020080307408021124B70B518684902114B114A002814D000251048066805601C6828
:4022C0002143196019680A401A600D4B1A680D4B1A600D4B0D4A1D700D4B1A60066005E018680143196019680A401A6070BDC0467802002004030740FFFFFEFFC80F074001
:4023000098020020A0020020A8020020ED0F0000C00F07408021104B30B5186849020F4B0F4A002811D000250E48046805601D682943196019680A401A600B4B1A680B4BB4
:402340001A6002239C43046005E018680143196019680A401A6030BD9002002004020740FFFFFEFF880F0740A40200209C02002010B50A4BCCB21A78094B082A03D11B68C4
:402380001818047009E01A684000121814701B68013089B21818090A017010BD8A02002078020020094B1A78094B082A04D11B6818180078C0B208E019684300CA180133CA
:4023C000CB18127818780002104370478A0200207802002038B50E4B1B68002B14D00D4B0D4D1A682B6800209A420FD00B4B2C681B6801341B1B5A1E93415B421C40201CBB
:40240000FFF7D0FF2C6001E0054B186838BDC04678020020A002002098020020800200204003074010B50A4BCCB21A78094B082A03D11B681818047009E01A6840001218DD
:4024400014701B68013089B21818090A017010BD8802002090020020194B70B51B68002B24D0184D184B2C681B6801341B1B5A1E93415B421C40154B1A689442FBD02A683D
:402480001B689A4205D1124B1A680F231340082B12D102260F4B011C1E60201CFFF7C2FF0D4A2C6013683343136007E0084B1A680F231340082BF9D0084B186070BDC046DB
:4024C000900200209C0200208C020020A402002008020740800F0740880F074040020740094B1A78094B082A04D11B6818180078C0B208E019684300CA180133CB1812785D
:4025000018780002104370478802002090020020014B1878C0B27047D802002010B50B2001F06CFA0D21064B18781A78C4B28A430B201A7001F058FA0F20204010BDC0461F
:40254000D802002010B50B2001F058FA2F22064B0B201C781978E4B20A401A7001F044FA0F23201C984310BDD8020020FF22044940000B6810409343184308607047C046CC
:402580001003074038B5002810D0041C0D1C0B2001F034FA064B074A1C60074B0B201D6000231360054A136001F01EFA38BDC046CC020020E4020020EC020020D4020020CD
:4025C00038B500280ED0041C0D1C0B2001F016FA0022054B0B201C60044B1D60044B1A6001F002FA38BDC046D0020020DC020020E0020020014B18687047C046E002002060
:402600000022014B1A607047E40200200022014B1A607047E00200200549064B0A6880061340C02212051040184308607047C04620000740FFFFFFF338B5002800D1B2E0D2
:40264000041C002202202168FFF752FC0222564BE16B1A70554AA36955481370554A1170554A216B1160554A217F1170FF22E16A114001605249A06B08605249206A08707E
:40268000616B0A4050490A60E268511E0F220A40002B01D080235B00802149040A4313434A4A1360A56A60686B1E9D411023034000D00223A26891000C220A4061692A4348
:4026C000002900D01021C0250006AD04284002431A4311432268002A01D0802212063C4B0A431A60E369626A591E0F231940002A01D08022520080231B0619432369002B49
:4027000001D080239B000A431343324A13600723626C1340304A1360236A5A1E0F231A40636A002B01D080235B00802109060A4313432A4A002513600723E26C0B20134013
:40274000274A136001F05AF90B20022101F034F924490B2001F028F9234B281C1D60234B1D608023226C1B011340214A13608023A26C9B0013401F4A1360226C1E4B1340BE
:402780001E4A1360A26C1E4B13401E4A1360FFF743FF1D4B1D601D4B1D601D4B1D701D4B1D601D4B1D6038BDD0000020850200208002002086020020780200208A020020BC
:4027C00090020020880200208C020020000007402000074000030740040307400002074004020740FD420000880E0740C80E0740480F0740080F0740FFF7FFFFC80F0740AC
:40280000FFFDFFFF880F0740A002002098020020A80200209C020020A402002038B5002800D1F4E0041C042021686268FFF760FB0420774B226B1870764B616B1A70764B81
:40284000626D764D1A70764BA26B1A60227A754B1A70FF23194029607349256C0D6073490A70E26B25681340714A72491360022D22D1A3691022002B1CD063690022102B64
:4028800018D00132202B15D02A1C302B12D00132602B0FD0021CC02B0CD0C02001328000834207D0C020C0001B1A5D425D4101326B421A400A6004E063695A1E0F23134036
:4028C0000B60A26C0B68002A02D18022920400E0594A13430B6023681A06C0239B041340564A13602369606A5A1E07231A40002800D040200243606C002801D08020C000CC
:40290000A16A0243002901D080214900E36A0A43002B01D080239B001A43494B1A60E068022806D01A683021002800D110390A431A60A368591E0F230B40E169002901D0BD
:4029400080218900012219436368134001D080231B063C4A0B4313600723E26D3A491A400A60226D1104FF2212040A40E16CC9B20A4336490A602269013A1340226A002A02
:4029800001D0802252001343314A1360E068131C022806D012683021002800D110390A431A60A36861685A1E0F231A400D3B0B4001D080231B061343264A0B201360072335
:4029C000626E1340244A136001F018F80B20022100F0F2FF21490B2000F0E6FF0023204A1360204A1360204A1360204A1360A16D1F4A1160216E1F4A11601F4A13601F4A0C
:402A000013601F4A13701F4A13601F4A136038BDD0000020850200208602002080020020780200208A02002090020020880200208C02002000000740000001024000074088
:402A400048000740000307400403074010030740440007400002074004020740FD420000880E0740C80E0740480F0740080F0740C80F0740880F0740A00200209802002007
:402A8000A80200209C020020A402002008B5FFF7E7FB031C0020834201D0FFF79BFCD822034B92001968114201D000201A6008BDC00F074010B5041C0134631E187800288A
:402AC00002D0FFF7C9FCF7E710BD0000002208B5064B0B201A6000F09BFF054B1B78002B00D00223034A137008BDC046880F074084020020FC0200201023044900010A680C
:402B00009A43D2B2034013430B60704700030440024B1868C006C00F7047C046040304408021034A090613680B4313607047C04600000240024A13685B005B0813607047E1
:402B400000000240034A13681B0C1B04184310607047C0460000024080220C4BD2041A601A680B491A6000220A60196819600C21084B1960084B1A60084B31321A60084BD3
:402B8000CF321A60074B803A1A607047C0010540C8010540E4010540F8010540E8010540D4010540CC010540014B80B218607047CC01054038B50D1C041CAC4000F0E2FED6
:402BC000024B1C6000F0E2FE38BDC0460800054010B5082400F0D6FE054A13682343136000F0D4FE201C1821FFF7E4FF10BDC0460000054010B5054C2378002B03D1FFF7CE
:402C0000ABFF01232370FFF7E3FF10BD3402002080220C4BD2041A601A680B491A6000220A60196819600C21084B1960084B1A60084B31321A60084BCF321A60074B803A49
:402C40001A6070474001054048010540640105407801054068010540540105404C010540014B80B2186070474C01054038B50D1C041CAC4000F086FE024B1C6000F086FEBB
:402C800038BDC0460800054010B5022400F07AFE054A13682343136000F078FE201C1821FFF7E4FF10BDC0460000054010B5054C2378002B03D1FFF7ABFF01232370FFF70D
:402CC000E3FF10BD350200208021034A090613680B4313607047C046800002400423044980000A689A43D2B2034013430B607047000204401023044900010A689A43D2B2FA
:402D0000034013430B60704700020440012304490A689A43D2B2034013430B607047C04600020440034B1B78FF2B02D10022024B1A707047D10000203802002008B5094B5D
:402D40001B78FF2B0CD08021074A090613680B431360064B1B78002B02D00A2000F044FE08BDC046D1000020000006402D03002010B5054C2378002B03D1FFF7D3FF012352
:402D80002370FFF7DBFF10BD3802002008B50A2000F034FE0D4A0A2013685B005B08136000F036FE0A4B1B78012B02D100F08EF90BE0082B02D100F095FB06E0042B04D176
:402DC000044A054B11680B40136008BD00000640D100002048000640FFDFFFFF014B58607047C04638020020002370B58EB000246D465C5107AD5C5104331C2BF7D10128A3
:402E000001D0082807D10E23009301930A3B07936B60002425E002280DD10F23012400930193093B002903D12C606B60041C18E02B606C6015E0012904D109230193053B0D
:402E40006B600EE001231A4202D009212B600091022300241A4204D009221C1C0192033A6A600F22154E33689343009A13433360079BD8B200F056FD0121331C104E32682B
:402E80000C4202D01143316001E08A433260F0201A680199824309010A431A606868C0B200F052FD02223368144202D01A43326001E0934333600EB070BDC0461000014028
:402EC0001804044080200A4B40001A6802420AD0084A1268520406D41A680749114019601A6802431A600222044B1A607047C0460000064060000640FFFEFFFF6C00064081
:402F0000F8B5002800D1A0E00021041C0A1C0120FFF76AFF01230C204C4A217F13704C4A4C4D11704C4A217E13704C4A267811704B4A2E701168014311602068111C98426E
:402F400004D0C820678C4000874205D80B68454A13430B60002303E01068434901401160A269E169002A01D0802252028027481E81413F010902381C0A433C490A600F211D
:402F8000226892071043A268013A0A401043071CFF206268013A12010240111C3A1C0A4333490A603349002B01D10B1C00E0324B324A13600023324A1360F20709D56369C6
:402FC000FF221804FF231B04184023695B001340034300242B4A0A2013602B4B19602B4B1C6000F00BFD0A20022100F0E5FC28490A2000F0D9FC0122264B1C60264B1C60F1
:40300000264B1C60264B1C6029780A40A24201D04C22FF32234B1A6002230B4001D01423FF33214A13601022204B1A700023204A1370204A1360204A1360204A1370204ABF
:403040001380204A1360204A1360F8BDD10000201C030020300300202D0300202C0300207000064000000202FFFFFDFD000006406000064007010080070300800003064033
:403080000403064010030640000206400402064015440000C80E0640880E0640C80F0640880F0640480F0640080F06403103002070030020680300205C030020600300201D
:4030C000380300204003002050030020002208B5044B0A201A6000F09BFC1022024B1A7008BDC046880F064031030020014B18687047C0464003002008B50A2000F07EFC04
:4031000000220121044B0A201A60044A13888B43138000F069FC08BD400300203803002008B50A2000F06AFC00220221044B0A201A60044A13888B43138000F055FC08BD71
:40314000500300203803002010B50A2000F056FC064B1C88064BA4B21B789B0601D504231C430A2000F040FC201C10BD380300203103002010B50A2000F040FC0022044B8A
:403180000A201C88A4B21A8000F02EFC201C10BD380300201E4B70B51E6800F0DFFB0028FBD0002000F0B2FB0F221A4C1A4D2368934323602B685B005B082B60B3060FD5EA
:4031C000002000F0A3FB0A2000F04EFC012000F09DFB00F0B1FB0028FBD00A2000F044FC002000F093FB0A2000F03EFC012080220A4B120618602B6813430F222B60236861
:403200009343013A1343236000F080FB70BDC04664000640100001400000064068000640F7B5061C0F1C019200930425002942D0234C2378102B08D10A2000F0DFFB214B16
:403240006D191B68DB0736D408E023780425602B31D108211C4A13888B4313802823237000231A4A02211360194A76001360019A184B194C1A60194B1F606B461A78184BE8
:403280001A70FF23104A1E4013888B431380154A154B1A604022154B1A60009BDB0703D5FFF778FF266002E0114B2660196040220025104B1A600A2000F096FB281CFEBDAE
:4032C00031030020640006403803002044030020500300203403002040020640480300204C03002017030000000F0640800F064068000640880F0640F7B5061C0F1C019287
:403300000093042400294AD0274D2B78102B08D10A2000F073FB254B24191B68DB073ED408E02B780424602B39D10821204A13888B431380292300222B701E4B1E4C1A608B
:40334000019B1B4923601D4B76001F606B461A781B4B1C4D1A70FF230A881E40FE3B9A430A80194A19491E431160009A1A4203D0FFF710FF2E6003E00222154B2E601A60BD
:403380002368144A072B01D8042306E08020124940000B6803430B600823002413600A2000F022FB201CFEBD310300206400064038030020400300203C030020540300202B
:4033C0004C03002040020640000F06401703000068000640C80F064060000640014B1878C0B270477003002010B50A2000F006FB0D21064B18781A78C4B28A430A201A70E6
:4034000000F0F2FA0F20204010BDC0467003002010B50A2000F0F2FA2F22064B0A201C781978E4B20A401A7000F0DEFA0F23201C984310BD70030020FF22044940000B6803
:4034400010409343184308607047C0461003064038B5002810D0041C0D1C0A2000F0CEFA064B074A1C60074B0A201D6000231360054A136000F0B8FA38BDC046740300208A
:4034800068030020580300207803002038B500280ED0041C0D1C0A2000F0B0FA0022054B0A201C60044B1D60044B1A6000F09CFA38BDC0466C030020640300205C030020A8
:4034C000014B18687047C0465C0300200022014B1A607047680300200022014B1A6070475C030020002208B5064B0A201A6000F08FFA054B1B78002B00D00223034A13705C
:4035000008BDC046880F064024030020940300208021034A090613680B4313607047C04640000240024A13685B005B081360704740000240034A13681B0C1B041843106063
:403540007047C0464000024008B500F01BFA1021034A13780B43137000F018FA08BDC04692000F40012108B5034A13780B431370FFF7EAFF08BDC04672000F4008B500F022
:4035800001FA1021034A13788B43137000F0FEF908BDC04692000F40012108B5034A13788B431370FFF7EAFF08BDC04672000F400723044A117899431170117803400B4338
:4035C0001370704782000F4008B50420FFF7F0FF08BD000010B5054C2378002B03D1FFF7F3FF01232370FFF7BDFF10BD4002002008B5011C014800F0D5FA08BD00000F400F
:403600008021034A090613680B4313607047C04640010240014B1878C0B2704761000F408021034A090613680B4313607047C046040002408122074B92041A600C22064B9C
:4036400006491A600023064A1360064A1160064A1360704780010540A4010540FFFF0000B8010540940105408801054008B500F089F90421034A13688B43136000F086F940
:4036800008BDC04600000540014B80B21860704788010540014B186880B270478801054038B50D1C041CAC4000F06CF9024B1C6000F06CF938BDC0460800054010B5042432
:4036C00000F060F9054A13682343136000F05EF9201C1821FFF7E4FF10BDC0460000054010B5054C2378002B03D1FFF7A3FF01232370FFF7E3FF10BD410200208021034A3C
:40370000090613680B4313607047C0464800024000230C21084A1360084A1160084A0A391160FA21074A890011606421064A1160064A13607047C04600010540240105403D
:4037400038010540140105400C0105400801054008B500F017F90121034A13688B43136000F014F908BDC04600000540014B80B21860704708010540014B80B21860704734
:403780000C01054038B50D1C041CAC4000F0FAF8024B1C6000F0FAF838BDC0460800054010B5012400F0EEF8054A13682343136000F0ECF8201C1821FFF7E4FF10BDC04668
:4037C0000000054010B5054C2378002B03D1FFF79FFF01232370FFF7E3FF10BD42020020014B18607047C0463001054010B5041C00F0C8F8C021044AA40113688B43234371
:40380000136000F0C3F810BD10E400E010B58024054B64021C60054B0433D8670320FFF7E5FF034B1C6010BD80E100E00000002000E100E0014B18707047C04673000F405F
:40384000012304490A689A43D2B2034013430B607047C046000304400223044940000A689A43D2B2034013430B60704700030440024B18688007C00F7047C046040304404A
:403880008021034A090613680B4313607047C04644000240014B18707047C04670000F40014B1878C0B2704770000F40034A044B116880040B4018431060704708000440C6
:4038C000FFFFE3FF034A044B116800030B4018431060704708000440FF8FFFFF034A044B1168C0030B4018431060704708000440FF7FFCFF034A044B116840050B401843C1
:403900001060704708000440FFFF1FFF012304490A689A43D2B2034013430B607047C046000404400721034A13688B43184310607047C04608040440024B186801231840CC
:403940007047C046040404403821034AC00013688B4318431060704708040440024B18688007C00F7047C04604040440000000000230800804D0C0460138FDD1C046C046EA
:40398000C0467047EFF3108072B6704780F310887047C046C046C046802380009B05C3181868196070470000024B8000C3181868196070474000002038B5041C0D1CFFF7F3
:4039C000E1FFA308074A9B009B180322144094400634A240A5401968914329431960FFF7D5FF38BD00E400E01F2318401E3B8340181C014B1860704700E100E01F231840D2
:403A00001E3B8340181C014B1860704780E100E01F2318401E3B8340181C014B1860704780E200E0034A044913689BB20B4313607047C0460CED00E00400FA0510B5041C32
:403A40008022074B1202944205D91868FFF790FF044BE418F4E758686043FFF789FF10BDD40000200080FFFF08B5034B1B7A5843FFF77EFF08BDC046D4000020F0B5C31E4C
:403A800087B002932D2B64D8334B1B78984204D8324B1D78324BEDB21EE0324B1B78984204D8314B1D78314BEDB215E0304B1B78984204D82F4B1D782F4BEDB20CE02F4B7A
:403AC0001B78984204D82E4B1D782E4BEDB203E02D4B1D782D4BEDB21C782D4E029B0390F35CE4B20193FFF74DFF019B04900596284F2F2B05D9039B2A2B02D919263E6031
:403B000008E03F233E681E40019BB34205D2214B019A1A600520FFF72BFF1C4A039B944663441B781C4ADBB213601C4B05201D601B4B1C60FFF798FF019BB34206D9059B03
:403B4000029A05209B5C3B60FFF712FF0498FFF71DFF07B0F0BDC046C0F1FF0FC1F1FF0FC2F1FF0FC3F1FF0FC4F1FF0FC5F1FF0FC6F1FF0FC7F1FF0FC8F1FF0FC9F1FF0F30
:403B8000CAF1FF0FCBF1FF0FCCF1FF0FCDF1FF0F345100002CFF0B4028FF0B401CFF0B4020FF0B40CBB203700B0A090CDBB2C9B24370817070470000C44BF7B51B68002BB8
:403BC00000D09847C24B1B68DB0702D50022C14B1A602020C04BC14C1A78024257D02578AA0701D4002270E0BD49002208680191C10506D5C026BB48B60002883243028050
:403C00000122012001990E68064209D09027B54EBF0032883A433280072D10D1021C01E0072D0AD1B0480068810706D5A026AD48B60002883243028001E0002AD2D0012205
:403C400002261878A74F1040301A844661463888084380B23880072D16D108201D78284010D0A1480568354202D000220260DEE29E480068C10526D401990968114200D057
:403C8000D5E220E0187020E0002119701DE0012122780A42A6D0954A15680222FF321542A0D01D78924A0D4206D002201178814311701178073004E011788143117090217F
:403CC00010780143117000221A701978890600D444E121780224214200D1C3E2102080490D6805420CD00121824A10601A780A40A21A7C4C21880A4392B222801870B1E2D4
:403D00001D782D071AD50D68254209D0794A7548146088240288A4002243028001220DE01C78E40702D52520187007E024241C70714C2468002C01D0704C206004201C7839
:403D4000044200D19BE001241D78254243D008256B490E682E4223D06A496B480E6807686A49F71B0F2609683140791AA94207D8002906D16649674A0E6832400A60221C4F
:403D8000291C654D04682D6801392C19634D2D68EDB225700468013404600029F1D117E00968014214D058495B4E0D68366875195A4E3668F6B22E700D6801350D600D6890
:403DC000504909688D4202D24749086000E0221C5348544949E008680221084220D0454A51481160514D06680D31026828683140411A8420D20B22408A1A2A6029684C4AF1
:403E00008000116037490A88024380200A80494A40021168014311601068474901402CE046490868C00622D545490C683E49324D08680F2108403D4908280DD00E68286873
:403E4000864209D208683F4D20180078C0B22860086801300860E9E708682968884202D140202649086038483849086007E00968490604D52D4A11682D4A116002E0002A7E
:403E800000D1EFE12249234A086802400A6000222F490A6019490A602E4A127892070CD5012219780F480A400A218A1A01880A4392B2028060221A70D4E1274B1A68182371
:403EC000920600D4083B084A1360CBE1300200208C0E0740880E074094020020870200200C0F0740C0020020680007404C0F0740D8020020000F0740BC020020880F074092
:403F0000CC0F0740B8020020AC0200200803074060000740FFFEFFFFB402002040030740ED0F0000C00F074008020740B0020020C802002004020740FFFFFEFF8C0F07401A
:403F4000C402002040020740F3070000800F0740C80F0740C20200206400074010251978294000D13EE1012122780A4200D179E10222BD480468144234D0BC4C2260BC4C82
:403F80000D32256824682A40E40B2140B94C8A182678B949B94D964204D904260A7832430A7004E027782E68D21BB21A2A602D68B34A15600022B34D2A6080252270B24C0E
:403FC0006D0222682A4322602568B04A2A40226002240A78A2430A700A78013C22430A7010221A700822016811423ED09F490A60A7490A68920420D50F22A64C25681542CB
:4040000017D0A54D2D78002D06D024682240012A02D1026852060CD4A04AA14D14682D682C19A04D2D68EDB22570146801341460E2E70C689C4A22400A609C4A8E4915683F
:40404000141CAA0603D540250A782A430A700025974A1560974A226020240A78A2430A700A78103C22430A701C700268520641D5894A1278002A04D08A4A8E4912688B4A51
:4040800011608D4A7C491068102210420BD07D4802607B4A1068794A106002200A7802430A7012221DE0854A7C4812680068121A0420072A0ED97648082A05D1A024026820
:4040C00024022243026007E080240268A401224302600820764A106020200A7802430A7011221A700123764A764913605F4A1160754A13600822754B1968114225D06F4B0D
:4041000066481B680168083B5B1A0124934201D90024131C002B0CD0614902680968013B8A1860490968C9B21170026801320260F0E7002C07D08020554900020A680243B6
:404140000A605B4A136008221FE01B685B071ED5544B52491A68594B08681B6898420CD20120594BD2B218604D480B680068C3181A700B6801330B6006E0FDF75DFF402172
:404180003D4A13780B4313700422484B1A60504B1B68DB0666D54F4B1968354B1A680F231340082B1AD0354A4B4B14681B684B489C4208D21368CB181B78DBB20360136835
:4041C00001331360E9E7FF232A4A036013789B06E3D413780133DBB21370DEE71022404B1A603FE03F4802685200520802601D70274B2D4A1C6822401A601C683A4A224043
:404200001A602B4B2B4A19601E4B1960344B1A60364A264B1A602B4A144B1A60344A354B1A60802203681206134303601AE08020154A400211680143116010681349014038
:40424000116013492C4A086802400A602849294A1160002216490A600A490A6010321A700F3A32E5F7BDC0464C0F0740400F074008020740E8020020D8020020D402002079
:40428000E4020020880F074004020740FFFFFEFF600007400803074089020020E0020020D002002040030740FF5FFFFFC00F0740C80F0740ED0F000064000740DC0200207B
:4042C000800E0740FF0F00006C000740CC0F07408C0F0740CC020020EC02002040020740800F074000000740FFFCFFFFF307000017030000000F0740FFFEFFFF38B5304BBC
:404300001B68002B00D098472E4B1B78002B02D001222D4B1A602D4B1B68002B23D02C4B1B685B071FD52B4B1B681B0718D02A4B2A4D19682A4B2C681B6801341B1B5A1EBA
:4043400093415B421C40274B1B689C4203D12022254B1A70E7E7201CFEF70AF82C60E2E70422224B1A60224B1B68002B27D0214B1B689B0723D5204B1A680F231340082BEA
:404380001AD01E4B1E4D1A682B689A420FD01D4B2C681B6801341B1B5A1E93415B421C40201CFEF79DF8184B18602C60E3E70221164A13688B4313600222154B1A6038BD17
:4043C0003002002085020020C00E074078020020CC0F07400803074040030740A00200208002002098020020A8020020C00F0740900200208C0F0740080207409C02002076
:40440000A40200208C02002040020740880F0740800F0740C44BF7B51B68002B00D09847C24B1B68DB0702D50022C14B1A602020C04BC14C1A78024257D02578AA0701D44A
:40444000002270E0BD49002208680191C10506D5C026BB48B6000288324302800122012001990E68064209D09027B54EBF0032883A433280072D10D1021C01E0072D0AD1E5
:40448000B0480068810706D5A026AD48B60002883243028001E0002AD2D0012202261878A74F1040301A844661463888084380B23880072D16D108201D78284010D0A148C0
:4044C0000568354202D000220260DEE29E480068C10526D401990968114200D0D5E220E0187020E0002119701DE0012122780A42A6D0954A15680222FF321542A0D01D7815
:40450000924A0D4206D002201178814311701178073004E0117881431170902110780143117000221A701978890600D444E121780224214200D1C3E2102080490D68054208
:404540000CD00121824A10601A780A40A21A7C4C21880A4392B222801870B1E21D782D071AD50D68254209D0794A7548146088240288A4002243028001220DE01C78E407F9
:4045800002D52520187007E024241C70714C2468002C01D0704C206004201C78044200D19BE001241D78254243D008256B490E682E4223D06A496B480E6807686A49F71BD2
:4045C0000F2609683140791AA94207D8002906D16649674A0E6832400A60221C291C654D04682D6801392C19634D2D68EDB225700468013404600029F1D117E009680142CC
:4046000014D058495B4E0D68366875195A4E3668F6B22E700D6801350D600D68504909688D4202D24749086000E0221C5348544949E008680221084220D0454A5148116008
:40464000514D06680D31026828683140411A8420D20B22408A1A2A6029684C4A8000116037490A88024380200A80494A40021168014311601068474901402CE04649086829
:40468000C00622D545490C683E49324D08680F2108403D4908280DD00E682868864209D208683F4D20180078C0B22860086801300860E9E708682968884202D14020264925
:4046C000086038483849086007E00968490604D52D4A11682D4A116002E0002A00D1EFE12249234A086802400A6000222F490A6019490A602E4A127892070CD501221978F0
:404700000F480A400A218A1A01880A4392B2028060221A70D4E1274B1A681823920600D4083B084A1360CBE13C0200208C0E0640880E064031030020300300200C0F06403B
:4047400038030020680006404C0F064070030020000F064034030020880F0640CC0F06403C030020400300200803064060000640FFFEFFFF5403002040030640ED0F0000A2
:40478000C00F064008020640440300205003002004020640FFFFFEFF8C0F06404803002040020640F3070000800F0640C80F06404C0300206400064010251978294000D19A
:4047C0003EE1012122780A4200D179E10222BD480468144234D0BC4C2260BC4C0D32256824682A40E40B2140B94C8A182678B949B94D964204D904260A7832430A7004E053
:4048000027782E68D21BB21A2A602D68B34A15600022B34D2A6080252270B24C6D0222682A4322602568B04A2A40226002240A78A2430A700A78013C22430A7010221A705C
:404840000822016811423ED09F490A60A7490A68920420D50F22A64C2568154217D0A54D2D78002D06D024682240012A02D1026852060CD4A04AA14D14682D682C19A04DD4
:404880002D68EDB22570146801341460E2E70C689C4A22400A609C4A8E491568141CAA0603D540250A782A430A700025974A1560974A226020240A78A2430A700A78103C8A
:4048C00022430A701C700268520641D5894A1278002A04D08A4A8E4912688B4A11608D4A7C491068102210420BD07D4802607B4A1068794A106002200A7802430A7012220E
:404900001DE0854A7C4812680068121A0420072A0ED97648082A05D1A024026824022243026007E080240268A401224302600820764A106020200A7802430A7011221A70C5
:404940000123764A764913605F4A1160754A13600822754B1968114225D06F4B66481B680168083B5B1A0124934201D90024131C002B0CD0614902680968013B8A186049DC
:404980000968C9B21170026801320260F0E7002C07D08020554900020A6802430A605B4A136008221FE01B685B071ED5544B52491A68594B08681B6898420CD20120594B67
:4049C000D2B218604D480B680068C3181A700B6801330B6006E0FEF775FA40213D4A13780B4313700422484B1A60504B1B68DB0666D54F4B1968354B1A680F231340082B04
:404A00001AD0354A4B4B14681B684B489C4208D21368CB181B78DBB20360136801331360E9E7FF232A4A036013789B06E3D413780133DBB21370DEE71022404B1A603FE094
:404A40003F4802685200520802601D70274B2D4A1C6822401A601C683A4A22401A602B4B2B4A19601E4B1960344B1A60364A264B1A602B4A144B1A60344A354B1A6080226B
:404A800003681206134303601AE08020154A4002116801431160106813490140116013492C4A086802400A602849294A1160002216490A600A490A6010321A700F3A32E5B4
:404AC000F7BDC0464C0F0640400F06400802064060030020700300207803002068030020880F064004020640FFFFFEFF60000640080306402C0300205C0300206C030020C2
:404B000040030640FF5FFFFFC00F0640C80F0640ED0F00006400064064030020800E0640FF0F00006C000640CC0F06408C0F0640740300205803002040020640800F06402C
:404B400000000640FFFCFFFFF307000017030000000F0640FFFEFFFF02B4714649084900095C49008E4402BC7047C04603460B437FD4002243088B4274D303098B425FD31A
:404B8000030A8B4244D3030B8B4228D3030C8B420DD3FF22090212BA030C8B4202D31212090265D0030B8B4219D300E0090AC30B8B4201D3CB03C01A5241830B8B4201D3D2
:404BC0008B03C01A5241430B8B4201D34B03C01A5241030B8B4201D30B03C01A5241C30A8B4201D3CB02C01A5241830A8B4201D38B02C01A5241430A8B4201D34B02C01A01
:404C00005241030A8B4201D30B02C01A5241CDD2C3098B4201D3CB01C01A524183098B4201D38B01C01A524143098B4201D34B01C01A524103098B4201D30B01C01A524182
:404C4000C3088B4201D3CB00C01A524183088B4201D38B00C01A524143088B4201D34B00C01A5241411A00D201465241104670475DE0CA0F00D04942031000D34042534048
:404C800000229C4603098B422DD3030A8B4212D3FC22890112BA030A8B420CD3890192118B4208D3890192118B4204D389013AD0921100E08909C3098B4201D3CB01C01AC9
:404CC000524183098B4201D38B01C01A524143098B4201D34B01C01A524103098B4201D30B01C01A5241C3088B4201D3CB00C01A524183088B4201D38B00C01A5241D9D2BC
:404D000043088B4201D34B00C01A5241411A00D20146634652415B10104601D34042002B00D54942704763465B1000D3404201B5002000F00BF802BD0029F8D003B5FFF736
:404D400015FF0EBC4243891A1847C0467047C0460E4B70B500251E1C0D4CE41AA410A54204D0AB00F35898470135F8E700F0FAF9084B00251E1C084CE41AA410A54204D028
:404D8000AB00F35898470135F8E770BD70510000705100007051000078510000031C8218934202D019700133FAE7704700000000010000000000000000000000000000001A
:404DC00058000000FE0000000000000000000000000064000000000003000000080000000200000002000000100000000000000001000000000000000000000000000000D9
:404E000000000000000000000A000000430200200A000000590200200000000000000000000000000000000001000000040000000000000000000000000000000000000079
:404E40000000000000000000000000000000000000000000000000000000000000000000080000000800000001000000010000000A000000430200200A000000590200202C
:404E8000010000000400000000000000000000000000000000000000010000000000000000000000000000004A000000FE000000000000000000000000006400020000003E
:404EC0000800000008000000000000004A000000FE000000000000000000000000009001710238019C0066004D00260019000C001D000E00020002006F76660D0A0032348C
:404F000030300D0A00343830300D0A00393630300D0A0031343430300D0A0031393230300D0A0033383430300D0A0035373630300D0A003131353230300D0A00696E760D45
:404F40000A00666D740D0A006E6F6D0D0A00000046300F401A310F4030320F402C330F4005400F4005410F4006420F4012430F4002600F4000010202050C070309050B0A52
:404F80000E020F02130817011F042A013003350F3E013F1041044401460B480449FF4AFF4BFF4CEF4D554E304F48501C580459045A045B045D025F01610863086508670805
:404FC0006850690A6A406BA86CC06E406FA8C105C404C9FFCAFFCBFFCCEFCD55CE32CF48D01CDA04DB04DD02DF01E108E308E508E708E850E90AEA40EBA8ECC0EE40EFA88A
:40500000000201C01004188023043004324239544180424046404C01518052405E805F2A680169148E40C009C402CC0BCE0ED089D210D6F041054401450D460E47CF48350A
:4050400049FF4AFF4BFF4CEA4D554EB24F48501C52015A045B045D225F0161086308650867086850690A6A406BA86CC06E406FA88A02930499019A019B029D01A106B00216
:40508000B401B506B701B980BF40D804D904DB04DC13DF01012009201921212022802901300231A0458247024C014F04550256485F026648670468026C016E408180880464
:4050C0008E82940296409C049D80A180A602A840AB02AE40AF28B304C002C202CA01CC0DD010D210D680D870E204E8010220030204100780C0F0A810AE20AF82E850ECC037
:4051000052025F208D04D401D604E2081D041F4025102710630883108B408D108F049D04AA02B320C605C805D802E002E609EC04010E100E030405060708090A0B0C0E0FA5
:40514000101112131415161718191B1C1D1E1F2021222325262728292A2B2E2F3031323334350000F8B5C046F8BC08BC9E467047A5020000E91D0000F8B5C046F8BC08BC09
:405180009E4670477D02000098510000C800002020000000B8020000000000000300E8FDFFFF00000000E02EC05D00001800000000366E010000000000000000000000005C
:4051C00000000000000000000000000000000000000000000000000000000000000000000000000000000000000000000000000000000000000000000000000000000000AF
:40520000000000000000000000000000000000000000000000000000000000000000000000000000000000000000000000000000000000000000000000000000000000006E
:40524000000000000000000000000000000000000000000000000000000000000000000000000000000000000000000000000000000000000000000000000000000000002E
:4052800000000000000000000000000000000000000000000000000000000000000000000000000000000000000000000000000000000000000000000000000000000000EE
:0200000490303A
:0200000014509A
:0200000490402A
:200000000000000000000000000000000000000000000000000000000000000000000000E0
:0200000490501A
:0C000000000204B61193110104D125E3A5
:0200000490600A
:0100000001FE
:00000001FF