:4000000000100020110000009D2200009D22000008B502F045F90000F8B572B680220021D2005C4805F01AFA80225B48D200002105F014FA0022141C5849FF2557582431A7
:400040003E1C081C6300AE433D4001336419CB186100013141188B4206D0581E00781D78801905700233F6E70432242AE4D14C4A4C4B90211A604C4A4C4BC9031A604C4AD1
:400080004C4B3C201A60FF224B4B10251A6099234A4A1B0413604A4A4A4C13604A4A11604A4A022113608022494B52041A60494A13780B43484913700B788343283803434A
:4000C0000B701621137804300B4313708F22434B1A60434A434B1A60F022434B1A60434BE63A1A60424A434B1A60434B434A1D60434B1A600422434B1A60434B05321A608D
:40010000424B063A1A6080222368D2021343236003F054FF22683E4B3E49134023603E4A3E4B1A6020223E4B1A603E4B02321D603D4B1A603D4B0E321A6011230B603C4976
:400140000A603C4A3C49136023223C4B1A603C4B023A1A6080233B4A1B061360002222600B6039490B6039490B603949394B196039493A4B19603A493A4B19603A493B4BE6
:4001800019603B493B4B19603B493C4B19603C4B1A60F8BD00300F4000400F408C5700000000FFFF00000140303000000800014000EE03000C0001401000014000500F4002
:4001C00020500F4000010B4028500F4030500F4038500F4000700F4001700F400000044092942400080004401800044000020440B66D000008020440000304409E6D0000C9
:40020000080304400C0304400804044018040440FFFFFBFF280202400600008004010B40080202400C02024020020240240202402C02024034020240000002403802024024
:400240003C02024008010B40400002408000024017000080040002405F09008044000240F301008008000240DF0100C048000240CF07008000010240CF0700C04001024081
:400280000C020B4010B5064C2378002B07D1054B002B02D0044800E000BF0123237010BDE8000020000000006C54000008B5084B002B03D00748084900E000BF07480368A5
:4002C000002B00D108BD064B002BFBD09847F9E7000000006C540000EC000020C800002000000000F7B572B60126022003F006FD0E2000F079F9224B1F201E7000F0A8F915
:40030000071C1F2000F0A4F944071F2000F0A0F905071F2000F09CF9C006C30FA40FED0F0193374207D02020802100F09FF92120802100F09BF9012D04D1124B1878C0B28F
:4003400000F028FD019B012B04D10E4B1878C0B200F046FD012C04D0022C04D100F0B2FF01E000F0A7FF0821072000F01FFE03F07DFC002003F088FC03F0B2FC62B6F7BD54
:4003800004010020CC00002070B572B603F0B4FE03F004FD172000F05BF90325284001281ED00426244C02281DD0172000F050F9304207D0281C00F04BF900F0EBFC6420E7
:4003C00003F0DCFD172000F043F903072ED5032000F03EF900F004FD642003F0CFFD25E000F068FF25E0172000F032F9304207D0281C00F02DF900F0CDFC642003F0BEFD02
:40040000172000F025F9030707D5032000F020F900F0E6FC642003F0B1FD782000F018F90223011C7820194000F020F9201C03F081FE62B670BDC046890300000849094A70
:400440004B78002B02D000234B7006E05188064B994203D0538801339BB253807047C04604010020CC000020FFFF000038B500F00BFA032000F0ECF8544C207003F040FBEE
:4004800003F034FB03F09EFC03F092FC002003F071FC642003F072FD2378022B03D0FA20800003F06BFD012002F0A6FE03F040FB03F034FB03F060FB03F098FB44490F207F
:4004C00003F00AFDC020434A434B444953600B6A00061B021B0A03430B6200239360073313603F4803F020FC03F098FB03F08CFB03F0BCFB03F0F4FB322003F03FFD02F0FF
:40050000E7FD802002F0BEFD02F03EFE802002F015FE2078C0B200F0CBFB2078C0B200F009FC2078C0B200F035FC2078C0B200F057FC02F041FE02F035FE2378022B02D090
:40054000284803F0F7FD62B60120011C00F02EFD03F012FB002003F01DFB03F047FB2378002B05D023780D2B02D023780E2B02D100F0A0FF07E02378022B04D923780C2B7F
:4005800001D801F091FA2378022B06D101F0E4FA00F01EFD01F040FB03E000F06FFD01F095FC01F05EFB03F0FBFA642104F0AEFD051EFF2D00D9FF25092000F049F88542BD
:4005C000C6D9E9B2092000F051F8C1E7CC0000203D04000010E000E0BF5D000000ED00E0E502000089030000F0B5174B9F7D5E7D42B2002A00DA0F20144C011C225CA44654
:4006000055070DD55C2F07D1585C0130585401231A4363465A5415E010209B2EE8D1F3E7950709D510209B2EE2D1585C0130585401231A43625405E0195C01311954012324
:400640001A432254F0BDC046060100208601002008B543B2002B04DA0F20FFF7C5FF002001E0014B185C08BD0601002043B270B5002B01DA0F2016E00F4C104A235C251C1B
:400680005E070AD5947D5C2C02D0547D9B2C09D11154012213432B540CE09D0706D5557D9B2D03D01020FFF79FFF03E0115401221343235470BDC0468601002006010020E7
:4006C00008B520208021FFF7D1FF21208021FFF7CDFF22208021FFF7C9FF23208021FFF7C5FF24208021FFF7C1FF25208021FFF7BDFF26208021FFF7B9FF27208021FFF70D
:40070000B5FF28208021FFF7B1FF29208021FFF7ADFF2A208021FFF7A9FF2B208021FFF7A5FF2C208021FFF7A1FF2D208021FFF79DFF2E208021FFF799FF2F208021FFF775
:4007400095FF30208021FFF791FF31208021FFF78DFF32208021FFF789FF33208021FFF785FF34208021FFF781FF35208021FFF77DFF36208021FFF779FF37208021FFF7F5
:4007800075FF38208021FFF771FF39208021FFF76DFF3A208021FFF769FF3B208021FFF765FF3C208021FFF761FF3D208021FFF75DFF3E208021FFF759FF3F208021FFF775
:4007C00055FF40208021FFF751FF41208021FFF74DFF08BD08B543B2002B03DA0F20FFF703FF01E0014B195408BDC0460601002010B5244C9B22211C74310A706275221C85
:400800005C23753200200521A3751370FFF72EFFA9210120FFF72AFF03F07AF90F214840C1B20320FFF722FF76200021FFF71EFF7A200121FFF71AFF79204A21FFF716FF15
:400840000A200021FFF712FF02201021FFF70EFF71200A21FFF70AFFE3780D2B01D00E2B01D1073B00E00223A377231C012273331A70192317200C21E377FFF7F7FEFFF7D8
:400880001FFF10BD06010020002208B50021244BD154244BD1540132802AF7D1191C7E3A7C310A70191C77310A70191C1A705A709A70DA709A72DA721A765A769A76DA76F9
:4008C0001A775A779A775A74503102320A70191C51310A70191C52310A70191C53310A70191C54310A70191C55310A70191C76310A70191C70310A70191C71310A70191C5D
:4009000074310A70191C73310A70191C78315A759A74DA741A750A70DA77FFF769FF08BD060100208601002008B543B2002B04DA0F20FFF759FE002003E0024B185C0123D2
:40094000184008BD8601002008B543B2002B03DA0F20FFF749FE04E00121024A135C8B43135408BD86010020031C00202F2B11D9392B02D8181C303806E0602B04D9662BEF
:4009800004D8181C573801E0402B03D9462B01D8373B181C70472423002808DB031E092B01DC303303E037330F2800DD2423D8B2704700232F280FD9392282425B41602854
:4009C00002D9662806D901E0402805D9462803D8012301E00123F9E7181C704738B5031E022B34D1002401F0D7FC494B494A1C60494B1C60494B1A60494A4A4B1A604A4A2C
:400A00004A4B1A604A4A4B4B1A6002F001FB1820FFF71EFE051C1920FFF71AFE2D02284380B21A2102F0FCFA02F0E8FA42480A2102F02AF80A21414802F044F8404801F07C
:400A40009BFD404B1878553002F012F829E001282AD1002401F0A0FC2D4B2E4A1C602E4B1C602E4B1A602E4A2E4B1A602E4A2F4B1A602F4A2F4B1A6002F0CAFA1820FFF7E8
:400A8000E7FD051C1920FFF7E3FD2D02284380B21A2102F0C5FA02F0B1FA2948243002F03FF901F06BFC30E00120032B2ED1002401F072FC164B174A1C60174B1C60174B27
:400AC0001A60174A174B1A60174A184B1A60184A184B1A6002F09CFA1820FFF7B9FD051C1920FFF7B5FD2D0228431A2180B202F097FA02F083FA1448143002F01FF801F0C1
:400B00003DFC0B2003F010FA62B6201C38BDC046C80F0740ED0F0000880F0740800F0740F3070000C00F0740FF0F0000400F074017030000000F07405D020020470200202B
:400B400070540000CC000020F054000038B5002402F092FB1E4B1F4A1C601F4B1C601F4B1A601F4A1F4B1A601F4A204B1A60204A204B1A6002F04CFF1B20FFF769FD051CFA
:400B80001C20FFF765FD2D02284380B21D2102F047FF02F033FF18480A2102F0CFFE0A21164802F0E9FE1648683002F01FFC0220FFF74EFD02F0B6FE02F0FEFE02F002FFA2
:400BC00002F088FE02F09AFE02F048FB201C38BDC80F0640ED0F0000880F0640800F0640F3070000C00F0640FF0F0000400F064017030000000F06406702002052020020A4
:400C0000F054000038B5002402F036FB1B4B1C4A1C601C4B1C601C4B1A601C4A1C4B1A601C4A1D4B1A601D4A1D4B1A6002F0F0FE1B20FFF70DFD051C1C20FFF709FD2D02B5
:400C4000284380B21D2102F0EBFE02F0D7FE15480A2102F073FE0A21134802F08DFE13480C3002F0C3FB02F0BDFC02F0CFFC02F0F7FC02F0F3FA201C38BDC046C80F064042
:400C8000ED0F0000880F0640800F0640F3070000C00F0640FF0F0000400F064017030000000F064067020020520200207055000038B5041C01F0E6F8002C03D0231C0D3B41
:400CC000012B16D81E20FFF7C3FC0724184D204040002818018E1820090AFFF7C7FC1E20FFF7B6FC044064002C19218E1920C9B207E0012C0CD118200021FFF7B7FC192082
:400D00000121FFF7B3FC1A200021FFF7AFFC02E0033C092CEFD91820FFF716FE1920FFF713FE1A20FFF710FE01F0C2F838BDC0467055000010B5041C01F0A4F81B200021D9
:400D4000022C04D1FFF792FC1C2001210DE0FFF78DFC7320FFF77CFC0323184043000C480230C018C18F1C20C9B2FFF77FFC00211D20FFF77BFC1B20FFF7E6FD1C20FFF779
:400D8000E3FD1D20FFF7E0FD01F092F810BDC0467055000008B5002803D0031C0D3B012B03D80120FFF71AFE14E0012809D10230FFF714FE01F0F8FC07490B2003F094F8CB
:400DC00008E003380B2805D80220FFF707FE034801F00AFB08BDC046A5130000A91A000008B5022805D1FFF7B1FE034802F06CFA01E0FFF707FF08BD591B0000F0B585B027
:400E00006B460122197069460023071C002402F07DFC02F00FFC204D830704D4AC4204D00134A4B2F5E7AC4207D10C20FFF7DCFB1A4B1878C0B2FFF7D3FF01AE381C311C9E
:400E40000122002302F0CEFC02F0F4FBC30704D4AC4204D00134A4B2F6E7AC4207D10C20FFF7C2FB0D4B1878C0B2FFF7B9FF02F0E1FB830501D5002404E002F0ADFB002820
:400E8000F9D0347802F0ECFB02F0ACFB02F0BEFB201C05B0F0BDC04650C30000CC0000201FB501AB19705A70191C0222002302F02DFC002402F0BEFB0F4B820704D49C422B
:400EC00004D00134A4B2F5E79C4207D10C20FFF78BFB0A4B1878C0B2FFF782FF02F0C0FB830502D50C20FFF77FFB02F07BFB02F08DFB002004B010BD50C30000CC00002061
:400F00001FB501AC21706270A370211C0322002302F0FCFBC1B20D20FFF7A8FB002402F089FB104B820704D49C4204D00134A4B2F5E79C4207D10C20FFF756FB0A4B187896
:400F4000C0B2FFF74DFF02F08BFB830502D50C20FFF74AFB02F046FB02F058FB002004B010BDC04650C30000CC000020072310B50D495A5C002A14D00B7A934213D00024F7
:400F8000231C0A72934204DA0121A4000C435B18F8E702F077FD201C02F0A0FD02F090FD01E0013BE4D210BD0602002008B5024B1954FFF7DBFF08BD06020020002208B5D1
:400FC000024B1A54FFF7D2FF08BDC0460602002038B5234B1C781D1C032C3FD8201C04F08BF83C020C2502F0D1FE012836D101304A21FFF73BFB022430E002F0C7FE00281E
:4010000006D102F0ABFE642002F0B8FF02F0AAFF0220FFF71DFB4A2820D0012002F09EFE15200021FFF722FB032417E002F0AEFE002807D102F092FE642002F09FFF02F088
:4010400091FF0BE02020FFF703FB02F01BF82120FFF7FEFA02F072F800E001242C7038BD0F02002001220020034B5B78033BDBB29A424041C0B270470F020020F7B5874C05
:401080006578042D00D9B7E0281C04F035F80316205C750016205C21FFF7E8FA9B211520FFF7E4FA50230120A37002F057FE0A200021FFF7DBFA01259EE00A20FFF794FA9D
:4010C0004A200221FFF79AFE0225E07094E0E0784A2816D1A2780221FFF7E2FEA1780B20FFF7C4FA0A200021FFF7C0FAA3785E2B02D80133A37004E00A20C921FFF7B6FAD0
:4011000000E001250A20FFF7A3FAC82817D9012000F091FD15200021FFF7A8FA0320FFF797FA002804D00D38C0B20425012806D85B4801F041FF5B4801F03EFF04250A20FA
:4011400002F01CFF58E07120FFF782FA061E09D0554B71201E88FFF77BFAB6B280B2864249D249E07220FFF773FA002844D07220311CFFF77BFA3EE0022000F05CFD2020FE
:40118000FFF766FA01F07EFF2120FFF761FA01F0D5FF50260B20FFF75BFA864219DCF7B23D1C503D6D00EDB2281C2230C0B2FFF74FFA23350190E8B2FFF74AFA2021031C6C
:4011C000019A381CFFF79CFE642002F0EDFE0136E0E7022000F03AFD0122344B1A70324B1A88334B002A02D01A78002AF7D0002203251A7000E004256570FFF733FF00287E
:401200004AD02379002B47D0002350202371FFF71FFA011C5020FFF729FA5120FFF718FA011C5120FFF722FA5220FFF711FA011C5220FFF71BFA5320FFF70AFA011C5320B7
:40124000FFF714FA5420FFF703FA011C5420FFF70DFA5520FFF7FCF9011C5520FFF706FA7020FFF7F5F9011C7020FFF7FFF97120FFF7EEF9011C7120FFF7F8F97220FFF7F3
:40128000E7F9011C7220FFF7F1F97620FFF7E0F9011C7620FFF7EAF9F7BDC0460F020020B8550000EB550000CE000020050100200401002008B5002002F050FD02F052FEFF
:4012C00008BD000010B5642002F058FE16205C21FFF7CCF99B211520FFF7C8F9012000F0B5FC0123054C0020237102F037FDFA20800002F043FE0023637010BD0F020020B0
:4013000073B501F02FFA002847D0012002F020FD7620FFF79DF9002813D002F0A7FC002002F0B2FC02F0DCFC0720FFF747FE08E0257801F0D1FA23787055082B01D801336D
:40134000237001F00FFA154C051E154EF0D1307843B2002B0EDA7F231840607001F05CFA6078FFF775F96B46D871D879C0B201F0F5FA0CE02378012B0CD0022B04D160703D
:401380007178FFF773F902E00620FFF72DF901F00BFA2570002002F0DBFC73BD140200207102002038B52F4B1B78002B02D001222D4B1A602D4B1B68002B25D02C4B1B6830
:4013C0005B0721D52B4B1B681B071AD02A4B2B4D19682B4B2C681B6801341B1B5A1E93415B421C40274B1B689C4203D12022264B1A7003E0201C01F03DFA2C60FFF780FFB9
:40140000E0E70422214B1A60214B1B68002B27D0204B1B689B0723D51F4B1A680F231340082B1AD01D4B1E4D1A682B689A420FD01C4B2C681B6801341B1B5A1E93415B423D
:401440001C40201C01F0CEFA174B18602C60E3E70221164A13688B4313600222144B1A6038BDC04689020020C00E07407C020020CC0F07400803074040030740A402002092
:40148000840200209C020020AC020020C00F0740940200208C0F074008020740A0020020A80200209002002040020740880F0740800F0740F7B501F06BFDC5B2061CBC4CDA
:4014C000002D2CD0012002F043FC7620FFF7C0F8002809D002F0CAFB002002F0D5FB02F0FFFB0720FFF76AFDA378122B08D8002B01D10A2D10D0E21CD5540133A37004E085
:40150000E318AC489D7001F057FD0A2D04D00D2D02D0F0B201F022FA002002F019FCA378E3189B780A2B02D00D2B00D0A0E2012002F00EFCE378E51C452B00D106E211D838
:401540003F2B23D006D80A2B00D181E20D2B00D17EE27AE2422B00D1FDE17020442B00D1F7E172E24E2B00D12FE204D8482B0DD04D2B2BD069E2904E552B00D191E1572B82
:4015800000D135E1522B00D05FE261E18B4801F013FD8B4801F010FD8A4801F00DFD8A4801F00AFD894801F007FD894801F004FD884801F001FD884801F0FEFC874801F075
:4015C000FBFC874801F0F8FC86483FE2AB780226462B08D0522B06D0492B04D0433B5E4273410326F61AE31C9B5D462B06D0522B04D0492B02D0432B00D035E27A4B9B1974
:40160000013B1878FFF7B0F9051C87B2032E07D1754B5878FFF7A8F90A2358434719BFB2751CEDB263191B790A2B01D00D2B04D1012301930023009304E0F31C9D42F7D0C2
:401640000135EEE7E31CB54210D0585DFFF78CF9019B019A5843009B013DC01883B200930A2353439BB2EDB20193EBE75B5D3DB2492B3AD10B20FEF7EBFF4E384000C0B291
:40168000854200DBF2E11220002F00D15FE1012D02D11320291CD5E1092D07DC5020FEF7D7FF0123023DAB4018433BE0112D07DC5120FEF7CDFF01230A3DAB4018433DE0DB
:4016C000192D07DC5220FEF7C3FF0123123DAB4018433FE0212D00DDBAE15320FEF7B8FF01231A3DAB40184341E0432B42D10B20FEF7AEFF4E384000C0B2854200DBB5E13B
:40170000002F02D11220391C9CE11320012D00D11FE1092D09DC5020FEF79AFF0123023DAB409843C1B250208CE1112D09DC5120FEF78EFF01230A3DAB409843C1B25120B4
:4017400080E1192D09DC5220FEF782FF0123123DAB409843C1B2522074E1212D00DD77E15320FEF775FF01231A3DAB409843C1B2532067E10126462B00D01C4E0B20FEF7C2
:4017800067FF4E384000C0B2854200DB6EE16B460020185E7F236421584303F047FD4643311C2037FFB28039C9B2381C4AE1C0461402002002560000385700000856000048
:4017C0001656000041560000665600008B560000A9560000B8560000C8560000E3560000015700001757000017020020FFFF00006878FFF7DEF8002800D135E1A878FFF717
:40180000D8F8002800D12FE1E878FFF7D2F8002800D129E12879FFF7CCF8002800D123E12079FFF7A1F8071C6079FFF79DF8051CA079FFF799F80090E079FFF795F8031C59
:40184000009A3801110105431943E8B2C9B2F9E06878FFF7AEF8002800D105E1A878FFF7A8F8002800D1FFE06878FFF77DF8071CA878FFF779F83F013843C0B2FEF7E8FE0B
:40188000051C301C01F098FB2809C0B2FFF783F801F064F80F202840FFF77DF801F05EF8D6E06878FFF785F8002800D1DCE0301C01F082FB00F0E6FA68783038072836D8C0
:4018C00003F01AFC040A10161C22282E694801F073FB1E20002128E0674801F06DFB1E20012122E0654801F067FB1E2002211CE0634801F061FB1E20032116E0614801F0EF
:401900005BFB1E20042110E05F4801F055FB1E2005210AE05D4801F04FFB1E20062104E05B4801F049FB1E200721FEF79FFE00F0BFFAC820400002F021FB0320FEF788FE52
:40194000FFF7B6F90120FFF749F881E07020012178E0002176E06878FFF72BF800280FD0A878FFF726F800280AD0A878FEF7FCFF061C6878FEF7F8FF0A235843801907E00C
:401980002079FFF716F800286ED02079FEF7ECFF80B205B2002804D114300121FEF766FE01E0082D07DC5420FEF752FE0123013DAB40184338E0102D56DC5520FEF748FE75
:4019C0000123093DAB4018433AE06878FEF7F1FF002810D0A878FEF7ECFF00280BD0A878FEF7C2FF061C6878FEF7BEFF0A235843811989B208E02079FEF7DBFF002833D0AB
:401A00002079FEF7B1FF81B20DB2002903D11420FEF72CFE01E0082D09DC5420FEF718FE0123013DAB409843C1B254200AE0102D1ADC5520FEF70CFE0123093DAB409843DC
:401A4000C1B25520FEF712FE02E0124801F0B4FA0020A070E07002F07BF90F4801F0ACFA0E4801F0A9FA03E00D48EFE70D48EDE7F7BDC0463B570000425700004957000024
:401A800050570000585700006057000068570000705700007957000038570000005600007F5700008557000010B500F0B3FFC3063DD5012002F04CF97620FEF7C9FD002819
:401AC00009D002F0D3F8002002F0DEF802F008F90720FFF773FA01F00FF81C4C022806D11B4B1878E0755978FEF7C0FD0EE001F003F8012803D1164B1B78E37506E000F0C3
:401B0000FBFF022802D90620FEF76EFD00F09CFF030602D50520FEF767FD00F0F9FFE07DFEF796FD0B4B1870002002F011F900F071FFC30708D500F0E5FF00F071FF03072B
:401B400002D50420FEF750FD10BDC04614020020470200205D02002038B501F0B5FE2B4CC30640D501F0B0FE20231840051E3AD1012002F0EDF87620FEF76AFD002809D0FE
:401B800002F074F8281C02F07FF802F0A9F80720FFF714FA01F00AFF022812D0032805D0012814D11A4B1B78237610E0184D287820766978FEF75AFD207EA9780130C0B29D
:401BC00003E0134B187820765978FEF74FFD01F095FE030602D50820FEF706FD01F0F2FE002002F0B5F8207EFEF732FD094B187001F06AFEC30708D501F0DEFE01F06AFE84
:401C0000030702D50720FEF7EFFC38BD14020020520200206702002008B50220FEF784FE002807D00220FEF713FD01F07BFE0220FEF78AFE08BD10B5041C7720FEF708FDD4
:401C40000443E1B27720FEF7C5FD10BD10B5041C7720FEF7FDFCA043C1B27720FEF7BAFD10BD38B51220FEF75FFE002821D01420FEF7EEFC012808D11130FEF7E9FC0128BC
:401C800001D1063010E004200EE01220FEF7E0FC041E012C04D102F0A3F82043C0B203E002F09EF80623184002F094F81220FEF74BFE1320FEF738FE002818D01420FEF720
:401CC000C7FC012810D01320FEF7C2FC012805D102F086F802231843C0B203E002F080F80523184002F076F81320FEF72DFE1420FEF71AFE00281ED01420FEF7A9FC012803
:401D000008D11130FEF7A4FC012801D106300DE004200BE01220FEF79BFC041C1320FEF797FC0123184098402340184302F052F81420FEF709FE7620FEF7F6FD002835D005
:401D40000220FFF778FF7620FEF782FC051C0320FEF77EFC02280CD1002D1FD001F086FF002001F091FF281C01F094FF01F0B8FF16E00B20FEF76CFC4F28EDD950240B2014
:401D8000FEF766FC8442E7DCE0B276212A1CFFF787F8642002F008F90134F0E701F066FF7620FEF7D1FD0220FFF750FF7020FEF7BBFD002836D00220FFF73DFF7020FEF782
:401DC00047FC0124204001F0FFF97020FEF740FC204001F005FA0320FEF73AFC022806D17020FEF7B1FD0220FFF730FF1AE00B20FEF72EFC4F28F3D950240B20FEF728FC19
:401E00008442EDDC7020FEF723FC0123021CE1B21A40081C7021FFF743F8642002F0C4F80134EAE71D20FEF77FFD002807D00320FEF70EFCFEF7D4FF1D20FEF785FD1A209D
:401E4000FEF772FD002807D00320FEF701FCFEF7A1FF1A20FEF778FD1120FEF765FD00280FD01120FEF7F4FB012807D101F050FE0F214840C1B27C20FEF7F8FB1120FEF7F8
:401E800063FD38BD10B51620FEF7E2FB074C20701520FEF7DDFB5C2160701620FEF7E6FB15209B21FEF7E2FB10BDC0462D02002010B5054C15206178FEF7D8FB2178162022
:401EC000FEF7D4FB10BDC0462D020020F7B57D20FEF72AFD002820D0FFF7D4FF0220FFF7AAFE7920FEF7B4FB051C7A20FEF7B0FB041C7B20FEF7ACFB211C021C281CFEF773
:401F0000CFFF00217D20FEF7B1FB7D20FEF71CFD0220FFF79BFEFFF7CBFF7E20FEF704FD00281FD0FFF7AEFF0220FFF784FE7920FEF78EFB041C7A20FEF78AFB011C201CCC
:401F4000FEF75CFF011C7C20FEF790FB00217E20FEF78CFB7E20FEF7F7FC0220FFF776FEFFF7A6FF0B20FEF773FB0025A84202D04F38400085B25020FEF7D6FC002821D033
:401F80000220FFF758FE00242BB29C4211DA0127231C3B40123350200193FEF759FB021C224166105036F6B23A40301C0199FEF777FF0134082CE7D15020FEF7C5FC02201C
:401FC000FFF744FE5120FEF7AFFC002822D00220FFF731FE00242BB2083B9C4211DA0127231C3B40123351200193FEF731FB021C224166105436F6B23A40301C0199FEF75F
:402000004FFF0134082CE6D15120FEF79DFC0220FFF71CFE5220FEF787FC002822D00220FFF709FE00242BB2103B9C4211DA0127231C3B40123352200193FEF709FB021C85
:40204000224166105836F6B23A40301C0199FEF727FF0134082CE6D15220FEF775FC0220FFF7F4FD5320FEF75FFC002822D00220FFF7E1FD00242BB2183B9C4211DA0127BD
:40208000231C3B40123353200193FEF7E1FA021C224166105C36F6B23A40301C0199FEF7FFFE0134082CE6D15320FEF74DFC0220FFF7CCFD5420FEF737FC002826D0022039
:4020C000FFF7B9FD0B20FEF7C3FA4F2806D85420FEF73AFC0220FFF7B9FD17E00024251C0B205035EDB2FEF7B3FA8542EFD85420FEF7AEFA021C01232241281C1A40142131
:402100000134FEF7CDFE092CE9D1E0E75520FEF70BFC002826D00220FFF78DFD0B20FEF797FA572806D85520FEF70EFC0220FFF78DFD17E00024251C0B205835EDB2FEF7F7
:4021400087FA8542EFD85520FEF782FA021C01232241281C1A4014210134FEF7A1FE092CE9D1E0E77420FEF7DFFB002822D00220FFF761FD7420FEF76BFA011C1520FEF74B
:4021800075FA50240B20FEF763FA84420CDC7420FEF75EFA1521021CE0B2FEF781FE642001F002FF0134EDE77420FEF7CDFB0220FFF74CFD7520FEF7B7FB002822D002202D
:4021C000FFF739FD7520FEF743FA011C1620FEF74DFA50240B20FEF73BFA84420CDC7520FEF736FA1621021CE0B2FEF759FE642001F0DAFE0134EDE77520FEF7A5FB022057
:40220000FFF724FD7320FEF78FFB002819D0FFF739FE00211B20FEF729FA7320FEF718FA032318401C4B4000195C1C20FEF71EFA1D200021FEF71AFAFFF73AFE7320FEF729
:4022400083FB7820FEF770FB002823D0FFF71AFE0220FFF7F0FC7820FEF7FAF9C30701D5FFF728F87820FEF7F3F90224204209D0FFF728F87820FEF7EBF9A043C1B2782036
:40228000FEF7F4F97820FEF75FFB0220FFF7DEFCFFF70EFEF7BDC046B0550000FEE7000070B51049104B01394A1C15D000221E685C689D68A018AA4203D0B058A050043249
:4022C000F8E7021CDC68151AA54202D0002520C2F9E710330139E7E703F09AF8FEF7C6F8FEE7C04601000000D059000008B500239A000B49032B01D80A4989580A480133A7
:402300008150302BF4D1FDF787FE0022074B01211A608022D20513680B43136008BDC0469D2200000000000000000020C0000020034B1B78FF2B02D10022024B1A70704756
:40234000D00000203002002008B5094B1B78FF2B0CD08021074A090613680B431360064B1B78002B02D00B2001F0DEFD08BDC046D0000020000007408A02002010B5054C98
:402380002378002B03D1FFF7D3FF01232370FFF7DBFF10BD3002002008B50B2001F0CEFD0D4A0B2013685B005B08136001F0D0FD0A4B1B78012B02D100F0C4F90BE0082BD3
:4023C00002D100F005FE06E0042B04D1044A054B11680B40136008BD00000740D000002048000740FFDFFFFF014B58607047C046300200200023F0B591B0002602AC09AD4B
:402400001E515E5104331C2BF7D1012801D0082807D10E23029303930A3B09936B6000262DE0022815D10F2301240293039304930622002906D12C606A60AC600593EC6064
:40244000061C1CE02A606C60AA600593EA600D2615E0012904D109230393053B6B600EE001231A4202D009212B600291022300261A4204D009221E1C0392033A6A60029A68
:40248000294F11043B68294A294C13400B433B60099BD8B201F0B6FC1022F30702D52368134301E0236893432360039A3B6811050192204A13400B433B60287901F0AEFC83
:4024C0002022B30702D52368134301E0236893432360049A3B6811060192174A13400B433B60287A01F082FC4022730702D52368134301E02368934323603B68059A1B0113
:4025000012071B0913433B60E868C0B201F092FC8022330702D52368134301E023689343236011B0F0BDC04600000140FFFFF0FF18000440FFFF0FFFFFFFFFF080200A4BE7
:4025400040001A6802420AD0084A1268520406D41A680749114019601A6802431A600222044B1A607047C0460000074060000740FFFEFFFF6C000740F8B5002800D1A0E036
:402580000021041C0A1C0120FFF734FF01230C204C4A217F13704C4A4C4D11704C4A217E13704C4A267811704B4A2E701168014311602068111C984204D0C820678C400065
:4025C000874205D80B68454A13430B60002303E01068434901401160A269E169002A01D0802252028027481E81413F010902381C0A433C490A600F21226892071043A26816
:40260000013A0A401043071CFF206268013A12010240111C3A1C0A4333490A603349002B01D10B1C00E0324B324A13600023324A1360F20709D56369FF221804FF231B0451
:40264000184023695B001340034300242B4A0B2013602B4B19602B4B1C6001F06FFC0B20032101F049FC28490B2001F03DFC0122264B1C60264B1C60264B1C60264B1C60EC
:4026800029780A40A24201D04C22FF32234B1A6002230B4001D01423FF33214A13601022204B1A700023204A1370204A1360204A1360204A1370204A1380204A1360204A49
:4026C0001360F8BDD0000020890200208B0200208A0200208D0200207000074000000202FFFFFDFD000007406000074007010080070300800003074004030740100307406A
:40270000000207400402074059410000C80E0740880E0740C80F0740880F0740480F0740080F074098020020DC020020E8020020E4020020EC020020C4020020B0020020E9
:40274000CC020020002208B5044B0B201A6001F0FFFB1022024B1A7008BDC046880F0740980200200B4B1B68002B0ED00A4B18680A4B1A68904202D31B68C01A09E01A6844
:40278000074B1B68C018801A03E0064B18680F23184070477C020020A40200209C02002084020020080307408021124B70B518684902114B114A002814D000251048066827
:4027C00005601C682143196019680A401A600D4B1A680D4B1A600D4B0D4A1D700D4B1A60066005E018680143196019680A401A6070BDC0467C02002004030740FFFFFEFF2D
:40280000C80F07409C020020A4020020AC020020ED0F0000C00F07408021104B30B5186849020F4B0F4A002811D000250E48046805601D682943196019680A401A600B4B5D
:402840001A680B4B1A6002239C43046005E018680143196019680A401A6030BD9402002004020740FFFFFEFF880F0740A8020020A002002010B50A4BCCB21A78094B082A32
:4028800003D11B681818047009E01A684000121814701B68013089B21818090A017010BD8E0200207C020020094B1A78094B082A04D11B6818180078C0B208E0196843007C
:4028C000CA180133CB18127818780002104370478E0200207C02002038B50E4B1B68002B14D00D4B0D4D1A682B6800209A420FD00B4B2C681B6801341B1B5A1E93415B4230
:402900001C40201CFFF7D0FF2C6001E0054B186838BDC0467C020020A40200209C020020840200204003074010B50A4BCCB21A78094B082A03D11B681818047009E01A689A
:402940004000121814701B68013089B21818090A017010BD8C02002094020020194B70B51B68002B24D0184D184B2C681B6801341B1B5A1E93415B421C40154B1A68944223
:40298000FBD02A681B689A4205D1124B1A680F231340082B12D102260F4B011C1E60201CFFF7C2FF0D4A2C6013683343136007E0084B1A680F231340082BF9D0084B1860AC
:4029C00070BDC04694020020A002002090020020A802002008020740800F0740880F074040020740094B1A78094B082A04D11B6818180078C0B208E019684300CA18013382
:402A0000CB18127818780002104370478C02002094020020014B1878C0B27047DC02002010B50B2001F08AFA0D21064B18781A78C4B28A430B201A7001F076FA0F20204038
:402A400010BDC046DC02002010B50B2001F076FA2F22064B0B201C781978E4B20A401A7001F062FA0F23201C984310BDDC020020FF22044940000B6810409343184308606D
:402A80007047C0461003074038B5002810D0041C0D1C0B2001F052FA064B074A1C60074B0B201D6000231360054A136001F03CFA38BDC046D0020020E8020020F0020020B9
:402AC000D802002038B500280ED0041C0D1C0B2001F034FA0022054B0B201C60044B1D60044B1A6001F020FA38BDC046D4020020E0020020E4020020014B18687047C0461B
:402B0000E40200200022014B1A607047E80200200022014B1A607047E40200200549064B0A6880061340C02212051040184308607047C04620000740FFFFFFF338B5002822
:402B400000D1B2E0041C002202202168FFF752FC0222564BE16B1A70554AA36955481370554A1170554A216B1160554A217F1170FF22E16A114001605249A06B0860524918
:402B8000206A0870616B0A4050490A60E268511E0F220A40002B01D080235B00802149040A4313434A4A1360A56A60686B1E9D411023034000D00223A26891000C220A4078
:402BC00061692A43002900D01021C0250006AD04284002431A4311432268002A01D0802212063C4B0A431A60E369626A591E0F231940002A01D08022520080231B061943C4
:402C00002369002B01D080239B000A431343324A13600723626C1340304A1360236A5A1E0F231A40636A002B01D080235B00802109060A4313432A4A002513600723E26CD5
:402C40000B201340274A136001F078F90B20032101F052F924490B2001F046F9234B281C1D60234B1D608023226C1B011340214A13608023A26C9B0013401F4A1360226C9C
:402C80001E4B13401E4A1360A26C1E4B13401E4A1360FFF743FF1D4B1D601D4B1D601D4B1D701D4B1D601D4B1D6038BDD000002089020020840200208A0200207C02002097
:402CC0008E020020940200208C020020900200200000074020000740000307400403074000020740040207409D480000880E0740C80E0740480F0740080F0740FFF7FFFF63
:402D0000C80F0740FFFDFFFF880F0740A40200209C020020AC020020A0020020A802002038B5002800D1F4E0041C042021686268FFF760FB0420774B226B1870764B616B95
:402D40001A70764B626D764D1A70764BA26B1A60227A754B1A70FF23194029607349256C0D6073490A70E26B25681340714A72491360022D22D1A3691022002B1CD0636971
:402D80000022102B18D00132202B15D02A1C302B12D00132602B0FD0021CC02B0CD0C02001328000834207D0C020C0001B1A5D425D4101326B421A400A6004E063695A1E59
:402DC0000F2313400B60A26C0B68002A02D18022920400E0594A13430B6023681A06C0239B041340564A13602369606A5A1E07231A40002800D040200243606C002801D0A2
:402E00008020C000A16A0243002901D080214900E36A0A43002B01D080239B001A43494B1A60E068022806D01A683021002800D110390A431A60A368591E0F230B40E16952
:402E4000002901D080218900012219436368134001D080231B063C4A0B4313600723E26D3A491A400A60226D1104FF2212040A40E16CC9B20A4336490A602269013A1340B9
:402E8000226A002A01D0802252001343314A1360E068131C022806D012683021002800D110390A431A60A36861685A1E0F231A400D3B0B4001D080231B061343264A0B2017
:402EC00013600723626E1340244A136001F036F80B20032101F010F821490B2001F004F80023204A1360204A1360204A1360204A1360A16D1F4A1160216E1F4A11601F4AF7
:402F000013601F4A13601F4A13701F4A13601F4A136038BDD0000020890200208A020020840200207C0200208E020020940200208C0200209002002000000740000001020E
:402F400040000740480007400003074004030740100307404400074000020740040207409D480000880E0740C80E0740480F0740080F0740C80F0740880F0740A40200208B
:402F80009C020020AC020020A0020020A802002008B5FFF7E7FB031C0020834201D0FFF79BFCD822034B92001968114201D000201A6008BDC00F074010B5041C0134631E73
:402FC0001878002802D0FFF7C9FCF7E710BD0000002208B5064B0B201A6000F0B9FF054B1B78002B00D00223034A137008BDC046880F074088020020000300208021034A2D
:40300000090613680B4313607047C04600000240024A13685B005B081360704700000240034A13681B0C1B04184310607047C0460000024080220C4BD2041A601A680B495E
:403040001A6000220A60196819600C21084B1960084B1A60084B31321A60084BCF321A60074B803A1A607047C0010540C8010540E4010540F8010540E8010540D40105408B
:40308000CC010540014B80B218607047CC01054038B50D1C041CAC4000F014FF024B1C6000F014FF38BDC0460800054010B5082400F008FF054A13682343136000F006FF86
:4030C000201C1821FFF7E4FF10BDC0460000054010B5054C2378002B03D1FFF7ABFF01232370FFF7E3FF10BD3802002080220C4BD2041A601A680B491A6000220A601968BE
:4031000019600C21084B1960084B1A60084B31321A60084BCF321A60074B803A1A6070474001054048010540640105407801054068010540540105404C010540014B80B241
:40314000186070474C01054038B50D1C041CAC4000F0B8FE024B1C6000F0B8FE38BDC0460800054010B5022400F0ACFE054A13682343136000F0AAFE201C1821FFF7E4FF01
:4031800010BDC0460000054010B5054C2378002B03D1FFF7ABFF01232370FFF7E3FF10BD390200208021034A090613680B4313607047C04680000240024A13685B005B08B3
:4031C00013607047800002400423044980000A689A43D2B2034013430B607047000204401023044900010A689A43D2B2034013430B60704700020440012304490A689A4306
:40320000D2B2034013430B607047C04600020440034B1B78FF2B02D10022024B1A707047D10000203C02002008B5094B1B78FF2B0CD08021074A090613680B431360064BEE
:403240001B78002B02D00A2000F06EFE08BDC046D1000020000006403103002010B5054C2378002B03D1FFF7D3FF01232370FFF7DBFF10BD3C02002008B50A2000F05EFE85
:403280000D4A0A2013685B005B08136000F060FE0A4B1B78012B02D100F08EF90BE0082B02D100F095FB06E0042B04D1044A054B11680B40136008BD00000640D100002009
:4032C00048000640FFDFFFFF014B58607047C0463C020020002370B58EB000246D465C5107AD5C5104331C2BF7D1012801D0082807D10E23009301930A3B07936B6000246C
:4033000025E002280DD10F23012400930193093B002903D12C606B60041C18E02B606C6015E0012904D109230193053B6B600EE001231A4202D009212B600091022300246D
:403340001A4204D009221C1C0192033A6A600F22154E33689343009A13433360079BD8B200F080FD0121331C104E32680C4202D01143316001E08A433260F0201A68019925
:40338000824309010A431A606868C0B200F07CFD02223368144202D01A43326001E0934333600EB070BDC046100001401804044080200A4B40001A6802420AD0084A126869
:4033C000520406D41A680749114019601A6802431A600222044B1A607047C0460000064060000640FFFEFFFF6C000640F8B5002800D1A0E00021041C0A1C0120FFF76AFF70
:4034000001230C204C4A217F13704C4A4C4D11704C4A217E13704C4A267811704B4A2E701168014311602068111C984204D0C820678C4000874205D80B68454A13430B601E
:40344000002303E01068434901401160A269E169002A01D0802252028027481E81413F010902381C0A433C490A600F21226892071043A268013A0A401043071CFF2062680C
:40348000013A12010240111C3A1C0A4333490A603349002B01D10B1C00E0324B324A13600023324A1360F20709D56369FF221804FF231B04184023695B00134003430024AB
:4034C0002B4A0A2013602B4B19602B4B1C6000F035FD0A20032100F00FFD28490A2000F003FD0122264B1C60264B1C60264B1C60264B1C6029780A40A24201D04C22FF32CC
:40350000234B1A6002230B4001D01423FF33214A13601022204B1A700023204A1370204A1360204A1360204A1370204A1380204A1360204A1360F8BDD1000020200300209D
:403540003403002031030020300300207000064000000202FFFFFDFD000006406000064007010080070300800003064004030640100306400002064004020640B54900001C
:40358000C80E0640880E0640C80F0640880F0640480F0640080F064035030020740300206C03002060030020640300203C0300204403002054030020002208B5044B0A2002
:4035C0001A6000F0C5FC1022024B1A7008BDC046880F064035030020014B18687047C0464403002008B50A2000F0A8FC00220121044B0A201A60044A13888B43138000F0BB
:4036000093FC08BD440300203C03002008B50A2000F094FC00220221044B0A201A60044A13888B43138000F07FFC08BD540300203C03002010B50A2000F080FC064B1C8831
:40364000064BA4B21B789B0601D504231C430A2000F06AFC201C10BD3C0300203503002010B50A2000F06AFC0022044B0A201C88A4B21A8000F058FC201C10BD3C030020B3
:403680001E4B70B51E6800F009FC0028FBD0002000F0DCFB0F221A4C1A4D2368934323602B685B005B082B60B3060FD5002000F0CDFB0A2000F078FC012000F0C7FB00F0A3
:4036C000DBFB0028FBD00A2000F06EFC002000F0BDFB0A2000F068FC012080220A4B120618602B6813430F222B6023689343013A1343236000F0AAFB70BDC0466400064003
:40370000100001400000064068000640F7B5061C0F1C019200930425002942D0234C2378102B08D10A2000F009FC214B6D191B68DB0736D408E023780425602B31D10821C1
:403740001C4A13888B4313802823237000231A4A02211360194A76001360019A184B194C1A60194B1F606B461A78184B1A70FF23104A1E4013888B431380154A154B1A60A1
:403780004022154B1A60009BDB0703D5FFF778FF266002E0114B2660196040220025104B1A600A2000F0C0FB281CFEBD35030020640006403C0300204803002054030020D5
:4037C00038030020400206404C0300205003002017030000000F0640800F064068000640880F0640F7B5061C0F1C01920093042400294AD0274D2B78102B08D10A2000F066
:403800009DFB254B24191B68DB073ED408E02B780424602B39D10821204A13888B431380292300222B701E4B1E4C1A60019B1B4923601D4B76001F606B461A781B4B1C4DAD
:403840001A70FF230A881E40FE3B9A430A80194A19491E431160009A1A4203D0FFF710FF2E6003E00222154B2E601A602368144A072B01D8042306E08020124940000B68FB
:4038800003430B600823002413600A2000F04CFB201CFEBD35030020640006403C0300204403002040030020580300205003002040020640000F064017030000680006407F
:4038C000C80F064060000640014B1878C0B270477403002010B50A2000F030FB0D21064B18781A78C4B28A430A201A7000F01CFB0F20204010BDC0467403002010B50A20D8
:4039000000F01CFB2F22064B0A201C781978E4B20A401A7000F008FB0F23201C984310BD74030020FF22044940000B6810409343184308607047C0461003064038B5002850
:4039400010D0041C0D1C0A2000F0F8FA064B074A1C60074B0A201D6000231360054A136000F0E2FA38BDC046780300206C0300205C0300207C03002038B500280ED0041C81
:403980000D1C0A2000F0DAFA0022054B0A201C60044B1D60044B1A6000F0C6FA38BDC046700300206803002060030020014B18687047C046600300200022014B1A6070474C
:4039C0006C0300200022014B1A60704760030020002208B5064B0A201A6000F0B9FA054B1B78002B00D00223034A137008BDC046880F064028030020980300208021034A30
:403A0000090613680B4313607047C04640000240024A13685B005B081360704740000240034A13681B0C1B04184310607047C0464000024008B500F045FA1021034A1378BE
:403A40000B43137000F042FA08BDC04692000F40012108B5034A13780B431370FFF7EAFF08BDC04673000F4008B500F02BFA1021034A13788B43137000F028FA08BDC046A0
:403A800092000F40012108B5034A13788B431370FFF7EAFF08BDC04673000F400723044A117899431170117803400B431370704782000F4008B50420FFF7F0FF08BD0000A3
:403AC00010B5054C2378002B03D1FFF7F3FF01232370FFF7BDFF10BD4402002008B5011C014800F0FFFA08BD00000F408021034A090613680B4313607047C04640010240F9
:403B0000024A13685B005B081360704740010240014B1878C0B2704761000F408021034A090613680B4313607047C04604000240024A13685B005B0813607047040002406D
:403B40008122074B92041A600C22064B06491A600023064A1360064A1160064A1360704780010540A4010540FFFF0000B8010540940105408801054008B500F0A3F9042115
:403B8000034A13688B43136000F0A0F908BDC04600000540014B80B21860704788010540014B186880B270478801054038B50D1C041CAC4000F086F9024B1C6000F086F99C
:403BC00038BDC0460800054010B5042400F07AF9054A13682343136000F078F9201C1821FFF7E4FF10BDC0460000054010B5054C2378002B03D1FFF7A3FF01232370FFF7CE
:403C0000E3FF10BD450200208021034A090613680B4313607047C04648000240024A13685B005B08136070474800024000230C21084A1360084A1160084A0A391160FA21BC
:403C4000074A890011606421064A1160064A13607047C046000105402401054038010540140105400C0105400801054008B500F029F90121034A13688B43136000F026F902
:403C800008BDC04600000540014B80B21860704708010540014B80B2186070470C01054038B50D1C041CAC4000F00CF9024B1C6000F00CF938BDC0460800054010B50124F3
:403CC00000F000F9054A13682343136000F0FEF8201C1821FFF7E4FF10BDC0460000054010B5054C2378002B03D1FFF79FFF01232370FFF7E3FF10BD46020020014B186020
:403D00007047C0463001054010B5041C00F0DAF8C021044AA40113688B432343136000F0D5F810BD10E400E010B58024054B64021C60054B0433D8670220FFF7E5FF034BAA
:403D40001C6010BD80E100E00000002000E100E0014B18707047C04671000F40012304490A689A43D2B2034013430B607047C046000304400223044940000A689A43D2B2B6
:403D8000034013430B60704700030440024B18688007C00F7047C046040304400223034A1068184010604008C0B27047100304408021034A090613680B4313607047C04666
:403DC00044000240024A13685B005B081360704744000240014B18707047C04670000F40014B1878C0B2704770000F40034A044B116880040B401843106070470800044042
:403E0000FFFFE3FF034A044B116800030B4018431060704708000440FF8FFFFF034A044B1168C0030B4018431060704708000440FF7FFCFF034A044B116840050B4018437B
:403E40001060704708000440FFFF1FFF012304490A689A43D2B2034013430B607047C046000404400721034A13688B43184310607047C04608040440024B18680123184087
:403E80007047C046040404403821034AC00013688B4318431060704708040440024B18688007C00F7047C04604040440000000000230800804D0C0460138FDD1C046C046A5
:403EC000C0467047EFF3108072B6704780F310887047C046C046C046802380009B05C3181868196070470000024B8000C3181868196070474000002038B5041C0D1CFFF7AE
:403F0000E1FFA308074A9B009B180322144094400634A240A5401968914329431960FFF7D5FF38BD00E400E01F2318401E3B8340181C014B1860704700E100E01F2318408C
:403F40001E3B8340181C014B1860704780E100E01F2318401E3B8340181C014B1860704780E200E0034A044913689BB20B4313607047C0460CED00E00400FA0510B5041CED
:403F80008022074B1202944205D91868FFF790FF044BE418F4E758686043FFF789FF10BDD40000200080FFFF08B5034B1B7A5843FFF77EFF08BDC046D4000020F0B5C31E07
:403FC00087B002932D2B64D8334B1B78984204D8324B1D78324BEDB21EE0324B1B78984204D8314B1D78314BEDB215E0304B1B78984204D82F4B1D782F4BEDB20CE02F4B35
:404000001B78984204D82E4B1D782E4BEDB203E02D4B1D782D4BEDB21C782D4E029B0390F35CE4B20193FFF74DFF019B04900596284F2F2B05D9039B2A2B02D919263E60EB
:4040400008E03F233E681E40019BB34205D2214B019A1A600520FFF72BFF1C4A039B944663441B781C4ADBB213601C4B05201D601B4B1C60FFF798FF019BB34206D9059BBE
:40408000029A05209B5C3B60FFF712FF0498FFF71DFF07B0F0BDC046C0F1FF0FC1F1FF0FC2F1FF0FC3F1FF0FC4F1FF0FC5F1FF0FC6F1FF0FC7F1FF0FC8F1FF0FC9F1FF0FEB
:4040C000CAF1FF0FCBF1FF0FCCF1FF0FCDF1FF0F7C5900002CFF0B4028FF0B401CFF0B4020FF0B40CBB203700B0A090CDBB2C9B243708170704700000822034B1A60034A4D
:40410000034BDA647047C04680E100E09D2200000000002010B5041CFFF7D4FE044AA40713689B009B0823431360FFF7CFFE10BD00E400E010B50824044B1C60044BD86443
:404140000120FFF7E7FF034B1C6010BD80E100E00000002000E100E0C44BF7B51B68002B00D09847C24B1B68DB0702D50022C14B1A602020C04BC14C1A78024257D025788E
:40418000AA0701D4002270E0BD49002208680191C10506D5C026BB48B6000288324302800122012001990E68064209D09027B54EBF0032883A433280072D10D1021C01E031
:4041C000072D0AD1B0480068810706D5A026AD48B60002883243028001E0002AD2D0012202261878A74F1040301A844661463888084380B23880072D16D108201D7828403D
:4042000010D0A1480568354202D000220260DEE29E480068C10526D401990968114200D0D5E220E0187020E0002119701DE0012122780A42A6D0954A15680222FF32154213
:40424000A0D01D78924A0D4206D002201178814311701178073004E0117881431170902110780143117000221A701978890600D444E121780224214200D1C3E21020804982
:404280000D6805420CD00121824A10601A780A40A21A7C4C21880A4392B222801870B1E21D782D071AD50D68254209D0794A7548146088240288A4002243028001220DE07F
:4042C0001C78E40702D52520187007E024241C70714C2468002C01D0704C206004201C78044200D19BE001241D78254243D008256B490E682E4223D06A496B480E680768DB
:404300006A49F71B0F2609683140791AA94207D8002906D16649674A0E6832400A60221C291C654D04682D6801392C19634D2D68EDB225700468013404600029F1D117E07D
:404340000968014214D058495B4E0D68366875195A4E3668F6B22E700D6801350D600D68504909688D4202D24749086000E0221C5348544949E008680221084220D0454A21
:4043800051481160514D06680D31026828683140411A8420D20B22408A1A2A6029684C4A8000116037490A88024380200A80494A40021168014311601068474901402CE0E1
:4043C00046490868C00622D545490C683E49324D08680F2108403D4908280DD00E682868864209D208683F4D20180078C0B22860086801300860E9E708682968884202D1B8
:4044000040202649086038483849086007E00968490604D52D4A11682D4A116002E0002A00D1EFE12249234A086802400A6000222F490A6019490A602E4A127892070CD597
:40444000012219780F480A400A218A1A01880A4392B2028060221A70D4E1274B1A681823920600D4083B084A1360CBE1340200208C0E0740880E0740980200208B020020F1
:404480000C0F0740C4020020680007404C0F0740DC020020000F0740C0020020880F0740CC0F0740BC020020B00200200803074060000740FFFEFFFFB80200204003074025
:4044C000ED0F0000C00F074008020740B4020020CC02002004020740FFFFFEFF8C0F0740C802002040020740F3070000800F0740C80F0740C60200206400074010251978B1
:40450000294000D13EE1012122780A4200D179E10222BD480468144234D0BC4C2260BC4C0D32256824682A40E40B2140B94C8A182678B949B94D964204D904260A78324339
:404540000A7004E027782E68D21BB21A2A602D68B34A15600022B34D2A6080252270B24C6D0222682A4322602568B04A2A40226002240A78A2430A700A78013C22430A707D
:4045800010221A700822016811423ED09F490A60A7490A68920420D50F22A64C2568154217D0A54D2D78002D06D024682240012A02D1026852060CD4A04AA14D14682D680D
:4045C0002C19A04D2D68EDB22570146801341460E2E70C689C4A22400A609C4A8E491568141CAA0603D540250A782A430A700025974A1560974A226020240A78A2430A70E9
:404600000A78103C22430A701C700268520641D5894A1278002A04D08A4A8E4912688B4A11608D4A7C491068102210420BD07D4802607B4A1068794A106002200A780243B0
:404640000A7012221DE0854A7C4812680068121A0420072A0ED97648082A05D1A024026824022243026007E080240268A401224302600820764A106020200A7802430A7097
:4046800011221A700123764A764913605F4A1160754A13600822754B1968114225D06F4B66481B680168083B5B1A0124934201D90024131C002B0CD0614902680968013B2D
:4046C0008A1860490968C9B21170026801320260F0E7002C07D08020554900020A6802430A605B4A136008221FE01B685B071ED5544B52491A68594B08681B6898420CD2A4
:404700000120594BD2B218604D480B680068C3181A700B6801330B6006E0FDF70FFF40213D4A13780B4313700422484B1A60504B1B68DB0666D54F4B1968354B1A680F23E9
:404740001340082B1AD0354A4B4B14681B684B489C4208D21368CB181B78DBB20360136801331360E9E7FF232A4A036013789B06E3D413780133DBB21370DEE71022404B6A
:404780001A603FE03F4802685200520802601D70274B2D4A1C6822401A601C683A4A22401A602B4B2B4A19601E4B1960344B1A60364A264B1A602B4A144B1A60344A354BB1
:4047C0001A60802203681206134303601AE08020154A4002116801431160106813490140116013492C4A086802400A602849294A1160002216490A600A490A6010321A70BB
:404800000F3A32E5F7BDC0464C0F0740400F074008020740EC020020DC020020D8020020E8020020880F074004020740FFFFFEFF60000740080307408D020020E4020020F1
:40484000D402002040030740FF5FFFFFC00F0740C80F0740ED0F000064000740E0020020800E0740FF0F00006C000740CC0F07408C0F0740D0020020F00200204002074058
:40488000800F074000000740FFFCFFFFF307000017030000000F0740FFFEFFFF38B5304B1B68002B00D098472E4B1B78002B02D001222D4B1A602D4B1B68002B23D02C4B0A
:4048C0001B685B071FD52B4B1B681B0718D02A4B2A4D19682A4B2C681B6801341B1B5A1E93415B421C40274B1B689C4203D12022254B1A70E7E7201CFDF7BCFF2C60E2E742
:404900000422224B1A60224B1B68002B27D0214B1B689B0723D5204B1A680F231340082B1AD01E4B1E4D1A682B689A420FD01D4B2C681B6801341B1B5A1E93415B421C406D
:40494000201CFEF74FF8184B18602C60E3E70221164A13688B4313600222154B1A6038BD3402002089020020C00E07407C020020CC0F07400803074040030740A4020020E4
:40498000840200209C020020AC020020C00F0740940200208C0F074008020740A0020020A80200209002002040020740880F0740800F0740C44BF7B51B68002B00D0984733
:4049C000C24B1B68DB0702D50022C14B1A602020C04BC14C1A78024257D02578AA0701D4002270E0BD49002208680191C10506D5C026BB48B60002883243028001220120AD
:404A000001990E68064209D09027B54EBF0032883A433280072D10D1021C01E0072D0AD1B0480068810706D5A026AD48B60002883243028001E0002AD2D001220226187883
:404A4000A74F1040301A844661463888084380B23880072D16D108201D78284010D0A1480568354202D000220260DEE29E480068C10526D401990968114200D0D5E220E04A
:404A8000187020E0002119701DE0012122780A42A6D0954A15680222FF321542A0D01D78924A0D4206D002201178814311701178073004E01178814311709021107801435C
:404AC000117000221A701978890600D444E121780224214200D1C3E2102080490D6805420CD00121824A10601A780A40A21A7C4C21880A4392B222801870B1E21D782D07C9
:404B00001AD50D68254209D0794A7548146088240288A4002243028001220DE01C78E40702D52520187007E024241C70714C2468002C01D0704C206004201C78044200D1DD
:404B40009BE001241D78254243D008256B490E682E4223D06A496B480E6807686A49F71B0F2609683140791AA94207D8002906D16649674A0E6832400A60221C291C654D61
:404B800004682D6801392C19634D2D68EDB225700468013404600029F1D117E00968014214D058495B4E0D68366875195A4E3668F6B22E700D6801350D600D68504909686F
:404BC0008D4202D24749086000E0221C5348544949E008680221084220D0454A51481160514D06680D31026828683140411A8420D20B22408A1A2A6029684C4A80001160FC
:404C000037490A88024380200A80494A40021168014311601068474901402CE046490868C00622D545490C683E49324D08680F2108403D4908280DD00E682868864209D2B3
:404C400008683F4D20180078C0B22860086801300860E9E708682968884202D140202649086038483849086007E00968490604D52D4A11682D4A116002E0002A00D1EFE172
:404C80002249234A086802400A6000222F490A6019490A602E4A127892070CD5012219780F480A400A218A1A01880A4392B2028060221A70D4E1274B1A681823920600D498
:404CC000083B084A1360CBE1400200208C0E0640880E064035030020340300200C0F06403C030020680006404C0F064074030020000F064038030020880F0640CC0F0640DF
:404D000040030020440300200803064060000640FFFEFFFF5803002040030640ED0F0000C00F064008020640480300205403002004020640FFFFFEFF8C0F06404C030020D9
:404D400040020640F3070000800F0640C80F0640500300206400064010251978294000D13EE1012122780A4200D179E10222BD480468144234D0BC4C2260BC4C0D32256803
:404D800024682A40E40B2140B94C8A182678B949B94D964204D904260A7832430A7004E027782E68D21BB21A2A602D68B34A15600022B34D2A6080252270B24C6D022268D3
:404DC0002A4322602568B04A2A40226002240A78A2430A700A78013C22430A7010221A700822016811423ED09F490A60A7490A68920420D50F22A64C2568154217D0A54DDD
:404E00002D78002D06D024682240012A02D1026852060CD4A04AA14D14682D682C19A04D2D68EDB22570146801341460E2E70C689C4A22400A609C4A8E491568141CAA062A
:404E400003D540250A782A430A700025974A1560974A226020240A78A2430A700A78103C22430A701C700268520641D5894A1278002A04D08A4A8E4912688B4A11608D4ADB
:404E80007C491068102210420BD07D4802607B4A1068794A106002200A7802430A7012221DE0854A7C4812680068121A0420072A0ED97648082A05D1A024026824022243CF
:404EC000026007E080240268A401224302600820764A106020200A7802430A7011221A700123764A764913605F4A1160754A13600822754B1968114225D06F4B66481B6859
:404F00000168083B5B1A0124934201D90024131C002B0CD0614902680968013B8A1860490968C9B21170026801320260F0E7002C07D08020554900020A6802430A605B4ACA
:404F4000136008221FE01B685B071ED5544B52491A68594B08681B6898420CD20120594BD2B218604D480B680068C3181A700B6801330B6006E0FEF71BFA40213D4A1378A7
:404F80000B4313700422484B1A60504B1B68DB0666D54F4B1968354B1A680F231340082B1AD0354A4B4B14681B684B489C4208D21368CB181B78DBB2036013680133136092
:404FC000E9E7FF232A4A036013789B06E3D413780133DBB21370DEE71022404B1A603FE03F4802685200520802601D70274B2D4A1C6822401A601C683A4A22401A602B4BEC
:405000002B4A19601E4B1960344B1A60364A264B1A602B4A144B1A60344A354B1A60802203681206134303601AE08020154A4002116801431160106813490140116013494D
:405040002C4A086802400A602849294A1160002216490A600A490A6010321A700F3A32E5F7BDC0464C0F0640400F06400802064064030020740300207C0300206C030020E9
:40508000880F064004020640FFFFFEFF600006400803064030030020600300207003002040030640FF5FFFFFC00F0640C80F0640ED0F00006400064068030020800E064050
:4050C000FF0F00006C000640CC0F06408C0F0640780300205C03002040020640800F064000000640FFFCFFFFF307000017030000000F0640FFFEFFFF02B4714649084900CD
:40510000095C49008E4402BC7047C046002243088B4274D303098B425FD3030A8B4244D3030B8B4228D3030C8B420DD3FF22090212BA030C8B4202D31212090265D0030B4A
:405140008B4219D300E0090AC30B8B4201D3CB03C01A5241830B8B4201D38B03C01A5241430B8B4201D34B03C01A5241030B8B4201D30B03C01A5241C30A8B4201D3CB02A0
:40518000C01A5241830A8B4201D38B02C01A5241430A8B4201D34B02C01A5241030A8B4201D30B02C01A5241CDD2C3098B4201D3CB01C01A524183098B4201D38B01C01AB2
:4051C000524143098B4201D34B01C01A524103098B4201D30B01C01A5241C3088B4201D3CB00C01A524183088B4201D38B00C01A524143088B4201D34B00C01A5241411A89
:4052000000D20146524110467047FFE701B5002000F0FCF802BDC0460029F7D003B5FFF775FF0EBC4243891A1847C04603460B437FD4002243088B4274D303098B425FD371
:40524000030A8B4244D3030B8B4228D3030C8B420DD3FF22090212BA030C8B4202D31212090265D0030B8B4219D300E0090AC30B8B4201D3CB03C01A5241830B8B4201D30B
:405280008B03C01A5241430B8B4201D34B03C01A5241030B8B4201D30B03C01A5241C30A8B4201D3CB02C01A5241830A8B4201D38B02C01A5241430A8B4201D34B02C01A3A
:4052C0005241030A8B4201D30B02C01A5241CDD2C3098B4201D3CB01C01A524183098B4201D38B01C01A524143098B4201D34B01C01A524103098B4201D30B01C01A5241BC
:40530000C3088B4201D3CB00C01A524183088B4201D38B00C01A524143088B4201D34B00C01A5241411A00D201465241104670475DE0CA0F00D04942031000D34042534081
:4053400000229C4603098B422DD3030A8B4212D3FC22890112BA030A8B420CD3890192118B4208D3890192118B4204D389013AD0921100E08909C3098B4201D3CB01C01A02
:40538000524183098B4201D38B01C01A524143098B4201D34B01C01A524103098B4201D30B01C01A5241C3088B4201D3CB00C01A524183088B4201D38B00C01A5241D9D2F5
:4053C00043088B4201D34B00C01A5241411A00D20146634652415B10104601D34042002B00D54942704763465B1000D3404201B5002000F00BF802BD0029F8D003B5FFF770
:4054000015FF0EBC4243891A1847C0467047C0460E4B70B500251E1C0D4CE41AA410A54204D0AB00F35898470135F8E700F0BEFA084B00251E1C084CE41AA410A54204D09C
:40544000AB00F35898470135F8E770BDB8590000B8590000B8590000C0590000031C8218934202D019700133FAE77047000000000100000000000000000000000000000013
:4054800058000000FE000000000000000000000000006400000000000300000008000000020000000200000010000000000000000100000000000000000000000000000012
:4054C00000000000000000000A000000470200200A0000005D02002000000000000000000000000000000000010000000400000000000000000000000000000000000000AB
:405500000000000000000000000000000000000000000000000000000000000000000000080000000800000001000000010000000A000000470200200A0000005D0200205D
:40554000010000000400000000000000000000000000000000000000010000000000000000000000000000004A000000FE0000000000000000000000000064000200000077
:405580000800000008000000000000004A000000FE000000000000000000000000009001710238019C0066004D00260019000C001D000E00020002000D0A537061726B462F
:4055C000756E2053657269616C20436F6E74726F6C6C6564204D6F746F7220447269766572202853434D44290D0A00456E7465722027482720666F722068656C702E0D0A7D
:405600003E000D0A6F7666000D0A436F6D6D616E64733A0D0A00204D3C6D6F746F72206E756D3E3C462F523E3C6C6576656C3E202D2D204472697665206D6F746F720D0AD9
:4056400000204D3C6D6F746F72206E756D3E3C492F433E202D2D20496E76657274206D6F746F720D0A0020573C6F66667365743E3C646174613E202D2D20577269746520A2
:4056800072656769737465720D0A0020523C6F66667365743E202D2D20526561642072656769737465720D0A002045202D2D20456E61626C650D0A002044202D2D20446941
:4056C0007361626C650D0A0020423C647269766572206E756D3E202D2D204272696467650D0A00204E3C647269766572206E756D3E202D2D20556E2D6272696467650D0AC4
:405700000020553C302D373E202D2D2053657420626175640D0A0045783A204D3146373520666F72206D6F746F72203120666F7277617264203735250D0A00323430300D4D
:405740000A00343830300D0A00393630300D0A0031343430300D0A0031393230300D0A0033383430300D0A0035373630300D0A003131353230300D0A000D0A696E76000D53
:405780000A666D74000D0A6E6F6D000051300F402B310F4027320F4023330F4004400F4004410F4006420F400F430F4002600F40000102020308050C070309050A020B0A05
:4057C0001201130117021F04310F32033E043F014104440246B0480849FF4AFF4BFF4CEF4D554E304F48501C580459045A045B045D025F0161086308650867086850690A35
:405800006A406BA86CC06E406FA88B029E01A301A803AE02B302B501B603C104C402C9FFCAFFCBFFCCEFCD55CE32CF48D01CD804D904DA04DB04DC31DD02DF01E108E3088F
:40584000E508E708E850E90AEA40EBA8ECC0EE40EFA80002030409020E021540171018101E021F802202251027102F8031023280330439163D2041204301452047015120A2
:405880005C405D025F28680169146D40801083048680C00AC288C4C0CA80CC0BCE27D0A5D6F0E201E401E6084104440245ED460C470F481749FF4AFF4BFF4CEA4D554EB2A0
:4058C0004F48501C5A045B045D225F0161086308650867086850690A6A406BA86CC06E406FA89901A101B501B920BF10D201D904DB04DD20DF0122102B803120452047019F
:405900004F05558056085C0160016180660867056B0181028210850195029F01A120A380A502AF28B102B202B440CA01CC04D0A0D680D870E201E404E602E8C0038205409E
:405940000780C0F0AF82B140B780E85054405A80824083208704D4031C011F0426202720670280018301862097089F20B040C605C805D601EC04010E100E0000030405065D
:405980000708090A0B0C0E0F101112131415161718191B1C1D1E1F2021222325262728292A2B2E2F3031323334350000F8B5C046F8BC08BC9E467047AD020000ED22000085
:4059C000F8B5C046F8BC08BC9E46704785020000E0590000C800002020000000B8020000000000000300E8FDFFFF00000000E02EC05D00001800000000366E010000000091
:405A00000000000000000000000000000000000000000000000000000000000000000000000000000000000000000000000000000000000000000000000000000000000066
:405A40000000000000000000000000000000000000000000000000000000000000000000000000000000000000000000000000000000000000000000000000000000000026
:405A800000000000000000000000000000000000000000000000000000000000000000000000000000000000000000000000000000000000000000000000000000000000E6
:405AC00000000000000000000000000000000000000000000000000000000000000000000000000000000000000000000000000000000000000000000000000000000000A6
:0200000490303A
:020000002A6272
:0200000490402A
:200000000000000000000000000000000000000000000000000000000000000000000000E0
:0200000490501A
:0C000000000204B61193110104D43BF57A
:0200000490600A
:0100000001FE
:00000001FF