:400000000010002011000000092400000924000010B502F0FBF90000F7B572B680220021D200614805F090FC80220021D2005F4805F08AFC0022FF2511005D4E24365C4B2D
:40004000D0584B000700284009184800013001333018AF43F31801900198834207D0581E0078C0190400187802332070F4E70432242AE4D1E0224F4B12011A8001224E4B8C
:400080004E491A704E4B802419604E494E4B4F4819604F494F4B24051960FF214E4B1025196099231B0403604C4803604C480460C8244C48240404604B483C2403608020BF
:4000C0004A4B400418604A480378A343283C2343037048480234037823430370464B474C19604749474B18201960F021464B1960464BC63919604649464B1960464B474917
:400100001D60474B19600421464B1960032346490B6046490A60464A136080222368D2021343236004F0FCF92268424B222113402360414A414B1A602022414B1A60414B94
:4001400052191D60404B1A60404B1960112340490B6040490A60404A404913602322404B1A60404B023A1A6080233F4A1B061360002222600B603D490B603D490B603D492B
:400180003D4B19603D493E4B19603E493E4B19603E493F4B19603F493F4B19603F49404B1960404B1A60F7BD00300F4000400F40845C000000600F4002600F400000FFFF87
:4001C00000000140303000000800014000500F4000EE03000C0001401000014020500F4024500F4028500F4030500F4038500F4001700F4000700F400000044000010B40E9
:4002000092140000080004401800044000020440B66D010008020440000304409E6D0000080304400C030440000404400804044018040440FFFFFBFF0600008004010B40FE
:40024000080202400C0202402002024024020240280202402C0202403402024000000240380202403C02024008010B40400002408000024017000080040002405F09008027
:4002800044000240F301008008000240DF0100C048000240CF07008000010240CF0700C0400102400C020B4010B5064C2378002B07D1054B002B02D0044800E000BF0123B4
:4002C000237010BDD80000200000000058590000084B10B5002B03D00749084800E000BF07480368002B00D110BD064B002BFBD09847F9E700000000DC000020585900006A
:40030000C000002000000000F7B572B60126022003F068FF0E2000F077F9224D1F202E7000F0A0F907001F2000F09CF944071F2000F098F90007C30F1F20009300F092F907
:40034000C006C30FA40F0193374207D08021202000F01EFA8021212000F01AFA009B012B03D16878C0B200F08FFE019B012B03D16878C0B200F0AEFE012C04D0022C04D187
:4003800001F086F801E001F07BF80821072000F0CFFE03F0DFFE002003F0EAFE03F014FF62B6F7BDF400002070B572B603F094FF03F06AFF172000F055F90325284001286E
:4003C0001ED00426244C02281DD0172000F04AF9304207D0280000F045F900F055FE642004F07EF8172000F03DF903072ED5032000F038F900F06EFE642004F071F825E034
:4004000001F03EF825E0172000F02CF9304207D0280000F027F900F037FE642004F060F8172000F01FF9030707D5032000F01AF900F050FE642004F053F8782000F012F9EF
:4004400002210843C1B2782000F0A2F9200003F061FF62B670BDC046A90300000849094A8B78002B02D000238B7006E01188064B994203D0138801339BB213807047C04662
:40048000F4000020C4000020FFFF000070B500F0A1FA032000F0E6F8544C607003F0A4FD03F098FD03F004FF03F0F8FE002003F0D7FE642004F014F86378022B03D0FA20D9
:4004C000800004F00DF8012003F03CF803F0A4FD03F098FD03F0C4FD03F0FCFD44490F2003F0AAFFC020434A434B444953600B6A00061B021B0A03430B620023936007332C
:4005000013603F4803F086FE03F0FCFD03F0F0FD03F020FE03F058FE322003F0E1FF02F07DFF802002F054FF02F0D4FF802002F0ABFF6078C0B200F03BFD6078C0B200F0FF
:4005400077FD6078C0B200F09FFD6078C0B200F0C1FD02F0D7FF02F0CBFF6378022B02D0284803F0D7FE62B60121080000F0E0FD03F076FD002003F081FD03F0ABFD637827
:40058000002B05D063780D2B02D063780E2B02D101F07CF807E06378022B04D963780C2B01D801F05BFB6378022B06D101F0AEFB00F0D0FD01F00AFC03E000F021FE01F0FC
:4005C00061FD01F029FC03F05FFD642105F020F80500FF2800D9FF25092000F043F8A842C6D2E9B2092000F0D3F8C1E7F40000205D04000010E000E0BF5D000000ED00E052
:4006000009030000A90300000222F0B594460427124B9E7D5D7D42B2002A00DA0F2010490A5C0C003A420CD05C2E03D09B2D01D01020F0E7195C0131195401231A43225490
:400640000AE06446224201D09B2DF1D11C5C01341C5401231A430A54F0BDC046F80000207801002043B210B5002B04DA0F20FFF7CBFF002001E0014B185C10BDF80000206F
:4006800043B210B5002B03DA0F20FFF7BDFF01E0014B195410BDC046F800002043B210B5002B04DA0F20FFF7AFFF002003E0024B185C0123184010BD7801002043B210B51C
:4006C000002B03DA0F20FFF79FFF04E00121024A135C8B43135410BD7801002070283BD013D852282CD007D8502825D051284BD1264A0221136845E0542829D024D35528D2
:4007000042D1224A202113683CE075282CD008D8722825D0742837D180211C4A4900136830E07D2825D07E2828D076282CD18021164AC900136825E0144A0121136821E0C2
:40074000124A042113681DE0104A0821136819E00E4A1021136815E00C4A4021136811E00A4A802113680DE08021084A8900136808E08021054A0901136803E08021034AEB
:40078000490113680B4313607047C046F801002043B270B504000F20002B1CDB1F48204B025D050056070FD59A7D5C2A02D05A7D9B2A0FD120001955FFF790FF194B022073
:4007C0001B68002B15D012E00226324216D05A7D9B2A03D01020FFF717FF1DE020001955FFF77CFF0F4B1B68002B02D0300001F0FCFA01222B5D13432B550DE0195501235A
:400800001A4302552000FFF769FF064B1B68002B02D0300001F0E9FA70BDC04678010020F8000020F801002010B580212020FFF7AFFF80212120FFF7ABFF80212220FFF70F
:40084000A7FF80212320FFF7A3FF80212420FFF79FFF80212520FFF79BFF80212620FFF797FF80212720FFF793FF80212820FFF78FFF80212920FFF78BFF80212A20FFF7CC
:4008800087FF80212B20FFF783FF80212C20FFF77FFF80212D20FFF77BFF80212E20FFF777FF80212F20FFF773FF80213020FFF76FFF80213120FFF76BFF80213220FFF74C
:4008C00067FF80213320FFF763FF80213420FFF75FFF80213520FFF75BFF80213620FFF757FF80213720FFF753FF80213820FFF74FFF80213920FFF74BFF80213A20FFF7CC
:4009000047FF80213B20FFF743FF80213C20FFF73FFF80213D20FFF73BFF80213E20FFF737FF80213F20FFF733FF80214020FFF72FFF80214120FFF72BFF10BD10B5244C42
:400940009B22210074310A70627522005C2375327B210020A3751370FFF71AFFA9210120FFF716FF03F048FB0F214840C1B20320FFF70EFF00217620FFF70AFF01217A2006
:40098000FFF706FF4A217920FFF702FF00210A20FFF7FEFE10210220FFF7FAFE0A217120FFF7F6FEE3780D2B01D00E2B01D1073B00E00223A3772300012273331A7019239B
:4009C0000C211720E377FFF7E3FEFFF72DFF10BDF80000200022110010B52448244B1154D1540132802AFAD119007E3A7C310A70190077310A7019001A705A709A70DA7062
:400A00009A72DA721A765A769A76DA761A775A779A775A74503102320A70190051310A70190052310A70190053310A70190054310A70190055310A70190076310A70190068
:400A400070310A70190071310A70190074310A70190073310A70190078315A759A74DA741A750A70DA77FFF769FF10BDF800002078010020702839D013D852282AD007D8B5
:400A8000502823D0512847D1244A0221136834E0542827D022D355283ED1204A202113682BE075282BD007D8722823D0742833D11A4A1B4B11682DE07D2824D07E2826D0CC
:400AC000762829D1154A174B116823E0134A0121136812E0114A042113680EE00F4A082113680AE00D4A1021136806E00B4A4021136802E08021094A13688B430BE0074AF0
:400B0000094B116806E0054A084B116802E0034A074B11680B4013607047C046F8010020FFFEFFFFFFFBFFFFFFFDFFFFFFF7FFFFFFEFFFFF030000202F2B11D9392B02D8E7
:400B40001800303806E0602B04D9662B04D81800573801E0402B03D9462B01D8373B180070472423002808DB0300092801DC303303E037330F2800DD2423D8B2704700230E
:400B80002F280FD9392282425B41602802D9662806D901E0402805D9462803D8012301E00123F9E71800704770B50300022834D1002401F0ADFC494B494A1C60494B1C605B
:400BC000494B1A60494A4A4B1A604A4A4A4B1A604A4A4B4B1A6002F0C1FB1820FFF742FD05001920FFF73EFD2D02284380B21A2102F0BCFB02F0A8FB0A21424802F05EF832
:400C00000A21414802F078F8404801F075FD404B1878553002F046F829E001282AD1002401F076FC2D4B2E4A1C602E4B1C602E4B1A602E4A2E4B1A602E4A2F4B1A602F4A8B
:400C40002F4B1A6002F08AFB1820FFF70BFD05001920FFF707FD2D02284380B21A2102F085FB02F071FB2948283002F0BFF901F041FC30E00120032B2ED1002401F048FC6C
:400C8000164B174A1C60174B1C60174B1A60174A174B1A60174A184B1A60184A184B1A6002F05CFB1820FFF7DDFC05001920FFF7D9FC2D0228431A2180B202F057FB02F0EC
:400CC00043FB1448183002F09BF801F013FC0B2003F0DCFB62B6200070BDC046C80F0740ED0F0000880F0740800F0740F3070000C00F0740FF0F0000400F07401703000091
:400D0000000F0740650200204F0200205C590000F5000020DC59000070B5002402F05CFC1E4B1F4A1C601F4B1C601F4B1A601F4A1F4B1A601F4A204B1A60204A204B1A60D1
:400D400003F0DAF81B20FFF78DFC05001C20FFF789FC2D02284380B21D2103F0D5F803F0C1F80A21174803F007F80A21164803F021F816486C3002F0E7FC0220FFF772FC5C
:400D800002F0EEFF03F036F803F03AF802F0C0FF02F0D2FF02F012FC200070BDC80F0640ED0F0000880F0640800F0640F3070000C00F0640FF0F0000400F064017030000B6
:400DC000000F06406F0200205A020020DC59000070B5002402F000FC1B4B1C4A1C601C4B1C601C4B1A601C4A1C4B1A601C4A1D4B1A601D4A1D4B1A6003F07EF81B20FFF7A7
:400E000031FC05001C20FFF72DFC2D02284380B21D2103F079F803F065F80A21144802F0ABFF0A21134802F0C5FF1348143002F08BFC02F0CDFD02F0DFFD02F007FE02F07D
:400E4000BDFB200070BDC046C80F0640ED0F0000880F0640800F0640F3070000C00F0640FF0F0000400F064017030000000F06406F0200205A0200205C5A00007FB56B46D3
:400E800001221970002369460600002402F04CFE022502F0C5FD284204D1962C04D00134A4B2F6E7962C03D10C20FFF7ADFB962401AD300000230122290002F0A9FE01260F
:400EC00002F0AEFD304204D1962C04D00134A4B2F6E7962C02D10C20FFF796FB02F0A0FD830501D5002404E002F06CFD0028F9D02C7802F0ABFD02F06BFD02F07DFD200063
:400F000004B070BD30B585B001AC2170627021000023022202F008FE0024022502F080FD284204D1962C04D00134A4B2F6E7962C02D10C20FFF768FB02F088FD830502D55F
:400F40000C20FFF761FB02F043FD02F055FD002005B030BD30B585B001AC21706270A37021000023032202F0DFFDC1B20D20FFF70FFC0024022502F053FD284204D1962C18
:400F800004D00134A4B2F6E7962C02D10C20FFF73BFB02F05BFD830502D50C20FFF734FB02F016FD02F028FD002005B030BD000070B5040001F042F8002C03D023000D3B72
:400FC000012B15D81E20FFF74DFB0724174D204040002818818F1820090AFFF7D9FB1E20FFF740FB044064002C19A18FC9B206E0012C0CD100211820FFF7CAFB0121192062
:40100000FFF7C6FB00211A20FFF7C2FB02E0033C092CEFD91820FFF751FB1920FFF74EFB1A20FFF74BFB01F01FF870BD5C5A000010B5040001F002F800211B20022C03D168
:40104000FFF7A6FB01210AE0FFF7A2FB7320FFF709FB032318400B4B40004C33195C1C20FFF796FB00211D20FFF792FB1B20FFF725FB1C20FFF722FB1D20FFF71FFB00F024
:40108000F3FF10BD5C5A000010B5002803D003000D3B012B03D80120FFF786FD14E0012809D10230FFF780FD01F088FC07490B2003F0CAF908E003380B2805D80220FFF782
:4010C00073FD034801F050FA10BDC046791500005D1C000010B5022805D1FFF71DFE034802F0A6FA01E0FFF773FE10BD0D1D0000072310B50D495A5C002A14D00B7A9342CB
:4011000013D000240A7223000121934203DAA4000C430133F9E702F029FF200002F052FF02F042FF01E0013BE5D210BDFC01002010B5024B1954FFF7DBFF10BDFC01002087
:40114000002210B5024B1A54FFF7D2FF10BDC046FC01002070B5234B1C781D00032C3FD8200004F04BFA3C020C2503F085F8012836D14A210130FFF70BFB022430E003F063
:401180007BF8002806D103F05FF8642003F0A8F903F09AF90220FFF765FA4A2820D0012003F052F800211520FFF7F2FA032417E003F062F8002807D103F046F8642003F053
:4011C0008FF903F081F90BE02020FFF74BFA02F0FFF82120FFF746FA02F056F900E001242C7070BD0502002001220020034B5B78033BDBB29A424041C0B270470502002022
:40120000F7B5994C6578042D00D9DCE0280004F0F5F90316205C74005C211620FFF7B8FA9B211520FFF7B4FA50230120A37003F00BF800210A20FFF7ABFA0125C3E00A2001
:40124000FFF7E2F902214A20FFF718FE0225E070B9E0E0784A2816D1A2780221FFF752FEA1780B20FFF794FA00210A20FFF790FAA3785E2B02D80133A37004E0C9210A2070
:40128000FFF786FA00E001250A20FFF7EBF9C82817D9012000F0A9FD15200021FFF778FA0320FFF7DFF9002804D00D38C0B20425012806D86D4802F02FF86D4802F02CF8EC
:4012C00004250A2003F00CF97DE07120FFF7CAF9061E08D07120FFF7C5F9664B80B21B8898426FD96FE07220FFF7BCF900286AD031007220FFF74CFA64E003F01DF80128B1
:4013000032D10F3000F071FD2020FFF7ABF902F05FF82120FFF7A6F902F0B6F850260B20FFF7A0F9864219DCF7B23D00503D6D00EDB228002230C0B2FFF794F923350190B0
:40134000E8B2FFF78FF9019A030020213800FFF701FE642003F0DAF80136E0E70122464B44481A70454B22E0102000F049FD7F2002F02EF87F2002F087F850250B20FFF7E3
:4013800071F98542EADCEEB270007E38C0B2FFF769F97F23020020213000FFF7DBFD642003F0B4F80135E9E71978002903D101881A000029F8D10023722013700325FFF721
:4013C00059FB00E004256570FFF70EFF00284AD02379002B47D0002350202371FFF742F901005020FFF7D4F95120FFF73BF901005120FFF7CDF95220FFF734F9010052203B
:40140000FFF7C6F95320FFF72DF901005320FFF7BFF95420FFF726F901005420FFF7B8F95520FFF71FF901005520FFF7B1F97020FFF718F901007020FFF7AAF97120FFF7C0
:4014400011F901007120FFF7A3F97220FFF70AF901007220FFF79CF97620FFF703F901007620FFF795F9F7BD05020020B05A0000E35A0000C4000020F6000020F4000020C2
:4014800010B5002002F0E0FE03F01EF810BD000070B50024012000F0B3FC0C4B64201C6003F01EF85C211620FFF772F99B211520FFF76EF90123064D20002B7102F0C4FEEF
:4014C000FA20800003F00CF86C7070BDF80100200502002073B501F04DFA002847D0012002F0ACFE7620FFF7BDF8002813D002F031FE002002F03CFE02F066FE0720FFF78A
:401500001FFE08E0257801F001FB23787055082B01D80133237001F02DFA154C051E154EF0D1307843B2002B0EDA7F231840607001F07EFA6078FFF795F86B46D871D879A0
:40154000C0B201F023FB0CE02378012B0CD0022B04D160707178FFF71BF902E00620FFF753F801F02BFA2570002002F067FE73BD0A02002079020020F8B52F4B1B78002B4F
:4015800006D02E4B1B78022B02D101222C4B1A602C4B1B68002B24D02B4B1B685B0720D50F262027294B1B68334217D0284B294D1968294B2C681B6801349C4200D1002400
:4015C000264B1B689C4202D1254B1F7003E0200001F06AFA2C60FFF77DFFE3E70422214B1A60214B1B68002B25D0204B0F251B689B0720D51E4B1B682B40082B18D01D4B79
:401600001D4E1A6833689A420DD01C4B34681B6801349C4200D10024200001F0FDFA184B18603460E6E70221164A13688B4313600222154B1A60F8BD91020020C60000200C
:40164000C00E074084020020CC0F07400803074040030740AC0200208C020020A4020020B4020020C00F07409C0200208C0F074008020740A8020020B0020020980200203C
:4016800040020740880F0740800F0740F7B501F02FFEC4B20600B94D002C2CD0012002F0CDFD7620FEF7DEFF002809D002F052FD002002F05DFD02F087FD0720FFF740FDB6
:4016C000AB78122B08D8002B01D10A2C10D0EA1CD4540133AB7004E0EB18A9489C7001F01BFE0A2C04D00D2C02D0F0B201F04EFA002002F0A3FDAB78EB189B780A2B02D04A
:401700000D2B00D08EE2012002F098FDEB78EC1C452B00D1F6E111D83F2B23D006D80A2B00D16FE20D2B00D16CE268E2422B00D1EBE10021442B00D1E5E160E24E2B00D12D
:401740001DE204D8482B0DD04D2B2BD057E28D4E552B00D188E1572B00D12DE1522B00D04DE258E1884801F0D7FD884801F0D4FD874801F0D1FD874801F0CEFD864801F0E8
:40178000CBFD864801F0C8FD854801F0C5FD854801F0C2FD844801F0BFFD844801F0BCFD83482DE2A3780327433BDBB20F2B04D8804A023FDA4097430237EB1CDA5D433ABE
:4017C000D2B20F2A00D929E27A49D1400A00D20700D423E2DB19013B1878FFF7ABF9060004B2032F06D12879FFF7A4F90A2343439E1934B27E1CF6B2E91CFA1C8B195B7841
:401800000A2B06D00D2B04D0964202D00136F6B2F4E70123019300230093EB1CB74210D0985DFFF787F90A22019B013E5843009BF6B2C01803B20093019B53439BB201935C
:40184000EBE7DB5D492B37D10B20FEF70BFF4E384000C0B2844200DBE2E10121002C39D02100012C3BD0092C07DC5020FEF7FAFE0121023CA14008433CE0112C07DC5120BE
:40188000FEF7F0FE01210A3CA14008433EE0192C07DC5220FEF7E6FE0121123CA140084340E0212C00DDADE15320FEF7DBFE01211A3CA140084342E0432B43D10B20FEF703
:4018C000D1FE4E384000C0B2844200DBA8E1002C02D1210012208FE1012C02D1002113208AE1092C09DC5020FEF7BCFE0123023CA3409843C1B250207EE1112C09DC512008
:40190000FEF7B0FE01230A3CA3409843C1B2512072E1192C09DC5220FEF7A4FE0123123CA3409843C1B2522066E1212C00DD69E15320FEF797FE01231A3CA3409843C1B2FA
:40194000532059E1463B5E1EB34101265B420B201E43FEF787FE4E384000C0B2844200DB5EE17F20009B6421584303F0DBFE4643310020348039C9B2E0B23DE10A020020A3
:40198000FA5A0000305C0000005B00000E5B0000395B00005E5B0000835B0000A15B0000B05B0000C05B0000DB5B0000F95B00000F5C0000498000006078FFF7E0F80028AA
:4019C00000D12BE1A078FFF7DAF8002800D125E1E078FFF7D4F8002800D11FE12079FFF7CEF8002800D119E12879FFF7A3F806006879FFF79FF80090A879FFF79BF80700E9
:401A0000E879FFF797F8009B3901360108431E43C1B2F0B2F0E06078FFF7B1F8002800D1FCE0A078FFF7ABF8002800D1F6E06078FFF780F80700A078FFF77CF83F013843CD
:401A4000C0B2FEF70FFE0400300001F065FC2009C0B2FFF786F801F099F80F202040FFF780F801F093F8CDE06078FFF788F8002800D1D3E0300001F04FFC00F0DFFA6078AE
:401A8000303807282FD803F0B9FD04090E13181D2227654801F040FC002121E0634801F03BFC01211CE0624801F036FC022117E0604801F031FC032112E05F4801F02CFCC3
:401AC00004210DE05D4801F027FC052108E05C4801F022FC062103E05A4801F01DFC07211E20FEF755FE00F0BFFAC820400002F0F7FC0320FEF7B6FDFFF75AFA0120FFF714
:401B000053F87FE00121702076E06078FFF737F8002810D0A078FFF732F800280BD0A078FFF708F806006078FFF704F80A2343439E1934B208E02879FFF721F800286DD088
:401B40002879FEF7F7FF04B2002C04D101211420FEF71EFE01E0082C07DC5420FEF782FD0121013CA140084338E0102C56DC5520FEF778FD0121093CA14008433AE0607866
:401B8000FEF7FDFF002810D0A078FEF7F8FF00280BD0A078FEF7CEFF06006078FEF7CAFF0A2343439E1934B208E02879FEF7E7FF002833D02879FEF7BDFF04B2002C04D1C7
:401BC00021001420FEF7E4FD01E0082C09DC5420FEF748FD0123013CA3409843C1B254200AE0102C1ADC5520FEF73CFD0123093CA3409843C1B25520FEF7CAFD02E0124846
:401C000001F08AFB0020A870E87002F017FB0F4801F082FB0E4801F07FFB03E00D48EFE70D48EDE7F7BDC046335C00003A5C0000415C0000485C0000505C0000585C00005D
:401C4000605C0000685C0000715C0000305C0000F85A0000775C00007D5C000010B500F0F3FFC3063DD5012002F0E8FA7620FEF7F9FC002809D002F06DFA002002F078FAB8
:401C800002F0A2FA0720FFF75BFA01F04FF81C4C022806D11B4B1878E0755978FEF778FD0EE001F043F8012803D1164B1B78E37506E001F03BF8022802D90620FEF7A4FCD0
:401CC00000F0DCFF030602D50520FEF79DFC01F039F8E07DFEF7C6FC0B4B1870002002F0ADFA00F0B1FFC30708D501F025F800F0B1FF030702D50420FEF786FC10BDC04675
:401D00000A0200204F0200206502002070B501F0F9FF2B4CC30640D501F0F4FF20231840051E3AD1012002F089FA7620FEF79AFC002809D002F00EFA280002F019FA02F09E
:401D400043FA0720FFF7FCF902F04EF8022812D0032805D0012814D11A4B1B78237610E0184D287820766978FEF712FD207EA9780130C0B203E0134B187820765978FEF732
:401D800007FD01F0D9FF030602D50820FEF73CFC02F036F8002002F051FA207EFEF762FC094B187001F0AEFFC30708D502F022F801F0AEFF030702D50720FEF725FC70BD9D
:401DC0000A0200205A0200206F02002010B50220FEF764FC002807D00220FEF743FC01F0BFFF0220FEF76AFC10BD10B504007720FEF738FC0443E1B27720FEF741FC10BD27
:401E000010B504007720FEF72DFCA043C1B27720FEF736FC10BD000070B51220FEF73EFC002821D01420FEF71DFC012808D11130FEF718FC012801D1063010E004200EE0E3
:401E40001220FEF70FFC0400012804D102F03EFA2043C0B203E002F039FA0623184002F02FFA1220FEF72AFC1320FEF717FC002818D01420FEF7F6FB012810D01320FEF7A8
:401E8000F1FB012805D102F021FA02231843C0B203E002F01BFA0523184002F011FA1320FEF70CFC1420FEF7F9FB00281ED01420FEF7D8FB012808D11130FEF7D3FB012843
:401EC00001D106300DE004200BE01220FEF7CAFB04001320FEF7C6FB0123184098402340184302F0EDF91420FEF7E8FB7620FEF7D5FB002832D07620FEF7B4FB0500032028
:401F0000FEF7B0FB02280CD1002D1FD002F022F9002002F02DF9280002F030F902F054F916E00B20FEF79EFB50244F28ECD90B20FEF798FB8442E7DCE0B22A007621FEF734
:401F4000E1FF642002F0E2FA0134F0E702F002F97620FEF78FFD7620FEF7B0FB7020FEF79DFB002831D07020FEF77CFB0124204001F0D0FA7020FEF775FB204001F0D6FA51
:401F80000320FEF76FFB022806D17020FEF772FD7020FEF793FB18E00B20FEF763FB50254F28F2D90B20FEF75DFB8542EDDC7020FEF758FB020070212240E8B2FEF7A2FF65
:401FC000642002F0A3FA0135ECE71D20FEF766FB002807D00320FEF745FBFFF77BF81D20FEF76CFB1A20FEF759FB002807D00320FEF738FBFFF748F81A20FEF75FFB11201C
:40200000FEF74CFB00280FD01120FEF72BFB012807D101F0F1FF0F214840C1B27C20FEF7B7FB1120FEF74AFB034B1B68002B02D10220FFF7E5FE70BDF801002010B516204B
:40204000FEF710FB074C20701520FEF70BFB5C2160701620FEF79CFB9B211520FEF798FB10BDC0462302002010B5054C15206178FEF78EFB21781620FEF78AFB10BDC046EF
:4020800023020020F7B57D20FEF708FB00281DD0FFF7D4FF7920FEF7E5FA04007A20FEF7E1FA05007B20FEF7DDFA290002002000FEF728FF00217D20FEF76AFB7D20FEF764
:4020C000FDFA7D20FEF7D6FCFFF7CEFF7E20FEF7E5FA00281CD0FFF7B1FF7920FEF7C2FA04007A20FEF7BEFA01002000FEF7C6FE01007C20FEF74CFB00217E20FEF748FB57
:402100007E20FEF7DBFA7E20FEF7B4FCFFF7ACFF0B20FEF7A7FA0025A84202D04F38400005B25020FEF7BAFA00281DD000240127A54210DD23003B40123350200193FEF709
:4021400091FA0200224166105036F6B23A4001993000FEF7D7FE0134082CE9D15020FEF789FC5020FEF7AAFA5120FEF797FA00281FD0002401272B00083BA34210DD2300EA
:402180003B40123351200193FEF76CFA0200224166105436F6B23A4001993000FEF7B2FE0134082CE7D15120FEF764FC5120FEF785FA5220FEF772FA00281FD00024012707
:4021C0002B00103BA34210DD23003B40123352200193FEF747FA0200224166105836F6B23A4001993000FEF78DFE0134082CE7D15220FEF73FFC5220FEF760FA5320FEF7B7
:402200004DFA00281FD0002401272B00183BA34210DD23003B40123353200193FEF722FA0200224166105C36F6B23A4001993000FEF768FE0134082CE7D15320FEF71AFC56
:402240005320FEF73BFA5420FEF728FA002823D00B20FEF707FA4F2806D85420FEF70AFC5420FEF72BFA17E00024012625000B205035EDB2FEF7F6F98542EED85420FEF718
:40228000F1F9020022411421324028000134FEF739FE092CEAD1E0E75520FEF7FFF9002823D00B20FEF7DEF9572806D85520FEF7E1FB5520FEF702FA17E000240126250004
:4022C0000B205835EDB2FEF7CDF98542EED85520FEF7C8F9020022411421324028000134FEF710FE092CEAD1E0E77420FEF7D6F900281FD07420FEF7B5F901001520FEF720
:4023000047FA50240B20FEF7ADF984420CDC7420FEF7A8F915210200E0B2FEF7F3FD642002F0F4F80134EDE77420FEF7A3FB7420FEF7C4F97520FEF7B1F900281FD07520E3
:40234000FEF790F901001620FEF722FA50240B20FEF788F984420CDC7520FEF783F916210200E0B2FEF7CEFD642002F0CFF80134EDE77520FEF77EFB7520FEF79FF9732045
:40238000FEF78CF9002819D0FFF758FE00211B20FEF7FEF97320FEF765F903231840194B4000195C1C20FEF7F3F91D200021FEF7EFF9FFF759FE7320FEF780F97820FEF74E
:4023C0006DF900281DD0FFF739FE7820FEF74AF9C30701D5FFF754F87820FEF743F90224204209D0FFF754F87820FEF73BF9A043C1B27820FEF7CCF97820FEF75FF9FFF7D3
:4024000033FEF7BDA85A0000FEE70000F8B500250F49104B01394A1C14D000221F685C689E68A018B24203D0B858A0500432F8E70200DE68141AA64201D020C2FAE710338B
:402440000139E8E703F05AFAFEF720F8FEE7C04601000000C45E0000002370B50A480B4C0B4D9A002100032B00D8A95801338150302BF6D1FDF7D0FD80220121D2051368E8
:402480000B43136070BDC046000000200924000000000000034B1B78FF2B02D10022024B1A707047C60000202802002010B50E4B1A781C00FF2A16D080210C4A09061368C1
:4024C0000B4313600A4B1B78002B02D00B2001F0DDFF2378022B02D100F03AFC03E0042B01D100F0C3FE10BDC6000020000007409202002010B5054C2378002B03D1FFF794
:40250000C9FF01232370FFF7D1FF10BD2802002010B50B2001F0C4FF104B1B78012B02D100F0CEF90DE0082B02D100F001FF08E0022B02D100F028FC03E0042B01D100F044
:40254000B1FE074A0B2013685B005B0813600022044B1A6001F0AEFF10BDC046C600002000000740880F0740014B58607047C046280200200023F0B51C008BB003AE9C5155
:4025800004331C2BFBD1183B012801D0082805D1039373600E230024019330E00125022814D10623002907D10F2473603560B560F560019423001FE00F240D223360B360F9
:4025C000F360756001942300009219E0012905D17360002409230193230010E000232A4201D03560093302200240141E06D006220024726003320192009001E0019200948B
:40260000294F2A4A39681B040A4013433B60039B274DD8B201F0B0FE009B1022DB0702D52B68134301E02B6893432B603A68214B1340019A120513433B60307901F0A8FEF0
:40264000009B20229B0702D52B68134301E02B6893432B603A68184B1340220613433B60307A01F071FE009B40225B0702D52B68134301E02B6893432B603A6824071201F7
:40268000120914433C60F068C0B201F08DFE009B80221B0702D52B68134301E02B6893432B600BB0F0BDC04600000140FFFFF0FF18000440FFFF0FFFFFFFFFF080200A4BEC
:4026C00040001A6802420AD0084A1268520406D41A680749114019601A6802431A600222044B1A607047C0460000074060000740FFFEFFFF6C000740F7B5041E00D19DE0BF
:40270000002201201100FFF735FF01200C254C4B227F18704B4B217E1A704B4B4B4E18704B4B227819704B4B3270196829431960256801961900854204D0C825678C6D0017
:40274000AF4205D80B68444803430B60002003E01D68424929401960A169E369002901D0802149025D1EAB410F271B020B433C49651D0B60FF21A368013B1F406368013B63
:402780001B010B40E97F4E424E41F1022668B60737433B430B4333490B6033490B00002800D0324B32480360002332480360D20709D52369FF225800FF23184063691204CF
:4027C0001B041340034300242B4A0B2013602B4B19602B4B1C6001F063FE02210B2001F03BFE28490B2001F02FFE274B1C60274B1C60274B1C60274B1C60019B1B78DB07BC
:4028000006D5EB7FA34201D14C2400E0CC24FF34214B10211C600023204A1360204A1170204A1370204A1360204A1360204A1370204A1380204A1360204A1360F7BDC04620
:40284000C6000020910200209202002093020020950200207000074000000202FFFFFDFD0000074060000740070100800703008000030740040307401003074000020740B1
:40288000040207407D460000C80E0740880E0740C80F0740880F0740480F0740080F0740A0020020E4020020F0020020EC020020F4020020CC020020B8020020D40200205A
:4028C0000023044A1360044A13601022034B1A707047C046680007406C000740A0020020144A10B5136814495B005B08136000230B60124912480B600468124921400160E5
:4029000011490B6011490B601149124B19601249124B19601249134B19601349134B19601021134B19708021136809060B43136010BDC04600000740680007406C000740C7
:4029400060000740FF5CFFFF880F0740C80F0740F3070000800F0740ED0F0000C00F0740FF0F0000400F074017030000000F0740A00200200C4B1B68002B0FD00B4B1868E9
:402980000B4B1A68904202D31B68C01A0AE01A68084B1B68C0180130801A03E0064B18680F2318407047C04684020020AC020020A40200208C02002008030740144B70B59D
:4029C0001B68144C144D002B18D00B2001F068FD124B0B201A68124B1A600022114B1A708022236852021343236023680E4A1D400E4B25601A6001F049FD07E080222368D9
:402A000052021343236023681D40256070BDC0468402002004030740FFFFFEFFA4020020AC020020B4020020ED0F0000C00F0740154B70B51B68154C154D002B1AD00B2053
:402A400001F02EFD0221134B0B201A68124B1A60124A13688B4313608022236852021343236023680E4A1D400E4B25601A6001F00DFD07E080222368520213432360236864
:402A80001D40256070BDC0469C02002004020740FFFFFEFFB0020020A8020020880F0740F3070000800F074010B50A4BCCB21A78094B082A03D11B681818047009E01A689B
:402AC0004000121814701B68013009121818C9B2017010BD9602002084020020094B1A78094B082A04D11B6818180078C0B208E019684300CA180133CB1812781878000233
:402B00001043704796020020840200200D4B70B51B68002B13D00C4B0C4D1A682B6800209A420ED00A4B2C681B68013401339C4200D104002000FFF7D1FF2C6001E0054B55
:402B4000186870BD84020020AC020020A40200208C0200204003074010B50A4BCCB21A78094B082A03D11B681818047009E01A684000121814701B68013009121818C9B2B8
:402B8000017010BD940200209C0200201A4B70B51B680100002B02D118480F2225E0184B184D1A002C681868844205D1134B18680F230340082B1CD1134B2C681B68013412
:402BC0009C4200D1002413689C42FCD002260F4B20001E60FFF7C0FF0D4B2C601A68324209D11A6832431A6005E003681340082BFBD0084B196070BD9C020020080207403A
:402C0000B0020020A802002098020020800F0740880F074040020740094B1A78094B082A04D11B6818180078C0B208E019684300CA180133CB181278187800021043704758
:402C4000940200209C020020014B1878C0B27047E402002010B50B2001F022FC0D21064B18781A78C4B28A430B201A7001F00EFC0F20204010BDC046E402002010B50B20EA
:402C800001F00EFC2F22064B0B201C781978E4B20A401A7001F0FAFB0F232000984310BDE4020020FF22044940000B6810409343184308607047C0461003074070B504008D
:402CC0000D0000280ED00B2001F0EAFB064B074A1C60074B0B201D6000231360054A136001F0D4FB70BDC046D8020020F0020020F8020020E002002070B504000D000028D7
:402D00000CD00B2001F0CCFB0022054B0B201C60044B1D60044B1A6001F0B8FB70BDC046DC020020E8020020EC020020014B18687047C046EC0200200022014B1A60704703
:402D4000F00200200022014B1A607047EC020020094B1B68002B0ADAF021084B09051A680A43F0211A601A6809060A431A60044B1A88044B1A607047200007400000014071
:402D800030020020880F0740F8B5104B104E1A68104D002A14DA012718680F4CC008384001F0DEFA22680D4B38001340236001F007FB23681B011B0923603268202301E08B
:402DC0006023326813402B80F8BDC04620000740880F07403002002000000140FFFFFFF00549064B0A6880061340C02212051040184308607047C04620000740FFFFFFF32E
:402E000070B5041E00D1B4E0016800220220FFF7B1FB0222574BE16B1A70574AA3691370564A1170564A216B1160564A217F1170554AE16A1160554AA16B1160544A216AAC
:402E40001170544A616B1160E268511E0F220A40002B01D080235B00802149040A4313434D4A13601022A56A66686B1E9D41324000D00222A36899000C23194063692943ED
:402E80000800002B00D01023C021360689040E40310001430A4313432268002A01D08022120613433D4A1360E369606A5A1E0F231A40002801D080204000802321691B06FC
:402EC0001A43002901D08021890003001343344A0B4313600723626C1340324A1360236A5A1E0F231A40636A002B01D080235B00802109060A4313432B4A0025136007239D
:402F0000E26C0B201340294A136001F0C9FA02210B2001F0A1FA26490B2001F095FA254B28001D60244B1D608023226C1B011340224A13608023A26C9B001340204A13603B
:402F4000226C204B1340204A1360A26C1F4B13401F4A136012681F4B1A80FFF741FF1E4B1D601E4B1D601E4B1D701E4B1D601E4B1D6070BDC60000209102002092020020C5
:402F800084020020960200208C0200209C0200209402002098020020000007402000074000030740040307400002074004020740AD4D0000880E0740C80E0740480F074069
:402FC000080F0740FFF7FFFFC80F0740FFFDFFFF880F074030020020AC020020A4020020B4020020A8020020B0020020F8B5041E00D1FAE0426801680420FFF7BBFA0420B1
:403000007A4B226B18707A4B616B1A70794B626D1A70794BA26B1A60237A784A1370784A1160784A216C1160774A784913702568774BE26B1A60022D1FD1A2691023002ABC
:403040001FD062690023102A1BD00133202A18D02B00302A15D00133602A12D00300C02A0FD0C0200133800082420AD0C0200023C000824205D1063303E063695A1E0F23F1
:4030800013400B60A26C0B68002A02D18022920400E0604A13430B6023681A06C0239B0413405D4A136007222369656A013B13401F00002D00D04025606C002801D08020BE
:4030C000C000A16A002901D080214900E36A002B01D080239B0022006D321678F022013E3604120332403A432A4302430A431A434A4B1A60E068022806D01A68302100280E
:4031000000D110390A431A60A3685A1E0F231340E269002A01D0802292001A43012361680B4001D080231B0613433D4A3D4913600723E26D1A400A60226D1104FF22120414
:403140000A40E16CC9B20A4337490A602269013A1340226A002A01D0802252001343334A1360E0681300022806D012683021002800D110390A431A60A36861685A1E0F237F
:403180001A400D3B0B4001D080231B061343284A0B2013600723626E1340264A136001F07FF902210B2001F057F923490B2001F04BF90023214A1360214A1360214A136076
:4031C000214A1360A16D214A1160216E204A11601168204A1180204A1360204A1360204A1370204A1360204A1360F8BDC60000209102002092020020840200209602002068
:403200008C0200209C020020940200200000074098020020000001024000074048000740000307400403074010030740440007400002074004020740AD4D0000880E074068
:40324000C80E0740480F0740080F0740C80F0740880F074030020020AC020020A4020020B4020020A8020020B0020020084B1B689B035B0F07D0074A074B11680B40902114
:4032800009040B431360054B1A88054B1A6070470800044000000140FFFF0FFF30020020880F07400B4B1B689B035B0F04D00A4A0A4B11680B401360094A0A4B11680B4003
:4032C0001360094B1A68E423DB001340074A13807047C0460800044000000140FFFF0FFF48000740FFDFFFFF880F07403002002010B5FFF73FFB03000020834201D0FFF7D7
:4033000005FCD822034B92001968114201D000201A6010BDC00F074010B504000134631E1878002802D0FFF731FCF7E710BD0000034B1B78002B00D00223024A1370704732
:4033400090020020080300208021034A090613680B4313607047C04600000240024A13685B005B081360704700000240034A13681B0C1B04034313607047C0460000024081
:4033800080220C4BD2041A601A680B491A6000220A60196819600C21084B1960084B1A60084B31321A60084BCF321A60074B803A1A607047000105400801054024010540EF
:4033C0003801054028010540140105400C010540014B80B2186070470C01054070B50D000400AC4001F042F9024B1C6001F042F970BDC0460800054010B5012401F036F969
:40340000054A13682343136001F034F918212000FFF7E4FF10BDC0460000054010B5054C2378002B03D1FFF7ABFF01232370FFF7E3FF10BD3802002080220C4BD2041A6032
:403440001A680B491A6000220A60196819600C21084B1960084B1A60084B31321A60084BCF321A60074B803A1A607047C0010540C8010540E4010540F8010540E8010540CB
:40348000D4010540CC010540014B80B218607047CC01054070B50D000400AC4001F0E6F8024B1C6001F0E6F870BDC0460800054010B5082401F0DAF8054A136823431360C1
:4034C00001F0D8F818212000FFF7E4FF10BDC0460000054010B5054C2378002B03D1FFF7ABFF01232370FFF7E3FF10BD390200208021034A090613680B4313607047C046C4
:4035000080000240024A13685B005B0813607047800002400423044980000A689A43D2B2034013430B607047000204401023044900010A689A43D2B2034013430B60704781
:4035400000020440012304490A689A43D2B2034013430B607047C04600020440034B1B78FF2B02D10022024B1A707047C70000203C02002010B50E4B1A781C00FF2A16D00C
:4035800080210C4A090613680B4313600A4B1B78002B02D00A2000F079FF2378022B02D100F034FC03E0042B01D100F051FC10BDC7000020000006403903002010B5054C0A
:4035C0002378002B03D1FFF7C9FF01232370FFF7D1FF10BD3C02002010B50A2000F060FF104B1B78012B02D100F092F90DE0082B02D100F06BFC08E0022B02D100F014FCF3
:4036000003E0042B01D100F03DFC074A0A2013685B005B0813600022044B1A6000F04AFF10BDC046C700002000000640880F0640014B58607047C0463C0200200023F0B56E
:403640001C0089B001AE9C5104331C2BFBD1012801D0082806D104230E24019373602300002525E0012502280DD10623002905D10F24356073600500230019E00F24336029
:403680007560230014E0012904D10423092473600023E5E700232A4201D03560093302252A40141E03D006220924726000E015000F21144F3A688A4313433B60019BD8B20D
:4036C00000F08AFE01213B000F4F3A680D4202D01143396001E08A433A60F0211A6824018A4314431C607068C0B200F093FE02223B68154202D01A433A6001E093433B6043
:4037000009B0F0BD100001401804044080200A4B40001A6802420AD0084A1268520406D41A680749114019601A6802431A600222044B1A607047C04600000640600006402E
:40374000FFFEFFFF6C000640F7B5041E00D19DE0002201201100FFF771FF01200C254C4B227F18704B4B217E1A704B4B4B4E18704B4B227819704B4B3270196829431960E7
:40378000256801961900854204D0C825678C6D00AF4205D80B68444803430B60002003E01D68424929401960A169E369002901D0802149025D1EAB410F271B020B433C49A8
:4037C000651D0B60FF21A368013B1F406368013B1B010B40E97F4E424E41F1022668B60737433B430B4333490B6033490B00002800D0324B32480360002332480360D20704
:4038000009D52369FF225800FF231840636912041B041340034300242B4A0A2013602B4B19602B4B1C6000F03BFE02210A2000F013FE28490A2000F007FE274B1C60274B13
:403840001C60274B1C60274B1C60019B1B78DB0706D5EB7FA34201D14C2400E0CC24FF34214B10211C600023204A1360204A1170204A1370204A1360204A1360204A1370D8
:40388000204A1380204A1360204A1360F7BDC046C700002028030020390300203C030020380300207000064000000202FFFFFDFD000006406000064007010080070300809F
:4038C0000003064004030640100306400002064004020640CD4E0000C80E0640880E0640C80F0640880F0640480F0640080F06403D0300207C03002074030020680300201D
:403900006C030020440300204C0300205C0300200023044A1360044A13601022034B1A707047C046680006406C0006403D030020144A10B5136814495B005B081360002328
:403940000B60124912480B60046812492140016011490B6011490B601149124B19601249124B19601249134B19601349134B19601021134B19708021136809060B431360DF
:4039800010BDC04600000640680006406C00064060000640FF5CFFFF880F0640C80F0640F3070000800F0640ED0F0000C00F0640FF0F0000400F064017030000000F0640A3
:4039C0003D030020014B18687047C0464C03002010B50A2000F064FD00220121044B0A201A60044A13888B43138000F04FFD10BD4C0300204403002010B50A2000F050FDA3
:403A000000220221044B0A201A60044A13888B43138000F03BFD10BD5C0300204403002010B50A2000F03CFD064B1C88064BA4B21B789B0601D504231C430A2000F026FDA8
:403A4000200010BD440300203D03002010B50A2000F026FD0022044B0A201C88A4B21A8000F014FD200010BD44030020294B70B51E68294C00F0D8FC002806D1002C47D072
:403A8000012000F043FD013CF4E7002C40D0002000F0ACFC0F22214C214D2368934323602B685B005B082B60B30609D4002000F09DFC0A2000F02AFD01221A4B1A6019E062
:403AC000002000F093FC0A2000F020FD012000F08DFC0A2000F01AFD0F4E00F093FC002806D1002E06D0012000F010FD013EF4E7002EDBD180222B68120613430F222B60D5
:403B0000236801209343013A1343236000F06EFC70BDC04664000640204E0000100001400000064068000640F7B506000F00019200930424002948D0264D2B78102B08D18B
:403B40000A2000F0ADFC244B24191B68DB073CD408E02B780424602B37D108211F4A13888B43138028232B7000251D4B019A1D601C4B1A491D601C4B76001A601B4B1C489A
:403B80001F606B461A781B4B01241A70FF2302221E400B88184F93430B80402317490B601749086014201749FF30086016490B60009B23401C00AB4204D0FFF757FF2C00F1
:403BC0003E6002E0114B3E601A600A2000F05EFC2000FEBD3D0300206400064044030020500300205C0300204003002054030020170300005803002040020640800F064053
:403C0000000F0640080F0640880F064068000640F7B506000F00019200930424002950D02A4D2B78102B08D10A2000F039FC284B24191B68DB0744D408E02B780424602B07
:403C40003FD10821234A13888B431380292300222B70214B21491A60019B214A01201360204B76001F606B461B780B70FF2319491E400B88064383430B801B491B4B19603D
:403C800014211B4BFF31196013681A4A072B01D8042306E08020184940000B6803430B60082301241360009B144D23401C1E04D0FFF7DCFE00242E6003E00222104B2E60C2
:403CC0001A600A2000F0E2FB2000FEBD3D03002064000640440300204C03002058030020480300206003002017030000000F0640080F0640C80F0640600006404002064018
:403D000068000640014B1878C0B270477C03002010B50A2000F0C4FB0D21064B18781A78C4B28A430A201A7000F0B0FB0F20204010BDC0467C03002010B50A2000F0B0FBD5
:403D40002F22064B0A201C781978E4B20A401A7000F09CFB0F232000984310BD7C030020FF22044940000B6810409343184308607047C0461003064070B504000D0000284A
:403D80000ED00A2000F08CFB064B074A1C60074B0A201D6000231360054A136000F076FB70BDC0468003002074030020640300208403002070B504000D0000280CD00A20B5
:403DC00000F06EFB0022054B0A201C60044B1D60044B1A6000F05AFB70BDC046780300207003002068030020014B18687047C046680300200022014B1A6070477403002042
:403E00000022014B1A60704768030020034B1B68034B1A88034B1A607047C0462000064044020020880F0640064B074A1968074B002902DA1968202301E0196860230B40FB
:403E4000138070472000064044020020880F0640084B1B689B065B0F06D0F021064A13688B4360390B431360044B1A88044B1A607047C04608040440100001404402002016
:403E8000880F06400B4B1B689B065B0F04D0F021094A13688B431360084A094B11680B401360084B1A68E423DB001340064A13807047C04608040440100001404800064097
:403EC000FFDFFFFF880F064044020020034B1B78002B00D00223024A1370704730030020A00300208021034A090613680B4313607047C04640000240024A13685B005B0809
:403F00001360704740000240034A13681B0C1B04034313607047C0464000024010B500F0A5FB1021034A13780B43137000F0A2FB10BDC04692000F40012110B5034A1378A0
:403F40000B431370FFF7EAFF10BDC04672000F4010B500F08BFB1021034A13788B43137000F088FB10BDC04692000F40012110B5034A13788B431370FFF7EAFF10BDC0467F
:403F800072000F400723044A117899431170117803400B431370704782000F4010B50420FFF7F0FF10BD000010B5054C2378002B03D1FFF7F3FF01232370FFF7BDFF10BD54
:403FC0004C02002010B50100014800F03BFB10BD00000F408021034A090613680B4313607047C04640010240024A13685B005B081360704740010240014B1878C0B2704752
:4040000061000F408021034A090613680B4313607047C04604000240024A13685B005B0813607047040002408122074B92041A600C22064B06491A600023064A1360064A1C
:404040001160064A1360704780010540A4010540FFFF0000B8010540940105408801054010B500F003FB0421034A13688B43136000F000FB10BDC04600000540014B80B29F
:404080001860704788010540014B186880B270478801054070B50D000400AC4000F0E6FA024B1C6000F0E6FA70BDC0460800054010B5042400F0DAFA054A13682343136021
:4040C00000F0D8FA18212000FFF7E4FF10BDC0460000054010B5054C2378002B03D1FFF7A3FF01232370FFF7E3FF10BD4D0200208021034A090613680B4313607047C046AB
:4041000048000240024A13685B005B08136070474800024000230C21084A1360084A1160084A0A391160FA21074A890011606421064A1160064A13607047C046400105402C
:404140006401054078010540540105404C0105404801054010B500F089FA0221034A13688B43136000F086FA10BDC04600000540014B80B21860704748010540014B80B278
:40418000186070474C01054070B50D000400AC4000F06CFA024B1C6000F06CFA70BDC0460800054010B5022400F060FA054A13682343136000F05EFA18212000FFF7E4FFD5
:4041C00010BDC0460000054010B5054C2378002B03D1FFF79FFF01232370FFF7E3FF10BD4E020020014B18607047C0467001054010B5040000F03AFA044A054B1168A403B5
:404200000B401C43146000F035FA10BD10E400E0FF3FFFFF10B58024054BA4021C60054B0833D8670120FFF7E3FF034B1C6010BD80E100E00000002000E100E0014B187039
:404240007047C04671000F40012304490A689A43D2B2034013430B607047C046000304400223044940000A689A43D2B2034013430B60704700030440024B18688007C00FCB
:404280007047C046040304400223034A1068184010604008C0B27047100304408021034A090613680B4313607047C04644000240024A13685B005B081360704744000240CB
:4042C000014B18707047C04670000F40014B1878C0B2704770000F400822034B1A60034A034BDA647047C04680E100E0092400000000002010B5040000F0B8F9044AA40731
:4043000013689B009B081C43146000F0B3F910BD00E400E010B50824044B1C60044BD8640320FFF7E7FF034B1C6010BD80E100E00000002000E100E0024B18688006C00FA3
:404340007047C04604020440034A044B116880040B4018431060704708000440FFFFE3FF4023044980010A689A43D2B2034013430B60704700000440034A044B1168000389
:404380000B4018431060704708000440FF8FFFFF034A044B1168C0030B4018431060704708000440FF7FFCFF034A044B116840050B4018431060704708000440FFFF1FFF5F
:4043C0007F23044AC00111680B401843C0B210607047C046000004400721034A13688B43184310607047C04608040440012304490A689A43D2B2034013430B607047C0466F
:4044000000040440024B1868012318407047C046040404403821034AC00013688B4318431060704708040440024B18688007C00F7047C04604040440802380009B05C31897
:404440001868196070470000024B8000C31818681960704740000020F8B5032605003540B5400F0004000635AE40AF4000F0FEF8A408054BA400E4182368B3431F43276078
:4044800000F0F8F8F8BDC04600E400E01F2318401E3B8340014A13607047C04600E100E01F2318401E3B8340014A13607047C04680E100E01F2318401E3B8340014A1360C5
:4044C0007047C04680E200E0034A044913689BB20B4313607047C0460CED00E00400FA0570B5802504002D02064BAC4205D9186800F0B2F8044BE418F6E75868604300F052
:40450000ABF870BDC80000200080FFFF10B5034B1B7A584300F0A0F810BDC046C8000020F0B5C31E87B0050003932D2B62D8324B1B78984204D8314B1C78314BE4B21EE0EF
:40454000304B1B78984204D82F4B1C782F4BE4B215E02F4B1B78984204D82E4B1C782E4BE4B20CE02D4B1B78984204D82C4B1C782C4BE4B203E02C4B1C782C4BE4B21B7832
:404580002B4EDBB20193EB1EF35C2A4F029300F06DF8029B049005962F2B04D92A2D02D919263E6008E03F233E681E40029BB34205D2204B029A1A60052000F04DF81B4B9C
:4045C0001D4AED182B780520DBB213601B4B019A1C601B4B1A60FFF799FF029BB34206D9059B039A05209B5C3B6000F035F8049800F040F807B0F0BDC0F1FF0FC1F1FF0F73
:40460000C2F1FF0FC3F1FF0FC4F1FF0FC5F1FF0FC6F1FF0FC7F1FF0FC8F1FF0FC9F1FF0FCAF1FF0FCBF1FF0FCCF1FF0FCDF1FF0F725E00002CFF0B4028FF0B401CFF0B400E
:4046400020FF0B40CBB203700B0A090CDBB2C9B243708170704700000230800804D0C0460138FDD1C046C046C0467047EFF3108072B6704780F310887047C046C74BF7B518
:404680001B68002B00D09847C54B1B68DB0702D50022C44B1A602021C34CC44823780B4257D00578AB0701D4002370E0C04A002311680192CA0506D5C026BE49B6000B88AB
:4046C00033430B8001230121019A16680E4209D09027B84EBF0033883B433380072D10D10B0001E0072D0AD1B34909688A0706D5A026B049B6000B8833430B8001E0002BCB
:40470000D2D0012302262178AA4F1940711A8C4662463988114389B23980072D16D108212578294010D0A4490D68354202D000230B60B2E2A1490968CA0526D4019A126862
:404740001A4200D0A9E220E0217020E0002222701DE0012203781342A6D0984B1D680223FF331D42A0D02578954B154206D002211A788A431A701A78073104E01A788A4386
:404780001A70902219780A431A70002323702278920600D4DEE002780220024200D1BAE21021834A15680D420CD00122854B196023781340C31A7F48028813439BB203803A
:4047C0002170A8E225782D071AD51568054209D07C4B7849186088200B88800003430B8001230DE02078C00702D52521217007E02420207074480068002801D073480160A3
:4048000004212078084200D1A0E001202578054243D008256E4A16682E4223D06D4A6E4916686E4A12680F68F71B0F263240BA1AAA4207D8002A06D1694A6A4B16683340FB
:40484000136003002A00684E684D08683768013A38182F68FFB20770086801300860002AF3D117E012680A4214D05B4A5E4E1568366875195D4E3668F6B22E701568013500
:4048800015601568534A1268954202D24A4A116000E003005649574A4EE011680222114220D0484B54491A60544D0E680D320B68296832408A1A8421DB0B0340D31A2B60AE
:4048C0002A684F4B89001A603A4A13880B43802113804C4B49021A680A431A6019684A4A0A4031E0494A1168C90627D5484A424E126835490192414A0F2037681500074014
:404900000800082F0FD01768BC460F68BC450AD21068019D281800783E4DC0B22860106801301060E8E729680268914202D14021264A11603849394A116007E01268520638
:4049400004D52E4B1A682E4B1A60C1E1002B00D0BEE1E0E12378DB0600D49BE1012103780B4200D1D7E10222144B1868104200D17CE02B48026020480D32056800682A40F7
:40498000C00B014027488A1806780D49264DB2424CD204260A7832430A704CE02C0200208C0E0740880E0740A0020020930200200C0F0740CC020020680007404C0F074096
:4049C000E4020020000F0740C8020020880F0740CC0F0740C4020020B80200200803074060000740FFFEFFFFC002002040030740ED0F0000C00F074008020740BC02002010
:404A0000D402002004020740FFFFFEFF8C0F0740D002002040020740F3070000800F0740400F0740F4020020E002002007782E68D21BB21A2A602D68B74A15600022B74DD4
:404A40002A6080250270B6486D0202682A4302600568B44A2A40026002200A7882430A700A78013802430A701022227008221968114241D0AC490A60AC4A1168890423D535
:404A800040210F268C46AA4F3968314218D0A9490978002907D039683140012903D16046196801420CD1A449A44D08682D682818A34D2D68EDB20570086801300860E3E740
:404AC0001068A049014011609F4AA04915681000AA0603D540250A782A430A7000259C4A15609C4A026020200A7882430A700A78103802430A7020701A68C0231A4251D02A
:404B00000122954B894D1A602B68874E934F1B0503D4884B1B78002B10D0914B1868002801D0804701E0864B1B688A4A864B1A60012803D13760FDF7C1FD33E0894B834A06
:404B40001968102319420BD074490B60724B1968854B1960022113780B43137012231CE0824B75491B6809685B1A0421072B0DD9082B05D1A0212B6809020B432B6007E093
:404B800080212B6889010B4308212B60704B1960202113780B431370112301222370744B37601A600821734B1A680A4225D06F4B614A1B681068083B1B1A01208B4201D960
:404BC00000200B005D4C5E4D002B0AD011682668013B71182E68F6B20E70116801311160F2E7002807D08020504900020A6802430A60574A136008221FE01B685B071ED544
:404C00004F4B4D491A68594B08681B6898420CD20120574BD2B2186048480B680068C3181A700B6801330B6006E0FDF747FD4021464A13780B4313700422434B1A604E4BA0
:404C40001B68DB0667D50F21FF254C4B4C481C68454A03680B40082B18D04A4B17681B68494E9F4208D21368E3181B78DBB23360136801331360ECE73560444E33780A2B23
:404C8000E7D833780133DBB23370E2E71022404B1A6040E0FDF724FE3DE08021204B49021A680A431A6019681E4A0A401A601F4A384B11680B401360374A384B1A600023C2
:404CC000234A1360154A1360103323700F3B5EE5164A304B11680B40136000231C4A13600E4A13602E4B1B789B070CD5012322782C4913400A22D31A0A8813439BB20B80D8
:404D00006023237007E0174B1A681823920600D4083B254A1360F7BDF0020020880F074004020740FFFFFEFF400F0740600007400803074095020020EC020020DC02002088
:404D400040030740FF5FFFFFC00F0740E4020020C80F0740ED0F0000800E0740FF0F00003402002064000740E0020020E80200206C000740CC0F07408C0F0740D802002076
:404D800008020740F802002040020740F4020020800F0740FFFEFFFF17030000000F0740CE020020CC02002068000740F8B5314B1B68002B00D098472F4B1B78002B06D087
:404DC0002E4B1B78022B02D101222D4B1A602D4B1B68002B23D02C4B1B685B071FD520270F262A4D2A4B2C681B68013401339C4200D10024274B1A68274B944203D11B68DB
:404E0000264B1F7004E019682000FDF74DFE2C60234B1B683342E4D10422224B1A60224B1B68002B25D0214B1B689B0721D50F251F4B204E1A6833689A4212D01E4B346877
:404E40001B6801349C4200D100242000FDF7E4FE1A4B18601A4B34601B682B40082BE7D104E00221174A13688B4313600222164B1A60F8BD2C02002091020020C600002043
:404E8000C00E074084020020CC0F0740AC0200208C020020A402002040030740B402002008030740C00F07409C0200208C0F0740A8020020B002002098020020400207408C
:404EC00008020740880F0740800F0740C74BF7B51B68002B00D09847C54B1B68DB0702D50022C44B1A602021C34CC44823780B4257D00578AB0701D4002370E0C04A00238C
:404F000011680192CA0506D5C026BE49B6000B8833430B8001230121019A16680E4209D09027B84EBF0033883B433380072D10D10B0001E0072D0AD1B34909688A0706D5AB
:404F4000A026B049B6000B8833430B8001E0002BD2D0012302262178AA4F1940711A8C4662463988114389B23980072D16D108212578294010D0A4490D68354202D000233D
:404F80000B60B2E2A1490968CA0526D4019A12681A4200D0A9E220E0217020E0002222701DE0012203781342A6D0984B1D680223FF331D42A0D02578954B154206D00221FC
:404FC0001A788A431A701A78073104E01A788A431A70902219780A431A70002323702278920600D4DEE002780220024200D1BAE21021834A15680D420CD00122854B19603E
:4050000023781340C31A7F48028813439BB203802170A8E225782D071AD51568054209D07C4B7849186088200B88800003430B8001230DE02078C00702D52521217007E025
:405040002420207074480068002801D07348016004212078084200D1A0E001202578054243D008256E4A16682E4223D06D4A6E4916686E4A12680F68F71B0F263240BA1ACB
:40508000AA4207D8002A06D1694A6A4B16683340136003002A00684E684D08683768013A38182F68FFB20770086801300860002AF3D117E012680A4214D05B4A5E4E156801
:4050C000366875195D4E3668F6B22E701568013515601568534A1268954202D24A4A116000E003005649574A4EE011680222114220D0484B54491A60544D0E680D320B68E5
:40510000296832408A1A8421DB0B0340D31A2B602A684F4B89001A603A4A13880B43802113804C4B49021A680A431A6019684A4A0A4031E0494A1168C90627D5484A424E1E
:40514000126835490192414A0F203768150007400800082F0FD01768BC460F68BC450AD21068019D281800783E4DC0B22860106801301060E8E729680268914202D14021BF
:40518000264A11603849394A116007E01268520604D52E4B1A682E4B1A60C1E1002B00D0BEE1E0E12378DB0600D49BE1012103780B4200D1D7E10222144B1868104200D1B7
:4051C0007CE02B48026020480D32056800682A40C00B014027488A1806780D49264DB2424CD204260A7832430A704CE0400200208C0E0640880E06403D0300203C0300207E
:405200000C0F064044030020680006404C0F06407C030020000F064040030020880F0640CC0F0640480300204C0300200803064060000640FFFEFFFF60030020400306402A
:40524000ED0F0000C00F064008020640500300205C03002004020640FFFFFEFF8C0F06405403002040020640F3070000800F0640400F06406C0300208403002007782E6805
:40528000D21BB21A2A602D68B74A15600022B74D2A6080250270B6486D0202682A4302600568B44A2A40026002200A7882430A700A78013802430A70102222700822196830
:4052C000114241D0AC490A60AC4A1168890423D540210F268C46AA4F3968314218D0A9490978002907D039683140012903D16046196801420CD1A449A44D08682D682818AD
:40530000A34D2D68EDB20570086801300860E3E71068A049014011609F4AA04915681000AA0603D540250A782A430A7000259C4A15609C4A026020200A7882430A700A78EE
:40534000103802430A7020701A68C0231A4251D00122954B894D1A602B68874E934F1B0503D4884B1B78002B10D0914B1868002801D0804701E0864B1B688A4A864B1A603F
:40538000012803D13760FEF7C1F933E0894B834A1968102319420BD074490B60724B1968854B1960022113780B43137012231CE0824B75491B6809685B1A0421072B0DD97C
:4053C000082B05D1A0212B6809020B432B6007E080212B6889010B4308212B60704B1960202113780B431370112301222370744B37601A600821734B1A680A4225D06F4BD6
:40540000614A1B681068083B1B1A01208B4201D900200B005D4C5E4D002B0AD011682668013B71182E68F6B20E70116801311160F2E7002807D08020504900020A68024394
:405440000A60574A136008221FE01B685B071ED54F4B4D491A68594B08681B6898420CD20120574BD2B2186048480B680068C3181A700B6801330B6006E0FEF747F940218F
:40548000464A13780B4313700422434B1A604E4B1B68DB0667D50F21FF254C4B4C481C68454A03680B40082B18D04A4B17681B68494E9F4208D21368E3181B78DBB2336024
:4054C000136801331360ECE73560444E33780A2BE7D833780133DBB23370E2E71022404B1A6040E0FEF724FA3DE08021204B49021A680A431A6019681E4A0A401A601F4ADC
:40550000384B11680B401360374A384B1A600023234A1360154A1360103323700F3B5EE5164A304B11680B40136000231C4A13600E4A13602E4B1B789B070CD501232278D5
:405540002C4913400A22D31A0A8813439BB20B806023237007E0174B1A681823920600D4083B254A1360F7BD74030020880F064004020640FFFFFEFF400F06406000064033
:405580000803064038030020680300207803002040030640FF5FFFFFC00F06407C030020C80F0640ED0F0000800E0640FF0F00004802002064000640840300207003002037
:4055C0006C000640CC0F06408C0F0640800300200802064064030020400206406C030020800F0640FFFEFFFF17030000000F064058030020440300206800064002B471462A
:4056000049084900095C49008E4402BC7047C046002243088B4274D303098B425FD3030A8B4244D3030B8B4228D3030C8B420DD3FF22090212BA030C8B4202D312120902EE
:4056400065D0030B8B4219D300E0090AC30B8B4201D3CB03C01A5241830B8B4201D38B03C01A5241430B8B4201D34B03C01A5241030B8B4201D30B03C01A5241C30A8B42F9
:4056800001D3CB02C01A5241830A8B4201D38B02C01A5241430A8B4201D34B02C01A5241030A8B4201D30B02C01A5241CDD2C3098B4201D3CB01C01A524183098B4201D372
:4056C0008B01C01A524143098B4201D34B01C01A524103098B4201D30B01C01A5241C3088B4201D3CB00C01A524183088B4201D38B00C01A524143088B4201D34B00C01A0C
:405700005241411A00D20146524110467047FFE701B5002000F0F0F802BDC0460029F7D076E7704703460B437FD4002243088B4274D303098B425FD3030A8B4244D3030BF0
:405740008B4228D3030C8B420DD3FF22090212BA030C8B4202D31212090265D0030B8B4219D300E0090AC30B8B4201D3CB03C01A5241830B8B4201D38B03C01A5241430BBC
:405780008B4201D34B03C01A5241030B8B4201D30B03C01A5241C30A8B4201D3CB02C01A5241830A8B4201D38B02C01A5241430A8B4201D34B02C01A5241030A8B4201D33D
:4057C0000B02C01A5241CDD2C3098B4201D3CB01C01A524183098B4201D38B01C01A524143098B4201D34B01C01A524103098B4201D30B01C01A5241C3088B4201D3CB00C1
:40580000C01A524183088B4201D38B00C01A524143088B4201D34B00C01A5241411A00D201465241104670475DE0CA0F00D04942031000D34042534000229C4603098B42D6
:405840002DD3030A8B4212D3FC22890112BA030A8B420CD3890192118B4208D3890192118B4204D389013AD0921100E08909C3098B4201D3CB01C01A524183098B4201D31A
:405880008B01C01A524143098B4201D34B01C01A524103098B4201D30B01C01A5241C3088B4201D3CB00C01A524183088B4201D38B00C01A5241D9D243088B4201D34B0079
:4058C000C01A5241411A00D20146634652415B10104601D34042002B00D54942704763465B1000D3404201B5002000F005F802BD0029F8D016E770477047C0460E4B70B567
:4059000000251E000D4CE41AA410A54204D0AB00F35898470135F8E700F0C2FA084B00251E00084CE41AA410A54204D0AB00F35898470135F8E770BDAC5E0000AC5E000046
:40594000AC5E0000B45E000003008218934202D019700133FAE77047000000000100000000000000000000000000000058000000FE000000000000000000000000006400B7
:4059800000000000000000000300000008000000020000000200000010000000000000000100000000000000000000000000000000000000000000000A0000004F0200204C
:4059C0000A00000065020020000000000000000000000000000000000100000004000000000000000000000000000000000000000000000000000000000000000000000011
:405A000000000000000000000000000000000000080000000800000001000000010000000A0000004F0200200A000000650200200100000004000000000000000000000043
:405A40000000000000000000010000000000000000000000000000004A000000FE000000000000000000000000006400000000000200000008000000080000000000000067
:405A80004A000000FE00000000000000000000000000900100000000710238019C0066004D00260019000C001D000E00020002000D0A537061726B46756E20536572696143
:405AC0006C20436F6E74726F6C6C6564204D6F746F7220447269766572202853434D44290D0A00456E7465722027482720666F722068656C702E0D0A3E000D0A6F766600CF
:405B00000D0A436F6D6D616E64733A0D0A00204D3C6D6F746F72206E756D3E3C462F523E3C6C6576656C3E202D2D204472697665206D6F746F720D0A00204D3C6D6F746F0C
:405B400072206E756D3E3C492F433E202D2D20496E76657274206D6F746F720D0A0020573C6F66667365743E3C646174613E202D2D205772697465207265676973746572A0
:405B80000D0A0020523C6F66667365743E202D2D20526561642072656769737465720D0A002045202D2D20456E61626C650D0A002044202D2D2044697361626C650D0A0083
:405BC00020423C647269766572206E756D3E202D2D204272696467650D0A00204E3C647269766572206E756D3E202D2D20556E2D6272696467650D0A0020553C302D373E5A
:405C0000202D2D2053657420626175640D0A0045783A204D3146373520666F72206D6F746F72203120666F7277617264203735250D0A00323430300D0A00343830300D0ADE
:405C400000393630300D0A0031343430300D0A0031393230300D0A0033383430300D0A0035373630300D0A003131353230300D0A000D0A696E76000D0A666D74000D0A6E65
:405C80006F6D000051300F4024310F4025320F402C330F4004400F4005410F4004420F4010430F4002600F40050C070309050B0A0E020F0210011202130816011B012B042F
:405CC0003003350F3E013F1041044401460B480449FF4AFF4BFF4CEF4D554E304F48501C580459045A045B045D025F0161086308650867086850690A6A406BA86CC06E4098
:405D00006FA893029A029F01A103AE01B103B401B602C105C404C9FFCAFFCBFFCCEFCD55CE32CF48D01CD804D904DA04DB04DC13DD02DF01E108E308E508E708E850E90A3F
:405D4000EA40EBA8ECC0EE40EFA8008001400AA00B200E08178018801E081F80230427C02A202F803212378139544180424046404C01518052405C405F2A69146A806F0150
:405D8000C001C24CC480CA84CC95CE0ED089D210D6F04105440145ED460C470F481749FF4AFF4BFF4CEA4D554EB24F48501C52015A045B045D225F0161086308650867082B
:405DC0006850690A6A406BA86CC06E406FA881019D01B501B920BF10D904DF0122102C802D0133403A01458046014C014F05548056085D01660867056C016E40821084404D
:405E0000862087108A029402964097209B409E20A180A440A602A840AB02AF28B304B440CC08CE01D010D210D680D870E20AE404E602E841038204100780C0F0A810AF8278
:405E4000B780E850EC8052025F20D401D6041B081D2023042720670283018520870C8B20AA02B320C609C809D601E604EC04100E1101030405060708090A0B0C0E0F10119E
:405E800012131415161718191B1C1D1E1F2021222325262728292A2B2E2F303132333435F8B5C046F8BC08BC9E467047D102000059240000F8B5C046F8BC08BC9E4670479F
:405EC000A9020000D85E0000C000002018000000D00200000000000000000000E8FDFFFF0000E02EC05D00001800000000366E01000000000000000000000000000000002C
:405F00000000000000000000000000000000000000000000000000000000000000000000000000000000000000000000000000000000000000000000000000000000000061
:405F40000000000000000000000000000000000000000000000000000000000000000000000000000000000000000000000000000000000000000000000000000000000021
:405F800000000000000000000000000000000000000000000000000000000000000000000000000000000000000000000000000000000000000000000000000000000000E1
:405FC00000000000000000000000000000000000000000000000000000000000000000000000000000000000000000000000000000000000000000000000000000000000A1
:0200000490303A
:0200000092ED7F
:0200000490402A
:200000000000000000000000000000000000000000000000000000000000000000000000E0
:0200000490501A
:0C000000000204B61193110104D5A48085
:0200000490600A
:0100000001FE
:00000001FF