:400000000010002011000000192A0000192A000080B500AF02F004FD80B500AF2A4B2A4A12688021C9020A431A60182005F05CFB254B254A126825490A401A60244B254ABB
:400040001A60254B30221A60244B20221A60244B22221A60234B10221A60234B11221A60224B10221A60224B30221A60214B23221A60214B21221A60204B802212061A60F8
:40008000114B00221A601E4B802212061A601D4B1D4A1A601D4B1C4A1A601D4B1D4A1A601D4B1E4A1A601E4B1E4A1A601E4B1F4A1A601F4B1F4A1A601F4B204A1A60204BEA
:4000C00000221A60BD4680BD00010B40FFFFFBFF04010B4006000080080202400C0202402002024024020240280202402C02024034020240380202403C02024008010B40FE
:40010000000002404000024001000080800002400400024017000080440002405F09008008000240F301008048000240DF0100C000010240CF07008040010240CF0700C0D3
:400140000C020B4080B582B000AF72B6FB1D00221A7023E0FB1D1A78131C5B009B185B00424A9B183B603B681A78597809020A43997809040A43DB781B061343191C3B689A
:400180001A795B791B0213439BB2081C191C02F0C5FCFB1D1A78FB1D01321A70FB1D1B78012BD7D9324A334B101C191C02F0C6FC314B324A1A60324B324A1A60324B334A18
:4001C0001A60334BFF221A60324B992212041A60314B992212041A60304BC82212041A602F4B992212041A602E4B802292041A602D4A2D4B1B78DBB202210B43DBB2137068
:400200002A4A2A4B1B78DBB23C218B43DBB214210B43DBB21370244A234B1B78DBB216210B43DBB21370224B8F221A60214B224A1A60224BF0221A60214B0A221A60214B78
:40024000214A1A60214B10221A60214B214A1A60214B09221A60214B03221A60FFF7DCFE02F0ACFCBD4602B080BDC046C8760000D4760000F8760000000001400000FFFF7D
:4002800008000140303000000C00014000EE03001000014000500F4020500F4028500F4030500F4038500F4000700F4001700F400000044008000440929424001800044086
:4002C0000002044008020440B66D000000030440080304409E6D0000080404401804044010B5064C2378002B07D1054B002B02D0044800E000BF0123237010BDE80000207D
:4003000000000000C073000008B5084B002B03D00748084900E000BF07480368002B00D108BD064B002BFBD09847F9E700000000C0730000EC000020C80000200000000095
:40034000B0B582B000AF021C3960FB1D1A70FB1D1B787F2B2FD92D4CFB1D1B781A1C0F231340083B9908294AFB1D1B78181C0F230340083B9B0806339B00D3185B68FA1D78
:400380001278101C03220240D200101CFF228240D2431A403B689B01FF200340F81D0078051C03202840C00083401A438B1D9B00E3185A6026E0164CFB1D1B785BB29B085B
:4003C0001349FA1D127852B29208C03292005258F91D0978081C03210140C900081CFF218140C94311403A689201FF200240F81D0078051C03202840C00082400A43C03358
:400400009B001A51BD4602B0B0BDC04600ED00E000E100E080B582B000AF78607B68013B0C4A934201D9012310E00B4B7A68013A5A6001235B42181C0321FFF781FF064BCD
:4004400000229A60044B07221A600023181CBD4602B080BDFFFFFF0010E000E080B500AF00F082F8154B1B78DBB2002B01D101F01DF9124B1B78DBB2022B06D90F4B1B7810
:40048000DBB20E2B01D801F097FD0C4B1B78DBB2022B04D101F01EFE00F090FF01E000F089FE064B1B78DBB2022B02D102F074F901E001F0DDFE02F083F9D3E7CC0000202A
:4004C00080B500AF022004F039FF0E2000F082FA2020802100F00CFA2120802100F008FA0F4B1B78DBB2022B0DD100F043FC0D4B181C03F063FF03F099FE03F089FE0A20C2
:4005000005F080FA62B60720082100F02BFE04F0ABFE002004F0C0FE04F094FEBD4680BDCC000020D520000080B500AF0B4B1B78002B06D0094B00221A70094B00221A80D7
:400540000AE0074B1B88074A934205D0044B1B8801339AB2024B1A80BD4680BD04010020CE000020FFFF000080B500AF00F068F8032000F0A3F9031C1A1C2A4B1A7004F0CC
:4005800043FD04F0A9FF274B1B78DBB20020191C00F0E8FD002004F06BFF234B181C05F087FA204B1B78DBB2022B04D0FA239B00181C05F07DFA012003F090FE04F03CFD5A
:4005C00004F080FD194B0F20191C05F07DF9184B181CFFF71FFF174B181C04F0BBFE04F0EBFD04F02FFE322005F062FA03F002FD802003F02DFD03F0A7FD802003F0D2FD21
:40060000084B1B78DBB2181C01F0F2FD03F000FE62B60120012100F0A5FD00F00DF8BD4680BDC046CC000020DC05000029050000C05D0000C104000080B500AFBD4680BD19
:4006400080B582B000AF00237B6000237B600CE02F4A7B68D31800221A702E4A7B68D31800221A707B6801337B607B687F2BEFDD284B02221A70274B02225A70254B022237
:400680009A70244B0222DA70224B02229A72214B0222DA721F4B04229A761E4B7C22022199541C4B0422DA751A4B04221A76194B04225A76174B502204219954154B512219
:4006C00004219954134B522204219954114B5322042199540F4B5422042199540D4B5522042199540B4B762204219954094B702204219954074B712204219954054B742289
:400700000421995400F008F8BD4602B080BDC046080100208801002080B500AF204B9B229A761F4B5C22DA761D4B74229B2199541B4B75225C2199540020022100F0D8F888
:400740000120A92100F0D4F804F06CFC031C1A1C0F235340DBB20320191C00F0C9F87620002100F0C5F87A20012100F0C1F879204A2100F0BDF80A20002100F0B9F8022046
:40078000102100F0B5F81E20072100F0B1F871200A2100F0ADF800F005F8BD4680BDC0460801002080B500AF2020802100F0A0F82120802100F09CF82220802100F098F8A9
:4007C0002320802100F094F82420802100F090F82520802100F08CF82620802100F088F82720802100F084F82820802100F080F82920802100F07CF82A20802100F078F84D
:400800002B20802100F074F82C20802100F070F82D20802100F06CF82E20802100F068F82F20802100F064F83020802100F060F83120802100F05CF83220802100F058F8CC
:400840003320802100F054F83420802100F050F83520802100F04CF83620802100F048F83720802100F044F83820802100F040F83920802100F03CF83A20802100F038F84C
:400880003B20802100F034F83C20802100F030F83D20802100F02CF83E20802100F028F83F20802100F024F84020802100F020F84120802100F01CF8BD4680BD80B582B028
:4008C00000AF021CFB1D1A70FB1D1B785BB2002B04DA0F2000F07EF8002303E0FB1D1B78024AD35C181CBD4602B080BD0801002080B582B000AF021CFB1D1A70BB1D0A1CE4
:400900001A70FB1D1B785BB2002B03DA0F2000F061F858E0FB1D1B782C4AD35C1A1C042313401DD02A4BDB7E5C2B03D0284B9B7E9B2B11D1FB1D1B78254AB91D0978D154DE
:40094000FB1D1B78FA1D127820498A5C01210A43D1B21E4AD15436E0102000F03BF832E0FB1D1B78194AD35C1A1C0223134019D0174B9B7E9B2B11D1FB1D1B78144AB91D0C
:400980000978D154FB1D1B78FA1D12780F498A5C01210A43D1B20D4AD15414E0102000F019F810E0FB1D1B78094AB91D0978D154FB1D1B78FA1D127804498A5C01210A431C
:4009C000D1B2024AD154BD4602B080BD880100200801002080B582B000AF021CFB1D1A70FB1D1B785BB2002B03DA0F20FFF7F2FF5EE0FB1D1B78304AD35C1A1C0423134051
:400A00001FD02E4BDB7E5C2B03D02C4B9B7E9B2B13D1FB1D1B78294AD25C0132D1B2274AD154FB1D1B78FA1D127823498A5C01210A43D1B2204AD1543AE01020FFF7CAFFA1
:400A400036E0FB1D1B781C4AD35C1A1C022313401BD01A4B9B7E9B2B13D1FB1D1B78174AD25C0132D1B2154AD154FB1D1B78FA1D127811498A5C01210A43D1B20E4AD154F0
:400A800016E01020FFF7A6FF12E0FB1D1B780B4AD25C0132D1B2094AD154FB1D1B78FA1D127805498A5C01210A43D1B2024AD154BD4602B080BDC04688010020080100207A
:400AC00080B582B000AF021CFB1D1A70FB1D1B785BB2002B04DA0F20FFF77CFF002309E0FB1D1B78054AD35C1A1C012313405A1E9341DBB2181CBD4602B080BD8801002035
:400B000080B582B000AF021CFB1D1A70FB1D1B785BB2002B03DA0F20FFF75CFF0AE0FB1D1B78FA1D127805498A5C01218A43D1B2024AD154BD4602B080BDC04688010020B1
:400B400080B584B000AF021CFB1D1A70FB1D1B782F2B07D9FB1D1B78392B03D8FB1D1B78303BFB60FB1D1B78602B07D9FB1D1B78662B03D8FB1D1B78573BFB60FB1D1B78ED
:400B8000402B07D9FB1D1B78462B03D8FB1D1B78373BFB60FB68181CBD4604B080BDC04680B584B000AF78602423FB607B68002B05DB7B68092B02DC7B683033FB607B68F1
:400BC000092B05DD7B680F2B02DC7B683733FB60FB68DBB2181CBD4604B080BD80B584B000AF021CFB1D1A700023FB60FB1D1B782F2B05D9FB1D1B78392B01D80123FB6084
:400C0000FB1D1B78602B05D9FB1D1B78662B01D80123FB60FB1D1B78402B05D9FB1D1B78462B01D80123FB60FB68181CBD4604B080BDC04680B584B000AF78600023FB60A5
:400C40007B68022B21D101F0F5FF03F065F90E20002103F06DF903F051F9264B181C0A2102F064FD244B181C0A2102F085FD234B181C02F099F9224B1B78DBB25533181C83
:400C800002F03AFD01F0C4FF2FE07B68012B12D101F0D0FF03F040F91A4B1B88181C002103F046F903F02AF9174B181C02F0F6FE01F0AEFF19E07B68032B14D101F0BAFF12
:400CC00003F02AF90120002103F032F903F016F90E4B181C02F08EFD01F09AFF0B2004F091FE62B601E00123FB60FB68181CBD4604B080BD640200204C020020C47300000C
:400D0000CC000020D0000020E87300005874000080B582B000AF00237B6003F03BFB04F0ADF80E20002104F0B5F804F099F80E4B181C0A2104F016F80C4B181C0A2104F001
:400D400037F80B4B181C03F07BFC4A2002F0D4FC02204A21FFF7CCFD03F00AFB7B68181CBD4602B080BDC0467002002058020020AC74000080B582B000AF00237B6003F09E
:400D800009FB04F07BF80E20002104F083F804F067F8124B181C0A2103F0E4FF104B181C0A2104F005F80F4B181C03F049FC04F029F804F031F803F07BFF03F099FF022068
:400DC000FFF77CFD031C181C03F0B2FF03F0D0FA7B68181CBD4602B080BDC0467002002058020020AC74000080B582B000AF00237B6003F0CFFA04F041F80E20002104F055
:400E000049F804F02DF80A4B181C0A2103F0AAFF084B181C0A2103F0CBFF074B181C03F00FFC03F0A5FA7B68181CBD4602B080BD7002002058020020D074000080B588B0BD
:400E400000AF021CFB1D1A70BB1D0A1C1A700C23FB18BA1D12781A701F23FB1800221A70FB1D1A780C23FB18101C191C0122002303F022FD1C23FB1800221A8006E01C2375
:400E8000FB181A881C23FB1801321A8003F076FE021C0223134005D11C23FB181B881E4A9342ECD91C23FB181B881B4A934204D90C20FFF78FFDFFF797FFFB1D1A78102371
:400EC000FB18101C191C0122002303F083FDC04603F054FE021C01231340F9D003F04EFE021C80239B00134009D103F009FE031E05D01F23FB181022BA1812781A7003F004
:400F00005FFE03F007FE03F01FFE1F23FB181B78181CBD4608B080BD4FC3000090B587B000AF041C081C111CFB1D221C1A70BB1D021C1A707B1D0A1C1A700823FB18BA1DCD
:400F400012781A700823FB187A1D12785A701523FB1800221A70FB1D1A780823FB18101C191C0222002303F0A7FC1623FB1800221A8006E01623FB181A881623FB180132BC
:400F80001A8003F0FBFD021C0223134005D11623FB181B88114A9342ECD91623FB181B880E4A934204D90C20FFF714FDFFF71CFF03F006FE021C80239B00134002D00C207B
:400FC000FFF708FD03F0A6FD03F0BEFD1523FB181B78181CBD4607B090BDC0464FC30000B0B586B000AF051C0C1C101C191CFB1D2A1C1A70BB1D221C1A707B1D021C1A70C5
:401000003B1D0A1C1A700823FB18BA1D12781A700823FB187A1D12785A700823FB183A1D12789A701523FB1800221A70FB1D1A780823FB18101C191C0322002303F03CFC7A
:40104000031CDBB20D20191CFFF752FC1623FB1800221A8006E01623FB181A881623FB1801321A8003F08AFD021C0223134005D11623FB181B88114A9342ECD91623FB1813
:401080001B880E4A934204D90C20FFF7A3FCFFF7ABFE03F095FD021C80239B00134002D00C20FFF797FC03F035FD03F04DFD1523FB181B78181CBD4606B0B0BD4FC30000BC
:4010C00080B584B000AF021CFB1D1A70144B1B78FA1D12789A4200D11FE0114BFA1D12781A700023BB600023FB6009E0BB689B00BB60BB6801221343BB60FB680133FB602B
:40110000FB1D1A78FB689A42F0DC03F009FFBB68181C03F069FF03F0D9FEBD4604B080BD0802002080B582B000AF07237B6010E00B4A7B68D3181B78002B07D0084A7B686D
:40114000D3181B78181CFFF7BBFF05E07B68013B7B607B68002BEBDABD4602B080BDC0460C02002080B582B000AF021CFB1D1A70BB1D0A1C1A70FB1D1B78044AB91D097887
:40118000D154FFF7CFFFBD4602B080BD0C02002080B582B000AF021CFB1D1A70FB1D1B78034A0021D154FFF7BDFFBD4602B080BD0C020020B0B582B000AFFB1C7A4A127895
:4011C0001A70794B1B78042B00D9E4E09A00774BD3181B689F46764B50221A70012004F023F90A200021FFF783FB79204A21FFF77FFB7A200221FFF77BFB7C200021FFF796
:4012000077FB7E200121FFF773FBFB1C01221A70C2E00A20FFF7DEFB79204A21FFF768FB7A200221FFF764FB7C200021FFF760FB7E200121FFF75CFBFB1C02221A70ABE0DF
:401240007C20FFF73BFB031E4A2B25D1584B1B787B20191CFFF74CFB7D200121FFF748FB534B1B780B20191CFFF742FB0A200021FFF73EFB4E4B1B785E2B09D84C4B1B78E1
:401280000133DAB24A4B1A70FB1C01221A7006E0FB1C04221A7002E0FB1C01221A700A20FFF70CFB031EC82B06D91A200021FFF71FFBFB1C04221A70052004F0F9FB6BE094
:4012C0007120FFF7FBFA031E0CD07120FFF7F6FA031C9AB2374B1B889A4210D8FB1C04221A7059E07220FFF7E9FA031E07D072200021FFF7FDFAFB1C04221A704CE04BE089
:401300002020FFF7DBFA031C181C02F0A1FE2120FFF7D4FA031C181C02F044FF50237B6025E07B68DCB27B68DBB2503BDBB2DB18DBB22233DBB2181CFFF7C0FA031C1D1C47
:401340007B68DBB2503BDBB2DB18DBB22333DBB2181CFFF7B3FA031C201C20212A1CFFF73FFE642004F0C8FB7B6801337B600B20FFF7A4FA031C1A1E7B689A42D1DA0E4B90
:4013800001221A70C0460B4B1B88002BFBD1FB1C03221A7000E0C046034BFA1C12781A70BD4602B0B0BDC04616020020F474000014020020CE0000200401002080B582B0EE
:4013C00000AFFB1D2A4A12781A70294B1B78012B0CD002DC002B05D043E0022B14D0032B24D03EE0FB1D01221A703AE004F066F8031E012B07D102204A21FFF779FAFB1DD9
:4014000002221A702DE02CE00220FFF757FA031E4A2B0AD0012004F007F81A200021FFF767FAFB1D03221A701BE01AE004F046F8031E07D1FA239B00181C04F039FB04F057
:4014400027FB0DE02020FFF739FA031C181C02F0FFFD2120FFF732FA031C181C02F0A2FEC046034BFA1D12781A70BD4602B080BD1502002090B585B000AF3A4B1B78002B57
:4014800002D0394B01221A60384B1B68002B2FD0374B1B68042213402AD021E0354B1B687B60354B1B680133FB60344B1A68FB689A4201D10023FB60314B1B68FA689A4253
:4014C00003D1304B20221A7008E0FA687B68101C191C02F013F8284BFA681A6000F06AF8294B1B680F221340D8D1284B04221A60274B1B68002B31D0264B1B6802221340E2
:401500002CD022E0244B1A68244B1B689A4215D0224B1B680133BB60214B1A68BB689A4201D10023BB601F4CBB68181C02F06CF8031C2360194BBA681A6006E01A4B1A4A64
:40154000126802218A431A6005E0184B1B680F221340082BD6D1164B02221A60BD4605B090BDC04695020020C00E074088020020CC0F074040030740B002002090020020AE
:40158000A8020020B802002008030740C00F0740A00200208C0F0740AC020020B40200209C02002040020740880F074008020740800F074090B583B000AF01F067FE031EED
:4015C0006AD012E0364B1B781C1C01F029FE031CDAB2344B1A55324B1B78082B05D8304B1B780133DAB22E4B1A7001F04FFE031EE8D12C4B1B78DBB25BB2002B1DDA294B7F
:401600001B787F221340DAB2274B1A7001F016FF254B1B78181CFFF751F9031C1A1CFB1D1A70FB1D1B78DBB2181C01F0A9FE01F05FFE1B4B00221A7024E0194B1B78012B9C
:401640001FD0022B14D1174B1B787F221340DAB2154B1A70144B1A78124B5B78101C191CFFF746F901F044FE0D4B00221A7009E00620FFF7AFF901F03BFE094B00221A7045
:4016800000E0C04602F02CFC031C1A1C01235340DBB2181C02F0FEFBBD4603B090BDC046180200207C02002019020020B0B586B000AF02F09BFB021C0923FB181A70092371
:4016C000FB181B78002B2AD0012003F09DFED54B1B78122B0ED8D34B1B78191CD24B0922BA1812785A54CF4B1B780133DAB2CD4B1A700BE0CB4B1B78013BCB4A09217918B3
:401700000978D154C94B181C02F090FB0923FB181B78181C01F034FE002003F075FEC14B1B78013BC04AD35C0A2B01D000F036FC012003F069FE1723FB1800221A701623A6
:40174000FB1802221A701523FB1802221A701223FB1800221A801023FB1800221A800E23FB1800221A800C23FB1800221A800823FB1800221A70FB1D00221A70BB1D022201
:401780001A70A94B1B780A3B4D2B01D900F0E2FB9A00A74BD3181B689F461623FB181B78A14AD35C462B14D01623FB181B789E4AD35C522B0DD01623FB181B789A4AD35C45
:4017C000532B06D01623FB181A781623FB1801321A701623FB181B78934AD35C462B13D01623FB181B78904AD35C522B0CD01623FB181B788C4AD35C532B05D01723FB18AA
:4018000001221A7000F0ACFB1623FB181B78013B854AD35C181CFFF793F9021C1223FB181A801623FB181B78032B16D11623FB181B78023B7C4AD35C181CFFF781F9021CCE
:40184000131C9B009B185B009AB21223FB181B88D3189AB21223FB181A801523FB181622BA18127801321A7006E01523FB181A781523FB1801321A701523FB181B780133C7
:40188000694AD35C0A2B10D01523FB181B780133654AD35C0D2B08D01523FB181A781623FB181B7803339A42DFD10A23FB1801221A8026E01523FB181B785B4AD35C181CCA
:4018C000FFF73EF9021C0A23FB181B8853439AB20E23FB181B88D3189AB20E23FB181A801523FB181A781523FB18013A1A700A23FA180A23FB181B88191C8900CB18DB1839
:4019000013801623FA181523FB1812781B789A42D0D11623FB181B78434AD35C532B00D0CCE00B20FEF7CAFF031C4E3BDBB2BA1DDB1813701223FB1800229A5EBB1D1B7817
:401940009A4204DB1723FB1802221A7008E31223FB1800229B5E002B0CD11720FEF7AEFF031C1A1C01235340DBB21720191CFEF7BFFFEAE01223FB1800229B5E012B0CD194
:401980001820FEF79BFF031C1A1C01235340DBB21820191CFEF7ACFFD7E01223FB1800229B5E092B1BDCFC1D5020FEF787FF031C23701223FB1800229B5E023B01229A4022
:4019C000131CDAB2FB1D1B785340DAB2FB1D1A70FB1D1B785020191CFEF78AFFB5E01223FB1800229B5E112B24DCFC1D5020FEF765FF031C23701223FB1800229B5E0A3B82
:401A000001229A40131CDAB2FB1D1B785340DAB2FB1D1A70FB1D1B785020191CFEF768FF93E0C0461C0200202002002008750000707500001223FB1800229B5E192B1BDCDD
:401A4000FC1D5020FEF73AFF031C23701223FB1800229B5E123B01229A40131CDAB2FB1D1B785340DAB2FB1D1A70FB1D1B785020191CFEF73DFF68E01223FB1800229B5EFD
:401A8000212B62DCFC1D5020FEF718FF031C23701223FB1800229B5E1A3B01229A40131CDAB2FB1D1B785340DAB2FB1D1A70FB1D1B785020191CFEF71BFF51E21623FB189B
:401AC0001B78DE4AD35C462B04D11023FB1801221A8004E01023FB18012252421A800B20FEF7ECFE031C4E3BDBB2BA1DDB1813701223FB1800229A5EBB1D1B789A421FDA0A
:401B00001223FB181B88DBB22033DDB21023FB181B88DCB20E23FB1800229A5E131CDB019B1A181C642105F02BFB031CDBB26343DBB2803BDBB2281C191CFEF7D9FE04E092
:401B40001723FB1802221A700AE209E2BB4B5B78181CFFF743F8031E4BD0B84B9B78181CFFF73CF8031E44D0B44BDB78181CFFF735F8031E3DD0B14B1B79181CFFF72EF8B9
:401B8000031E36D0AD4B5B78181CFEF7D9FF031C1B01DCB2A94B9B78181CFEF7D1FF031CDBB2221C1343DAB20823FB181A70A34BDB78181CFEF7C4FF031C1B01DCB29F4BF5
:401BC0001B79181CFEF7BCFF031CDBB2221C1343DAB2FB1D1A700823FB181A78FB1D1B78101C191CFEF784FE954B181C02F01EF9B6E11723FB1801221A70B1E18F4B5B78BF
:401C0000181CFEF7EBFF031E3FD08C4B9B78181CFEF7E4FF031E38D0884B5B78181CFEF78FFF031C1B01DCB2844B9B78181CFEF787FF031CDBB2221C1343DAB20823FB1881
:401C40001A70FC1D0823FB181B78181CFEF736FE031C2370FB1D1B781B09DBB2181CFEF79FFF031C181C01F08BFBFB1D1B780F221340181CFEF794FF031C181C01F080FB4A
:401C80006F4B181C02F0D2F86AE11723FB1801221A7065E1694B5B78181CFEF79FFF031E00D18DE0654B5B78313B072B00D985E09A00644BD3181B689F46634B181C02F073
:401CC000B5F8C8235B00181C03F0F2FE5F4B604A1A800120FEF7AEFF71E05E4B181C02F0A5F8C8235B00181C03F0E2FE574B9C2252001A800120FEF79DFF60E0564B181C0C
:401D000002F094F8C8235B00181C03F0D1FE4F4B9C221A800120FEF78DFF50E04F4B181C02F084F8C8235B00181C03F0C1FE474B66221A800120FEF77DFF40E0484B181C90
:401D400002F074F8C8235B00181C03F0B1FE3F4B4D221A800120FEF76DFF30E0414B181C02F064F8C8235B00181C03F0A1FE374B26221A800120FEF75DFF20E03A4B181C1B
:401D800002F054F8C8235B00181C03F091FE2F4B19221A800120FEF74DFF10E0334B181C02F044F8C8235B00181C03F081FE274B0C221A800120FEF73DFF00E0C046CFE05B
:401DC0001723FB1801221A70CAE07020FEF776FD031C1A1C01235340DBB27020191CFEF787FDBDE0154B5B78181CFEF7F7FE031E3ED0124B9B78181CFEF7F0FE031E37D0A4
:401E00000E4B9B78181CFEF79BFE021C0C23FB181A800A4B5B78181CFEF792FE021C131C9B009B185B009AB20C23FB181B88D3189AB20C23FB181A8030E0C0462002002007
:401E400010750000A876000014750000D0000020710200001C750000247500002C750000347500003C750000447500004C7500004C4B5B78181CFEF7B1FE031E09D0494B64
:401E80005B78181CFEF75CFE021C0C23FB181A8004E01723FB1801221A7061E00C23FB1800229B5E002B0BD11920FEF707FD031C1A1C01235340DBB21920191CFEF718FD0C
:401EC0000C23FB1800229B5E082B1BDCFC1D5420FEF7F4FC031C23700C23FB1800229B5E013B01229A40131CDAB2FB1D1B785340DAB2FB1D1A70FB1D1B785420191CFEF731
:401F0000F7FC26E00C23FB1800229B5E102B1BDCFC1D5520FEF7D2FC031C23700C23FB1800229B5E093B01229A40131CDAB2FB1D1B785340DAB2FB1D1A70FB1D1B78552031
:401F4000191CFEF7D5FC04E01723FB1801221A7006E005E0144B181C01F068FF00E0C0461723FB181B78012B03D1104B181C01F05DFF1723FB181B78022B03D10C4B181CC4
:401F800001F054FF0B4B00221A700A4B1B781A1C044B00219954002003F036FABD4606B0B0BDC046200200205875000060750000687500001C02002080B582B000AF03F0E9
:401FC00093F8002003F0A8F803F07CF801F04AFB021C102313404CD0012003F015FA7620FEF76CFC031E09D003F03EF9002003F053F903F027F90720FFF7CAF801F0DCFBF3
:40200000031E022B0CD1304B1A78304B1A702F4B1A782D4B5B78101C191CFEF769FC11E001F0CAFB031E012B04D1274B1A78274B1A7007E001F0C0FB031E022B02D90620A6
:40204000FEF7C8FC01F038FB021C8023134002D00520FEF7BFFC01F0C3FB1C4B1B78181CFEF72CFC031C1A1C194B1A70002003F0CBF901F0F7FA021C012313400AD001F072
:40208000A5FB01F0F9FA021C0823134002D00420FEF7A0FC03F04EF8031C7B607B68FF2B01D9FF237B600920FEF708FC031C1A1E7B689A4205D27B68DBB20920191CFEF790
:4020C00017FCBD4602B080BD4C0200201A0200206402002080B500AF02F0E0FD021C1023134058D002F0DAFD021C2023134052D1012003F089F97620FEF7E0FB031E09D096
:4021000003F0B2F8002003F0C7F803F09BF80720FFF73EF802F06CFE031E022B1BD0032B02D0012B24D028E02E4B1A782E4B1A702D4B1A782B4B5B78101C191CFEF7D8FB10
:40214000294B1B780133DAB2264B9B78101C191CFEF7CEFB11E0234B1A78234B1A70224B1A78204B5B78101C191CFEF7C1FB04E01C4B1A781C4B1A70C04602F0B9FD021C23
:402180008023134002D00820FEF724FC02F044FE002003F039F9144B1B78181CFEF78EFB031C1A1C114B1A7002F078FD021C0123134014D001F094FE031C1A1C0123534053
:4021C000DBB2181C01F066FE02F01CFE02F070FD021C0823134002D00720FEF7FBFBBD4680BDC046580200201B0200207002002080B582B000AF021CFB1D1A70FB1D1B78CE
:40220000002B02D10120FEF715FDFB1D1B78012B09D10320FEF70EFD01F06AF8114B0B20191C03F075FBFB1D1B78022B02D1FEF76FFD01E0FEF7D8FD0B4B181C02F0BEF849
:40224000FB1D1B78022B0AD9FB1D1B780E2B06D80220FEF7EFFC054B181C00F0FFFCBD4602B080BD75140000D5200000B91F0000B0B58EB000AF7D20FEF722FC031E19D01C
:402280007920FEF71BFB031C1D1C7A20FEF716FB031C1C1C7B20FEF711FB031C281C211C1A1CFEF73BFE7D200021FEF721FB7D20FEF726FC7E20FEF703FC031E18D07920D4
:4022C000FEF7FCFA031C1C1C7A20FEF7F7FA031C201C191CFEF7B2FD031C7C20191CFEF707FB7E200021FEF703FB7E20FEF708FC0B20FEF7E3FA031C1A1C3623FB181A8060
:40230000BB1D00221A703523FB1800221A703623FB1800229B5E002B0AD03623FB1800229B5E4F3B9BB2DB189AB23623FB181A805020FEF7C5FB031E3DD000233B6334E0AB
:402340003623FB1800229A5E3B6B9A422ADD3B6B002B00DA01335B10DAB2BB1D50321A703B6B0122134004D03523FB1818221A7003E03523FB1817221A705020FEF79EFA67
:40238000031C1A1C3B6B1A41131CDBB201221340DAB2BB1D19783523FB181B78081C191CFEF7BCFD3B6B01333B633B6B072BC7DD5020FEF7A5FB5120FEF782FB031E3FD08F
:4023C0000023FB6236E03623FB1800229B5E083B1A1EFB6A9A422ADDFB6A002B00DA01335B10DAB2BB1D54321A70FB6A0122134004D03523FB1818221A7003E03523FB1854
:4024000017221A705120FEF759FA031C1A1CFB6A1A41131CDBB201221340DAB2BB1D19783523FB181B78081C191CFEF777FDFB6A0133FB62FB6A072BC5DD5120FEF760FB34
:402440005220FEF73DFB031E3FD00023BB6236E03623FB1800229B5E103B1A1EBB6A9A422ADDBB6A002B00DA01335B10DAB2BB1D58321A70BB6A0122134004D03523FB180A
:4024800018221A7003E03523FB1817221A705220FEF714FA031C1A1CBB6A1A41131CDBB201221340DAB2BB1D19783523FB181B78081C191CFEF732FDBB6A0133BB62BB6AC0
:4024C000072BC5DD5220FEF71BFB5320FEF7F8FA031E3FD000237B6236E03623FB1800229B5E183B1A1E7B6A9A422ADD7B6A002B00DA01335B10DAB2BB1D5C321A707B6A27
:402500000122134004D03523FB1818221A7003E03523FB1817221A705320FEF7CFF9031C1A1C7B6A1A41131CDBB201221340DAB2BB1D19783523FB181B78081C191CFEF7D9
:40254000EDFC7B6A01337B627B6A072BC5DD5320FEF7D6FA5420FEF7B3FA031E3FD01F23FB1850221A700B20FEF7A8F9031E4F2B32D90B20FEF7A2F9031E572B2CD8002308
:402580003B621CE05420FEF799F9031C1A1C3B6A1A41131CDBB201221340DAB21F23FB181B78181C1921FEF7B9FC1F23FB181A781F23FB1801321A703B6A01333B623B6A60
:4025C000082B09DC0B20FEF779F9031C1A1C1F23FB181B789342D5D95420FEF791FA5520FEF76EFA031E3FD01723FB1858221A700B20FEF763F9031E4F2B32D90B20FEF7E8
:402600005DF9031E5F2B2CD80023BB611CE05520FEF754F9031C1A1CBB691A41131CDBB201221340DAB21723FB181B78181C1921FEF774FC1723FB181A781723FB180132FF
:402640001A70BB690133BB61BB69082B09DC0B20FEF734F9031C1A1C1723FB181B789342D5D95520FEF74CFA7420FEF729FA031E47D07420FEF722F9031C1A20191CFEF760
:4026800037F90F23FB1850221A700B20FEF716F9031E4F2B32D90B20FEF710F9031E5F2B2CD800233B611CE07420FEF707F9031C1A1C3B691A41131CDBB201221340DAB2A6
:4026C0000F23FB181B78181C1A21FEF727FC0F23FB181A780F23FB1801321A703B6901333B613B69082B09DC0B20FEF7E7F8031C1A1C0F23FB181B789342D5D97420FEF73A
:40270000FFF97520FEF7DCF9031E42D07520FEF7D5F8031C1B20191CFEF7EAF8FB1D50221A700B20FEF7CAF8031E4F2B2ED90B20FEF7C4F8031E5F2B28D80023BB6019E0FC
:402740007520FEF7BBF8031C1A1CBB681A41131CDBB201221340DAB2FB1D1B78181C1B21FEF7DCFBFB1D1A78FB1D01321A70BB680133BB60BB68082B08DC0B20FEF79EF8C3
:40278000031C1A1CFB1D1B789342D9D97520FEF7B7F9BD460EB0B0BD80B500AF0220FEF78FF9031E09D00220FEF788F8031C181C02F0BEFA0220FEF7A3F9BD4680BDC04620
:4027C00090B585B000AF1720FEF77AF9031E31D01920FEF773F8031E012B0DD11720FEF76DF8031E012B03D1072002F083FE1EE0042002F07FFE1AE01720FEF75FF8031EB0
:40280000012B0AD102F086FE031C1A1C01231343DBB2181C02F06EFE09E002F07BFE031C1A1C06231340DBB2181C02F063FE1720FEF766F91820FEF743F9031E23D01920B3
:40284000FEF73CF8031E012B1AD01820FEF736F8031E012B0AD102F05DFE031C1A1C02231343DBB2181C02F045FE09E002F052FE031C1A1C05231340DBB2181C02F03AFE7C
:402880001820FEF73DF91920FEF71AF9031E2FD01920FEF713F8031E012B0DD11720FEF70DF8031E012B03D1072002F023FE1CE0042002F01FFE18E01720FDF7FFFF031CF5
:4028C000DBB21A1C01231340DCB21820FDF7F6FF031C1A1C012313405B00DBB2221C1343DBB2DBB2181C02F005FE1920FEF708F97620FEF7E5F8031E41D0FC1D7620FDF7F8
:40290000DDFF031C23700320FDF7D8FF031E022B1FD00B20FDF7D2FF031E4F2B19D95023FB600EE0FB68DAB2FB1D1B78101C76211A1CFEF7F3FA642003F0DEF8FB6801334C
:40294000FB600B20FDF7BAFF031C1A1EFB689A42E8DAFB1D1B78002B0CD002F085FC002002F09AFCFB1D1B78181C02F0B1FC02F069FC01E002F078FC7620FEF7C1F870200F
:40298000FEF79EF8031E44D07020FDF797FF031C1A1C01231340DBB2181C01F053FC7020FDF78CFF031C1A1C01231340DBB2181C01F06EFC0320FDF781FF031E022B25D09F
:4029C0000B20FDF77BFF031E4F2B1FD95023BB6014E0BB68DCB27020FDF770FF031C1A1C01231340DBB2201C70211A1CFEF796FA642003F081F8BB680133BB600B20FDF723
:402A00005DFF031C1A1EBB689A42E2DA7020FEF777F8BD4605B090BD80B500AFFEE7C04680B586B000AF224B7B61224B3B61204B7B6135E03B691B68FB603B695B68BB6094
:402A40003B699B683B6000237B600CE0FB681A68BB681A60BB680433BB60FB680433FB607B6804337B607A683B689A42EED13B69DB683B6000237B6008E0BB6800221A6002
:402A8000BB680433BB607B6804337B607A683B689A42F2D13B6910333B617B69013B7B617B69002BC6D104F05DFCFDF7D7FCFEE7010000000079000080B582B000AF0023B7
:402AC0007B600FE07B68032B04D8104B7A689200D35800E00E4B0F4A796889008B507B6801337B607B682F2BECD9FDF72BFB0A4B00221A608023DB058022D20512680121B7
:402B00000A431A60BD4602B080BDC04600000000192A000000000020C000002080B582B000AF786039607A683B68101C00211A1C04F03EFCBD4602B080BDC04680B586B073
:402B400000AF7860396000233B6100237B612FE07B699B007A68D3181B68BB600F23FB18BA681A70BB68FF229343BB6018E03B695B003A68D3181B781A1CBB68D318191CC8
:402B80003B695B003A68D3185B780B703B6901333B610F23FB181A780F23FB18013A1A700F23FB181B78002BE1D17B6901337B617B69082BCCD9BD4606B080BD80B500AFA7
:402BC000BD4680BD80B500AF044B1B78FF2B02D1034B00221A70BD4680BDC046D20000203402002080B500AF074B1B78FF2B08D0064B064A1268802109060A431A6000F0FD
:402C000039F8BD4680BDC046D20000200000074080B500AF064B1B78002B04D1FFF7D2FF034B01221A70FFF7DDFFBD4680BDC0463402002080B500AF0B2002F0F7FE064BA5
:402C4000054A1268520052081A600B2002F002FF00F01EF8BD4680BD0000074080B582B000AF7860024B7A681A60BD4602B080BD3802002080B500AF044B1B78002B02D014
:402C80000B2002F0BFFEBD4680BDC0469602002080B500AF0C4B1B78012B02D100F0AEFA10E0094B1B78082B02D101F0D9F809E0054B1B78042B05D1044B044A1268044903
:402CC0000A401A60BD4680BDD200002048000740FFDFFFFF80B594B000AFF860B9607A600023FB640023BB640EE02C23FB18BA6C92000021D1501023FB18BA6C92000021D3
:402D0000D150BB6C0133BB64BB6C062BEDD9FB68012B02D0FB68082B10D12C23FB180E221A602C23FB180E225A601023FB1804221A601023FB1804225A6073E0FB68022BBB
:402D400048D12C23FB180F221A602C23FB180F225A602C23FB180F229A60BB68002B18D11023FB1801221A601023FB1806225A601023FB1801229A602C23FB180F22DA60E1
:402D80001023FB180122DA60FB6C02221343FB6448E01023FB1806221A601023FB1801225A601023FB1806229A602C23FB180F22DA601023FB180622DA60FB6C0822134339
:402DC000FB64FB6C01221343FB64FB6C04221343FB6427E0BB68012B08D12C23FB1809225A601023FB1804225A601BE07B680122134007D02C23FB1809221A601023FB18DF
:402E000001221A607B68022213400BD02C23FB1809225A601023FB1806225A60FB6C02221343FB64474A474B1B68474919402C23FB181B681B040B4313601023FB181B68F4
:402E4000DBB2181C02F088FBFB6C0122134006D03E4B3E4A126810210A431A6005E03B4B3A4A126810218A431A60364A354B1B68374919402C23FB185B681B050B431360A3
:402E80001023FB185B68DBB2181C02F07DFBFB6C0222134006D02D4B2C4A126820210A431A6005E0294B294A126820218A431A60244A244B1B68274919402C23FB189B685E
:402EC0001B060B4313601023FB189B68DBB2181C02F02AFBFB6C0422134006D01B4B1B4A126840210A431A6005E0184B174A126840218A431A60134A124B1B681B01190966
:402F00002C23FB18DB681B070B4313601023FB18DB68DBB2181C02F04FFBFB6C0822134006D00A4B094A126880210A431A6005E0064B064A126880218A431A60BD4614B090
:402F400080BDC04600000140FFFFF0FF18000440FFFF0FFFFFFFFFF080B500AF0E4B1A6880235B00134012D00C4B1A688023DB0113400CD1084B084A126809490A401A60DC
:402F8000054B054A1268802149000A431A60054B02221A60BD4680BD0000074060000740FFFEFFFF6C00074080B584B000AF78607B68002B03D1002002F060FDDAE0012061
:402FC00000210022FFF786FE6C4B01221A707B68DB69DAB26A4B1A706A4B01221A707B681B68DAB2684B1A707B689B69DAB2674B1A70674B664A12680C210A431A607B68CB
:403000001B68012B05D07B685A8CC8235B009A4203D97B681B68012B08D15D4B5C4A12685C490A431A600023FB6007E0584B584A126859490A401A600123FB607B68DB6976
:40304000BB60564A7B689B69002B02D08023590200E00021BB68002B02D080235B0000E000230B4313604E4A7B689B68013B0F2119407B685B68013B1B01FF2003401943D1
:403080007B681B689B070B43802109010B431360444BFA68002A01D0434A00E0434A1A60434B00221A60434A374B1B7801210B40DBB2002B0CD07B681B695B00FF211940E6
:4030C0007B685B691804FF231B0403400B4300E000231360384B354A1A60384B00221A600B2002F0A3FC0B20022102F037FC344B0B20191C02F00CFC324B00221A60324B8C
:4031000000221A60314B00221A60314B00221A60304B1D4A127801210A40D2B2002A02D04C22FF3200E000221A602B4B164A127802210A40D2B2002A02D01422FF3200E0BC
:4031400000221A60254B10221A70254B00221A70244B00221A60244B00221A60234B00221A70234B00221A80224B00221A60224B00221A60BD4604B080BDC046D200002013
:40318000950200209602002097020020990200207000074000000202FFFFFDFD000007406000074000030740070300800701008004030740100307400002074004020740F1
:4031C000555B0000C80E0740880E0740C80F0740880F0740480F0740080F0740A4020020E8020020F4020020F0020020F8020020D0020020BC020020D802002080B500AF6D
:40320000054B00221A600B2002F024FC034B10221A70BD4680BDC046880F0740A402002080B582B000AF00237B60134B1B68002B1AD0124B1A68124B1B689A4217D0104B8A
:403240001B6801333B600F4B1A683B689A4201D100233B603B68181C00F07CF9031C7B60074B3A681A6002E0074B1B687B607B68181CBD4602B080BD88020020B002002056
:40328000A8020020900200204003074080B582B000AF124B1B68002B16D0114B1B683B60104B1B683A689A4205D30E4B1B683A68D31A7B600DE00C4B1A680A4B1B68D21A83
:4032C0003B68D3187B6004E0084B1B680F2213407B607B68181CBD4602B080BD88020020B0020020A8020020900200200803074080B582B000AF194B1B68002B1ED000F0F3
:40330000DDF8031C7B60164B154A1268802149020A431A60124B124A126812490A401A60114B1A68114B1A60114B00221A70114B114A1A60114B7A681A600CE0084B084A49
:403340001268802149020A431A60054B044A126804490A401A60BD4602B080BD8802002004030740FFFFFEFFA8020020B0020020B8020020C00F0740ED0F0000C80F07406C
:4033800080B584B000AF7860244B1B68002B37D0234B1B680133FB60224B1A68FB689A4201D10023FB60C0461F4B1B68FA689A42FAD01B4B1A681C4B1B689A4209D11B4B12
:4033C0001B680F221340082B03D0194B7A681A6020E0184B02221A60FA687B68101C191C00F0E6F80E4BFA681A600223BB60124B1B68BA681343BB600F4BBA681A6009E0C4
:40340000C0460A4B1B680F221340082BF9D0084B7A681A60BD4604B080BDC046A0020020AC0200209C020020B40200200802074040020740800F0740880F074080B582B06C
:4034400000AF184B1B68002B1CD000F047F8031C7B60154B144A1268802149020A431A60114B114A126811490A401A60104B1A68104B1A607B68022293437B600E4B7A6898
:403480001A600CE0084B084A1268802149020A431A60054B044A126804490A401A60BD4602B080BDA002002004020740FFFFFEFFB4020020AC020020880F074080B582B0C6
:4034C00000AF054B1B687B60034B00221A607B68181CBD4602B080BDC80F074080B582B000AF054B1B687B60034B00221A607B68181CBD4602B080BD880F074080B582B062
:4035000000AF78603960114B1B78082B07D1104B1A687B68D3183A68D2B21A7013E00C4B1A687B685B00D3183A68D2B21A70084B1A687B685B000133D3183A6892B2120A3D
:4035400092B2D2B21A70BD4602B080BD9A0200208802002080B584B000AF7860124B1B78082B07D1114B1A687B68D3181B78DBB2FB6013E00D4B1A687B685B00D3181B7806
:40358000DBB2FB60094B1A687B685B000133D3181B78DBB21B02FA681343FB60FB68181CBD4604B080BDC0469A0200208802002080B582B000AF78603960114B1B78082B00
:4035C00007D1104B1A687B68D3183A68D2B21A7013E00C4B1A687B685B00D3183A68D2B21A70084B1A687B685B000133D3183A6892B2120A92B2D2B21A70BD4602B080BD7B
:4036000098020020A002002080B584B000AF7860124B1B78082B07D1114B1A687B68D3181B78DBB2FB6013E00D4B1A687B685B00D3181B78DBB2FB60094B1A687B685B0077
:403640000133D3181B78DBB21B02FA681343FB60FB68181CBD4604B080BDC04698020020A002002080B500AF024B1B78DBB2181CBD4680BDE802002080B582B000AF0B20BE
:4036800002F0D4F90B4B1B78DBB21A1C0F2313407B60084B1B78DBB20D229343DAB2054B1A700B2002F0AEF97B68181CBD4602B080BDC046E802002080B582B000AF0B2043
:4036C00002F0B4F90B4B1B78DBB21A1CF02313407B60084B1B78DBB22F221340DAB2054B1A700B2002F08EF97B68181CBD4602B080BDC046E802002080B584B000AF786014
:40370000094B1B68FB60FB68FF229343FB607B685B00FF221340FA681343FB60024BFA681A60BD4604B080BD1003074080B582B000AF786039607B68002B11D00B2002F0D3
:4037400075F9094B7A681A60084B3A681A60084B00221A60074B00221A600B2002F052F9BD4602B080BDC046DC020020FC020020F4020020E402002080B582B000AF786059
:4037800039607B68002B0ED00B2002F04FF9074B7A681A60064B3A681A60064B00221A600B2002F02FF9BD4602B080BDE0020020EC020020F002002080B500AF024B1B680A
:4037C000181CBD4680BDC046F002002080B500AF024B00221A60BD4680BDC046F402002080B500AF024B00221A60BD4680BDC046F002002080B582B000AF78607B68002BF3
:4038000003D1002002F03AF9EDE07B681B680220191C0022FFF75EFA744B02221A707B689B69DAB2724B1A707B68DB6BDAB2714B1A707B681A6B704B1A607B68DB69DAB203
:403840006E4B1A707B68DB6ADBB21A1C6C4B1A607B689A6B6B4B1A607B681B6ADAB26A4B1A707B685B6BDBB21A1C684B1A60684A7B68DB68013B0F2119407B689B69002B56
:4038800002D080235B0000E000230B43802149040B4313605F4A7B689B6A002B01D0012100E000217B685B681020034001D0022300E0002319437B689B689B000C2003402A
:4038C00019437B685B69002B01D0102300E0002319437B685B681806C0239B04034019437B681B68002B02D080231B0600E000230B431360484A7B68DB69013B0F211940E9
:403900007B685B6A002B02D080235B0000E0002319437B681B69002B02D080239B0000E000230B43802109060B4313603B4A7B685B6C07210B401360394A7B681B6A013BE5
:403940000F2119407B685B6A002B02D080235B0000E000230B43802109060B431360314A7B68DB6C07210B4013600B2002F05EF80B20022101F0F2FF2B4B0B20191C01F064
:40398000C7FF2A4B00221A60294B00221A60294A7B68196C80231B010B401360264A7B68996C80239B000B401360244A7B681B6C23490B401360234A7B689B6C22490B4065
:4039C0001360002000F04CF8204B00221A60204B00221A601F4B00221A701F4B00221A601E4B00221A60BD4602B080BDD20000209502002096020020880200209A02002018
:403A000090020020A0020020980200209C020020000007402000074000030740040307400002074004020740C5650000880E0740C80E0740480F0740080F0740C80F074080
:403A4000FFF7FFFF880F0740FFFDFFFFB0020020A8020020B8020020AC020020B402002080B584B000AF78600A4B1B68FB60FB68094A1340FB607B689A06C0231B05134000
:403A8000FA681343FB60034BFA681A60BD4604B080BDC04620000740FFFFFFF380B584B000AF78607B68002B03D1002001F0E6FF5AE17B685B68FB607B681A68FB68042088
:403AC000111C1A1CFFF706F9A94B04221A707B681B6BDAB2A74B1A707B685B6DDAB2A64B1A707B689A6BA54B1A607B689B68DAB2A34B1A707B685B6BDBB21A1CA14B1A6099
:403B00007B681A6CA04B1A607B689B68DAB29F4B1A707B68DB6BDBB21A1C9D4B1A607B681B68022B37D19B4A7B689B69002B2FD07B685B69102B29D07B685B69202B23D032
:403B40007B685B69302B1DD07B685B69602B17D07B685B69C02B11D07B685969C0239B00994209D07B685969C023DB00994201D106230EE000230CE005230AE0042308E09C
:403B8000032306E0022304E0012302E0002300E01023136006E07F4A7B685B69013B0F210B4013607B4A7B4B19687B689B6C002B01D0794B01E080239B040B431360774A66
:403BC0007B681B681906C0239B040B401360744A7B681B69013B072119407B685B6A002B01D0402300E0002319437B685B6C002B02D08023DB0000E0002319437B689B6A4C
:403C0000002B02D080235B0000E0002319437B68DB6A002B02D080239B0000E000230B4313607B68DB68022B0BD05D4A5C4B19687B68DB68002B01D0302300E020230B4320
:403C40001360584A7B689B68013B0F2119407B68DB69002B02D080239B0000E0002319437B685B680120034002D080231B0600E000230B4313604C4A7B68DB6D07210B402B
:403C800013604A4A7B68DB6CFF2119407B681B6D1804FF231B0403400B431360444A7B681B69013B072119407B681B6A002B02D080235B0000E000230B4313607B68DB688F
:403CC000022B0BD03A4A3A4B19687B68DB68002B01D0302300E020230B431360354A7B689B68013B0F2119407B685B680220034002D080231B0600E000230B4313602E4AD2
:403D00007B685B6E07210B4013600B2001F08EFE0B20022101F022FE284B0B20191C01F0F7FD274B00221A60264B00221A60264B00221A60254B00221A60254A7B689B6DA4
:403D40001360244A7B681B6E1360234B00221A60224B00221A60224B00221A70214B00221A60214B00221A60BD4604B080BDC046D200002095020020960200208802002042
:403D80009A02002090020020A0020020980200209C02002000000740000001024000074048000740000307400403074010030740440007400002074004020740C5650000BE
:403DC000880E0740C80E0740480F0740080F0740C80F0740880F0740B0020020A8020020B8020020AC020020B402002080B582B000AF00237B60FFF749FA031E03D0FFF780
:403E00000FFA031C7B60084B1A68D8239B00134005D000237B60044BD82292001A607B68181CBD4602B080BDC00F074080B584B000AF78600023FB6009E07A68FB68D318F3
:403E40001B78181CFFF79CFAFB680133FB607A68FB68D3181B78002BEFD1BD4604B080BD80B500AF084B00221A600B2001F0F2FD064B1B78002B01D0022200E00022044B28
:403E80001A70BD4680BDC046880F0740940200200C03002080B584B000AF021CFB1D1A700E4B1B68DAB20F23FB1810218A431A70FB1D1B781B01DBB210221340D9B20F23CC
:403EC000FB180F22BA1812780A431A70034B0F22BA1812781A60BD4604B080BD0003044080B500AF044B1B68102213401B09DBB2181CBD4680BDC0460403044080B500AF26
:403F0000044B044A1268802109060A431A60BD4680BDC0464000024080B500AF034B034A1268520052081A60BD4680BD4000024080B584B000AF021CBB1D1A807B1D0A1CE4
:403F40001A70084B1B681B0C1B04FB60BB1D1A88FB681343BB60034BBA681A60BD4604B080BDC0464000024080B500AF104B8022D2041A600E4B0E4A12681A60002000F0A6
:403F80004BF80B4B0A4A12681A600A4B0C221A60002000F087F8084B31221A6080235B00181C00F047F8802000F052F8BD4680BDC0010540E4010540E801054090B583B023
:403FC00000AFFC1D01F086FB031C2370084B084A126808210A431A60FB1D1B78181C01F07DFB0820182100F041F8BD4603B090BD0000054080B500AF064B1B78002B04D1E4
:40400000FFF7B2FF034B01221A70FFF7D7FFBD4680BDC0463C02002080B582B000AF7860034B7A681204120C1A60BD4602B080BDC801054080B582B000AF7860034B7A6884
:404040001204120C1A60BD4602B080BDD401054080B582B000AF7860034B7A681204120C1A60BD4602B080BDCC01054090B585B000AF786039600F23FC1801F02BFB031CA0
:404080002370074B3A68796891400A1C1A600F23FB181B78181C01F021FBBD4605B090BD0800054080B582B000AF7860024B7A681A60BD4602B080BDF801054080B500AF11
:4040C000104B8022D2041A600E4B0E4A12681A60002000F04BF80B4B0A4A12681A600A4B0C221A60002000F087F8084B31221A6080235B00181C00F047F8802000F052F8F6
:40410000BD4680BD40010540640105406801054090B583B000AFFC1D01F0DCFA031C2370084B084A126802210A431A60FB1D1B78181C01F0D3FA0220182100F041F8BD467B
:4041400003B090BD0000054080B500AF064B1B78002B04D1FFF7B2FF034B01221A70FFF7D7FFBD4680BDC0463D02002080B582B000AF7860034B7A681204120C1A60BD4650
:4041800002B080BD4801054080B582B000AF7860034B7A681204120C1A60BD4602B080BD5401054080B582B000AF7860034B7A681204120C1A60BD4602B080BD4C010540DA
:4041C00090B585B000AF786039600F23FC1801F081FA031C2370074B3A68796891400A1C1A600F23FB181B78181C01F077FABD4605B090BD0800054080B582B000AF7860CD
:40420000024B7A681A60BD4602B080BD7801054080B500AF044B044A1268802109060A431A60BD4680BDC0460000024080B500AF034B034A1268520052081A60BD4680BDCC
:404240000000024080B584B000AF021CFB1D1A700E4B1B68DAB20F23FB1804218A431A70FB1D1B789B00DBB204221340D9B20F23FB180F22BA1812780A431A70034B0F22FC
:40428000BA1812781A60BD4604B080BD0002044080B584B000AF021CFB1D1A700E4B1B68DAB20F23FB1810218A431A70FB1D1B781B01DBB210221340D9B20F23FB180F2207
:4042C000BA1812780A431A70034B0F22BA1812781A60BD4604B080BD0002044080B584B000AF021CFB1D1A700D4B1B68DAB20F23FB1801218A431A70FB1D1B7801221340DE
:40430000D9B20F23FB180F22BA1812780A431A70034B0F22BA1812781A60BD4604B080BD0002044080B500AF044B1B78FF2B02D1034B00221A70BD4680BDC046D3000020C4
:404340004002002080B500AF074B1B78FF2B08D0064B064A1268802109060A431A6000F039F8BD4680BDC046D30000200000064080B500AF064B1B78002B04D1FFF7D2FF4F
:40438000034B01221A70FFF7DDFFBD4680BDC0464002002080B500AF0A2001F047FB064B054A1268520052081A600A2001F052FB00F01EF8BD4680BD0000064080B582B0AC
:4043C00000AF7860024B7A681A60BD4602B080BD4402002080B500AF044B1B78002B02D00A2001F00FFBBD4680BDC0463D03002080B500AF0C4B1B78012B02D100F04AFAA6
:4044000010E0094B1B78082B02D100F00FFD09E0054B1B78042B05D1044B044A126804490A401A60BD4680BDD300002048000640FFDFFFFF80B594B000AFF860B9607A609A
:404440000023FB640023BB640EE02C23FB18BA6C92000021D1501023FB18BA6C92000021D150BB6C0133BB64BB6C062BEDD9FB68012B02D0FB68082B10D12C23FB180E22EC
:404480001A602C23FB180E225A601023FB1804221A601023FB1804225A605BE0FB68022B30D12C23FB180F221A602C23FB180F225A602C23FB180F229A60BB68002B10D148
:4044C0001023FB1801221A601023FB1806225A601023FB1801229A60FB6C02221343FB6438E01023FB1806221A601023FB1801225A601023FB1806229A60FB6C01221343A3
:40450000FB6427E0BB68012B08D12C23FB1809225A601023FB1804225A601BE07B680122134007D02C23FB1809221A601023FB1801221A607B68022213400BD02C23FB18D4
:4045400009225A601023FB1806225A60FB6C02221343FB64244A244B1B680F218B43191C2C23FB181B680B4313601023FB181B68DBB2181C01F05CF8FB6C0122134006D033
:404580001A4B1A4A126801210A431A6005E0174B164A126801218A431A60134A124B1B68F0218B43191C2C23FB185B681B010B4313601023FB185B68DBB2181C01F05CF8E3
:4045C000FB6C0222134006D0084B084A126802210A431A6005E0054B044A126802218A431A60BD4614B080BD100001401804044080B500AF0E4B1A6880235B00134012D0F0
:404600000C4B1A688023DB0113400CD1084B084A126809490A401A60054B054A1268802149000A431A60054B02221A60BD4680BD0000064060000640FFFEFFFF6C0006402C
:4046400080B584B000AF78607B68002B03D1002001F014FADAE0012000210022FFF7EAFE6C4B01221A707B68DB69DAB26A4B1A706A4B01221A707B681B68DAB2684B1A7066
:404680007B689B69DAB2674B1A70674B664A12680C210A431A607B681B68012B05D07B685A8CC8235B009A4203D97B681B68012B08D15D4B5C4A12685C490A431A6000238B
:4046C000FB6007E0584B584A126859490A401A600123FB607B68DB69BB60564A7B689B69002B02D08023590200E00021BB68002B02D080235B0000E000230B4313604E4A95
:404700007B689B68013B0F2119407B685B68013B1B01FF20034019437B681B689B070B43802109010B431360444BFA68002A01D0434A00E0434A1A60434B00221A60434A39
:40474000374B1B7801210B40DBB2002B0CD07B681B695B00FF2119407B685B691804FF231B0403400B4300E000231360384B354A1A60384B00221A600A2001F057F90A20AD
:40478000022101F0EBF8344B0A20191C01F0C0F8324B00221A60324B00221A60314B00221A60314B00221A60304B1D4A127801210A40D2B2002A02D04C22FF3200E0002220
:4047C0001A602B4B164A127802210A40D2B2002A02D01422FF3200E000221A60254B10221A70254B00221A70244B00221A60244B00221A60234B00221A70234B00221A806D
:40480000224B00221A60224B00221A60BD4604B080BDC046D30000202C0300203D030020400300203C0300207000064000000202FFFFFDFD00000640600006400003064021
:4048400007030080070100800403064010030640000206400402064011670000C80E0640880E0640C80F0640880F0640480F0640080F0640410300208003002078030020E6
:404880006C0300207003002048030020500300206003002080B500AF054B00221A600A2001F0D8F8034B10221A70BD4680BDC046880F06404103002080B586B000AFF860B7
:4048C000B9607A603B6004237B61BB68002B20D0324B1B78DBB2102B0CD10A2001F0A6F82F4B1B680122134001D0082300E000237B610EE0294B1B78DBB2602B09D1294BD2
:404900001B889BB2082293439AB2264B1A8000237B617B69002B38D1204B28221A70224B00221A60214B00221A60214B7A681A60204BBA681A603B68DAB21F4B1A70FB6874
:404940005B00FF221340FB60164B1B889BB2022293439AB2134B1A80184B194A1A60194B40221A603B680122134005D000F040F9154BFA681A6005E0134BFA681A60134B2E
:4049800002221A60124B40221A600A2001F03AF87B69181CBD4606B080BDC046410300206400064048030020540300206003002044030020580300205C030020000F064096
:4049C00017030000800F06404002064068000640880F064080B586B000AFF860B9607A603B6004237B61BB68002B20D0374B1B78DBB2102B0CD10A2001F018F8344B1B688D
:404A00000122134001D0082300E000237B610EE02E4B1B78DBB2602B09D12E4B1B889BB2082293439AB22B4B1A8000237B617B69002B43D1254B29221A70274B00221A60FF
:404A4000264B7A681A60264BBA681A603B68DAB2244B1A70FB685B00FF22134001221343FB601C4B1B889BB2012293439AB2194B1A801D4B1D4A1A603B680122134005D05D
:404A800000F0B6F81A4BFA681A6005E0184BFA681A60184B02221A60104B1B68072B03D8154B04221A6009E0144B144A1268802149000A431A60104B08221A600A2000F01D
:404AC000A1FF7B69181CBD4606B080BD410300206400064048030020500300204C030020640300205C030020000F0640170300004002064068000640C80F0640600006403F
:404B000080B500AF024B1B68181CBD4680BDC0465003002080B500AF0A2000F087FF084B00221A60074B1B889BB2012293439AB2044B1A800A2000F065FFBD4680BDC0462D
:404B4000500300204803002080B500AF0A2000F06DFF084B00221A60074B1B889BB2022293439AB2044B1A800A2000F04BFFBD4680BDC046600300204803002080B582B08E
:404B800000AF0A2000F052FF0B4B1B889BB27B600A4B1B78DBB220221340DBB2002B03D07B68042213437B600A2000F02BFF7B68181CBD4602B080BD4803002041030020CF
:404BC00080B582B000AF0A2000F030FF074B1B889BB27B60054B00221A800A2000F012FF7B68181CBD4602B080BDC0464803002080B582B000AF254B1B687B60C04600F0AE
:404C000051FD031EFBD0002000F0EEFC204B204A12680F218A431A601E4B1E4A1268520052081A607B682022134010D0002000F0DBFC0A2000F060FF012000F0D5FCC04669
:404C400000F00CFD031EFBD00A2000F055FF002000F0CAFC0A2000F04FFF0F4B01221A600C4B0C4A1268802109060A431A60084B074A12680F218A430E210A431A600120DC
:404C800000F0B2FCBD4602B080BDC0466400064010000140000006406800064080B500AF024B1B78DBB2181CBD4680BD8003002080B582B000AF0A2000F0B8FE0B4B1B7838
:404CC000DBB21A1C0F2313407B60084B1B78DBB20D229343DAB2054B1A700A2000F092FE7B68181CBD4602B080BDC0468003002080B582B000AF0A2000F098FE0B4B1B78A8
:404D0000DBB21A1CF02313407B60084B1B78DBB22F221340DAB2054B1A700A2000F072FE7B68181CBD4602B080BDC0468003002080B584B000AF7860094B1B68FB60FB6831
:404D4000FF229343FB607B685B00FF221340FA681343FB60024BFA681A60BD4604B080BD1003064080B582B000AF786039607B68002B11D00A2000F059FE094B7A681A600F
:404D8000084B3A681A60084B00221A60074B00221A600A2000F036FEBD4602B080BDC0468403002068030020780300208803002080B582B000AF786039607B68002B0ED076
:404DC0000A2000F033FE074B7A681A60064B3A681A60064B00221A600A2000F013FEBD4602B080BD7C030020740300206C03002080B500AF024B1B68181CBD4680BDC04650
:404E00006C03002080B500AF024B00221A60BD4680BDC0467803002080B500AF024B00221A60BD4680BDC0466C03002080B500AF084B00221A600A2000F00CFE064B1B78B8
:404E4000002B01D0022200E00022044B1A70BD4680BDC046880F064034030020A403002080B500AF044B044A1268802109060A431A60BD4680BDC0468000024080B500AF98
:404E8000034B034A1268520052081A60BD4680BD8000024080B584B000AF021CBB1D1A807B1D0A1C1A70084B1B681B0C1B04FB60BB1D1A88FB681343BB60034BBA681A6016
:404EC000BD4604B080BDC0468000024080B500AF064B1B78002B04D100F01AF8034B01221A7000F005F8BD4680BDC0464802002080B500AF054A054B1B78DBB201210B4381
:404F0000DBB2137000F01CF8BD4680BD71000F4080B500AF042000F047F8BD4680BDC04680B500AF054A054B1B78DBB201218B43DBB2137000F01EF8BD4680BD71000F4037
:404F400090B583B000AFFC1D00F0C4FB031C2370074A074B1B78DBB210210B43DBB21370FB1D1B78181C00F0B9FBBD4603B090BD92000F4090B583B000AFFC1D00F0AAFB02
:404F8000031C2370074A074B1B78DBB210218B43DBB21370FB1D1B78181C00F09FFBBD4603B090BD92000F4080B582B000AF021CFB1D1A700B4A0B4B1B78DBB207218B4389
:404FC000DBB213700749074B1B78DAB2FB1D1B7807200340DBB21343DBB20B70BD4602B080BDC04682000F4080B582B000AF7860044A7B68101C191C00F092FDBD4602B063
:4050000080BDC04600000F4080B500AF044B044A1268802109060A431A60BD4680BDC0464001024080B500AF024B1B78DBB2181CBD4680BD61000F4080B500AF044B044AAD
:405040001268802109060A431A60BD4680BDC0460400024080B500AF094B812292041A60084B0C221A60002000F09AF8064B181C00F06CF8002000F04FF8BD4680BDC046B5
:4050800080010540A4010540FFFF000090B583B000AFFC1D00F01EFB031C2370084B084A126804210A431A60FB1D1B78181C00F015FB0420182100F057F8BD4603B090BDBE
:4050C0000000054080B500AF064B1B78002B04D1FFF7C0FF034B01221A70FFF7D7FFBD4680BDC0464902002090B583B000AFFC1D00F0F0FA031C2370064B064A126804216A
:405100008A431A60FB1D1B78181C00F0E7FABD4603B090BD0000054080B582B000AF7860034B7A681204120C1A60BD4602B080BD8801054080B500AF034B1B681B041B0CA9
:40514000181CBD4680BDC0468801054080B582B000AF7860034B7A681204120C1A60BD4602B080BD9401054090B585B000AF786039600F23FC1800F0ADFA031C2370074BD4
:405180003A68796891400A1C1A600F23FB181B78181C00F0A3FABD4605B090BD0800054080B582B000AF7860024B7A681A60BD4602B080BDB801054080B500AF044B044A08
:4051C0001268802109060A431A60BD4680BDC0464800024080B500AF0A4B00221A600A4B0C221A60022000F09DF8FA239B00181C00F060F8642000F06BF8002000F04CF816
:40520000BD4680BD000105402401054090B583B000AFFC1D00F05EFA031C2370084B084A126801210A431A60FB1D1B78181C00F055FA0120182100F059F8BD4603B090BD80
:405240000000054080B500AF064B1B78002B04D1FFF7C0FF034B01221A70FFF7D7FFBD4680BDC0464A02002090B583B000AFFC1D00F030FA031C2370064B064A12680121AA
:405280008A431A60FB1D1B78181C00F027FABD4603B090BD0000054080B582B000AF7860034B7A681204120C1A60BD4602B080BD0801054080B582B000AF7860034B7A6845
:4052C0001204120C1A60BD4602B080BD1401054080B582B000AF7860034B7A681204120C1A60BD4602B080BD0C01054090B585B000AF786039600F23FC1800F0EBF9031CD1
:405300002370074B3A68796891400A1C1A600F23FB181B78181C00F0E1F9BD4605B090BD0800054080B582B000AF7860024B7A681A60BD4602B080BD3801054080B582B0FE
:4053400000AF7860024B7A681A60BD4602B080BD3001054080B582B000AF786000F04AF87B68181C00F008F8032000F013F800F037F8BD4602B080BD80B582B000AF786051
:40538000034B80217A685A50BD4602B080BDC0460000002090B585B000AF021CFB1D1A700623FB600B23FC1800F094F9031C23700A4B0A4A1268C0218A43111CFA1D1078DF
:4053C000FA689040021C0A431A600B23FB181B78181C00F083F9BD4605B090BD10E400E080B500AF024B802252021A60BD4680BD00E100E080B500AF024B802252021A6006
:40540000BD4680BD80E100E080B582B000AF021CFB1D1A70034AFB1D1B781370BD4602B080BDC04673000F4080B584B000AF021CFB1D1A700D4B1B68DAB20F23FB1801213A
:405440008A431A70FB1D1B7801221340D9B20F23FB180F22BA1812780A431A70034B0F22BA1812781A60BD4604B080BD0003044080B584B000AF021CFB1D1A700E4B1B683C
:40548000DAB20F23FB1802218A431A70FB1D1B78DB18DBB202221340D9B20F23FB180F22BA1812780A431A70034B0F22BA1812781A60BD4604B080BD0003044080B500AF57
:4054C000044B1B68022213405B08DBB2181CBD4680BDC0460403044080B500AF044B044A1268802109060A431A60BD4680BDC0464400024080B582B000AF021CFB1D1A709A
:40550000034AFB1D1B781370BD4602B080BDC04670000F4080B500AF024B1B78DBB2181CBD4680BD70000F4080B582B000AF021CFB1D1A70064B064A126806491140FA1D0D
:40554000127892040A431A60BD4602B080BDC04608000440FFFFE3FF80B582B000AF021CFB1D1A70064B064A126806491140FA1D127812030A431A60BD4602B080BDC0461A
:4055800008000440FF8FFFFF80B582B000AF021CFB1D1A70064B064A126806491140FA1D1278D2030A431A60BD4602B080BDC04608000440FF7FFCFF80B582B000AF021C54
:4055C000FB1D1A70064B064A126806491140FA1D127852050A431A60BD4602B080BDC04608000440FFFF1FFF80B584B000AF021CFB1D1A700D4B1B68DAB20F23FB18012189
:405600008A431A70FB1D1B7801221340D9B20F23FB180F22BA1812780A431A70034B0F22BA1812781A60BD4604B080BD0004044080B582B000AF021CFB1D1A70064B064AB6
:40564000126807218A43111CFA1D12780A431A60BD4602B080BDC0460804044080B500AF044B1B68DBB201221340DBB2181CBD4680BDC0460404044080B582B000AF021C9E
:40568000FB1D1A70064B064A126838218A43111CFA1D1278D2000A431A60BD4602B080BD0804044080B500AF044B1B68022213405B08DBB2181CBD4680BDC046040404407B
:4056C0000230800804D0C0460138FDD1C046C046C0467047EFF3108072B6704780F310887047C046C046C04690B585B000AF78607B68022B00D8BBE07B68302B00D9B7E0EF
:405700005E4B1B78DBB21A1E7B689A420AD35C4A0F23FB1812781A705A4A0E23FB1812781A703FE0584B1B78DBB21A1E7B689A420AD3564A0F23FB1812781A70544A0E2353
:40574000FB1812781A702DE0524B1B78DBB21A1E7B689A420AD3504A0F23FB1812781A704E4A0E23FB1812781A701BE04C4B1B78DBB21A1E7B689A420AD34A4A0F23FB1822
:4057800012781A70484A0E23FB1812781A7009E0464A0F23FB1812781A70454A0E23FB1812781A707B68DA1E0C23FB1841498A5C1A700B23FC18FFF78DFF031C23700C2376
:4057C000FB181B782F2B0DD97B682A2B0AD93A4B19221A600520FFF773FF0D23FB1819221A7007E0344B1B68DAB20D23FB183F210A401A700C23FA180D23FB1812781B784C
:405800009A4208D22C4B7A68033A2A498A5C1A600520FFF755FF294B7A6825498C4662441278D2B21A60264B0F22BA1812781A60244B0E22BA1812781A60052000F05CF9BF
:405840000C23FA180D23FB1812781B789A4208D9194B7A68033A17498A5C1A600520FFF72FFF0B23FB181B78181CFFF737FF02E0002000F003F9BD4605B090BDC0F1FF0F58
:40588000C1F1FF0FC2F1FF0FC3F1FF0FC4F1FF0FC5F1FF0FC6F1FF0FC7F1FF0FC8F1FF0FC9F1FF0FCAF1FF0FCBF1FF0FCCF1FF0FCDF1FF0FAC7800002CFF0B4028FF0B40CE
:4058C0001CFF0B4020FF0B4080B584B000AF021C3960FB1D1A7080239B05FB60FB1D1B780F2B02D9002000F0C9F8FB1D1B789B00FA68D3181B68BB60FB1D1B789B00FA685F
:40590000D3183A681A60BB68181CBD4604B080BD80B584B000AF021C3960FB1D1A7080239B05FB60FB1D1B781F2B02D9002000F0A5F8FB1D1B7810339B00FA68D3181B6830
:40594000BB60FB1D1B7810339B00FA68D3183A681A60BB68181CBD4604B080BD90B587B000AF021CFB1D1A70BB1D0A1C1A70BB1D1B78032B02D9002000F080F8FB1D1B78B5
:405980001F2B02D9002000F079F8FB1D1B7803221340DB0006337B611323FC18FFF79AFE031C2370FB1D1B789B08DBB29B00144A944663441B68FB607B6903229A40131C5F
:4059C000DA43FB681340FB60BB1D1A787B699A40131CFA681343FB60FB1D1B789B08DBB29B00074A94466344FA681A601323FB181B78181CFFF772FEBD4607B090BDC04668
:405A000000E400E080B582B000AF021CFB1D1A70054BFA1D12781F210A40012191400A1C1A60BD4602B080BD00E100E080B582B000AF021CFB1D1A70054BFA1D12781F2104
:405A40000A40012191400A1C1A60BD4602B080BD80E100E080B582B000AF021CFB1D1A70054BFA1D12781F210A40012191400A1C1A60BD4602B080BD80E200E080B582B097
:405A800000AF021CFB1D1A7001BEBD4602B080BD80B500AF044B044A12681204120C03490A431A60BD4680BD0CED00E00400FA0580B582B000AF786009E00C4B1B68181C83
:405AC000FFF7FEFD7B680A4A944663447B607A6880231B029A42F0D8064B1B687A685343181CFFF7EDFDBD4602B080BDE00000200080FFFFD800002080B582B000AF021CE0
:405B0000BB1D1A80BB1D1B88044A12785343181CFFF7D6FDBD4602B080BDC046DC00002080B584B000AF786039607B68FB603B68DAB2FB681A70FB6801333A68120AD2B25D
:405B40001A70FB6802333A68120CD2B21A70BD4604B080BD80B584B000AF0023BB60CA4B1B68002B02D0C84B1B689847C74B1B680122134002D0C64B00221A60C54B1B78B4
:405B8000DBB220221340DBB2002B00D1A8E0C24B1B7802221340DBB2002B00D1DAE0BF4B1A6880235B0013400AD0BD4B1B889BB2C022920013439AB2B94B1A800123BB60B6
:405BC000B64B1B68012213400AD0B54B1B889BB29022920013439AB2B14B1A800123BB60AD4B1B78072B0FD1AE4B1B68022213400AD0AB4B1B889BB2A022920013439AB2E0
:405C0000A74B1A800123BB60BB68002B00D1A1E0A04B1B78DBB201221340DBB2002B01D0012300E002239E4A128892B213439AB29B4B1A80984B1B78072B4DD1954B1B78A5
:405C4000DBB208221340DBB2002B41D0954B1B680222134005D0934B00221A600123BB600FE0914B1A6880235B00134007D18B4B1B680122134002D00123BB6001E000238F
:405C8000BB60BB68002B1FD0884B884A1268802149020A431A60854B844A126884490A401A60844B834A126883490A401A60834B834A1A60834B00221A60834B00221A6082
:405CC000744B10221A7045E0724B00221A7041E0704B00221A703DE06E4B00221A7039E06D4B1B7801221340DBB2002B32D06E4B1A680223FF3313402CD0664B1B78DBB24B
:405D000001221340DBB2002B10D0704B1B78DBB202229343DAB26D4B1A706C4B1B78DBB209221343DAB2694B1A7010E0674B1B78DBB220229343DAB2644B1A70634B1B78B0
:405D4000DBB2702252421343DAB2604B1A70514B00221A704F4B1B78DBB220221340DBB2002B00D1A1E14C4B1B7802221340DBB2002B01D100F0DDFB484B1B681022134029
:405D800019D04E4B10221A60424B1B78DBB201221340DBB2002B01D0012300E00223404A128892B213439AB23D4B1A80394B10221A7000F0BEFB374B1B78DBB208221340AC
:405DC000DBB2002B29D0354B1B68022213400ED03A4B02221A60324B1B889BB28822920013439AB22E4B1A800123BB6015E0294B1B78DBB201221340DBB2002B03D0254BE0
:405E000025221A7009E0234B24221A70304B1B68002B02D02C4B10221A601E4B1B78DBB204221340DBB2002B00D105E1194B1B78DBB201221340DBB2002B00D18AE0254B7E
:405E40001B680822134062D0234B1A68234B1B680F211940224B1B68CB18D31AFB60FB68082B02D90823FB600CE0FB68002B09D1104B104A126810490A401A600823FB604E
:405E80000123BB603FE0C046380200208C0E0740880E0740A4020020970200200C0F0740D0020020680007404C0F074004020740FFFFFEFF60000740FFFEFFFF000F074002
:405EC00017030000C80F0740880F0740E8020020CC020020CC0F0740C802002008030740BC020020B84B1A68B84B1B68D218B84B1B68DBB21370B54B1B685A1CB34B1A605C
:405F0000FB68013BFB60FB68002BEBD11EE0B14B1B680422134019D0AB4B1A68AB4B1B68D218AB4B1B68DBB21370A84B1B685A1CA64B1A60A54B1A68A74B1B689A4203D2EB
:405F4000A64B04221A6001E00123BB60A44BA54A1A6071E0A44B1B680222134032D0A34B02221A60A24B1B680F221A40A04B196880231B020B4001D0012300E00023D218FC
:405F80009C4B1B689A1A9B4B1A609A4B1A689A4B1A609A4B1B889BB28422920013439AB2964B1A80964B964A1268802149020A431A60934B924A126892490A401A6001238E
:405FC000BB6039E0904B1B681022134029D015E0884B1A688D4B1B689A420ED28C4A8D4B1968844B1B68CB181B78DBB21360814B1B685A1C7F4B1A6000E005E07C4B1B6821
:406000000F221340082BE3D17A4B1A687F4B1B689A4202D1804B40221A60804B804A1A600AE0794B1B684022134005D0714B1A68714B1A600123BB60BB68002B00D178E215
:40604000784B784A126878490A401A60774B00221A60714B00221A60754B1B78DBB202221340DBB2002B15D0724B1B78DBB201221340DBB2002B01D0092300E00A235F4A34
:40608000128892B213439AB25C4B1A80694B60221A704EE2514B684A126820210A4001D0182200E010221A6043E2624B1B78DBB210221340DBB2002B00D10CE25F4B1B781A
:4060C00001221340DBB2002B00D132E25C4B1B680222134056D05B4B02221A60444B1B680F221A40424B196880231B020B4001D0012300E00023D318FB60534B1B78DBB2D0
:406100001A1EFB689A4208D9504B1B78DBB204221343DAB24D4B1A700AE04B4B1B78DBB21A1CFB689A1A4A4B1B689A1A484B1A60474B1A68474B1A60374B00221A60424B91
:4061400000221A702E4B2E4A1268802149020A431A602B4B2A4A12682A490A401A603B4B1B78DBB202229343DAB2384B1A70374B1B78DBB201221343DAB2344B1A702D4B59
:4061800010221A702E4B1B680822134000D1A6E02C4B08221A60234B1A6880239B01134000D176E06AE02C4B1B78002B58D02B4B1B680F221340012B52D1214B1B684022CB
:4061C00013404DD05FE0C046C4020020BC02002040030740CC0F0740C802002068000740C00F0740ED0F00000C0F0740000F074008020740C0020020D8020020D0020020F8
:4062000004020740FFFFFEFF8C0F0740CC02002040020740D4020020880F0740800F0740F307000060000740FFFEFFFFC80F0740D2020020A402002064000740970200203B
:406240004C0F0740400F0740F8020020E8020020E4020020F40200209902002008030740B54B1A68B54B1B68D218B54B1B68DBB21370B24B1B685A1CB04B1A60B14B1B682D
:406280000F2213408FD1B04BAF4A1268AF490A401A60AF4B1B682022134007D0AD4B1B78DBB240221343DAB2AA4B1A70AA4B00221A60A74BA94A1A60A64B1B78DBB22022C9
:4062C0009343DAB2A34B1A70A24B1B78DBB210221343DAB29F4B1A70A14B10221A70A14B1B684022134057D09F4B1B78002B05D0934B1B687B60964B984A1A609B4B1B68DD
:406300001022134012D09A4B10221A60994B1A68994B1A608F4B1B78DBB202221343DAB28C4B1A708E4B12221A702CE0934B1A68824B1B68D31AFB60FB68072B03D8864B64
:4063400004221A6014E0FB68082B07D17E4B7E4A1268A02109020A431A6009E07A4B7A4A1268802189010A431A607B4B08221A60784B1B78DBB220221343DAB2754B1A70E4
:40638000774B11221A707E4B01221A607D4B7E4A1A607E4B01221A607D4B1B680822134036D0764B1A68654B1B68D31A083BFB60FB68082B04D90823FB600023BB6001E0A1
:4063C0000123BB6010E05C4B1A685C4B1B68D2185B4B1B68DBB21370584B1B685A1C574B1A60FB68013BFB60FB68002BEBD1BB68002B09D0544B544A1268802109020A4325
:406400001A60554B00221A60514B08221A602BE05F4B1B680422134026D0494B1B68FB60464B1A68554B1B689A4210D2574B01221A60414B1A68414B1B68D318FA68D2B22C
:406440001A703E4B1B685A1C3C4B1A6009E0FCF783FD404B1B78DBB240221343DAB23D4B1A703B4B04221A604A4B1B68102213405FD026E0404B1A68474B1B689A420ED2DC
:40648000464A474B19683C4B1B68CB181B78DBB21360394B1B685A1C374B1A6011E03F4BFF221A603F4B1B78DBB220221340DBB2002B06D13B4B1B78DBB20133DAB2394B72
:4064C0001A70394B1B680F221340082BD2D1374B10221A602DE0364B354A1268520052081A601F4B10221A70174B174A126817490A401A60144B144A12682E490A401A60DD
:40650000154B00221A601A4B00221A60274B134A1A600F4B284A1A601A4B1B4A1A60274B274A1A60224B224A1268802109060A431A60BD4604B080BDE0020020F00200205C
:40654000400307400803074060000740FF5FFFFFC00F0740E8020020C80F0740ED0F0000A40200204C0F07409902002064000740880F0740F4020020E4020020EC0200202C
:40658000800E0740400F0740FF0F00006C000740CC0F07408C0F0740FC02002040020740DC020020F802002008020740800F074000000740FFFCFFFFF3070000000F074035
:4065C0001703000090B585B000AF3C4B1B68002B02D03A4B1B689847394B1B78002B02D0384B01221A60384B1B68002B2DD0374B1B680422134028D01FE0354B1B687B60B5
:40660000344B1B680133FB60334B1A68FB689A4201D10023FB60314B1B68FA689A4203D12F4B20221A7008E0FA687B68101C191CFCF764FF274BFA681A602A4B1B680F2288
:406640001340DAD1284B04221A60284B1B68002B31D0274B1B68022213402CD022E0254B1A68254B1B689A4215D0234B1B680133BB60224B1A68BB689A4201D10023BB6099
:406680001F4CBB68181CFCF7BFFF031C23601A4BBA681A6006E01B4B1A4A126802218A431A6005E0184B1B680F221340082BD6D1164B02221A60BD4605B090BD38020020A9
:4066C00095020020C00E074088020020CC0F074040030740B002002090020020A8020020B802002008030740C00F0740A00200208C0F0740AC020020B40200209C020020E2
:4067000040020740880F074008020740800F074080B584B000AF0023BB60CA4B1B68002B02D0C84B1B689847C74B1B680122134002D0C64B00221A60C54B1B78DBB220226F
:406740001340DBB2002B00D1A8E0C24B1B7802221340DBB2002B00D1DAE0BF4B1A6880235B0013400AD0BD4B1B889BB2C022920013439AB2B94B1A800123BB60B64B1B6835
:40678000012213400AD0B54B1B889BB29022920013439AB2B14B1A800123BB60AD4B1B78072B0FD1AE4B1B68022213400AD0AB4B1B889BB2A022920013439AB2A74B1A800C
:4067C0000123BB60BB68002B00D1A1E0A04B1B78DBB201221340DBB2002B01D0012300E002239E4A128892B213439AB29B4B1A80984B1B78072B4DD1954B1B78DBB20822AF
:406800001340DBB2002B41D0954B1B680222134005D0934B00221A600123BB600FE0914B1A6880235B00134007D18B4B1B680122134002D00123BB6001E00023BB60BB683C
:40684000002B1FD0884B884A1268802149020A431A60854B844A126884490A401A60844B834A126883490A401A60834B834A1A60834B00221A60834B00221A60744B102203
:406880001A7045E0724B00221A7041E0704B00221A703DE06E4B00221A7039E06D4B1B7801221340DBB2002B32D06E4B1A680223FF3313402CD0664B1B78DBB201221340FA
:4068C000DBB2002B10D0704B1B78DBB202229343DAB26D4B1A706C4B1B78DBB209221343DAB2694B1A7010E0674B1B78DBB220229343DAB2644B1A70634B1B78DBB270223C
:4069000052421343DAB2604B1A70514B00221A704F4B1B78DBB220221340DBB2002B00D1A1E14C4B1B7802221340DBB2002B01D100F0DDFB484B1B681022134019D04E4BFA
:4069400010221A60424B1B78DBB201221340DBB2002B01D0012300E00223404A128892B213439AB23D4B1A80394B10221A7000F0BEFB374B1B78DBB208221340DBB2002BAA
:4069800029D0354B1B68022213400ED03A4B02221A60324B1B889BB28822920013439AB22E4B1A800123BB6015E0294B1B78DBB201221340DBB2002B03D0254B25221A70FB
:4069C00009E0234B24221A70304B1B68002B02D02C4B10221A601E4B1B78DBB204221340DBB2002B00D105E1194B1B78DBB201221340DBB2002B00D18AE0254B1B680822D7
:406A0000134062D0234B1A68234B1B680F211940224B1B68CB18D31AFB60FB68082B02D90823FB600CE0FB68002B09D1104B104A126810490A401A600823FB600123BB60F0
:406A40003FE0C046440200208C0E0640880E064041030020400300200C0F064048030020680006404C0F064004020640FFFFFEFF60000640FFFEFFFF000F06401703000096
:406A8000C80F0640880F06408003002044030020CC0F06404C0300200803064050030020B84B1A68B84B1B68D218B84B1B68DBB21370B54B1B685A1CB34B1A60FB68013BE3
:406AC000FB60FB68002BEBD11EE0B14B1B680422134019D0AB4B1A68AB4B1B68D218AB4B1B68DBB21370A84B1B685A1CA64B1A60A54B1A68A74B1B689A4203D2A64B0422A8
:406B00001A6001E00123BB60A44BA54A1A6071E0A44B1B680222134032D0A34B02221A60A24B1B680F221A40A04B196880231B020B4001D0012300E00023D2189C4B1B68DD
:406B40009A1A9B4B1A609A4B1A689A4B1A609A4B1B889BB28422920013439AB2964B1A80964B964A1268802149020A431A60934B924A126892490A401A600123BB6039E0F8
:406B8000904B1B681022134029D015E0884B1A688D4B1B689A420ED28C4A8D4B1968844B1B68CB181B78DBB21360814B1B685A1C7F4B1A6000E005E07C4B1B680F22134005
:406BC000082BE3D17A4B1A687F4B1B689A4202D1804B40221A60804B804A1A600AE0794B1B684022134005D0714B1A68714B1A600123BB60BB68002B00D178E2784B784A49
:406C0000126878490A401A60774B00221A60714B00221A60754B1B78DBB202221340DBB2002B15D0724B1B78DBB201221340DBB2002B01D0092300E00A235F4A128892B20F
:406C400013439AB25C4B1A80694B60221A704EE2514B684A126820210A4001D0182200E010221A6043E2624B1B78DBB210221340DBB2002B00D10CE25F4B1B7801221340B6
:406C8000DBB2002B00D132E25C4B1B680222134056D05B4B02221A60444B1B680F221A40424B196880231B020B4001D0012300E00023D318FB60534B1B78DBB21A1EFB68DF
:406CC0009A4208D9504B1B78DBB204221343DAB24D4B1A700AE04B4B1B78DBB21A1CFB689A1A4A4B1B689A1A484B1A60474B1A68474B1A60374B00221A60424B00221A70B5
:406D00002E4B2E4A1268802149020A431A602B4B2A4A12682A490A401A603B4B1B78DBB202229343DAB2384B1A70374B1B78DBB201221343DAB2344B1A702D4B10221A707D
:406D40002E4B1B680822134000D1A6E02C4B08221A60234B1A6880239B01134000D176E06AE02C4B1B78002B58D02B4B1B680F221340012B52D1214B1B68402213404DD04B
:406D80005FE0C046640300205003002040030640CC0F06404C03002068000640C00F0640ED0F00000C0F0640000F0640080206405403002060030020480300200402064005
:406DC000FFFFFEFF8C0F0640440300204002064058030020880F0640800F0640F307000060000640FFFEFFFFC80F06405C0300204103002064000640400300204C0F064052
:406E0000400F0640700300208003002088030020780300203C03002008030640B54B1A68B54B1B68D218B54B1B68DBB21370B24B1B685A1CB04B1A60B14B1B680F221340A1
:406E40008FD1B04BAF4A1268AF490A401A60AF4B1B682022134007D0AD4B1B78DBB240221343DAB2AA4B1A70AA4B00221A60A74BA94A1A60A64B1B78DBB220229343DAB21F
:406E8000A34B1A70A24B1B78DBB210221343DAB29F4B1A70A14B10221A70A14B1B684022134057D09F4B1B78002B05D0934B1B687B60964B984A1A609B4B1B6810221340EE
:406EC00012D09A4B10221A60994B1A68994B1A608F4B1B78DBB202221343DAB28C4B1A708E4B12221A702CE0934B1A68824B1B68D31AFB60FB68072B03D8864B04221A607E
:406F000014E0FB68082B07D17E4B7E4A1268A02109020A431A6009E07A4B7A4A1268802189010A431A607B4B08221A60784B1B78DBB220221343DAB2754B1A70774B1122C3
:406F40001A707E4B01221A607D4B7E4A1A607E4B01221A607D4B1B680822134036D0764B1A68654B1B68D31A083BFB60FB68082B04D90823FB600023BB6001E00123BB608B
:406F800010E05C4B1A685C4B1B68D2185B4B1B68DBB21370584B1B685A1C574B1A60FB68013BFB60FB68002BEBD1BB68002B09D0544B544A1268802109020A431A60554B7E
:406FC00000221A60514B08221A602BE05F4B1B680422134026D0494B1B68FB60464B1A68554B1B689A4210D2574B01221A60414B1A68414B1B68D318FA68D2B21A703E4B68
:407000001B685A1C3C4B1A6009E0FDF7F1FA404B1B78DBB240221343DAB23D4B1A703B4B04221A604A4B1B68102213405FD026E0404B1A68474B1B689A420ED2464A474B95
:4070400019683C4B1B68CB181B78DBB21360394B1B685A1C374B1A6011E03F4BFF221A603F4B1B78DBB220221340DBB2002B06D13B4B1B78DBB20133DAB2394B1A70394BBA
:407080001B680F221340082BD2D1374B10221A602DE0364B354A1268520052081A601F4B10221A70174B174A126817490A401A60144B144A12682E490A401A60154B00229D
:4070C0001A601A4B00221A60274B134A1A600F4B284A1A601A4B1B4A1A60274B274A1A60224B224A1268802109060A431A60BD4604B080BD7C0300206C0300204003064070
:407100000803064060000640FF5FFFFFC00F064080030020C80F0640ED0F0000410300204C0F06403C03002064000640880F0640780300208803002074030020800E06408F
:40714000400F0640FF0F00006C000640CC0F06408C0F06406803002040020640840300207003002008020640800F064000000640FFFCFFFFF3070000000F0640170300009E
:4071800003460B437FD4002243088B4274D303098B425FD3030A8B4244D3030B8B4228D3030C8B420DD3FF22090212BA030C8B4202D31212090265D0030B8B4219D300E022
:4071C000090AC30B8B4201D3CB03C01A5241830B8B4201D38B03C01A5241430B8B4201D34B03C01A5241030B8B4201D30B03C01A5241C30A8B4201D3CB02C01A5241830A9F
:407200008B4201D38B02C01A5241430A8B4201D34B02C01A5241030A8B4201D30B02C01A5241CDD2C3098B4201D3CB01C01A524183098B4201D38B01C01A524143098B425F
